:100000000C94DC000C9404010C9404010C94040185
:100010000C9404010C9404010C9404010C9404014C
:100020000C9404010C9404010C9404010C9404013C
:100030000C9404010C9404010C9404010C9404012C
:100040000C9456180C9404010C9449110C9423112F
:100050000C9404010C9404010C9404010C9404010C
:100060000C9404010C940401300733073607390758
:100070003C073F07420745074641494C4544207429
:100080006F2073656E642043414E0020005641523C
:100090005320002000200020000A4556454E5453AE
:1000A0003A0020000A4445562D4E554D42455253C4
:1000B0003A0020000A494E5445524E414C205641C8
:1000C000525320280020000A4E4F444520564152EA
:1000D000533A000A4E554D204556454E545320562E
:1000E0004152533A000A4E554D204556454E545301
:1000F0003A000A466C6167733A000A4E4E3A000AAB
:1001000043414E5F49443A004944454E543A004DFC
:10011000454D4F52592044554D50005374617274EF
:100120000053686F72743A204576656E7400202023
:10013000204576656E7420004C6F6E673A204E6FD6
:1001400064654E6F20007772697465207661722055
:10015000746F20656570726F6D00000000002400F0
:1001600027002A0000000000250028002B000000C6
:1001700000002300260029000404040404040404ED
:100180000202020202020303030303030102040842
:1001900010204080010204081020010204081020F1
:1001A0000000000800020100000304070000000036
:1001B00000000000AD24A92411241FBECFEFD8E019
:1001C000DEBFCDBF12E0A0E0B1E0E0E8F1E502C0A3
:1001D00005900D92A83DB107D9F726E0A8EDB2E051
:1001E00001C01D92A130B207E1F710E0CBEDD0E0E5
:1001F00004C02197FE010E948727CA3DD107C9F795
:100200000E94A0180C94B3280C9400002F923F92E7
:100210004F925F926F927F928F929F92AF92BF9216
:10022000CF92DF92EF92FF920F931F93CF93DF93C2
:1002300000D000D01F92CDB7DEB78091E4058F3F8C
:1002400029F48091E3058F3F09F44FC00E944A18BA
:100250000091E7051091E8052091E9053091EA0544
:10026000DC01CB01801B910BA20BB30B84369105F3
:10027000A105B105D0F180915705909158050597DA
:10028000A9F48091E605813041F460E08091E405B5
:100290000E94A1161092E6051EC061E08091E4055F
:1002A0000E94A11681E08093E60515C08091C504E7
:1002B000813039F460E08091E3050E94A11661E08D
:1002C00006C061E08091E3050E94A11660E0809184
:1002D000E4050E94A1160E944A186093E7057093F6
:1002E000E8058093E9059093EA058091EB058F3F3F
:1002F00009F4AEC00E9478162091EC05892B81F498
:10030000213009F0A5C00E944A18609359057093E6
:100310005A0580935B0590935C051092EC0598C09C
:10032000211196C081E08093EC050E944A1800914B
:10033000590510915A0520915B0530915C05DC014F
:10034000CB01801B910BA20BB30B8C019D01095EAD
:100350001340210931090738134121053105A8F45B
:100360002091C5048091570590915805213049F49A
:10037000059761F583E090E09093580580935705C9
:1003800067C0059709F064C0F5CF81379741A10593
:10039000B10508F45DC08091C504811135C080911C
:1003A000570590915805059729F360E08091E30582
:1003B0000E94A11680E00E944915809157059091F6
:1003C0005805049719F40E940601F7CF85E090E0E4
:1003D00090935805809357058091F5049091F60409
:1003E00020E52093C6049093C7048093C80410921C
:1003F000C9041092CA041092CB041092CC0410923B
:10040000CD040E94231324C01092C504409101051D
:100410004B7F409301054093A70465E170E083E9B9
:1004200094E00E9434098091010581FF09C0809108
:100430000B0590910C059093F6048093F50406C08B
:100440001092F6041092F50480E090E00E943315BB
:100450008091570590915805049709F079C00E9442
:100460004A180091590510915A0520915B05309169
:100470005C05DC01CB01801B910BA20BB30B893E09
:100480009340A105B10508F463C083E090E0909328
:100490005805809357054091DD05AEE5B5E081E054
:1004A000841740F02091DD0530E0EDE5F5E080E0D7
:1004B00090E019C02D919FEF980F092F10E0F801DF
:1004C000E35AFA4F3081F801E25AFA4F231718F431
:1004D00030839150F2CF20838F5FE2CF41915981D9
:1004E000541738F0019641E0480F4983821793076B
:1004F000ACF349814093970462E170E083E994E0B2
:100500000E94340959815093F4048091080588238E
:10051000F9F08091F5049091F60422E52093C60449
:100520009093C7048093C8041092C9041092CA041F
:100530001092CB041092CC041092CD04E9816E2F5E
:1005400070E080E090E026EC34E043E00E9432125C
:1005500022242394312C39EE632E34E0732E45ECA3
:10056000A42E45E0B42E53E0C52ED12C552453942F
:1005700062E6862E912C109209058091510590918A
:100580005205892B09F038C6309252052092510548
:100590008091550590915605181619062CF0109269
:1005A00052051092510528C680915305909154052B
:1005B000CC9724F01092540510925305E7EBF5E028
:1005C000A0915305B0915405AF5EBA4F12968C912D
:1005D0008193809153059091540501969093540511
:1005E00080935305809155059091560501979093FE
:1005F00056058093550525E0E63CF20709F7109271
:10060000520510925105E1EEF4E011926E167F064C
:10061000E1F71092ED041092EF041092EE041092A4
:10062000F0048091B7058093D3048091B90580933D
:10063000E9048091BA058093EA048091BB05809318
:10064000EB048091BC058093EC04EDEBF5E0819127
:10065000DF01AD5DB1098C93AE16BF06C1F7809185
:10066000E1048093D104843008F4B4C0873009F4E5
:10067000B1C0282F2F7B2F3309F4ACC092EA980F1A
:10068000923008F4A7C0982F9F7D9F3909F4A2C02B
:10069000863B09F49FC08F3D09F49CC03CEF380FA6
:1006A000333008F49AC038EF380F333008F495C06F
:1006B0003FED380F333008F490C0803409F48DC01A
:1006C0003CEB380F373008F488C08C3409F485C00F
:1006D000382F3F7740EA430F423008F47EC033366C
:1006E00009F47BC0903809F478C03EE7380F343005
:1006F00008F473C0823A09F470C030E4380F323025
:1007000008F46BC036EA380F323008F469C030E7BD
:10071000380F353008F464C038E6380F333008F449
:100720005FC09D59923008F45BC0982F977F905B13
:10073000923008F455C09DE4920F923008F450C0F6
:1007400091E3980F933008F44BC09CE2980F9230DD
:1007500008F446C098E2980F923008F441C093E242
:10076000980F9230E8F190E1980F9230C8F19AE03A
:10077000980F9630A8F193E0980F933088F194EF9A
:10078000980F923080F190EF980F923060F18234A0
:1007900051F190EB980F9A3030F194EA980F923023
:1007A00010F191E9980F9730F0F09BE6980F933095
:1007B000D0F095E6980F9230B0F0223BA1F0253BA7
:1007C00091F09EE2980F923070F0823E61F08F3E81
:1007D00069F409C084E090E00BC081E090E008C0BB
:1007E00083E090E005C082E090E002C080E090E00D
:1007F0009093D5048093D4048091B80581115092D0
:10080000F00480E00E94661381FB112710F98EEC42
:1008100094E00E948211082F882319F0112309F413
:10082000BFC48EEC94E00E9497118823C9F08EEC2F
:1008300094E00E94AC119A8389830097B1F0AC01D7
:1008400060E070E083E994E00E94150A20919D0425
:1008500030E0482F50E0241735070CF4C0C436C0F0
:100860000023E1F01130D1F404C0002389F11130EC
:1008700079F58EEC94E00E94D711009779F0AC01E5
:1008800060E070E083E994E00E94150A20919D04E5
:1008900030E0482F50E024173507C4F48EEC94E084
:1008A0000E94AC119A838983892B91F049815A81E6
:1008B00060E070E083E994E00E94150A20919D04B5
:1008C00030E0482F50E02417350714F08F5F01C047
:1008D00080E0809309058091F004882389F080915D
:1008E000F5049091F604892B59F06091F40470E0BE
:1008F00080E090E026EC34E040E00E9432123BCEF3
:10090000E0905705F090580534E0E316F10401F546
:100910008091D30481112FCE2091DD05233608F07C
:100920002ACE8091E90440E1849FC0011124909176
:10093000EA04929596959770892B8093D004E22FC4
:10094000F0E0E35AFA4F80832F5F2093DD0513CE4A
:100950008091D4049091D5048230910561F140F4E6
:10096000019709F010C4E091E005F091E1051AC08B
:10097000E091DE05F091DF058330910519F00497D1
:1009800031F001C48091010580FDFDC30BC0809151
:10099000010580FDF8C38091D104873009F01BC4A4
:1009A0000C940000309709F4EEC361E974E08EEC1A
:1009B00094E00995E8C31091D1048EEC94E00E9474
:1009C000F2119A8389836091F5047091F6047C8317
:1009D0006B838617970771F0C7010297039750F44E
:1009E0001D3009F477C0103109F4B3C0113109F09A
:1009F000C2CDF3C01D3509F4C1C1A0F5133509F40A
:100A000040C178F4103109F4A4C020F41D3009F07D
:100A1000B2CD60C0113109F4E0C0123409F407C14D
:100A2000AACD163509F456C138F4143509F430C18D
:100A3000153509F442C19FCD173509F466C1183543
:100A400009F099CD1092ED0580919A0494E7909366
:100A5000C6049C819093C704EB81E093C804809303
:100A6000C90486C3153909F422C210F5123709F4F6
:100A7000A9C120F4113709F48DC17DCD133709F4D4
:100A8000D1C1153709F077CD1092ED0582E680933C
:100A9000F4048093970442E662E170E083E994E015
:100AA0000E9434098091F5049091F60422E558C320
:100AB000123B09F4B3C238F4163909F42AC21C39BE
:100AC00009F47EC258CD123D09F4DBC2153F09F48A
:100AD000D0C251CD8B819C81892B09F44CCD1092D1
:100AE000ED058091F40490E0EB81FC81E817F907B3
:100AF00031F09093F6048093F5040E9433158091B1
:100B00000105909100052091FF043091F50440917A
:100B1000F604F6EBF093C6044093C7043093C80480
:100B20002093C9049093CA048093CB045092CC04C0
:100B300026E02093CD046B817C81660F771F4B816B
:100B40005C81460F571FBA0180E090E00E941018A8
:100B50003EC01092ED058091F40490E06B817C81A1
:100B60006817790731F09093F6048093F5040E949A
:100B700033158091570590915805059709F0FBCCE6
:100B8000E6ECF4E08EEC94E011928E179F07E1F70B
:100B9000809103059091060520910505309104058B
:100BA00040910005509102056091FF047FEE709323
:100BB000C6046093C7045093C8044093C90430939B
:100BC000CA042093CB049093CC048093CD040E945C
:100BD0002313882309F4CFCCD6C21092ED0580915F
:100BE000F40490E0EB81FC81E817F90731F0909371
:100BF000F6048093F5040E94331580915705909177
:100C00005805059791F48091FD049091FC04209182
:100C1000FB043091FA044091F9045091F80460917A
:100C2000F704F2EEF093C604C4CF83E085C01092BF
:100C3000ED0525E0E216F104C1F78EEC94E00E9488
:100C4000F2119093F6048093F5040E94331580917D
:100C5000F5049091F60422E52093C6049093C7040E
:100C60008093C8041092C9041092CA041092CB0455
:100C70001092CC041092CD04D0925805C092570522
:100C8000A6CF1092ED05109258051092570573CC1F
:100C90001092ED058091F40490E04B815C8148173F
:100CA000590731F09093F6048093F5040E943315B0
:100CB000D0925805C092570580C1EF2809F05BCC4F
:100CC00040E067E170E083E994E00E94340910920B
:100CD0009A0451CC1092ED058091040590919A04EC
:100CE000891B90E79093C6045C815093C7046B8185
:100CF0006093C8048093C9041092CA041092CB0474
:100D00001092CC041092CD0462CF1092ED050091A8
:100D10009A04002309F42FCCFC8010E082EFE82E27
:100D2000011709F428CC812F0E948D15FC018091B8
:100D3000AD04882321F08AE00E948A141CCC8381B0
:100D4000928121813081E092C604F092C7047B81B8
:100D50007093C8043093C9042093CA049093CB04C1
:100D60008093CC041093CD040E942313882321F098
:100D700088E790E00E94B7141F5FD2CF29813A81A3
:100D80004B815C812417350709F0F5CB81E00E9487
:100D90004915F1CB1092ED051091E4048FEF810F0E
:100DA0000E9466139091AD049111C5CF97E990937D
:100DB000C6045C815093C7046B816093C804109390
:100DC000C90472C01092ED05E6ECF4E08EEC94E0FC
:100DD00011928E179F07E1F70E940515182F8FEFCC
:100DE000810F0E948D15FC018091AD04882311F0C4
:100DF00086E0A2CF838192812181308142EF4093AE
:100E0000C6047C817093C704EB81E093C8043093DF
:100E1000C9042093CA049093CB048093CC0410930C
:100E2000CD04AEC11092ED059091E40491110DC076
:100E30008BE98093C604FC81F093C7042B81209337
:100E4000C8041092C90488E02FC0492F50E0FA016D
:100E50003197E830F105E0F4EC5CFF4F0C94872704
:100E60008091FF0416C08091020513C08091000597
:100E700010C0809104050DC0809105050AC08091C5
:100E8000060507C08091030504C08091010501C0DB
:100E900080E02BE92093C6043C813093C7044B814A
:100EA0004093C8049093C9048093CA0463C110920C
:100EB000ED058EEC94E00E94D7119A8389838EEC25
:100EC00094E00E94F21149815A81BC0183E994E0C7
:100ED0000E94150A898310925D0510925E0510929A
:100EE0005F0510926005482F6DE575E083E994E099
:100EF0000E94520B598158137BCF652F70E020E080
:100F000040E083E994E00E948C09882309F433CB04
:100F100012CF8091ED0581112ECB6091E4046150D8
:100F200069837091E5047B836B31F1F47E3F81F43A
:100F300083E994E00E94D30B5092ED059092F60461
:100F40008092F50482E690E00E94331582E68B835E
:100F50009B819093F40490939704492F62E170E091
:100F600083E994E00E94340980910605E9818E1797
:100F7000F0F04B816E2F83E994E00E94BA098091D2
:100F8000F5049091F60429E52093C6049093C704D4
:100F90008093C8041092C9041092CA041092CB0422
:100FA0001092CC041092CD040E94231306C0F98144
:100FB000FF3F19F089E00E948A1450920A05DBCAAB
:100FC0001092ED050E9405158B830E941C158983E4
:100FD000809105052981821708F4ADCE422F41503A
:100FE0006B81615083E994E00E94EA099091AD041D
:100FF0009111A1CE9091F5042091F60435EB309338
:10100000C6042093C7049093C8043B813093C9045D
:1010100049814093CA048093CB04AEC01092ED0581
:10102000EF2869F50E941C15182F0E948D159A83D0
:10103000898340E0612F83E994E00E94EA0990915E
:10104000AD049111D5CEE981FA819381228131815C
:101050004081F3EDF093C6044093C7043093C80475
:101060002093C9049093CA041093CB048093CC04BA
:1010700085C08091ED0581117ECAEF2889F182E05B
:101080005BCE8091ED05811176CA8EEC94E00E94D2
:10109000D711F82EE92E0E941C158B832091E704AE
:1010A0002D833A8130935D05498140935E05E0923E
:1010B0005F05F0926005482F6DE575E083E994E0E7
:1010C0000E94520B5B81581393CE652F70E02D81E7
:1010D00040E083E994E00E948C0981112CCE3BC052
:1010E0008EEC94E00E94D711E82E492E0E941C1528
:1010F0008B83F090E8040E9405158D836A816093CC
:101100005D05798170935E0540925F05E092600510
:10111000482F41506DE575E083E994E00E94520B41
:10112000682F70E0ED818E2F90E0019768177907A6
:1011300009F05ECE4B8141502F2D83E994E00E944F
:101140008C0990E03B81232F30E021503109821738
:10115000930709F0F0CD8091F5049091F60429E50C
:101160002093C6049093C7048093C8041092C904C6
:101170001092CA041092CB041092CC041092CD04A9
:101180000E942313F8C9E091DE05F091DF05309746
:1011900009F4F1C961E974E08EEC94E00995EBC9BA
:1011A0008EEC94E00E94D7119A8389838EEC94E0B0
:1011B0000E94F21149815A81BC0183E994E00E94A6
:1011C000150A20919D0430E0482F50E02417350780
:1011D0000CF427CB7BCB8E3509F4E2CBE3CB002399
:1011E00009F464CB113009F444CB8EEC94E00E94F6
:1011F000AC119A8389835ACB80E00F900F900F90A7
:101200000F900F90DF91CF911F910F91FF90EF9072
:10121000DF90CF90BF90AF909F908F907F906F9016
:101220005F904F903F902F9008950C9425280C9438
:1012300025280C942F27FC0181E391E09183808382
:10124000DF015396CF014B961D92A817B907E1F71E
:10125000138E148E158E168E178E11A210A212A246
:10126000089508950C942727CF92DF92EF92FF9272
:101270001F93CF93DF937C016B01142FCB010E944E
:101280003209811721F0612FC6010E941909F70167
:10129000838590E004962285289FE001299FD00D48
:1012A000112485859685C80FD91FC535F1E0DF0764
:1012B0005CF5CC0DDD1DCE010E943209181721F01E
:1012C000612FCE010E941909F701838590E00496F1
:1012D0004285489F9001499F300D11248585968550
:1012E000820F931FC80FD91FCE010E943209181711
:1012F00059F0612FCE01DF91CF911F91FF90EF90B8
:10130000DF90CF900C941909DF91CF911F91FF903E
:10131000EF90DF90CF900895CF93DC01942F179634
:101320004C91179750E06417750718F081E0890F0A
:101330001FC01B96EC911B979E17C0F7422FC92F19
:10134000CD01F0E03496E69FD001E79FB00DF69F07
:10135000B00D1124FC0125853685BD01620F731F78
:10136000EC2FF0E034966E0F7F1F0E9434098C2F13
:10137000CF910895EF92FF921F93CF93DF93FC01DB
:101380002185261708F1142F7C01C62FD0E0FE011D
:10139000EE0FFF1FE95AFB4F842F90E0918380836B
:1013A0006996CE010E943209181771F086E491E027
:1013B0000E94B714412FBE01C701DF91CF911F9149
:1013C000FF90EF900C943409DF91CF911F91FF9023
:1013D000EF900895FC01128E87816817B0F4238581
:1013E000421798F430E02C5F3F4F629FD001639F1B
:1013F000B00D1124858596858A0F9B1F50E04C5FA8
:101400005F4F840F951F0C9432098FEF828F0895E0
:10141000FC01128E8185681728F4862F90E049968A
:101420000C9432098FEF828F0895EF92FF920F9301
:101430001F93CF93DF93DC01252F3327862FC72FF0
:10144000DD271C2F17960C911797EFE0F4E090E042
:10145000772755270917D9F0111102C0882351F0B9
:10146000E080F180CE15DF0579F4E288F3886E150F
:101470007F0551F4E4A0F5A02E153F0529F4E6A858
:10148000F7A84E155F0541F09F5F3296E3CF1A969D
:101490009C9181E0890F01C0892FDF91CF911F912D
:1014A0000F91FF90EF900895AF92BF92CF92DF928D
:1014B000EF92FF921F93CF93DF93EC017B01FB012F
:1014C000E858FF4F108180913603882309F460C0EB
:1014D0008FE392E00E940C14812F0E94D3141123F9
:1014E00009F458C0809136038823D1F18FE492E04B
:1014F0000E940C14812F0E94D3148BE592E00E946D
:101500000C14CE010E94971197012E5F3F4F690185
:10151000882339F0CE010E94AC11AC0160E070E08C
:1015200009C0CE010E94D7115C01CE010E94F211C8
:10153000A501BC01C6010E94150AF701ED58FF4F35
:101540009081891730F440E0682FC6010E94EA09B3
:1015500001C080E00E94D31481EA91E00E94FE1352
:10156000193009F095C00E94EB17609351037093F6
:10157000520380935303909354030E94EB1760939C
:101580004D0370934E0380934F039093500380C09C
:101590001111E6CF80913603882309F479C0CE017A
:1015A0000E948211882389F088E391E00E949C14B4
:1015B000CE010E94F2110E940E148EE291E00E9470
:1015C0009C14CE010E94D7110CC0CE010E9497112D
:1015D0008823B1F081E291E00E949C14CE010E9428
:1015E000AC110E940E148FE991E0DF91CF911F9111
:1015F000FF90EF90DF90CF90BF90AF900C94AB1323
:1016000086E692E00E940C1460E170E08B810E94FB
:10161000C5148CE692E00E940C14CE010E94F211D7
:101620000E940E1484E792E00E940C142B8D80E13E
:10163000289F900111248C8D829586958770822B2E
:101640008A836AE070E00E94C5148DE792E00E94F0
:101650000C148B8990E025E0959587952A95E1F704
:101660008C836AE070E00E94C5148CE892E00E94CE
:101670000C148091570590915805DF91CF911F91DF
:10168000FF90EF90DF90CF90BF90AF900C94E31459
:10169000DF91CF911F91FF90EF90DF90CF90BF909F
:1016A000AF900895AF92BF92CF92DF92EF92FF92E8
:1016B0001F93CF93DF93DC011A969C911A974917D9
:1016C00018F081E0890F4EC0142FFB017D01242FFB
:1016D00030E0D901AA0FBB1FA15FBB4F808190E012
:1016E0008D939C93D901AA0FBB1FAF5DBB4F818126
:1016F00090E08D939C93D901AA0FBB1FAD5CBB4FAB
:10170000828190E08D939C93D901AA0FBB1FAB5BA4
:10171000BB4F838190E08D939C93D7011B968C9156
:101720001B9790E00496829F6001839FD00C929F4C
:10173000D00C11241D968D919C911E97C80ED91E18
:101740005B01B4E0AB0EB11CEB01C61AD70AB601BF
:101750006C0F7D1F4991C7010E943409CA15DB0532
:10176000B1F7812FDF91CF911F91FF90EF90DF9024
:10177000CF90BF90AF900895FC0180E090E023856A
:1017800030E0821793073CF4A281B381A80FB91F00
:101790001C920196F4CF82E68483158286EC8683C0
:1017A0001782148A0895EF92FF920F931F93CF939D
:1017B000DF9300D000D0CDB7DEB78C010E94BC0B08
:1017C000F8018285878319821A828EE38B8384EEE7
:1017D0008C83E12CF12CF8014285842F90E0019755
:1017E000E816F906CCF44E2DBE016F5F7F4FC8019D
:1017F0000E94520B8C818F5F8C83811103C08B817F
:101800008F5F8B8320E040E0B701C8010E948C0904
:10181000FFEFEF1AFF0ADFCF19821A8282E18B8372
:1018200087E68C834150BE016F5F7F4FC8010E94E5
:10183000520BF801628570E06150710920E040E0D0
:10184000C8010E948C0942E060E0C8010E94BA0908
:1018500040E069E1C8010E94BA094FEF6AE1C8019E
:101860000E94BA09FF24F39444E06F2DC8010E943E
:10187000BA0961E06F0D44E6C8010E94BA0962E04E
:101880006F0D4BE4C8010E94BA09F3E0FF0E89E135
:10189000F812EACF42E66BE1C8010E94BA0940E0C3
:1018A0006CE1C8010E94BA0948E560E070E0C80137
:1018B0000E943409F801448162E170E0C8010E948D
:1018C0003409F801458163E170E0C8010E943409E0
:1018D000F801468164E170E0C8010E943409F80112
:1018E000448965E170E0C8010E943409F80147812C
:1018F00067E170E0C8010E943409F801438568E19E
:1019000070E0C8010E94340960E08DEF93E00E940E
:10191000190960E08EEF93E00E94190960E08FEFF3
:1019200093E00E941909C8010E94A10C0F900F902A
:101930000F900F90DF91CF911F910F91FF90EF903B
:1019400008955F926F927F928F929F92AF92BF9213
:10195000CF92DF92EF92FF920F931F93CF93DF937B
:10196000EC010E94BC0B8B8590E004962A85289F91
:101970007001299FF00C11248D859E85E80EF91EBB
:1019800085E5E81681E0F8060CF06AC08FEF93E079
:101990000E943209782E8EEF93E00E943209182FB0
:1019A0008DEF93E00E943209711681F0781681F074
:1019B000181306C0612F8EEF93E00E941909712E53
:1019C0005701AA0CBB1C00E010E024C07816C1F33C
:1019D000672D8FEF93E00E941909F2CFC8010E9492
:1019E0003209682E48018E0C9F1CC4010E943209E6
:1019F000582E6501C00ED11EC6010E943209651421
:101A000091F068120BC0662DC4010E9419097394ED
:101A10000F5F1F4F0E151F050CF30DC05812F8CFA6
:101A2000652DC801F2CF681699F37394662DC6012F
:101A30000E941909EDCF8FEF93E00E9432097816CA
:101A400079F0672D8DEF93E00E941909672D8EEFD5
:101A500093E00E941909672D8FEF93E00E94190906
:101A600080E090E00E943209883519F0CE010E9492
:101A7000D30B82E190E00E9432098C8383E190E0F5
:101A80000E9432098D8384E190E00E9432098E83A6
:101A900085E190E00E9432098C8B87E190E00E9402
:101AA00032098F83DF91CF911F910F91FF90EF90BB
:101AB000DF90CF90BF90AF909F908F907F906F906E
:101AC0005F90089529E431E0FC0131832083828115
:101AD0009381009711F00C9425280895CF93DF93FC
:101AE000EC010E94620DCE01DF91CF910C9425286C
:101AF00021E531E0FC0121933193CF010C94620D7B
:101B0000CF93DF93EC010E94780DCE01DF91CF914E
:101B10000C94252808953F924F925F926F927F9286
:101B20008F929F92AF92BF92CF92DF92EF92FF92ED
:101B30000F931F93CF93DF9310920A0580E00E94CA
:101B4000661381FB992790F99093D802982F991FDB
:101B50009927991F90934903992339F086FB2227EF
:101B600020F920934C03806202C010924C03682F2E
:101B700070E09B0175E0359527957A95E1F7217026
:101B8000220F62956170620F6093FA0280914C039C
:101B9000811118C070E06F5F7F4F81E792E00E9473
:101BA000732770934B0360934A0380913603882315
:101BB00089F185E992E00E940C148091FA020E945A
:101BC000D31428C01092FB0260E082E00E94A116AC
:101BD00060E084E00E94A11660E086E00E94A11609
:101BE00060E088E00E94A11661E083E00E94A116F7
:101BF00061E085E00E94A11661E087E00E94A116E5
:101C000061E089E00E94A1168DE790E090934B037C
:101C100080934A0309ED12E07801C0E08C2F0E9406
:101C20008D15FC0182819381982789279827F701D8
:101C3000819391937F01CF5FC83081F7C0913203C8
:101C4000D09133036AE183E994E00E94080A90E0AE
:101C5000C817D90709F481C0C0E0D0E0C12CD12C4D
:101C60007601C394A0903203B09033030C2E02C0CF
:101C7000B594A7940A94E2F76AE183E994E00E949C
:101C8000080A90E00C2E02C0959587950A94E2F719
:101C9000A826B926A0FE45C08091E90290E00C2E4E
:101CA00002C0959587950A94E2F780FD0EC02091B9
:101CB000E902D701C6010C2E04C0880F991FAA1F84
:101CC000BB1F0A94D2F7822B0FC09091E902B70193
:101CD000A6010C2E04C0440F551F661F771F0A94DF
:101CE000D2F74095842F89238093E9028091E902FD
:101CF00090E00C2E02C0959587950A94E2F790919A
:101D0000D802F8016081718180FF06C081E09111E5
:101D100080E00E94781305C081E0911180E00E946C
:101D2000571421960E5F1F4FC830D10509F09ACF86
:101D30006AE183E994E00E94080A90E090933303FB
:101D4000809332038091E90290919C04993128F0AC
:101D500090E090938A0480938904CCEFD2E083E0F2
:101D6000382EE12CF12C03E010E066246394712CF2
:101D700027E4822E23E0922E3BE4C32ED12C40EEAA
:101D8000A42EBB24B3948091490381111FC06EEF30
:101D9000630D83E994E00E94080A90E08330910586
:101DA0001CF09B838A8302C01B830A836FEF630D41
:101DB00083E994E00E94080A90E0833091051CF0CA
:101DC0009D838C8307C01D830C8304C01D830C83FB
:101DD0001B830A8323010E2C02C0440C551C0A9459
:101DE000E2F78091480390E0842195214816590636
:101DF00011F58091000190910101892BE1F480910E
:101E000049038823C1F080914C03811114C0632DD4
:101E100083E994E00E94080A8F3F09F064C0B09201
:101E20000101A092000180913603882309F45BC070
:101E300089E992E02AC0632D83E994E00E94080AB0
:101E4000282F30E03F832E8381508E3F08F44BC013
:101E500080914C038823E1F0DF82CE825524539495
:101E6000530C80910605831530F04BE4632D83E914
:101E700094E00E94BA096E81852D0E9454138091CE
:101E80003603882381F18BEA92E00E94FE132BC077
:101E9000109201011092000180914803482A40925B
:101EA0004803809147032F3F310511F48F7701C01C
:101EB00080688093470380913603882321F084EC67
:101EC00092E00E94FE13E7E3F3E0119211928E1666
:101ED0009F06D9F780914903882329F06E8181E01C
:101EE000830D0E945413FFEFEF1AFF0A269623E09A
:101EF000320E3BE1331247CF8CE10E946613881FFC
:101F00008827881F809336038823A1F08CE1DF9116
:101F1000CF911F910F91FF90EF90DF90CF90BF90E6
:101F2000AF909F908F907F906F905F904F903F9079
:101F30000C946613DF91CF911F910F91FF90EF905A
:101F4000DF90CF90BF90AF909F908F907F906F90D9
:101F50005F904F903F900895E62FF0E0EE0FFF1F47
:101F6000E651FD4F81112DC08081918197FF05C001
:101F700081E090E09183808308958230910509F497
:101F80004DC0019691838083029709F047C08091EC
:101F9000E90290E0062E02C0959587950A94E2F733
:101FA00080FD3CC02091E90281E090E0A0E0B0E03B
:101FB00004C0880F991FAA1FBB1F6A95D2F7822BF6
:101FC0002BC080819181181619061CF41182108291
:101FD00008958F3F2FEF920709F101979183808336
:101FE0000196E1F48091E90290E0062E02C09595F9
:101FF00087950A94E2F780FF11C02091E90281E001
:1020000090E0A0E0B0E004C0880F991FAA1FBB1F9A
:102010006A95D2F7809582238093E9020895CF9242
:10202000DF92EF92FF920F931F93CF93DF936C0198
:102030007A018B01C0E0D0E0CE15DF0581F0D80138
:102040006D918D01D601ED91FC910190F081E02D13
:10205000C6010995892B11F02196EECF7E01C701AB
:10206000DF91CF911F910F91FF90EF90DF90CF9074
:102070000895089580E090E00895FC01538D448D0B
:10208000252F30E0842F90E0821B930B541710F023
:10209000CF96089501970895FC01918D828D981730
:1020A00061F0828DDF01A80FB11D5D968C91928D3C
:1020B0009F5F9F73928F90E008958FEF9FEF089539
:1020C000FC01918D828D981731F0828DE80FF11D02
:1020D000858D90E008958FEF9FEF0895FC01918D1D
:1020E000228D892F90E0805C9F4F821B91098F7316
:1020F0009927089582E793E00E946E1021E0892BD2
:1021000009F420E0822F0895FC01848DDF01A80FDF
:10211000B11DA35ABF4F2C91848D90E001968F730F
:102120009927848FA689B7892C93A089B1898C912E
:10213000837080648C93938D848D981306C002887D
:10214000F389E02D80818F7D80830895EF92FF9247
:102150000F931F93CF93DF93EC0181E0888F9B8DCA
:102160008C8D981305C0E889F989808185FD26C08A
:10217000F62E0B8D10E00F5F1F4F0F731127E02E0F
:102180008C8DE8120CC00FB607FCFACFE889F989EC
:10219000808185FFF5CFCE010E948410F1CF8B8D19
:1021A000FE01E80FF11DE35AFF4FF0829FB7F8944C
:1021B0000B8FEA89FB89808180620AC09FB7F894FF
:1021C000EE89FF896083E889F98980818370806462
:1021D00080839FBF81E090E0DF91CF911F910F91AD
:1021E000FF90EF900895CF93DF93EC01888D8823C3
:1021F000C9F0EA89FB89808185FD05C0A889B98974
:102200008C9186FD0FC00FB607FCF5CF808185FF4E
:10221000F2CFA889B9898C9185FFEDCFCE010E94BC
:102220008410E7CFDF91CF91089580E090E0892B73
:1022300029F00E947A1081110C94000008950E94E8
:10224000AE280C9425281F920F920FB60F921124DE
:102250002F933F934F935F936F937F938F939F93AE
:10226000AF93BF93EF93FF9382E793E00E948410B4
:10227000FF91EF91BF91AF919F918F917F916F915E
:102280005F914F913F912F910F900FBE0F901F9034
:1022900018951F920F920FB60F9211242F938F93C0
:1022A0009F93EF93FF93E0918203F09183038081EA
:1022B000E0918803F091890382FD12C090818091A2
:1022C0008B038F5F8F7320918C03821751F0E09105
:1022D0008B03F0E0EE58FC4F958F80938B0301C089
:1022E0008081FF91EF919F918F912F910F900FBE61
:1022F0000F901F9018958EBD00000DB407FEFDCF06
:102300008EB50895FC019381892F8F7D805982308D
:1023100058F080E3890F823038F081E0903F31F04F
:10232000913F21F080E0089581E008950895FC0137
:102330009381892F8F7D8859823058F088E2890FE8
:10234000823038F081E0983F31F0993F21F080E011
:10235000089581E008950895FC0193819B35C1F0B3
:1023600088E6890F8330A0F0892F8F798D598230CC
:1023700078F088E4890F823058F088E2890F823043
:1023800038F088E0890F843018F080E090E00895FC
:1023900086E0890F823010F09B3519F48489958985
:1023A00002C0868997899827892798270895FC0174
:1023B0009381292F2F7B2059263070F080E5890FDB
:1023C000853050F080E1890F823030F0935F933098
:1023D00018F080E090E008958689978998278927EA
:1023E00098270895FC0193899234A9F180EB890F15
:1023F0008B3088F184EA890F823068F181E9890F96
:10240000873048F180E7890F8F3028F180E5890F08
:10241000873008F188E4890F8230E8F0292F2F7B7C
:102420002D5B2230C0F080E3890F8630A0F088E277
:10243000890F823080F083E2890F823060F0933E12
:1024400051F080E1890F823030F0935F973018F0BF
:1024500080E090E0089584899589982789279827B6
:10246000089508954F925F926F928F929F92AF92CC
:10247000BF92CF92DF92FF920F931F93CF93DF9380
:1024800000D000D0CDB7DEB71092AE046093AF0499
:102490007093B0048093B1049093B204493008F073
:1024A00048E04093B3041092BC04A4EBB4E0F901FB
:1024B00050E0CF01821B930B841795071CF4819188
:1024C0008D93F7CFA12CB12C409018015090190199
:1024D00060901A014E0124E0820E911C49825A82BA
:1024E0006B82CE0101966C01F82E0D2DF601119133
:1024F0006F01812F0E94C715982F987083FD02C02D
:102500001F5F05C08C149D0489F710E092E0FFEF77
:10251000AF1ABF0A923029F422E3A216B104F1F6F1
:102520007CC082E3A816B10409F477C04091B304DB
:1025300064EB74E085E0810F0E9407168091BC0473
:10254000813029F48091B30480648093B304609156
:10255000B30484E0810F0E9432164091AF04509181
:10256000B0046091B1047091B2048091AE048130E6
:10257000B1F44C835B83AB0166277727942F9C7162
:10258000842F8370E8E09E9F800D112488608A83E9
:1025900065E0569547956A95E1F749830DC0CA01F4
:1025A00023E0969587952A95E1F789834295440F14
:1025B000407E4A831C821B8244E06F2D702F812F46
:1025C0000E940716115048E068E0812F0E94E41530
:1025D000C12CD12CFFEFCF1ADF0A812F0E94C71523
:1025E00083FF05C022E3C216D104A1F718C082E31D
:1025F000C816D104A1F01092AF041092B00410924A
:10260000B1041092B2041092B3041092AE0410926E
:10261000BC041092BD0480E003C086E001C087E0E6
:102620000F900F900F900F90DF91CF911F910F910E
:10263000FF90DF90CF90BF90AF909F908F906F9062
:102640005F904F900895CF93DF93C091C604C63B2F
:1026500021F0C295C695C77001C0C7E0CF5F81E089
:102660008093C3048093C4046091F40470E080E01C
:1026700090E026EC34E04C2F0E943212811102C00F
:1026800080E00FC0D3E06091F40470E080E090E05F
:1026900026EC34E04C2F0E943212882389F3D1506B
:1026A00091F7DF91CF910895E1E9F4E0A5EFB4E06F
:1026B0009C9111962C9137E935AB26AB97AB80AF47
:1026C00061AF12AE13AE14AE0C9423131092AD048E
:1026D00090919C04891720F08FEF8093AD040895AA
:1026E000E82FF0E0EE0FFF1FE95AFB4F80810895BD
:1026F0001F93CF93DF938823A1F0EB018BE10E941E
:102700006613182F8BE10E94661380E98093C6043C
:102710001092C7041093C804D093C904C093CA048C
:102720000FC08091F5049091F60428E92093C60427
:102730009093C7048093C8047093C9046093CA043B
:102740001092CB041092CC041092CD04DF91CF9163
:102750001F910C942313009769F0FC010190002055
:10276000E9F73197AF01481B590BBC0182E793E0B1
:102770000C940F1080E090E008958F929F92AF929A
:10278000BF920F931F93CF93DF93CDB7DEB7A1977F
:102790000FB6F894DEBF0FBECDBF19A2423008F4C9
:1027A0004AE08E010F5D1F4F842E912CA12CB12C7D
:1027B000A50194010E943D27E62FB901CA010150ED
:1027C0001109EA3014F4E05D01C0E95CD801EC9332
:1027D000232B242B252B61F7C8010E94AB13A19654
:1027E0000FB6F894DEBF0FBECDBFDF91CF911F9122
:1027F0000F91BF90AF909F908F900895CF93DF93EC
:102800000E94AB13EC018FE991E00E94AB138C0F97
:102810009D1FDF91CF9108950C94AB13BC0180E014
:1028200090E04AE00C94BD13CF92DF92EF92FF92BA
:10283000CF93DF936115710559F4682F82E793E018
:10284000DF91CF91FF90EF90DF90CF900C94A61086
:102850006C01990FEE08FF086A307105E9F4F7FE84
:1028600019C06DE282E793E00E94A610EC01662792
:102870007727CB016C197D098E099F094AE00E94D8
:10288000BD138C0F9D1FDF91CF91FF90EF90DF90D4
:10289000CF9008954AE001C0462FC701B601DF91ED
:1028A000CF91FF90EF90DF90CF900C94BD131F93CA
:1028B000CF93DF938823A1F0EB018BE10E94661395
:1028C000182F8BE10E94661381E98093C604109251
:1028D000C7041093C804D093C904C093CA040FC09E
:1028E0008091F5049091F60429E92093C604909311
:1028F000C7048093C8047093C9046093CA041092FB
:10290000CB041092CC041092CD04DF91CF911F9193
:102910000C942313E1E9F4E0A5EFB4E09C91119647
:102920002C913FE635AB26AB97AB80AF11AE12AE24
:1029300013AE14AE0C9423130F931F93CF93DF9316
:102940008C01C0E0D0E0F801EC0FFD1F649166231C
:1029500041F082E793E00E94A610892B11F02196A6
:10296000F2CFCE01DF91CF911F910F910895CF93B8
:10297000DF930E949C14EC018FE991E00E94AB135D
:102980008C0F9D1FDF91CF910895AB01682F4115EA
:10299000510521F482E793E00C94A61070E080E0EA
:1029A00090E00C94BD13CF93DF936AE070E00E9437
:1029B000C514EC018FE991E00E94AB138C0F9D1FB1
:1029C000DF91CF910895CF93DF936AE070E00E948A
:1029D0001414EC018FE991E00E94AB138C0F9D1F42
:1029E000DF91CF910895CF93C82F482F60EE8FE0ED
:1029F0000E94E4158FE00E94C715982F907E81E019
:102A00009C1301C080E0CF9108958091D10482375A
:102A100021F08C3911F0853B19F48091E40408957C
:102A2000853F19F48091E6040895823F19F480915E
:102A3000E804089580E008958091D1048C3911F064
:102A4000853B19F48091E5040895823B11F0823DA5
:102A500019F48091E6040895853F19F48091E70404
:102A6000089580E00895CF93DF93C1E9D4E09F8378
:102A70008887492F63E170E083E994E00E9434097C
:102A8000488564E170E083E994E0DF91CF910C9494
:102A90003409CF93DF93CDB7DEB728970FB6F894FC
:102AA000DEBF0FBECDBF1092DD058093080584E028
:102AB00090E0909358058093570582E08093C3047B
:102AC00083E08093C4046091F40470E080E090E0BF
:102AD000FE013196AE01475F5F4F9F011192E417EF
:102AE000F507E1F741E04093BC0440E00E94321258
:102AF0001092BC040E944A186093590570935A05BD
:102B000080935B0590935C0528960FB6F894DEBF22
:102B10000FBECDBFDF91CF9108951092A304109204
:102B2000A4041092A5041092A6041092AD049091F2
:102B30009D04981720F090919A04981720F481E052
:102B40008093AD0421C090E0FC01EE0FFF1FE15F18
:102B5000FB4F20812093A304FC01EE0FFF1FEF5DCC
:102B6000FB4F20812093A404FC01EE0FFF1FED5CBE
:102B7000FB4F20812093A504880F991FFC01EB5B7C
:102B8000FB4F80818093A60483EA94E008951F930D
:102B9000CF93DF93182FC1E9D4E060E08DA50E94A8
:102BA000A11683E00E947B11812F0E947B1180E09F
:102BB0000E947B11182F61E08DA50E94A116812F24
:102BC000DF91CF911F910895FF920F931F93CF93A1
:102BD000DF93F82E062F142FC1E9D4E060E08DA515
:102BE0000E94A11685E00E947B118F2D0E947B110F
:102BF000802F0E947B11812F0E947B1161E08DA5A7
:102C0000DF91CF911F910F91FF900C94A116FF922D
:102C10000F931F93CF93DF93C82FF62E072F142FF8
:102C200060E08091BE040E94A11682E00E947B11A8
:102C30008C2F0E947B11CF2DD02FCE01810F911DA3
:102C40008C01C017D10721F089910E947B11F9CF27
:102C500061E08091BE04DF91CF911F910F91FF90B1
:102C60000C94A1160F931F93CF93DF93082F162F69
:102C7000C1E9D4E060E08DA50E94A11682E00E9427
:102C80007B11802F0E947B11812F0E947B1161E0BC
:102C90008DA5DF91CF911F910F910C94A1168330D8
:102CA00081F028F4813099F08230A1F008958730C6
:102CB000A9F08830B9F08430D1F4809180008F7D04
:102CC00003C0809180008F7780938000089584B541
:102CD0008F7702C084B58F7D84BD08958091B00048
:102CE0008F7703C08091B0008F7D8093B0000895EE
:102CF000CF93DF93282F30E0F901E056FE4F849107
:102D0000F901E457FE4FD491F901E858FE4FC49100
:102D1000CC2391F081110E944F16EC2FF0E0EE0FC2
:102D2000FF1FE259FE4FA591B491EC91ED2381E094
:102D300090E021F480E002C080E090E0DF91CF914C
:102D400008951F93CF93DF93282F30E0F901E056C9
:102D5000FE4F8491F901E457FE4FD491F901E858F0
:102D6000FE4FC491CC23C1F0162F81110E944F1643
:102D7000EC2FF0E0EE0FFF1FEC59FE4FA591B49140
:102D80009FB7F894111104C08C91D095D82302C03C
:102D9000EC91DE2BDC939FBFDF91CF911F910895C3
:102DA000FF920F931F93CF93DF93182FF62EC72F09
:102DB000D42F60E08091BE040E94A11683E00E949F
:102DC0007B11812F0E947B110F2D1C2FC0E0CD178E
:102DD00051F0C83041F080E00E947B11F8018193EE
:102DE0008F01CF5FF4CF61E08091BE04DF91CF917E
:102DF0001F910F91FF900C94A1160F931F93CF93E7
:102E0000DF9300D000D0CDB7DEB7182F1092AE04FC
:102E10001092AF041092B0041092B1041092B20458
:102E200044E0BE016F5F7F4F0E94D0162A81398136
:102E3000822F90E065E0959587956A95E1F748E0E7
:102E4000349F800D911D1124092E000CAA0BBB0B81
:102E50008093AF049093B004A093B104B093B204F4
:102E600023FF29C032E0880F991FAA1FBB1F3A9584
:102E7000D1F72370820F911DA11DB11DBA2FA92F6B
:102E8000982F88272B81820F911DA11DB11DBA2F6C
:102E9000A92F982F88272C81820F911DA11DB11D6C
:102EA0008093AF049093B004A093B104B093B204A4
:102EB00081E08093AE048FEF810F0E94C715082F29
:102EC00084E0810F0E94C71503FF04C091E0909336
:102ED000BC0402C01092BC04482F4F704093B3044E
:102EE00064EB74E085E0810F0E94D0160F900F9084
:102EF0000F900F90DF91CF911F910F9108951F9325
:102F0000CF93DF93C1E9D4E060E08DA50E94A116C4
:102F100080EA0E947B1180E00E947B11182F61E003
:102F20008DA50E94A116812FDF91CF911F91089549
:102F3000CF93DF9390E0FC01E457FE4F2491FC0116
:102F4000E858FE4F8491882361F190E0880F991F23
:102F5000FC01E65AFE4FC591D491FC01EC59FE4F9D
:102F6000A591B491611109C09FB7F894888120950B
:102F700082238883EC912E230BC0623061F49FB7CB
:102F8000F8948881322F309583238883EC912E2BFF
:102F90002C939FBF06C08FB7F894E8812E2B28830F
:102FA0008FBFDF91CF9108958E3008F08E508770DB
:102FB000806480937C0080917A00806480937A00A2
:102FC00080917A0086FDFCCF809178002091790075
:102FD00090E0922B08953FB7F8948091F905909175
:102FE000FA05A091FB05B091FC0526B5A89B05C08C
:102FF0002F3F19F00196A11DB11D3FBFBA2FA92F78
:10300000982F8827820F911DA11DB11DBC01CD01F4
:1030100042E0660F771F881F991F4A95D1F70895E0
:103020008F929F92AF92BF92CF92DF92EF92FF92D8
:103030006B017C010E94EB174B015C01C114D104B0
:10304000E104F104F1F00E94EB17DC01CB018819D7
:103050009909AA09BB09883E9340A105B10570F3FF
:1030600021E0C21AD108E108F10888EE880E83E059
:10307000981EA11CB11CC114D104E104F10419F77C
:10308000DDCFFF90EF90DF90CF90BF90AF909F90FB
:103090008F9008952FB7F8946091F5057091F6051B
:1030A0008091F7059091F8052FBF08951F920F9218
:1030B0000FB60F9211242F933F938F939F93AF934B
:1030C000BF938091F5059091F605A091F705B09119
:1030D000F8053091F40523E0230F2D3720F40196F5
:1030E000A11DB11D05C026E8230F0296A11DB11D2B
:1030F0002093F4058093F5059093F605A093F705CA
:10310000B093F8058091F9059091FA05A091FB051F
:10311000B091FC050196A11DB11D8093F905909316
:10312000FA05A093FB05B093FC05BF91AF919F9169
:103130008F913F912F910F900FBE0F901F90189578
:10314000CF93DF9300D01F92CDB7DEB7789484B5CC
:10315000826084BD84B5816084BD85B5826085BD93
:1031600085B5816085BD80916E00816080936E0021
:103170001092810080918100826080938100809113
:1031800081008160809381008091800081608093C4
:1031900080008091B10084608093B1008091B00084
:1031A00081608093B00080917A00846080937A007F
:1031B00080917A00826080937A0080917A008160A9
:1031C00080937A0080917A00806880937A001092D0
:1031D000C10062E08FEF0E94981728E031E03B8346
:1031E0002A8300E1C02E01E0D02E8EE5E82E83E098
:1031F000F82E90E1A92E91E0B92E61E0EA81FB81E1
:103200008191FB83EA830E949817F60111916F0167
:1032100060E0812F0E949817812F0E94D417812F80
:103220000E94D417F701819391937F012A813B81FA
:10323000A216B30611F7A7EFB4E0FD01119234E036
:10324000EF3FF307D9F7EAE6F1E081918D9341E092
:10325000E137F407D1F788E5809300058DE080938E
:10326000FF0486E38093020581E08093030580914B
:10327000010583608093010586EC90E0A0E0B0E05A
:1032800080930B0590930C05A0930D05B0930E054C
:1032900061E080E00E94A11661E081E00E94A11639
:1032A00084E59AE09093DF058093DE058AE08093C1
:1032B000BE0461E00E94981761E08091BE040E9404
:1032C000A11664E170E07B836A83B2E8AB2EB1E0C3
:1032D000BB2E16E9E12E11E0F12EDFB6F8948091B5
:1032E0005503811126C0F5018491F7012491E82F3F
:1032F000F0E0EE0FFF1FE65AFE4FA591B4919C91AE
:10330000822F892321F461E08AE00E94A11661E006
:103310008AE00E9498178CB580618CBD8CB5806462
:103320008CBD61E08DE00E94981761E08BE00E9407
:103330009817809155038F5F80935503DFBE60E03F
:103340008091BE040E94A11680EC0E947B1161E076
:103350008091BE040E94A1166AE070E080E090E0D7
:103360000E94101880E80E94F3148823B1F06AE0EC
:1033700070E080E090E00E9410186EE170E080E064
:1033800090E00E9410182A813B81215031093B8333
:103390002A83232B09F0A1CF4BC06AE070E080E0C4
:1033A00090E00E94101861E08AE20E94321661EB00
:1033B00089E20E94321665E088E20E9432166AE0D5
:1033C00070E080E090E00E94101810E360E0812F30
:1033D0000E94321660E080E1810F0E94321660E0A8
:1033E00080E2810F0E9432161F5F1E3379F760E082
:1033F00080E60E94321660E080E70E94321663E0A9
:103400008BE20E94321644E064E680E60E94E415F6
:1034100040E060E680E70E94E41580E00E94F3143B
:103420008111A5CF6AE070E080E090E00E94101862
:103430008FEF8093EB058CE10E946613881F88272D
:10344000881F80933603882309F423C2E091820306
:10345000F091830382E08083E0917E03F0917F030B
:103460001082E0918003F091810380E180831092CB
:103470008A03E0918603F091870386E08083E091E0
:103480008403F0918503808180618083E0918403CF
:10349000F0918503808188608083E0918403F091BE
:1034A0008503808180688083E0918403F0918503A7
:1034B00080818F7D808345E050E05B834A8368EEA6
:1034C00073E080E090E00E94101882E791E00E9493
:1034D0000C146A817B81615071097B836A83672B3D
:1034E00071F781EA91E00E94FE1384E791E00E9467
:1034F0000C146AE070E081E090E00E94141484E80B
:1035000091E00E940C1486E090E00E94E31483E9AD
:1035100094E00E94A10C8FE091E00E94B71488E033
:1035200091E00E949C1480E090E00E9432096AE0E1
:1035300070E00E94C5148FEF90E00E949C146AE036
:1035400070E0809197040E94C5148AEF90E00E9479
:103550009C14809198049091990498278927982722
:103560009093A9048093A8040E940E1482EF90E027
:103570000E949C146AE070E08091A7040E94C51428
:1035800085EE90E00E949C146AE070E080919A04BD
:103590000E94C51483ED90E00E949C146AE070E0E4
:1035A00080919E040E94C51487EC90E00E949C14B8
:1035B0006AE070E080919C040E94C51486E891E066
:1035C0000E940C146AE070E089E190E00E941414FB
:1035D00082E092E00E940C1480919C0490E06AE0EA
:1035E00070E048960E9414148DE891E00E940C143B
:1035F000198280919C04C980C81688F48C2D90E0B3
:1036000049960E94320960E170E00E94C51485EC81
:1036100090E00E949C1429812F5F2983EACF84EBDC
:1036200090E00E949C146AE070E080E190E00E94CB
:10363000141481E991E00E940C146AE070E082E0C9
:1036400090E00E94141482E092E00E940C146AE060
:1036500070E081E190E00E9414148DE891E00E94F6
:103660000C1442E050E05B834A838A819B810E9474
:10367000320960E170E00E94C51482EB90E00E9484
:103680009C146A817B816F5F7F4F7B836A83623189
:10369000710559F784EA90E00E949C146AE070E09A
:1036A00080919F040E94C51487E991E00E940C1448
:1036B0006AE070E08091A2040E94C51482E092E06A
:1036C0000E940C1480919F0490E00197880F991F2D
:1036D0002091A204820F911D6AE070E001960E9481
:1036E00014148DE991E00E940C146AE070E082E00D
:1036F00090E00E9414148DE891E00E940C1410E0F8
:1037000080919F04181738F5812F90E0880F991F3A
:103710009B838A838091A204CA80DB80C80ED11C5F
:10372000C6010E94320960E170E00E94C5148091D8
:10373000A204EA80FB80E80EF11CC70101960E94FA
:10374000320960E170E00E94C51482EA90E00E94B4
:103750009C141F5FD5CFC090A004D090A104DB8241
:10376000CA8289E990E00E949C146AE070E080912E
:103770009D040E94C51487E991E00E940C146AE040
:1037800070E08A819B810E94141482E092E00E9482
:103790000C1480919D0424E0829FC00CD11C112444
:1037A000C6016AE070E001970E9414148DE991E06F
:1037B0000E940C146AE070E084E090E00E9414140F
:1037C0008DE891E00E94FE1310E080919D0418178F
:1037D00008F05FC0EA80FB8034E0E30EF11C8A81D0
:1037E0009B810E94320960E170E00E94C5144A8109
:1037F0005B814F5F5F4F5B834A8387E990E00E9464
:103800009C14CA80DB80CE14DF0449F785E990E080
:103810000E949C14C12ED12CCC0CDD1CE12CF12C6F
:10382000F701EC0DFD1DE15FFB4F60E170E0808171
:1038300091810E94141483E990E00E949C1422E17B
:10384000E20EF11C38E4E316F10451F78DE890E044
:103850000E949C1400E080919E040817A0F48A81C5
:103860009B810E94320960E170E00E94C5144A8188
:103870005B814F5F5F4F5B834A838BE890E00E94E0
:103880009C140F5FE8CF8FE991E00E94AB131F5F9C
:103890009CCF80913603811110C01092E30581E026
:1038A0008093E40561E080E00E9498178091E40530
:1038B0008F3F19F061E00E9498176AE183E994E074
:1038C0000E94080A90E090933303809332030CEF38
:1038D00012E051E05983698183E994E00E94080A6B
:1038E00090E0F8019383828369816F5F83E994E0BC
:1038F0000E94080A90E0F8019583848369816E5FD5
:1039000083E994E00E94080A90E0F8019783868397
:1039100080913603811108C069816D5F69830A5FF8
:103920001F4F6931C1F622C082EA91E00E940C1457
:10393000F801828193810E94E31489EB91E00E9457
:103940000C14F801848195810E94E31480ED91E0CC
:103950000E940C14F801868197819C01220F331F6D
:10396000820F931F44960E94E314D6CF0E948B0DC2
:1039700080913603882321F08BE191E00E94B714F7
:1039800088248394912C0CE3202E312C412C512C33
:10399000320143940E94EB176093510370935203DA
:1039A000809353039093540300916E0310916F031F
:1039B00020917003309171036B017C01C01AD10A10
:1039C000E20AF30A49EEC41643E0D406E104F10426
:1039D00048F40E94060180910A058823B1F10E94F3
:1039E0008B0D33C060936E0370936F0380937003ED
:1039F0009093710319820E947F17837001F1AEC604
:103A00008091BF048093CD058091C0048093CE0542
:103A10008091C1048093CF058091C2048093D0052A
:103A20002093CB058091BC048111C4C61092CC05B3
:103A30008091510590915205892B09F4BFC6998157
:103A40009F5F99839230B9F6C4CF80914D039091D6
:103A50004E03A0914F03B09150030097A105B1050B
:103A600009F462C0C0905103D0905203E090530318
:103A7000F0905403C81AD90AEA0AFB0A4091F504E7
:103A80005091F60420E137E2429FC001439F900D20
:103A9000529F900D1124A0E0B0E08C159D05AE055D
:103AA000BF0508F041C080914903811135C009ED7F
:103AB00012E01B821A828091E90290E00A8002C023
:103AC000959587950A94E2F79091D802F801608164
:103AD000718180FFBFC681E0911180E00E94781360
:103AE000809136032A813B812F5F3F4F79018111FD
:103AF000B7C6FB82EA820E5F1F4F9701283031055F
:103B0000D1F68091E90290919C04993128F090E0DF
:103B100090938A048093890410924D0310924E036F
:103B200010924F031092500380914C03882309F4A4
:103B3000DCC0F090FB02CF2CD12C86010E5F1F4F12
:103B400007701127F601E05FFE4F80810E94781612
:103B5000E82E96012F5F3F4F3B832A83F901E05FF8
:103B6000FE4F80810E947816D82E6F2D8E2D0E94D8
:103B7000AC0F61E06F0D8D2D0E94AC0F8091E902BA
:103B800090E00F2C02C0959587950A94E2F780FF8C
:103B90000BC08091E90290E00A8002C0959587955C
:103BA0000A94E2F780FFB6C68091E90290E00F2CFC
:103BB00002C0959587950A94E2F780FD0BC080912D
:103BC000E90290E00A8002C0959587950A94E2F791
:103BD00080FDAAC68091E90290E00F2C02C0959565
:103BE00087950A94E2F780FF7DC08091E90290E01A
:103BF0000A8002C0959587950A94E2F780FF72C00B
:103C0000F694EF2DF0E0EE0FFF1FEA5AFC4F808193
:103C10009181892B09F466C087EF91E00E940C1412
:103C20008091FB0290E06AE070E001960E9414141B
:103C3000E091FB02E695F0E0EE0FFF1FEA5AFC4F21
:103C400080819181019709F07BC68EEF91E00E94FF
:103C5000FE1384EE91E00E940C14E091FB02F0E070
:103C6000EE0FFF1FE752FD4F808191810E940E14DD
:103C700084E092E00E940C148091D802882309F419
:103C800062C685E591E00E940C148DEE91E00E94E1
:103C9000FE138091FB02382F3695432F50E0440FDE
:103CA000551F5B834A83FA01EA5AFC4F40815181D8
:103CB0002091D80290E0880F991FFC0141305105F6
:103CC00009F044C6E752FD4F6081718181E0211106
:103CD00080E00E9478136A817B816A5A7C4FFB01E5
:103CE000118210820093FB020DC480914A039091CF
:103CF0004B03092E000CAA0BBB0B409151035091B2
:103D00005203609153037091540384179507A607DB
:103D1000B70708F0F7C380914903C090FB02C9823E
:103D2000882309F4E3C10C2D10E058012FEFA21AEB
:103D3000B20A650137E0C322DD24F801E05FFE4FDF
:103D4000E080EA828E2D0E94D4177C018091FA02D5
:103D5000823020F48A810E94D4177C01F801E85F48
:103D6000FE4F61E080810E94A11680910001909138
:103D70000101000F111F803E21E09207D0F4209135
:103D80004703F801E95CFC4F27FF0CC0208131811B
:103D90002E0D3F1D31832083019690930101809366
:103DA000000107C080819181E816F90610F4F182C4
:103DB000E082C501880F991FA80EB91EF501EE0F0C
:103DC000FF1FE450FD4F80819181880F991F880F5C
:103DD000991FF801E651FD4F8E159F050CF097C015
:103DE0008081918197FF03C09182808277C1950184
:103DF000220F331FD901A850BD4F2D913C9182173E
:103E0000930709F46BC101969183808328173907C2
:103E100009F064C1E981E695E695E695F0E0EE0FDC
:103E2000FF1FEE5CFC4F80819181098002C0959557
:103E300087950A94E2F77C0131E0E322FF2480FFBA
:103E400019C08091E90290E0098002C0959587959C
:103E50000A94E2F780FD42C12091E902D301C20138
:103E6000098004C0880F991FAA1FBB1F0A94D2F7AC
:103E7000822B1AC08091E90290E0098002C09595DA
:103E800087950A94E2F780FF29C19091E902B30176
:103E9000A201098004C0440F551F661F771F0A94B2
:103EA000D2F74095842F89238093E9028091E9021B
:103EB00090E0098002C0959587950A94E2F7909169
:103EC000D802F801E752FD4F6081718180FF06C082
:103ED00081E0911180E00E94781305C081E091118A
:103EE00080E00E9457148091E90290919C049931DE
:103EF00028F090E090938A0480938904809136039F
:103F0000882309F4EBC0EF2809F4A0C0A2C0808187
:103F10009181181619061CF411821082DFC09501D8
:103F2000220F331FD901A650BD4F2D913C9144273C
:103F30005527481B590B4217530709F4CFC0AC0152
:103F40004150510951834083A401481B590B241748
:103F5000350709F0C3C0E981E695E695E695F0E0FE
:103F6000EE0FFF1FEE5CFC4F80819181098002C043
:103F7000959587950A94E2F77C0151E0E522FF24AC
:103F800080FF1BC08091E90290E0098002C09595F6
:103F900087950A94E2F780FFA1C09091E902B301EE
:103FA000A201098004C0440F551F661F771F0A94A1
:103FB000D2F74095842F892318C08091E90290E0C0
:103FC000098002C0959587950A94E2F780FD86C026
:103FD0002091E902D301C201098004C0880F991F12
:103FE000AA1FBB1F0A94D2F7822B8093E90280910B
:103FF000E90290E0098002C0959587950A94E2F75E
:104000009091D802F801E752FD4F6081718180FFE5
:1040100006C081E0911180E00E94781305C081E024
:10402000911180E00E9457148091E90290919C04C4
:10403000993128F090E090938A04809389048091CC
:104040003603882309F44AC0EF2819F086E691E088
:1040500002C082E691E00E940C148AED91E00E9479
:104060000C148091FB0290E06AE070E001960E94DF
:10407000141484EE91E00E940C14E091FB02F0E035
:10408000EE0FFF1FE752FD4F808191810E940E14B9
:1040900084E092E00E940C148091E90290E000908C
:1040A000FB0202C0959587950A94E2F780FF03C052
:1040B00082E691E002C086E691E00E940C148091B5
:1040C000D802882319F085E591E002C08CE591E0E3
:1040D0000E940C148DEE91E00E94FE13C092FB0230
:1040E000F601E85FFE4F60E080810AC2C9800C2DB6
:1040F00010E058012FEFA21AB20A750137E0E3224F
:10410000FF24F801E05FFE4FC080CA828C2D0E9420
:10411000D4176C018091FA02823020F48A810E94C7
:10412000D4176C01F701E85FFE4F20812A8360E01D
:10413000822F0E94A1162091000130910101C80137
:10414000880F991F203E41E03407B0F4FC01E95C80
:10415000FC4FDC01A25ABC4F6D917C916C197D091A
:1041600040815181460F571F518340832F5F3F4F3E
:104170003093010120930001FC01E25AFC4F608161
:1041800071819501220F331F2A0D3B1DFB01EC1994
:10419000FD09D901AA0FBB1FA450BD4F4D915C91E1
:1041A000DA01AA0FBB1F4A0F5B1F4C5E5F4F4E1711
:1041B0005F070CF09EC0C616D7060CF09AC0FC0133
:1041C000E651FD4F4081518157FF03C091828082AB
:1041D00079C1220F331FD901A850BD4F2D913C91B9
:1041E0004217530709F46EC14F5F5F4F51834083FD
:1041F0002417350709F066C1E981E695E695E6954D
:10420000F0E0EE0FFF1FEE5CFC4F20813181098052
:1042100002C0359527950A94E2F7890101701127AC
:1042200020FF1BC02091E90230E0098002C03595D3
:1042300027950A94E2F720FD45C12091E902B301D8
:10424000A201098004C0440F551F661F771F0A94FE
:10425000D2F7422B4093E9021CC02091E90230E0E2
:10426000098002C0359527950A94E2F720FF2AC1FC
:104270003091E902B301A201098004C0440F551F27
:10428000661F771F0A94D2F74095242F232320938B
:10429000E9022091E90230E0098002C035952795B6
:1042A0000A94E2F73091D802FC01E752FD4F608199
:1042B000718181E020FF05C0311180E00E947813F8
:1042C00004C0311180E00E9457148091E90290915E
:1042D0009C04993128F090E090938A04809389049B
:1042E00080913603882309F4EDC0012B09F4A2C0A4
:1042F000A4C0FC01E651FD4F408151811416150602
:104300001CF411821082DEC0220F331FD901A65087
:10431000BD4F2D913C9166277727641B750B621763
:10432000730709F4CFC0BA016150710971836083CA
:10433000B401641B750B2617370709F0C3C0E98168
:10434000E695E695E695F0E0EE0FFF1FEE5CFC4F7C
:1043500020813181098002C0359527950A94E2F7C2
:1043600089010170112720FF1DC02091E90230E072
:10437000098002C0359527950A94E2F720FFA2C074
:104380003091E902B301A201098004C0440F551F16
:10439000661F771F0A94D2F74095242F232320937A
:1043A000E9021AC02091E90230E0098002C0359587
:1043B00027950A94E2F720FD85C02091E902B30118
:1043C000A201098004C0440F551F661F771F0A947D
:1043D000D2F7422B4093E9022091E90230E00980B4
:1043E00002C0359527950A94E2F73091D802FC0176
:1043F000E752FD4F6081718181E020FF05C03111DE
:1044000080E00E94781304C0311180E00E945714AC
:104410008091E90290919C04993128F090E090936A
:104420008A048093890480913603882309F44AC062
:10443000012B19F086E691E002C082E691E00E942D
:104440000C148AED91E00E940C148091FB0290E024
:104450006AE070E001960E94141484EE91E00E94DC
:104460000C14E091FB02F0E0EE0FFF1FE752FD4F4E
:10447000808191810E940E1484E092E00E940C14CD
:104480008091E90290E00090FB0202C0959587952B
:104490000A94E2F780FF03C082E691E002C086E65C
:1044A00091E00E940C148091D802882319F085E5D0
:1044B00091E002C08CE591E00E940C148DEE91E039
:1044C0000E94FE13E092FB02F701E05FFE4FC08006
:1044D000C9828C2D0E94D4178701000F111F025A28
:1044E0001C4FF801918380838091FA02823030F46E
:1044F00089810E94D417F8019183808361E08A81C9
:104500000E94A1168091000190910101803E91408E
:104510000CF421C18FEF9FEF909301018093000174
:1045200027E333E03B832A830CEF12E044E0E42EE0
:10453000F12C20E030E054E1A52EB12CA401022E94
:1045400002C0440F551F0A94E2F78091480390E09F
:1045500084239523B9016F5F7F4F6B01481759077B
:1045600009F0DFC09091490380914703EA81FB8104
:10457000992321F190914C03911120C087FF0FC026
:10458000808191814E96B1010E945F27F9E0F69FEC
:10459000C001F79F900D11246AE070E031C02081C6
:1045A000318180E094E0821B930B6AE070E00E940E
:1045B0005F272C5E3F4F620F731F26C087FF13C01B
:1045C000808191814E96B1010E945F27FCE0F69FA9
:1045D000C001F79F900D11246AE070E00E945F27F0
:1045E0006C5E7F4F0FC0808191814E96B1010E9419
:1045F0005F27F3E1F69FC001F79F900D1124B501ED
:104600000E945F27EA81FB8171836083809136037A
:104610008823D9F087E092E00E940C146AE070E0F1
:10462000C6010E9414148FE092E00E940C1485E0F1
:1046300092E00E940C14EA81FB81808191810E94AA
:104640000E1485E092E00E940C14EA81FB818081C7
:104650009181449710F4B182A08220914903EA81AC
:10466000FB8180819181222339F0969587959695DB
:1046700087959183808309C0449763E070E00E942E
:104680005F27EA81FB8171836083EA81FB818081FE
:104690009181892B11F491828082EA81FB81808152
:1046A00091818F3F910520F02EEF30E03183208300
:1046B000EA81FB814081842F9181F8012681378135
:1046C0002817390771F197838683E9826FEF6E0DA2
:1046D00080910605861720F083E994E00E94BA09CC
:1046E000809136038823C1F08FE192E00E940C1480
:1046F0006AE070E0C7010E94141485E092E00E9415
:104700000C146AE070E0F801868197810E9414140D
:104710008AE292E00E940C14F801668189810E946D
:104720005413EA81FB8111921192FB83EA83960173
:104730000A5F1F4FF3E0EF0EF11C2830310509F03E
:10474000FDCE1092480380913603882321F088E340
:1047500092E00E94FE130E9415111CC90E947F174F
:10476000C980C11008C080FF6AC981E60E94FD1699
:1047700040E061E007C081FF62C981E70E94FD1649
:1047800040E062E08CE20E94E4152091B304E1E98C
:10479000F4E0AF014159544031968091B30490E068
:1047A000481759070CF02CC982A1DF01A15CBE4F4C
:1047B0008C93EFCF51E05093CC053AC961E070E0A3
:1047C000709352056093510580914F05909150056B
:1047D000CC9724F01092500510924F05EBECF5E0C9
:1047E00080914F05909150052191DC01AF5EBA4F49
:1047F00012962C9301969093500580934F058091CB
:104800005505909156050196909356058093550550
:1048100075E0EA3DF70721F7CD97BCF0809153058D
:10482000909154050F968C3391052CF49093540578
:104830008093530504C010925405109253058CE3E5
:1048400090E0909356058093550510925205109272
:104850005105F5C881E0911180E00E94571440C9CC
:10486000E091FB02E695E695E695F0E0EE0FFF1F7E
:10487000EE5CFC4F808191810A8002C095958795FE
:104880000A94E2F780FF0CC08091E90290E00A8070
:1048900002C0959587950A94E2F780FD0CC00EC082
:1048A0008091E90290E00A8002C0959587950A946C
:1048B000E2F780FD03C086E691E002C082E691E067
:1048C0000E940C148AED91E00E940C146AE070E0E2
:1048D000C7010E94141484EE91E00E940C14F801A8
:1048E000808191810E940E148091D802882319F052
:1048F00085E591E002C08CE591E00E940C148DEEFC
:1049000091E00E94FE136AE070E080E090E00E9477
:104910001018EFC8EF2DE695F0E0EE0FFF1FEA5AF2
:10492000FC4F9182808240C9EF2DE695F0E0EE0FBA
:10493000FF1FEA5AFC4F82E090E0918380834AC9CE
:1049400081E092E084C98CE591E09DC9E552FD4F7C
:10495000BBC981E994E00C94780D8F929F92AF923D
:10496000BF92CF92DF92EF92FF920F931F93CF935C
:10497000DF93CDB7DEB7C654D1090FB6F894DEBFCA
:104980000FBECDBF109275031092740388EE93E0B2
:10499000A0E0B0E08093760390937703A093780330
:1049A000B09379038FE191E0909373038093720346
:1049B00085EC90E090937F0380937E0384EC90E0FD
:1049C000909381038093800380EC90E09093830325
:1049D0008093820381EC90E090938503809384031D
:1049E00082EC90E0909387038093860386EC90E0BE
:1049F000909389038093880310928B0310928C0309
:104A000010928D0310928E0381E591E090939204B1
:104A10008093910489E491E09093940480939304AB
:104A20008EEC94E00E941B0981E491E09093F304E2
:104A30008093F204E7EFF4E08FEF94E020E321931A
:104A40008E179F07E1F789E391E090931205809319
:104A500011051092ED05109207051092DD0527E172
:104A6000FE013196AEEAB4E001900D922A95E1F78D
:104A70009A83898321961FAE1EAE219723961FAE7F
:104A80001EAE239725961FAE1EAE259727961FAE06
:104A90001EAE2797DE011396E3E1F5E08D91819339
:104AA00045E0EF34F407D1F71092500510924F050E
:104AB0001092520510925105109254051092530510
:104AC000109256051092550589E491E09A838983E6
:104AD0008DE18A8789E08B8781E08C878D8786E3EB
:104AE000888B88E390E09F878E8781E090E00E942A
:104AF0008D279C838B83CE0101960E94BC0BCE0137
:104B000001960E94A10C97E5E92E94E0F92E10E0A1
:104B1000612FCE0101960E94080A90E0F70181936F
:104B200091937F011F5F1D3199F7EB849884CC84AA
:104B30008FE0A82E84E0B82ED12CF4E0CF0ED11C4B
:104B40000E851F85F12C88248394198A1A8A1B8A62
:104B50001C8A1B8EEF1410F09F1410F48B8E13C060
:104B6000C8010E943209898BC80101960E9432094E
:104B70008A8BC80102960E9432098B8BC80103966A
:104B80000E9432098C8B3989832F90E0F501819343
:104B900091935F012A89822F90E0918B808B9B8972
:104BA000492F50E053A342A38C89482F50E055ABC6
:104BB00044ABF3940C0D1D1DF9E0FF12C6CF4B81E1
:104BC0005C8150939604409395044D8140939704E3
:104BD0004E81409398044F814093990448854093B7
:104BE0009A04498540939B044A8540939C04E09233
:104BF0009D044C8540939E044D8540939F044E85B3
:104C00005F855093A1044093A00448894093A20477
:104C10003093A3042093A4049093A5048093A60446
:104C20008D898093A7048E899F899093A90480938E
:104C3000A804888D8093AA04898D8093AB048A8D03
:104C40008093AC048B8D8093AD04CE0101960E94BD
:104C5000620D81E491E09A838983DE011696CE018C
:104C60000E96FD0120E32193E817F907E1F78B8108
:104C70008093F4048C819D819093F6048093F504D5
:104C8000E7EFF4E08D91819344E0EF3FF407D1F733
:104C90008E858093FF048F8580930005888980939B
:104CA00001058989809302058A898093030589E03B
:104CB000809304058DE18093060581E080930505CE
:104CC000CE0101960E941B098B818093D0048C81B8
:104CD0008093D1048D818093D2048E818093D304FC
:104CE0008F8198859093D5048093D40489859A8583
:104CF0009093D7048093D6048B859C859093D90498
:104D00008093D8048D859E859093DB048093DA048C
:104D10008F8598899093DD048093DC0489899A8932
:104D20009093DF048093DE048B898093E004DE019E
:104D30005496E1EEF4E08D91819384E0E93EF8072A
:104D4000D1F78C8D8093E9048D8D8093EA048E8D4C
:104D50008093EB048F8D8093EC0488A18093ED0405
:104D600089A19AA19093EF048093EE048BA1809384
:104D7000F0048CA18093F1048091070581608093F9
:104D80000705109208050FEF0093E3050093E40573
:104D900011E01093E5051092E6050E944A18609311
:104DA000E7057093E8058093E9059093EA05109272
:104DB000DF051092DE051092EF051092EE051092BD
:104DC000090510930A050093EB051093EC0586EC9A
:104DD00090E0A0E0B0E080930B0590930C05A093C9
:104DE0000D05B0930E0583E994E00E94A10C80911B
:104DF0009804909199049827892798279093A9045B
:104E00008093A8049093F6048093F504809197040E
:104E10008093F40482E08093010583E090E0909316
:104E2000580580935705CA5BDF4F0FB6F894DEBF75
:104E30000FBECDBFDF91CF911F910F91FF90EF90EB
:104E4000DF90CF90BF90AF909F908F900895F99989
:104E5000FECF92BD81BDF89A992780B50895262F7F
:104E6000F999FECF1FBA92BD81BD20BD0FB6F8944F
:104E7000FA9AF99A0FBE01960895A1E21A2EAA1B7A
:104E8000BB1BFD010DC0AA1FBB1FEE1FFF1FA217FA
:104E9000B307E407F50720F0A21BB30BE40BF50BF7
:104EA000661F771F881F991F1A9469F76095709580
:104EB000809590959B01AC01BD01CF010895AA1B7F
:104EC000BB1B51E107C0AA1FBB1FA617B70710F0F5
:104ED000A61BB70B881F991F5A95A9F78095909527
:104EE000BC01CD01089597FB072E16F4009407D05E
:104EF00077FD09D00E945F2707FC05D03EF490950E
:104F000081959F4F0895709561957F4F0895EE0F9D
:104F1000FF1F0590F491E02D09940F931F93CF93F9
:104F2000DF938230910510F482E090E0E091FF057C
:104F3000F091000620E030E0A0E0B0E0309719F1F9
:104F4000408151810281138148175907C8F08417A5
:104F5000950769F4109731F012960C9312971396F7
:104F60001C9327C00093FF051093000622C0211553
:104F7000310519F04217530718F49A01BD01EF01EA
:104F8000DF01F801DBCF21153105F9F0281B390BC2
:104F90002430310580F48A819B816115710521F0EF
:104FA000FB019383828304C0909300068093FF05E6
:104FB000FE01329644C0FE01E20FF31F81939193EC
:104FC00022503109398328833AC02091FD05309160
:104FD000FE05232B41F4209104013091050130930B
:104FE000FE052093FD05209102013091030121155A
:104FF000310541F42DB73EB74091060150910701AC
:10500000241B350BE091FD05F091FE05E217F30737
:10501000A0F42E1B3F0B2817390778F0AC014E5F28
:105020005F4F2417350748F04E0F5F1F5093FE0562
:105030004093FD058193919302C0E0E0F0E0CF0141
:10504000DF91CF911F910F910895CF93DF93009738
:1050500009F481C0FC01329713821282A091FF05EE
:10506000B0910006109781F420813181820F931F47
:105070002091FD053091FE052817390751F5F09371
:10508000FE05E093FD0567C0ED0120E030E0CE179E
:10509000DF0740F44A815B819E0141155105F1F023
:1050A000EA01F5CFD383C28340815181840F951FDC
:1050B000C817D90759F488819981840F951F0296E2
:1050C000918380838A819B8193838283211531051B
:1050D00029F4F0930006E093FF053DC0E901FB834E
:1050E000EA8349915991C40FD51FEC17FD0761F46C
:1050F00080819181840F951F0296E90199838883AD
:10510000828193819B838A83E0E0F0E012968D9107
:105110009C911397009719F0FD01DC01F7CF8D9159
:105120009C9111979D012E5F3F4F820F931F2091FD
:10513000FD053091FE052817390769F4309729F4E9
:10514000109200061092FF0502C013821282B093E3
:10515000FE05A093FD05DF91CF91089581E090E0D9
:10516000F8940C94B32810E0CBEDD0E004C0FE011D
:105170000E9487272196CC3DD107C9F7F894FFCF2D
:10518000FFFF00000106800002030405060708096E
:105190001514131211100F0E30405000000000A61D
:1051A000100F103D10F3106E104C10601000000036
:1051B0000031122111000000008A0D1709000000C3
:1051C000003109150900000000620D6E0D0000009D
:1051D00000780D800D2073686F727400206C6F6E04
:1051E000670045696E0041757300415244555F493F
:1051F00052002A00417264754952205665727369E3
:105200006F6E20002E002028506F733A00293A203C
:105210000020506F733A0020506F7328002F000D4C
:105220000A0045696E736368616C747665727A6FA3
:1052300065676572756E6720004175737363686199
:105240006C747665727A6F65676572756E6720003B
:1052500053636877656C6C6520002053656E736FCF
:10526000723A200020204576656E74200020676524
:1052700073656E6465740053656E736F72002D3EC6
:10528000003C2D0020200053656E736F72200020BB
:1052900053636877656C6C656E7765727420002067
:1052A0005661726961626C65200020676573706584
:1052B0006963686572742000666572746967005579
:1052C0007365725F46756E6374696F6E3A20004550
:1052D00076656E744D6174636820004576656E7402
:1052E0005661723A20004F50433A2000204E6F64BE
:1052F000653A20002043616E49443A2000204D6504
:10530000737361676553697A653A2000205374614D
:1053100074653A20004144430045696E6D657373BE
:10532000656E206265656E646574004B65696E65C7
:10533000204B616C6962726174696F6E206E6F657B
:105340007469670045696E6D657373656E20676586
:0853500073746172746574004E
:00000001FF
