:100000000C94F2000C941A010C941A010C941A012D
:100010000C941A010C941A010C941A010C941A01F4
:100020000C941A010C941A010C941A010C941A01E4
:100030000C941A010C941A010C941A010C941A01D4
:100040000C94F0150C941A010C94A8140C948214BE
:100050000C941A010C941A010C941A010C941A01B4
:100060000C941A010C941A0117031A031D032003A0
:100070002303260329032C0300000000240027008B
:100080002A00010204081020408001020408102008
:1000900001020408102004040404040404040202FD
:1000A00002020202030303030303200056415253DA
:1000B00020002000200020000A4556454E54533AA7
:1000C0000020000A444556494345204E554D4245BF
:1000D00052533A0020000A494E5445524E414C209A
:1000E000564152533A0020000A4E4F444520564193
:1000F00052533A0020000A4E4F4445205641525375
:100100003A000A4E554D20564152533A000A4E5578
:100110004D204556454E545320564152533A000AFD
:100120004E554D204556454E54533A000A466C6193
:1001300067733A000A4E4E3A000A43414E5F494403
:100140003A004944454E543A004D454D4F525920CE
:1001500044554D500053746172740050726F7A654B
:1001600073736F726665686C657220004641494C16
:10017000454420746F2073656E642043414E0053E4
:10018000686F72743A204576656E740020202045B1
:1001900076656E7420004C6F6E673A204E6F646512
:1001A0004E6F200077726974652076617220746FDB
:1001B00020656570726F6D0000000000250028004A
:1001C0002B0000000000230026002900000000088A
:1001D000000201000003040700000000000000000E
:1001E00071246D2411241FBECFEFD8E0DEBFCDBF38
:1001F00012E0A0E0B1E0E8E0F1E502C005900D9268
:10020000A03CB107D9F725E0A0ECB2E001C01D92F7
:10021000A53EB207E1F710E0C1EFD0E004C021979E
:10022000FE010E944B27C03FD107C9F70E941D184D
:100230000C9477280C940000DF92EF92FF920F93BA
:100240001F93CF93DF93C091B60483EB94E00E9499
:1002500083047C010091DA041091DB04801791077C
:1002600089F080913C0590913D050297039750F4E9
:10027000CD3009F46FC0C03109F484C0C13109F038
:1002800033C39EC0CD3509F470C180F5C33509F480
:10029000FEC078F4C03109F475C020F4CD3009F007
:1002A00023C358C0C13109F48BC0C23409F4B0C0B3
:1002B0001BC3C63509F406C138F4C43509F4ECC0D3
:1002C000C53509F4F0C010C3C73509F41AC1C835E3
:1002D00009F00AC380917F0494E79093AB041093D4
:1002E000AC040093AD048093AE04F4C2C53909F4A4
:1002F000C3C1F0F4C23709F454C120F4C13709F482
:100300003CC1F2C2C33709F478C1C53709F0ECC269
:100310006091C9046093D90460937C0482E190E009
:100320000E94DA048091DA049091DB0422E5CAC2CB
:10033000C23B09F42DC238F4C63909F4C7C1CC391F
:1003400009F4FDC1D1C2C23D09F456C2C53F09F44A
:1003500049C2CAC20115110509F4C6C28091E6045A
:100360009091E5042091E40436EB3093AB041093B4
:10037000AC040093AD042093AE049093AF0480933B
:10038000B004B2C080913C0590913D05059709F0FD
:10039000ABC2EBEAF4E0119284E0E33BF807D9F753
:1003A0008091E8049091EB042091EA043091E904F3
:1003B0004091E5045091E7046091E4047FEE15C09C
:1003C00080913C0590913D05059701F58091E204EF
:1003D0009091E1042091E0043091DF044091DE042B
:1003E0005091DD046091DC0472EE7093AB04609375
:1003F000AC045093AD044093AE043093AF0420930B
:10040000B0049093B1048093B20472C083E0F1C150
:1004100080913C0590913D050597C1F7F092DB0472
:10042000E092DA04C7010E9470178091DA0490917B
:10043000DB0422E52093AB049093AC048093AD04DD
:100440001092AE041092AF041092B0041092B10456
:100450001092B20483E090E090933D0580933C05B8
:1004600081E08093AA046091E60464606093E604EE
:1004700060938C0485E190E00E94DA046091E604C8
:1004800060938C0485E190E00E94DA0431C0109200
:100490003D0510923C0528C283E090E090933D0515
:1004A00080933C0548C180913C0590913D05892B86
:1004B00009F01AC260E087E190E00E94DA0410922D
:1004C0007F0412C28091E90490917F04891B90E718
:1004D0009093AB041093AC040093AD048093AE04EE
:1004E0001092AF041092B0041092B1041092B204B2
:1004F000DF91CF911F910F91FF90EF90DF900C94BF
:100500006811D0917F04DD2309F4EEC1F12EC0E023
:1005100082EFE82EDC1709F4E7C18C2F0E94B91294
:10052000FC0180919204882311F08AE062C18381EA
:10053000928121813081E092AB04F092AC0400936F
:10054000AD043093AE042093AF049093B004809335
:10055000B104C093B2040E946811882321F08CE694
:1005600091E00E94B116CF5FD5CFE016F10609F0F9
:10057000BBC181E00E942C17B7C1C091C9048FEFA5
:100580008C0F0E949511909192049111CECF97E912
:100590009093AB041093AC040093AD04C093AE04ED
:1005A00068C0EBEAF4E083EB94E011928E179F07AA
:1005B000E1F70E94E916C82F8FEF8C0F0E94B91245
:1005C000FC0190919204992311F086E012C183817D
:1005D00092812181308142EF4093AB041093AC04AF
:1005E0000093AD043093AE042093AF049093B00415
:1005F0008093B104C093B20475C12091C904211144
:100600000BC08BE98093AB041093AC040093AD0452
:100610001092AE0488E02DC0822F90E0FC0131974B
:10062000E830F105E0F4EC5CFF4F0C944B2780912F
:10063000E40416C08091E70413C08091E50410C063
:100640008091E9040DC08091EA040AC08091EB0416
:1006500007C08091E80404C08091E60401C080E0F6
:100660009BE99093AB041093AC040093AD042093EA
:10067000AE048093AF0430C183EB94E00E949616E1
:10068000AC01B70188E794E00E949C05C82F0E9446
:1006900001131092420510924305109244051092E6
:1006A00045054C2F62E475E088E794E00E94250739
:1006B000C8138BCF6C2F70E020E040E088E794E017
:1006C0000E94DE04882309F40FC12FCFC091C90412
:1006D000C150D091CA04CB3149F4D093D904D093FE
:1006E0007C046D2F82E190E00E94DA048091EB049B
:1006F0008C17F0F04D2F6C2F88E794E00E940805CE
:100700008091DA049091DB0429E52093AB04909367
:10071000AC048093AD041092AE041092AF0410921A
:10072000B0041092B1041092B2040E94681103C088
:1007300089E00E94211381E08093EF04D5C00E94DC
:10074000E916D82F0E941517C82F8091EA048C173C
:1007500008F4EBCE4FEF4C0F6FEF6D0F88E794E08E
:100760000E943005909192049111DFCE9091DA04AD
:100770002091DB0435EB3093AB042093AC049093D1
:10078000AD04D093AE04C093AF048093B004A6C070
:1007900080913C0590913D05892B51F50E941517DC
:1007A000182F0E94B912EC0140E0612F88E794E015
:1007B0000E94300590919204911107CF9B812A816C
:1007C0003981488153ED5093AB044093AC0430938E
:1007D000AD042093AE049093AF041093B0048093C3
:1007E000B1047EC080913C0590913D05892B61F15B
:1007F00082E00E94211378C083EB94E00E94961659
:10080000182F092F0E941517C82F0E940017D82FE4
:10081000F0924205E092430500934405109345058C
:100820004C2F62E475E088E794E00E942507C81326
:10083000CCCE6C2F70E02D2F40E088E794E00E9432
:10084000DE04811172CE39C083EB94E00E949616CB
:10085000082FD92E0E941517C82F0E940017D82FD5
:100860000E94E916182FF0924205E0924305D092BB
:100870004405009345054FEF480F62E475E088E7B3
:1008800094E00E942507682F70E0212F30E021506E
:1008900031096217730709F098CE4FEF4C0F2D2FD7
:1008A00088E794E00E94DE0490E02C2F30E0215095
:1008B00031098217930709F038CE8091DA049091BC
:1008C000DB0429E52093AB049093AC048093AD0442
:1008D0001092AE041092AF041092B0041092B104C2
:1008E0001092B2040E94681180E0DF91CF911F91B5
:1008F0000F91FF90EF90DF9008950C94E9270C94EE
:10090000E9270C94E927FC0193899234A9F180EB43
:10091000890F8B3088F184EA890F823068F181E990
:10092000890F873048F180E7890F8F3028F180E503
:10093000890F873008F188E4890F8230E8F0292F89
:100940002F7B2D5B2230C0F080E3890F8630A0F032
:1009500088E2890F823080F083E2890F823060F074
:10096000933E51F080E1890F823030F0935F9730F1
:1009700018F080E090E00895848995899827892768
:10098000982708950895FC0181E391E09183808385
:10099000DF015396CF014B961D92A817B907E1F7D7
:1009A000138E148E158E168E178E11A210A212A2FF
:1009B000089508950C94F3260C94EB26CF93FC0134
:1009C000DB01878190E06817790718F081E0840FD8
:1009D0001DC093854917D0F7622FC42F492F50E0CF
:1009E0004C5F5F4F4A9F90014B9F300D5A9F300DD7
:1009F000112485859685820F931F4C2F50E04C5F04
:100A00005F4F840F951F0E94DA048C2FCF910895B9
:100A10001F93CF93DF93FC0181858617E8F0142F95
:100A2000C62FD0E0FE01EE0FFF1FE45CFB4F842FCA
:100A300090E0918380836996CE010E94DC041817B0
:100A400059F084EA91E00E94B116612FCE01DF9146
:100A5000CF911F910C94DA04DF91CF911F910895EB
:100A6000FC01128E87816817B0F42385421798F431
:100A700030E02C5F3F4F629FD001639FB00D112487
:100A8000858596858A0F9B1F50E04C5F5F4F840FD2
:100A9000951F0C94DC048FEF828F0895FC01128E59
:100AA0008185681728F4862F90E049960C94DC0421
:100AB0008FEF828F0895CF92DF92EF92FF920F9384
:100AC0001F93CF93DF93DC0117968C911797E4EF78
:100AD000F3E090E0C62FD0E0E42EF12C30E010E0FF
:100AE0009817D9F0611102C0442351F0C080D18021
:100AF000CC15DD0579F4C288D388EC14FD0451F4DB
:100B0000C4A0D5A02C153D0529F4C6A8D7A80C155E
:100B10001D0541F09F5F3296E3CF1A969C9181E0CC
:100B2000890F01C0892FDF91CF911F910F91FF9005
:100B3000EF90DF90CF9008950F93252F042F462F2D
:100B4000672F0E945B050F910895AF92BF92CF92DD
:100B5000DF92EF92FF920F931F93CF93DF93EC01FD
:100B60007B01FB01E858FF4F108180911F03882310
:100B700009F4DEC08AE292E00E941F12812F0E94D7
:100B80000113112309F4D6C080911F038823D1F1EA
:100B90008AE392E00E941F12812F0E94011386E4D3
:100BA00092E00E941F12CE010E94561697012E5FFE
:100BB0003F4F6901882339F0CE010E946B16AC01CA
:100BC00060E070E009C0CE010E9496165C01CE0183
:100BD0000E948304A501BC01C6010E949C05F70187
:100BE000ED58FF4F9081891730F440E0682FC6011F
:100BF0000E94300501C080E00E94011386E891E068
:100C00000E94AB12193009F015C180913203811195
:100C100011C1C1ECD2E0E12CF12C8091E10290E015
:100C20000E2C02C0959587950A94E2F79091C00228
:100C30006881798180FF06C081E0911180E00E9487
:100C4000A71105C081E0911180E00E94DA11809126
:100C50001F0387010F5F1F4F882309F450C0E091E5
:100C6000E402E695E695E695F0E0EE0FFF1FE55EFF
:100C7000FC4F808191810E2C02C0959587950A9436
:100C8000E2F780FF0BC08091E10290E002C09595F1
:100C90008795EA94E2F780FD0BC00DC08091E102D8
:100CA00090E002C095958795EA94E2F780FD03C035
:100CB00086E691E002C082E691E00E941F1288EE73
:100CC00091E00E941F126AE070E0C8010E94621267
:100CD00082ED91E00E941F12888199810E94A512E5
:100CE0008091C002811103C08CE591E002C085E5CE
:100CF00091E00E941F128BED91E00E94AB1262E323
:100D000070E080E090E00E94AA15780122960830F9
:100D1000110509F082CF8091E1029091810499310F
:100D200008F488C090E090936F0480936E0482C0B2
:100D3000111168CF80911F03882309F47BC0CE0175
:100D40000E944116882389F086E991E00E943313BE
:100D5000CE010E9483040E94A5128CE891E00E94BB
:100D60003313CE010E9496160CC0CE010E94561677
:100D70008823B9F08FE791E00E943313CE010E94DF
:100D80006B160E94A51284E891E0DF91CF911F912C
:100D90000F91FF90EF90DF90CF90BF90AF900C94A9
:100DA0000D1281E592E00E941F1260E170E08B81DC
:100DB0000E94F31287E592E00E941F12CE010E946A
:100DC00083040E94A5128FE592E00E941F122B8DD2
:100DD00080E1289F900111248C8D829586958770E3
:100DE000822B8A836AE070E00E94F31288E692E028
:100DF0000E941F128B8990E025E0959587952A9592
:100E0000E1F78C836AE070E00E94F31287E792E0DA
:100E10000E941F1280913C0590913D05DF91CF917A
:100E20001F910F91FF90EF90DF90CF90BF90AF9008
:100E30000C941113DF91CF911F910F91FF90EF90C0
:100E4000DF90CF90BF90AF900895CF92DF92EF9256
:100E5000FF921F93CF93DF93FC011285411718F087
:100E600081E0810F4DC0142FFB01DC01842F90E045
:100E7000EC01CC0FDD1FCC50DC4F208130E03983FA
:100E80002883EC01CC0FDD1FCA5FDB4F218130E0EE
:100E900039832883EC01CC0FDD1FC85EDB4F228134
:100EA00030E039832883EC01CC0FDD1FC65DDB4FBA
:100EB000238130E0398328831B962C911B9730E0E7
:100EC0002C5F3F4F289F7001299FF00C389FF00C3A
:100ED00011241D968D919C911E97E80EF91E6B01B1
:100EE00084E0C80ED11CEB01E61AF70AC7018C0F8B
:100EF0009D1F69910E94DA04CC15DD05B9F7812F99
:100F0000DF91CF911F91FF90EF90DF90CF900895E8
:100F1000FC0180E090E0238530E0821793073CF4E9
:100F2000A281B381A80FB91F1C920196F4CF82E66B
:100F30008483158286EC86831782148A0895EF9243
:100F4000FF920F931F93CF93DF9300D000D0CDB7C4
:100F5000DEB78C010E948807F80182858783198299
:100F60001A828EE38B8384EE8C83E12CF12CF801C2
:100F70004285842F90E00197E816F906CCF44E2DB7
:100F8000BE016F5F7F4FC8010E9425078C818F5F74
:100F90008C83811103C08B818F5F8B8320E040E0C5
:100FA000B701C8010E94DE04FFEFEF1AFF0ADFCF8E
:100FB00019821A8282E18B8387E68C834150BE01BD
:100FC0006F5F7F4FC8010E942507F801628570E0BE
:100FD0006150710920E040E0C8010E94DE0442E057
:100FE00060E0C8010E94080540E069E1C8010E9474
:100FF00008054FEF6AE1C8010E940805FF24F39439
:1010000044E06F2DC8010E94080561E06F0D44E6C1
:10101000C8010E94080562E06F0D4BE4C8010E9400
:101020000805F3E0FF0E89E1F812EACF42E66BE132
:10103000C8010E94080540E06CE1C8010E94080553
:1010400068E580E090E00E94DA04F801648182E1C2
:1010500090E00E94DA04F801658183E190E00E944B
:10106000DA04F801668184E190E00E94DA04F80174
:10107000648985E190E00E94DA04F801678187E1E4
:1010800090E00E94DA04F801638588E190E00E9414
:10109000DA04C8010E9457080F900F900F900F902C
:1010A000DF91CF911F910F91FF90EF900895CF9313
:1010B000DF93EC010E94880780E090E00E94DC044E
:1010C000883519F0CE010E949F0782E190E00E94CE
:1010D000DC048C8383E190E00E94DC048D8384E156
:1010E00090E00E94DC048E8385E190E00E94DC04A5
:1010F0008C8B87E190E00E94DC048F83DF91CF919D
:10110000089529E431E0FC013183208382819381B9
:10111000009711F00C94E9270895CF93DF93EC0129
:101120000E948108CE01DF91CF910C94E92721E53F
:1011300031E0FC0121933193CF010C948108CF93CE
:10114000DF93EC010E949708CE01DF91CF910C94C0
:10115000E92708952F923F924F925F926F927F926C
:101160008F929F92AF92BF92CF92DF92EF92FF92B7
:101170000F931F93CF93DF931092EF0480E00E94B0
:101180009511682F70E081FB992790F99093C00228
:10119000982F991F9927991F90933203992331F023
:1011A00086FB992790F99093350302C0109235037E
:1011B0009B01F4E035952795FA95E1F79091E302CC
:1011C000A901492740FF1FC084FF0EC080917A000B
:1011D000846080937A0080917A00826080937A00A4
:1011E00080917A008E7F0DC080917A008460809318
:1011F0007A0080917A00826080937A0080917A00F0
:10120000816080937A00E5E075956795EA95E1F74E
:101210006170660F2170620F6093E3028091350365
:10122000811110C070E06F5F7F4F81E792E00E94F4
:101230003727709334036093330301EC12E0780195
:10124000C0E029C01092E40260E082E00E94031531
:1012500060E084E00E94031560E086E00E940315D0
:1012600060E088E00E94031561E083E00E940315BE
:1012700061E085E00E94031561E087E00E940315AC
:1012800061E089E00E9403158DE790E090933403BC
:1012900080933303D2CF8C2F0E94B912FC0182813C
:1012A0009381982789279827F701819391937F014C
:1012B000CF5FC83081F7C0911B03D0911C036AE156
:1012C00088E794E00E944E0590E0C817D90709F41A
:1012D00081C0C0E0D0E0C12CD12C7601C394A09095
:1012E0001B03B0901C030C2E02C0B594A7940A9463
:1012F000E2F76AE188E794E00E944E0590E00C2E48
:1013000002C0959587950A94E2F7A826B926A0FE13
:1013100045C08091E10290E00C2E02C09595879522
:101320000A94E2F780FD0EC02091E102D701C601C8
:101330000C2E04C0880F991FAA1FBB1F0A94D2F756
:10134000822B0FC09091E102B701A6010C2E04C0C0
:10135000440F551F661F771F0A94D2F74095842FBC
:1013600089238093E1028091E10290E00C2E02C07B
:10137000959587950A94E2F79091C002F8016081F3
:10138000718180FF06C081E0911180E00E94A71169
:1013900005C081E0911180E00E94DA1121960E5F74
:1013A0001F4FC830D10509F09ACF6AE188E794E071
:1013B0000E944E0590E090931C0380931B03809144
:1013C000E10290918104993128F090E090936F04AC
:1013D00080936E04C5EED2E090E2E92E93E0F92E00
:1013E00023E0322EC12CD12C03E010E030E3632E39
:1013F00033E0732E4BE4842E912C57E9252E60EEBA
:10140000A62EBB24B3948091320381111FC06EEFCE
:10141000630D88E794E00E944E0590E083309105CB
:101420001CF09B838A8302C01B830A836FEF630DCA
:1014300088E794E00E944E0590E0833091051CF00F
:101440009D838C8307C01D830C8304C01D830C8384
:101450001B830A8344244394512C0C2C02C0440C5B
:10146000551C0A94E2F78091310390E08421952184
:101470004816590609F58091000190910101892BC8
:10148000D9F4809132038823B9F08091350381111A
:1014900013C0632D88E794E00E944E058F3F09F04A
:1014A0006DC0F701B182A08280911F03882309F4E7
:1014B00065C080E892E03DC0632D88E794E00E941B
:1014C0004E05282F30E03F832E8381508E3F08F455
:1014D00055C080913503882379F19F828E825524EF
:1014E0005394530C8091EB04831530F04BE4632D3F
:1014F00088E794E00E9408058E819091DA0420919B
:10150000DB042092AB042093AC049093AD04509282
:10151000AE048093AF041092B0041092B104109204
:10152000B2040E94681180911F03882339F182E977
:1015300092E00E94AB1222C01092010110920001B1
:1015400080913103482A40923103809130032F3F2C
:10155000310511F48F7701C080688093300380914A
:101560001F03882321F08BEA92E00E94AB12E0E295
:10157000F3E0119211926E167F06D9F7FFEFCF1AA2
:10158000DF0A22E0E20EF11C33E0330E26968BE1F7
:10159000381239CF8CE10E949511881F8827881F47
:1015A00080931F03882331F08CE10E9495118F7086
:1015B0008093E202DF91CF911F910F91FF90EF9006
:1015C000DF90CF90BF90AF909F908F907F906F9063
:1015D0005F904F903F902F900895E62FF0E0EE0F30
:1015E000FF1FEF52FD4F81112DC08081918197FF28
:1015F00005C081E090E09183808308958230910559
:1016000009F44DC0019691838083029709F047C089
:101610008091E10290E0062E02C0959587950A948C
:10162000E2F780FD3CC02091E10281E090E0A0E083
:10163000B0E004C0880F991FAA1FBB1F6A95D2F79C
:10164000822B2BC080819181181619061CF41182FF
:10165000108208958F3F2FEF920709F10197918330
:1016600080830196E1F48091E10290E0062E02C0B1
:10167000959587950A94E2F780FF11C02091E102C9
:1016800081E090E0A0E0B0E004C0880F991FAA1F9D
:10169000BB1F6A95D2F7809582238093E10208955B
:1016A000AF92BF92CF92DF92EF92FF920F931F9370
:1016B000CF93DF938091C9058F3F29F48091C805AE
:1016C0008F3F09F44FC00E94E4150091CC051091A2
:1016D000CD052091CE053091CF05DC01CB01801BDB
:1016E000910BA20BB30B84369105A105B105D0F186
:1016F00080913C0590913D050597A9F48091CB051B
:10170000813041F460E08091C9050E940315109278
:10171000CB051EC061E08091C9050E94031581E0E0
:101720008093CB0515C08091AA04813039F460E024
:101730008091C8050E94031561E006C061E08091B8
:10174000C8050E94031560E08091C9050E94031539
:101750000E94E4156093CC057093CD058093CE056F
:101760009093CF058091D0058F3F09F490C00E94DF
:10177000DA142091D105892B81F4213009F087C03A
:101780000E94E41560933E0570933F0580934005E9
:10179000909341051092D1057AC0211178C081E063
:1017A0008093D1050E94E41500913E0510913F05FC
:1017B0002091400530914105DC01CB01801B910B4C
:1017C000A20BB30B8C019D01095E13402109310965
:1017D0000738134121053105C0F42091AA048091F6
:1017E0003C0590913D05213061F4059739F483E083
:1017F00090E090933D0580933C0549C00E94D1162E
:1018000046C0059709F043C0F2CF81379741A10543
:10181000B105E8F18091AA04811117C080913C05BF
:1018200090913D05059719F360E08091C8050E94ED
:10183000031580E00E942C1780913C0590913D0596
:101840000497E1F60E94500BF7CF1092AA04609122
:10185000E6046B7F6093E60460938C0485E190E07E
:101860000E94DA048091E60481FF09C08091F004AF
:101870009091F1049093DB048093DA0406C01092F7
:10188000DB041092DA0480E090E00E9470178091EF
:101890003C0590913D05049709F07CC00E94E41539
:1018A00000913E0510913F05209140053091410582
:1018B000DC01CB01801B910BA20BB30B893E934043
:1018C000A105B10508F466C083E090E090933D0562
:1018D00080933C054091C205A3E4B5E081E0841704
:1018E00040F02091C20530E0E2E4F5E080E090E0D5
:1018F00017C02D919FEF980FE92FF0E0EF01CE5B1D
:10190000DA4F3881ED5BFA4F231718F4308391508A
:10191000F3CF20838F5FE3CF4191C41730F001965E
:10192000C1E0C80F82179307BCF3C43640F0809122
:10193000ED04882379F187E00E9421132BC0C09326
:101940007C046C2F82E190E00E94DA04C093D904F9
:101950008091ED048823F1F08091DA049091DB040A
:1019600022E52093AB049093AC048093AD041092D5
:10197000AE041092AF041092B0041092B104109211
:10198000B2046C2F70E080E090E02BEA34E043E09A
:101990000E947710C1E0D0E08EECE82E84E0F82EB3
:1019A000DD24D39499E5C92E1092EE04809136057A
:1019B00090913705892B09F0D9C2D0933705C09390
:1019C000360580913A0590913B05181619062CF0C2
:1019D0001092370510923605C9C280913805909152
:1019E0003905CC9724F01092390510923805ECE9AE
:1019F000F5E0A0913805B0913905AA50BB4F129679
:101A00008C9181938091380590913905019690933E
:101A100039058093380580913A0590913B050197EF
:101A200090933B0580933A0545E0EB3AF40709F7BC
:101A30001092370510923605E6ECF4E01192EE169E
:101A4000FF06E1F71092D2041092D4041092D3044E
:101A50001092D50480919C058093B80480919E05D6
:101A60008093CE0480919F058093CF048091A00540
:101A70008093D0048091A1058093D104E2EAF5E03F
:101A80008191DF01AD5DB1098C9385E0EA3AF807F9
:101A9000B9F78091C6048093B604843008F4B4C0CA
:101AA000873009F4B1C0282F2F7B2F3309F4ACC045
:101AB00092EA980F923008F4A7C0982F9F7D9F3923
:101AC00009F4A2C0863B09F49FC08F3D09F49CC075
:101AD0003CEF380F333008F49AC038EF380F33300A
:101AE00008F495C03FED380F333008F490C08034CF
:101AF00009F48DC03CEB380F373008F488C08C34C3
:101B000009F485C0382F3F7740EA430F423008F48C
:101B10007EC0333609F47BC0903809F478C03EE7C4
:101B2000380F343008F473C0823A09F470C030E4DE
:101B3000380F323008F46BC036EA380F323008F410
:101B400069C030E7380F353008F464C038E6380F24
:101B5000333008F45FC09D59923008F45BC0982F71
:101B6000977F905B923008F455C09DE4920F9230BD
:101B700008F450C091E3980F933008F44BC09CE2F6
:101B8000980F923008F446C098E2980F923008F40B
:101B900041C093E2980F9230E8F190E1980F9230B3
:101BA000C8F19AE0980F9630A8F193E0980F93301F
:101BB00088F194EF980F923080F190EF980F923067
:101BC00060F1823451F190EB980F9A3030F194EA41
:101BD000980F923010F191E9980F9730F0F09BE652
:101BE000980F9330D0F095E6980F9230B0F0223BEA
:101BF000A1F0253B91F09EE2980F923070F0823E6A
:101C000061F08F3E69F409C084E090E00BC081E090
:101C100090E008C083E090E005C082E090E002C060
:101C200080E090E09093BA048093B90480919D0580
:101C30008111D092D50480E00E94951181FBBB24D4
:101C4000B0F883EB94E00E944116A82E882319F087
:101C5000BB2009F45FC183EB94E00E9456168823F1
:101C6000C1F083EB94E00E946B168C010097B9F0F1
:101C7000AC0160E070E088E794E00E949C05209150
:101C8000820430E0482F50E0241735070CF461C17E
:101C900036C0AA20F1F021E0B2121BC005C0AA2074
:101CA00081F181E0B8122DC083EB94E00E9496167A
:101CB000009779F0AC0160E070E088E794E00E9462
:101CC0009C052091820430E0482F50E0241735070E
:101CD000B4F483EB94E00E946B168C01892B89F09D
:101CE000A80160E070E088E794E00E949C052091E4
:101CF000820430E0482F50E02417350714F08F5F3E
:101D000001C080E08093EE048091D504882389F09F
:101D10008091DA049091DB04892B59F06091D90409
:101D200070E080E090E02BEA34E040E00E94771021
:101D30003BCE2091B6042D3581F483EB94E00E94D4
:101D400083042091DA043091DB048217930709F0B1
:101D50002BCE81E00E942C1727CE40913C0550915C
:101D60003D054430510501F58091B80481111CCE28
:101D70002091C205233608F017CE8091CE0430E1C1
:101D8000839FC00111249091CF04929596959770EE
:101D9000892B8093B504E22FF0E0EE5BFA4F80834D
:101DA0002F5F2093C20500CE8091B9049091BA04B0
:101DB000452B09F073C03091AA0431116FC002970E
:101DC00029F4223D19F0253F09F0BDC083EB94E0D2
:101DD0000E949616082FA92E83EB94E00E9483049C
:101DE0009093420580934305A092440500934505D6
:101DF000B0907F0410918204B11610F01F5F11C0E3
:101E00002A2D482F692F88E794E00E945B05181758
:101E100038F44B2D62E475E088E794E00E942507D2
:101E2000182F8091E904811710F484E01DC080917F
:101E3000B604823D11F0853FD1F40E941517082F9A
:101E40000E9400174FEF400F612F70E0282F88E7A6
:101E500094E00E94DE0490E0202F30E02150310910
:101E60008217930721F086E00E9421139DCD809177
:101E7000DA049091DB04C092AB049093AC0480939D
:101E8000AD041092AE041092AF041092B004109200
:101E9000B1041092B2040E94681186CD823091057F
:101EA00039F138F4019749F5E091C505F091C6057F
:101EB00017C0E091C305F091C4058330910519F076
:101EC000049731F01AC08091E60480FD16C008C066
:101ED0008091E60480FD11C02730C1F50C9400000C
:101EE000309759F066E774E083EB94E0099505C0FC
:101EF0000E941C01882309F457CDE091C305F0919D
:101F0000C405309709F450CD66E774E083EB94E0A4
:101F100009954ACD83EB94E00E9496168C0183EBE1
:101F200094E00E948304A801BC0188E794E00E9429
:101F30009C052091820430E0482F50E0241735079B
:101F40000CF489CEDCCE0E941C012ECD2E3531F250
:101F5000C7CFAA2009F4C4CE41E0B41609F4A4CE38
:101F600083EB94E00E946B168C01BACE80E0DF9187
:101F7000CF911F910F91FF90EF90DF90CF90BF9086
:101F8000AF900895FF920F931F93CF93DF93182F75
:101F9000F62EC72FD42F60E08091A3040E94031572
:101FA00083E00E943A16812F0E943A160F2D1C2FB3
:101FB000C0E0CD1751F0C83041F080E00E943A16E1
:101FC000F80181938F01CF5FF4CF61E08091A3048A
:101FD000DF91CF911F910F91FF900C940315FF9209
:101FE0000F931F93CF93DF93C82FF62E072F142F35
:101FF00060E08091A3040E94031582E00E943A16DB
:102000008C2F0E943A16CF2DD02FCE01810F911D1B
:102010008C01C017D10721F089910E943A16F9CF9F
:1020200061E08091A304DF91CF911F910F91FF9008
:102030000C9403151F93CF93DF93182FC6E7D4E0BA
:1020400060E08DA50E94031583E00E943A16812F5F
:102050000E943A1680E00E943A16182F61E08DA582
:102060000E940315812FDF91CF911F910895FF9258
:102070000F931F93CF93DF93F82E062F142FC6E7ED
:10208000D4E060E08DA50E94031585E00E943A1619
:102090008F2D0E943A16802F0E943A16812F0E949F
:1020A0003A1661E08DA5DF91CF911F910F91FF90BE
:1020B0000C9403150F931F93CF93DF93082F162FC4
:1020C000C6E7D4E060E08DA50E94031582E00E947F
:1020D0003A16802F0E943A16812F0E943A1661E02C
:1020E0008DA5DF91CF911F910F910C9403154F9205
:1020F0005F926F928F929F92AF92BF92CF92DF9238
:10210000FF920F931F93CF93DF9300D000D0CDB7F2
:10211000DEB71092930460939404709395048093B7
:10212000960490939704493008F048E0409398044F
:102130001092A104A9E9B4E0F90150E0CF01821B9B
:10214000930B841795071CF481918D93F7CFA12CE5
:10215000B12C409018015090190160901A014E0165
:1021600024E0820E911C49825A826B82CE01019634
:102170006C01F82E0D2DF60111916F01812F0E9437
:102180001A10982F987083FD02C01F5F05C08C1431
:102190009D0489F710E092E0FFEFAF1ABF0A92307A
:1021A00029F422E3A216B104F1F67CC082E3A8165A
:1021B000B10409F477C04091980469E974E085E0BE
:1021C000810F0E94EF0F8091A104813029F480914A
:1021D00098048064809398046091980484E0810F4F
:1021E0000E945A1040919404509195046091960475
:1021F00070919704809193048130B1F44C835B8398
:10220000AB0166277727942F9C71842F8370E8E0B9
:102210009E9F800D112488608A8365E056954795BE
:102220006A95E1F749830DC0CA0123E09695879529
:102230002A95E1F789834295440F407E4A831C82A8
:102240001B8244E06F2D702F812F0E94EF0F1150E1
:1022500048E068E0812F0E943710C12CD12CFFEF9D
:10226000CF1ADF0A812F0E941A1083FF05C022E3D4
:10227000C216D104A1F718C082E3C816D104A1F098
:102280001092940410929504109296041092970460
:1022900010929804109293041092A1041092A20438
:1022A00080E003C086E001C087E00F900F900F90A0
:1022B0000F90DF91CF911F910F91FF90DF90CF9002
:1022C000BF90AF909F908F906F905F904F900895C8
:1022D000CF93DF93C091AB04C295C695C770CF5F13
:1022E00081E08093A8048093A9046091D90470E0F0
:1022F00080E090E02BEA34E04C2F0E9477108111AF
:1023000002C080E00FC0D3E06091D90470E080E0AB
:1023100090E02BEA34E04C2F0E947710882389F359
:10232000D15091F7DF91CF9108951092920490913E
:102330008104891720F08FEF809392040895E82F8D
:10234000F0E0EE0FFF1FE45CFB4F808108951F93C8
:10235000CF93DF938823A1F0EB018BE10E949511CD
:10236000182F8BE10E94951180E98093AB041092A5
:10237000AC041093AD04D093AE04C093AF040FC06F
:102380008091DA049091DB0428E92093AB049093C8
:10239000AC048093AD047093AE046093AF041092CC
:1023A000B0041092B1041092B204DF91CF911F914A
:1023B0000C9468111F93CF93DF938823A1F0EB0156
:1023C0008BE10E949511182F8BE10E94951181E9F4
:1023D0008093AB041092AC041093AD04D093AE0480
:1023E000C093AF040FC08091DA049091DB0429E917
:1023F0002093AB049093AC048093AD047093AE042F
:102400006093AF041092B0041092B1041092B20421
:10241000DF91CF911F910C946811009769F0FC0136
:1024200001900020E9F73197AF01481B590BBC011F
:1024300087E593E00C944E1380E090E008950C94AF
:102440000D128F929F92AF92BF920F931F93CF93D3
:10245000DF93CDB7DEB7A1970FB6F894DEBF0FBEFE
:10246000CDBF19A2423008F44AE08E010F5D1F4F24
:10247000842E912CA12CB12CA50194010E9401273E
:10248000E62FB901CA0101501109EA3014F4E05DE8
:1024900001C0E95CD801EC93232B242B252B61F799
:1024A000C8010E940D12A1960FB6F894DEBF0FBEB0
:1024B000CDBFDF91CF911F910F91BF90AF909F90B3
:1024C0008F900895CF92DF92EF92FF92CF93DF9398
:1024D0006115710559F4682F87E593E0DF91CF917D
:1024E000FF90EF90DF90CF900C94E4136C01990F64
:1024F000EE08FF086A307105E9F4F7FE19C06DE2D5
:1025000087E593E00E94E413EC0166277727CB016F
:102510006C197D098E099F094AE00E9421128C0FD7
:102520009D1FDF91CF91FF90EF90DF90CF900895A6
:102530004AE001C0462FC701B601DF91CF91FF905D
:10254000EF90DF90CF900C942112BC0180E090E0DE
:102550004AE00C942112CF93DF930E940D12EC01FC
:1025600084E891E00E940D128C0F9D1FDF91CF91A6
:102570000895109288041092890410928A0410928F
:102580008B041092920490918204981720F09091FD
:102590007F04981720F481E08093920421C090E09A
:1025A000FC01EE0FFF1FEC50FC4F208120938804AC
:1025B000FC01EE0FFF1FEA5FFB4F2081209389048F
:1025C000FC01EE0FFF1FE85EFB4F208120938A0481
:1025D000880F991FFC01E65DFB4F808180938B047F
:1025E00088E894E00895AB01682F4115510521F466
:1025F00087E593E00C94E41370E080E090E00C94A5
:102600002112CF93DF936AE070E00E94F312EC0195
:1026100084E891E00E940D128C0F9D1FDF91CF91F5
:102620000895CF93DF936AE070E00E946212EC019C
:1026300084E891E00E940D128C0F9D1FDF91CF91D5
:102640000895E6E7F4E0AAEDB4E09C9111962C9190
:102650003FE635AB26AB97AB80AF11AE12AE13AEF3
:1026600014AE0C9468110F931F93CF93DF938C01DA
:10267000C0E0D0E0F801EC0FFD1F6491662341F04B
:1026800087E593E00E94E413892B11F02196F2CFA5
:10269000CE01DF91CF911F910F910895CF92DF92DC
:1026A000EF92FF920F931F93CF93DF936C017A0108
:1026B0008B01C0E0D0E0CE15DF0581F0D8016D912F
:1026C0008D01D601ED91FC910190F081E02DC601C4
:1026D0000995892B11F02196EECF7E01C701DF917C
:1026E000CF911F910F91FF90EF90DF90CF900895C1
:1026F000089580E090E00895FC01538D448D252FCE
:1027000030E0842F90E0821B930B541710F0CF968B
:10271000089501970895FC01918D828D981761F0BD
:10272000828DDF01A80FB11D5D968C91928D9F5F08
:102730009F73928F90E008958FEF9FEF0895FC01B3
:10274000918D828D981731F0828DE80FF11D858D66
:1027500090E008958FEF9FEF0895FC01918D228DF9
:10276000892F90E0805C9F4F821B91098F7399277E
:10277000089587E593E00E94AD1321E0892B09F4C9
:1027800020E0822F0895FC01848DDF01A80FB11D88
:10279000A35ABF4F2C91848D90E001968F73992797
:1027A000848FA689B7892C93A089B1898C91806484
:1027B0008C93938D848D981306C00288F389E02D45
:1027C00080818F7D80830895EF92FF920F931F93F6
:1027D000CF93DF93EC0181E0888F9B8D8C8D9813D4
:1027E00005C0E889F989808185FD24C0F62E0B8D0E
:1027F00010E00F5F1F4F0F731127E02E8C8DE81232
:102800000CC00FB607FCFACFE889F989808185FFF3
:10281000F5CFCE010E94C313F1CF8B8DFE01E80FDF
:10282000F11DE35AFF4FF0820B8FEA89FB8980810B
:10283000806207C0EE89FF896083E889F989808119
:102840008064808381E090E0DF91CF911F910F91B0
:10285000FF90EF900895CF93DF93EC01888D88234C
:10286000C9F0EA89FB89808185FD05C0A889B989FD
:102870008C9186FD0FC00FB607FCF5CF808185FFD8
:10288000F2CFA889B9898C9185FFEDCFCE010E9446
:10289000C313E7CFDF91CF91089580E090E0892BBB
:1028A00029F00E94B91381110C940000089583301F
:1028B00081F028F4813099F08230A1F008958730BA
:1028C000A9F08830B9F08430D1F4809180008F7DF8
:1028D00003C0809180008F7780938000089584B535
:1028E0008F7702C084B58F7D84BD08958091B0003C
:1028F0008F7703C08091B0008F7D8093B0000895E2
:102900000E9472281F920F920FB60F9211242F93DC
:102910003F934F935F936F937F938F939F93AF9367
:10292000BF93EF93FF9387E593E00E94C313FF915A
:10293000EF91BF91AF919F918F917F916F915F9137
:102940004F913F912F910F900FBE0F901F901895B0
:102950001F920F920FB60F9211242F938F939F9374
:10296000EF93FF93E0916703F09168038081E0911A
:102970006D03F0916E0382FD12C09081809170030F
:102980008F5F8F7320917103821751F0E091700374
:10299000F0E0E95AFC4F958F8093700301C080816D
:1029A000FF91EF919F918F912F910F900FBE0F90FC
:1029B0001F901895CF93DF93282F30E0F901E4534F
:1029C000FE4F8491F901EE57FF4FD491F901EA5679
:1029D000FF4FC491CC2391F081110E945714EC2F2A
:1029E000F0E0EE0FFF1FEE53FE4FA591B491EC9176
:1029F000ED2381E090E021F480E002C080E090E0EF
:102A0000DF91CF9108951F93CF93DF93282F30E06C
:102A1000F901E453FE4F8491F901EE57FF4FD49131
:102A2000F901EA56FF4FC491CC23C1F0162F811152
:102A30000E945714EC2FF0E0EE0FFF1FE854FE4FFA
:102A4000A591B4919FB7F894111104C08C91D095C1
:102A5000D82302C0EC91DE2BDC939FBFDF91CF9196
:102A60001F910895CF93DF9390E0FC01EE57FF4F45
:102A70002491FC01EA56FF4F8491882361F190E094
:102A8000880F991FFC01E858FF4FC591D491FC01B4
:102A9000E854FE4FA591B491611109C09FB7F89415
:102AA0008881209582238883EC912E230BC062308D
:102AB00061F49FB7F8948881322F309583238883FF
:102AC000EC912E2B2C939FBF06C08FB7F894E88112
:102AD0002E2B28838FBFDF91CF9108958E3008F081
:102AE0008E508770806480937C0080917A0080642F
:102AF00080937A0080917A0086FDFCCF80917800E7
:102B00002091790090E0922B08953FB7F89480913E
:102B1000DD059091DE05A091DF05B091E00526B5B9
:102B2000A89B05C02F3F19F00196A11DB11D3FBF05
:102B3000BA2FA92F982F8827820F911DA11DB11D93
:102B4000BC01CD0142E0660F771F881F991F4A958F
:102B5000D1F708958F929F92AF92BF92CF92DF925A
:102B6000EF92FF926B017C010E9485154B015C0185
:102B7000C114D104E104F104F1F00E948515DC01D7
:102B8000CB0188199909AA09BB09883E9340A10580
:102B9000B10570F321E0C21AD108E108F10888EE0E
:102BA000880E83E0981EA11CB11CC114D104E1045D
:102BB000F10419F7DDCFFF90EF90DF90CF90BF9039
:102BC000AF909F908F9008952FB7F8946091D9059A
:102BD0007091DA058091DB059091DC052FBF089597
:102BE0001F920F920FB60F9211242F933F938F9342
:102BF0009F93AF93BF938091D9059091DA05A091EF
:102C0000DB05B091DC053091D80523E0230F2D378B
:102C100020F40196A11DB11D05C026E8230F0296E0
:102C2000A11DB11D2093D8058093D9059093DA0595
:102C3000A093DB05B093DC058091DD059091DE0566
:102C4000A091DF05B091E0050196A11DB11D809313
:102C5000DD059093DE05A093DF05B093E005BF91FD
:102C6000AF919F918F913F912F910F900FBE0F9039
:102C70001F9018958EBD00000DB407FEFDCF8EB5D8
:102C80000895FC019381892F8F7D8059823058F0FF
:102C900080E3890F823038F081E0903F31F0913F3E
:102CA00021F080E0089581E008950895FC0193816A
:102CB000892F8F7D8859823058F088E2890F8230C1
:102CC00038F081E0983F31F0993F21F080E008959D
:102CD00081E008950895FC0193819B35C1F088E659
:102CE000890F8330A0F0892F8F798D59823078F049
:102CF00088E4890F823058F088E2890F823038F0FA
:102D000088E0890F843018F080E090E0089586E034
:102D1000890F823010F09B3519F48489958902C09F
:102D2000868997899827892798270895FC01938198
:102D3000292F2F7B2059263070F080E5890F8530B0
:102D400050F080E1890F823030F0935F933018F0BB
:102D500080E090E0089586899789982789279827A9
:102D60000895CF93DF930E943313EC0184E891E040
:102D70000E940D128C0F9D1FDF91CF910895CF936C
:102D8000C82F482F60EE8FE00E9437108FE00E941E
:102D90001A10982F907E81E09C1301C080E0CF91A3
:102DA0000895E6E7F4E085E090E090933D05809398
:102DB0003C05AAEDB4E08C9111969C9120E525ABE1
:102DC00096AB87AB10AE11AE12AE13AE14AE0C9430
:102DD00068118091B604823721F08C3911F0853B5F
:102DE00019F48091C9040895853F19F48091CB04AA
:102DF0000895823F19F48091CD04089580E00895EC
:102E00008091B604853B19F48091CB0408959EE22D
:102E1000980F923018F48091CC040895853F19F4EE
:102E20008091CD04089580E008958091B6048C3996
:102E300011F0853B19F48091CA040895823B11F08A
:102E4000823D19F48091CB040895853F19F4809157
:102E5000CC04089580E00895CF93DF93CDB7DEB71B
:102E600028970FB6F894DEBF0FBECDBF1092C205F3
:102E70008093ED0484E090E090933D0580933C05C1
:102E800082E08093A80483E08093A9046091D90430
:102E900070E080E090E0FE013196AE01475F5F4F49
:102EA0009F011192E417F507E1F741E04093A10477
:102EB00040E00E9477101092A1040E94E4156093F4
:102EC0003E0570933F0580934005909341052896F9
:102ED0000FB6F894DEBF0FBECDBFDF91CF9108953E
:102EE000CF93DF93C6E7D4E09F838887692F83E180
:102EF00090E00E94DA04688584E190E0DF91CF9150
:102F00000C94DA040F931F93CF93DF9300D000D07B
:102F1000CDB7DEB7182F109293041092940410923C
:102F20009504109296041092970444E0BE016F5FDE
:102F30007F4F0E94C20F2A813981822F90E065E085
:102F4000959587956A95E1F748E0349F800D911D2E
:102F50001124092E000CAA0BBB0B809394049093B0
:102F60009504A0939604B093970423FF29C032E000
:102F7000880F991FAA1FBB1F3A95D1F72370820FA4
:102F8000911DA11DB11DBA2FA92F982F88272B8124
:102F9000820F911DA11DB11DBA2FA92F982F88272F
:102FA0002C81820F911DA11DB11D809394049093DB
:102FB0009504A0939604B093970481E080939304C2
:102FC0008FEF810F0E941A10082F84E0810F0E945A
:102FD0001A1003FF04C091E09093A10402C0109264
:102FE000A104482F4F704093980469E974E085E08C
:102FF000810F0E94C20F0F900F900F900F90DF91E2
:10300000CF911F910F9108951F93CF93DF93C6E740
:10301000D4E060E08DA50E94031580EA0E943A1674
:1030200080E00E943A16182F61E08DA50E940315DA
:10303000812FDF91CF911F910895789484B582609C
:1030400084BD84B5816084BD85B5826085BD85B54C
:10305000816085BD80916E00816080936E001092CA
:103060008100809181008260809381008091810045
:1030700081608093810080918000816080938000D6
:103080008091B10084608093B1008091B000816034
:103090008093B00080917A00846080937A00809160
:1030A0007A00826080937A0080917A0081608093B8
:1030B0007A0080917A00806880937A001092C10033
:1030C0003E9A61E080E00E94321561E081E00E945A
:1030D00032150E94E4156838734181059105E8F4C2
:1030E00060E080E00E94031560E081E00E9403152B
:1030F00064E670E080E090E00E94AA1561E080E064
:103100000E94031561E081E00E94031564EF71E005
:1031100080E090E00E94AA15DCCF61E080E00E9490
:10312000031561E081E00E9403153E98469AC0E1D4
:10313000D1E068E0A62E61E0B62E7FE3E72E73E0D3
:10314000F72EE8E18E2EE1E09E2E61E089910E944B
:103150003215F50111915F0160E0812F0E94321557
:10316000812F0E946E15812F0E946E15F7018193A9
:1031700091937F018C169D0641F7ACEDB4E0FD0103
:10318000119224E0E43EF207D9F7EAE6F1E08191FA
:103190008D9331E0E137F307D1F788E58093E504BB
:1031A0008DE08093E40482E08093E70481E08093E3
:1031B000E8048091E60483608093E60486EC90E066
:1031C000A0E0B0E08093F0049093F104A093F204A7
:1031D000B093F304D1E036991CC00E94E4154B0172
:1031E0005C01C1E00E94E415DC01CB01881999095A
:1031F000AA09BB09883E9340A105B10510F00C94C3
:10320000AD23CC2341F3C6B1C6FBCC27C0F9CD27F3
:10321000E9CF61E080E00E94031561E081E00E9457
:10322000031585EA95E09093C4058093C3058AE071
:103230008093A30461E00E94321561E08091A304B1
:103240000E940315C4E1D0E040EAA42E40E0B42E71
:103250005CE8E52E50E0F52ECFB6F8948091360369
:10326000811126C0F5018491F7012491E82FF0E047
:10327000EE0FFF1FE858FF4FA591B4919C91822F4C
:10328000892321F461E08AE00E94031561E08AE06D
:103290000E9432158CB580618CBD8CB580648CBD6C
:1032A00061E08DE00E94321561E08BE00E943215F2
:1032B000809136038F5F80933603CFBE60E08091AC
:1032C000A3040E94031580EC0E943A1661E08091ED
:1032D000A3040E9403156AE070E080E090E00E9481
:1032E000AA1580E80E94BF16882381F06AE070E08A
:1032F00080E090E00E94AA156EE170E080E090E02E
:103300000E94AA15219709F0A7CF4BC06AE070E090
:1033100080E090E00E94AA1561E08AE20E945A10C3
:1033200061EB89E20E945A1065E088E20E945A101F
:103330006AE070E080E090E00E94AA1510E360E08F
:10334000812F0E945A1060E080E1810F0E945A1084
:1033500060E080E2810F0E945A101F5F1E3379F7F0
:1033600060E080E60E945A1060E080E70E945A10F8
:1033700063E08BE20E945A1044E064E680E60E941B
:10338000371040E060E680E70E94371080E00E943E
:10339000BF168111ABCF6AE070E080E090E00E9440
:1033A000AA158FEF8093D00562E00E9432158CE160
:1033B0000E949511881F8827881F80931F038823E8
:1033C00009F478C1E0916703F091680382E080839B
:1033D000E0916303F09164031082E0916503F09142
:1033E000660380E1808310926F03E0916B03F0919C
:1033F0006C0386E08083E0916903F0916A03808129
:1034000080618083E0916903F0916A038081886024
:103410008083E0916903F0916A03808180688083F2
:10342000E0916903F0916A0380818F7D8083C5E01C
:10343000D0E068EE73E080E090E00E94AA1582E799
:1034400091E00E941F122197A1F786E891E00E9467
:10345000AB1284E791E00E941F1282E090E00E948C
:10346000111388E794E00E94570889E491E00E94D4
:10347000B11682E491E00E94331380E090E00E9454
:10348000DC0460E170E00E94F31289E391E00E94A5
:10349000331360E170E080917C040E94F31284E3B6
:1034A00091E00E94331380917D0490917E049827CF
:1034B0008927982790938E0480938D040E94A512EB
:1034C0008CE291E00E94331360E170E080918C0403
:1034D0000E94F3128FE191E00E94331360E170E0EB
:1034E00080917F040E94F3128DE091E00E943313DB
:1034F00060E170E0809183040E94F31282E091E029
:103500000E94331360E170E0809181040E94F31205
:1035100086EF90E00E943313C0E080918104C817C9
:1035200078F48C2F90E049960E94DC0460E170E012
:103530000E94F31284EF90E00E943313CF5FEDCF2F
:1035400088EE90E00E943313C0E080918104C81798
:1035500090F4EC2FF0E0EE0FFF1FE45CFB4F60E116
:1035600070E0808191810E94621286EE90E00E945C
:103570003313CF5FEACF86ED90E00E943313C2E0B1
:10358000D0E0CE010E94DC0460E170E00E94F31202
:1035900084ED90E00E9433132196C231D10589F762
:1035A00083EC90E00E94331310E08091840418179C
:1035B00018F5C12FD0E0CC0FDD1F809187044E019C
:1035C000880E911CC4010E94DC0460E170E00E943E
:1035D000F312809187045E01A80EB11CC50101960B
:1035E0000E94DC0460E170E00E94F31281EC90E044
:1035F0000E9433131F5FD9CF88EB90E00E94B11671
:10360000C0918504D091860410E08091820418173F
:1036100008F050C07E0124E0E20EF11CCE010E94B1
:10362000DC0460E170E00E94F312219686EB90E0EA
:103630000E943313CE15DF0589F784EB90E00E94DA
:103640003313A12EB12CAA0CBB1CE12CF12CF701D9
:10365000EA0DFB1DEC50FC4F60E170E08081918130
:103660000E94621282EB90E00E94331332E1E30E7B
:10367000F11C48E4E416F10451F78CEA90E00E9452
:10368000331300E080918304081770F4CE010E9488
:10369000DC0460E170E00E94F31221968AEA90E077
:1036A0000E9433130F5FEECF84E891E00E940D1269
:1036B0001F5FABCF80911F0381110EC01092C80510
:1036C00081E08093C90561E080E00E94321561E0ED
:1036D0008091C9050E943215F89489E0E0E0F0E09D
:1036E000809357003491E3E0F0E0809357002491F9
:1036F000E2E0F0E0809357009491E1E0F0E0809305
:10370000570084917894C1E03F3F09F4C0E02C3524
:1037100009F0CE5FE2E0E90FE23020F0CC5F8F3FAE
:1037200019F406C08F3F11F0C85F02C0CC2369F1C5
:1037300080911F03811102C0C1E014C08BE591E0AC
:103740000E9433136AE070E08C2F0E94F31287E826
:1037500091E00E94AB1268EE73E080E090E00E947E
:10376000AA15ECCF8D2D8C278170D82E682F80E084
:103770000E9403156D2D81E00E94031564EF71E036
:1037800080E090E00E94AA15EDCF6AE188E794E01E
:103790000E944E0590E090931C0380931B0305EE5E
:1037A00012E0C1E06C2F88E794E00E944E0590E0A3
:1037B000F8019383828361E06C0F88E794E00E94B4
:1037C0004E0590E0F8019583848362E06C0F88E7F2
:1037D00094E00E944E0590E0F801978386838091E3
:1037E0001F03811106C0CD5F0A5F1F4FC931D1F69B
:1037F00022C089E891E00E941F12F8018281938122
:103800000E94111380EA91E00E941F12F801848146
:1038100095810E94111387EB91E00E941F12F8011D
:10382000868197819C01220F331F820F931F44963C
:103830000E941113D8CF0E94AA0880911F038823E9
:1038400021F085E591E00E94B11644244394512C67
:10385000FCE32F2E312CC12CD12C7601C3940E9475
:10386000851560935303709354038093550390938D
:10387000560300914F031091500320915103309152
:1038800052034B015C01801A910AA20AB30A49EE65
:10389000841643E09406A104B10448F40E94500B3E
:1038A0008091EF048823A9F10E94AA0832C0609396
:1038B0004F03709350038093510390935203C0E0E1
:1038C000D1E00E940418837001F16EC78091A404B6
:1038D0008093B2058091A5048093B3058091A604DE
:1038E0008093B4058091A7048093B5054093B005FB
:1038F0008091A104811183C71092B1058091360592
:1039000090913705892B09F47DC7CF5FC230C9F686
:10391000C5CF80913503882309F410C1C091E4021A
:10392000D0E08E010E5F1F4F07701127FE01E85F88
:10393000FE4F5F0180810E94DA14982EF50181818B
:103940000E94DA14B82E8091E20290E09C0121508E
:103950003109C217D30721F00297C817D90769F5B3
:103960000E9485154AE00E94211283EC91E00E949A
:103970001F128091E40290E06AE070E001960E94DC
:10398000621283EC91E00E941F126AE070E0892DC0
:103990000E94F31281EC91E00E941F128091E402D8
:1039A00090E06AE070E002960E94621283EC91E07F
:1039B0000E941F128B2D0E940113C091E4026C2FF4
:1039C000892D0E94ED0A61E06C0F8B2D0E94ED0A9B
:1039D0002091E1028C2F90E030E00C2E02C0359552
:1039E00027950A94E2F720FF0DC02091E10230E014
:1039F000AC014F5F5F4F02C0359527954A95E2F7BE
:103A000020FF4CC72091E10230E00C2E02C035951A
:103A100027950A94E2F720FD0DC02091E10230E0E5
:103A2000AC014F5F5F4F02C0359527954A95E2F78D
:103A300020FD3EC72091E10230E00C2E02C03595FA
:103A400027950A94E2F720FF76C02091E10230E04A
:103A5000019602C0359527958A95E2F720FF6BC045
:103A6000C695D0E0CC0FDD1FC95CDC4F8881998101
:103A7000892B09F460C085EC91E00E941F128091AF
:103A8000E40290E06AE070E001960E946212E09128
:103A9000E402E695F0E0EE0FFF1FE95CFC4F808149
:103AA0009181019709F010C78CEC91E00E94AB1254
:103AB00082ED91E00E941F12E091E402F0E0EE0F2F
:103AC000FF1FEF53FD4F808191810E94A51282EC70
:103AD00091E00E941F128091C002882309F4F7C66A
:103AE00085E591E00E941F128BED91E00E94AB12E0
:103AF0008091E402C82FC695D0E0CC0FDD1FFE01F7
:103B0000E95CFC4F208131814091C00290E0880F38
:103B1000991FFC012130310509F0DCC6EF53FD4F40
:103B20006081718181E0411180E00E94A711C95C30
:103B3000DC4F198218820093E402D2C480913303CF
:103B400090913403092E000CAA0BBB0B4091530338
:103B50005091540360915503709156038417950753
:103B6000A607B70708F0BCC480913203C091E402F5
:103B7000D0E05E01882309F437C2FFEFAF1ABF0A15
:103B8000350127E062227724FE01E85FFE4F908036
:103B9000892D0E946E158C018091E302823020F401
:103BA000892D0E946E158C0161E0FE01E05FFE4FE1
:103BB00080810E9403158091000190910101803E57
:103BC00031E09307D8F420913003CC0FDD1FC05EA5
:103BD000DC4F27FF0CC028813981200F311F39832A
:103BE00028830196909301018093000107C088818A
:103BF00099810817190710F4198308838091E2024C
:103C000090E0A816B90609F043C085EE91E00E9445
:103C10001F120E9485154AE00E94211283EC91E058
:103C20000E941F128091E40290E06AE070E0019629
:103C30000E94621283EC91E00E941F128091E102C7
:103C40006AE070E00E94F31283EC91E00E941F1280
:103C50008091E40290E00196FC01EE0FFF1FE80F57
:103C6000F91FEE0FFF1FEB51FD4F808191819C01E9
:103C7000220F331F820F931F6AE070E044960E9468
:103C8000621283EC91E00E941F12C8010E9411137E
:103C9000A091E4028A2F90E09C012F5F3F4FA90181
:103CA000440F551F420F531FFA01EE0FFF1FEB5138
:103CB000FD4F20813181220F331F220F331F880FC8
:103CC000991FFC01EF52FD4F201731070CF096C0F1
:103CD0002081318137FF03C0518240827DC1440F72
:103CE000551FEA01CF51DD4F48815981241735070F
:103CF00009F472C12F5F3F4F31832083421753076E
:103D000009F06AC1EA2FE695E695E695F0E0EE0F38
:103D1000FF1FE55EFC4F208131810A2E02C03595E0
:103D200027950A94E2F7E901C170DD2720FF1BC047
:103D30002091E10230E00A2E02C0359527950A94C1
:103D4000E2F720FD49C12091E102B701A6010A2E48
:103D500004C0440F551F661F771F0A94D2F7422BE9
:103D60004093E1021CC02091E10230E00A2E02C023
:103D7000359527950A94E2F720FF2EC13091E10294
:103D8000B701A6010A2E04C0440F551F661F771FF6
:103D90000A94D2F74095242F23232093E102209107
:103DA000E10230E002C035952795AA95E2F73091FF
:103DB000C002FC01EF53FD4F6081718181E020FF63
:103DC00005C0311180E00E94A71104C0311180E0CC
:103DD0000E94DA118091E10290918104993128F0DA
:103DE00090E090936F0480936E0480911F0388236A
:103DF00009F4F2C0CD2B09F49EC0A0C0208131810E
:103E0000121613061CF411821082E6C0440F551FCF
:103E1000EA01CD51DD4F4881598166277727621B22
:103E2000730B6417750709F4D7C0B90161507109A4
:103E300071836083B201621B730B4617570709F049
:103E4000CBC0EA2FE695E695E695F0E0EE0FFF1F72
:103E5000E55EFC4F208131810A2E02C03595279501
:103E60000A94E2F7E901C170DD2720FF1DC020910F
:103E7000E10230E00A2E02C0359527950A94E2F758
:103E800020FFAAC03091E102B701A6010A2E04C0AA
:103E9000440F551F661F771F0A94D2F74095242FB1
:103EA00023232093E1021AC02091E10230E00A2E80
:103EB00002C0359527950A94E2F720FD8DC0209128
:103EC000E102B701A6010A2E04C0440F551F661F68
:103ED000771F0A94D2F7422B4093E1022091E1022E
:103EE00030E002C035952795AA95E2F73091C002DF
:103EF000FC01EF53FD4F6081718181E020FF05C01F
:103F0000311180E00E94A71104C0311180E00E94AD
:103F1000DA118091E10290918104993128F090E0CA
:103F200090936F0480936E0480911F03882309F49B
:103F300053C0CD2B19F086E691E002C082E691E0F5
:103F40000E941F1288EE91E00E941F128091E402ED
:103F500090E06AE070E001960E94621283EC91E0CA
:103F60000E941F126AE070E0C8010E94621282ED96
:103F700091E00E941F12E091E402F0E0EE0FFF1FBB
:103F8000EF53FD4F808191810E94A51282EC91E058
:103F90000E941F128091E10290E00090E40202C0B2
:103FA000959587950A94E2F780FF03C082E691E039
:103FB00002C086E691E00E941F128091C002882311
:103FC00019F085E591E002C08CE591E00E941F1296
:103FD0008BED91E00E94AB126092E402F301E05F8E
:103FE000FE4F60E080817AC27FEFA71AB70A3501E1
:103FF00087E068227724F301E05FFE4F908060E065
:10400000892D0E940315FE01E85FFE4F8080882DF8
:104010000E946E158C018091E302823020F4882D7D
:104020000E946E158C018091000190910101803EEB
:10403000E1E09E07B0F4CC0FDD1FFE01E05EFC4F17
:10404000C15CDC4F48815981401B510B208131817B
:10405000240F351F318320830196909301018093B3
:1040600000018091E20290E0A816B90609F046C06E
:104070000E9485154AE00E94211283EC91E00E9483
:104080001F128091E40290E06AE070E001960E94C5
:10409000621283EC91E00E941F128091E1026AE0BB
:1040A00070E00E94F31283EC91E00E941F12E091F5
:1040B000E402F0E0EE0FFF1FE15CFC4F6AE070E00D
:1040C000808191810E94621283EC91E00E941F1214
:1040D0006AE070E0C8010E94621283EC91E00E94E5
:1040E0001F12E091E402F0E0EE0FFF1FE15CFC4FD5
:1040F00080819181801B910B0E941113B090E4028A
:104100008B2D90E09C01220F331FF901E15CFC4FE5
:10411000608171810196AC01440F551F840F951F7A
:10412000FB01E01BF10BDC01AA0FBB1FAB51BD4F24
:104130004D915C91DA01AA0FBB1F4A0F5B1F4C5EC9
:104140005F4F4E175F070CF09BC0061717070CF068
:1041500097C0F901EF52FD4F4081518157FF03C0D5
:1041600051824082A0C1880F991FDC01AF51BD4F21
:104170008D919C914817590709F495C14F5F5F4F86
:10418000518340838417950709F08DC1EB2DE69587
:10419000E695E695F0E0EE0FFF1FE55EFC4F8081AF
:1041A00091810B2C02C0959587950A94E2F7EC015A
:1041B000C170DD2780FF19C08091E10290E00B2CD7
:1041C00002C0959587950A94E2F780FD6CC14091F5
:1041D000E102D701C6010B2C04C0880F991FAA1F4A
:1041E000BB1F0A94D2F7842B19C08091E10290E0A2
:1041F0000B2C02C0959587950A94E2F780FF53C176
:104200004091E102D701C6010B2C04C0880F991F11
:10421000AA1FBB1F0A94D2F7809584238093E102E2
:104220008091E10290E002C095958795BA94E2F7FB
:104230009091C002F901EF53FD4F6081718180FFC1
:1042400006C081E0911180E00E94A71105C081E0C5
:10425000911180E00E94DA118091E1029091810435
:10426000993128F090E090936F0480936E048091D0
:104270001F03882309F417C1CD2B09F49FC0A1C0E7
:10428000F901EF52FD4F40815181141615061CF4BF
:104290001182108208C1880F991FDC01AD51BD4FFA
:1042A0008D919C9166277727641B750B681779079A
:1042B00009F4F9C0BA016150710971836083B201D8
:1042C000641B750B8617970709F0EDC0EB2DE6957B
:1042D000E695E695F0E0EE0FFF1FE55EFC4F80816E
:1042E00091810B2C02C0959587950A94E2F7EC0119
:1042F000C170DD2780FF1AC08091E10290E00B2C95
:1043000002C0959587950A94E2F780FFCCC0409152
:10431000E102D701C6010B2C04C0880F991FAA1F08
:10432000BB1F0A94D2F78095842318C08091E102C4
:1043300090E00B2C02C0959587950A94E2F780FDDA
:10434000B2C04091E102D701C6010B2C04C0880F16
:10435000991FAA1FBB1F0A94D2F7842B8093E102F6
:104360008091E10290E002C095958795BA94E2F7BA
:104370009091C002F901EF53FD4F6081718180FF80
:1043800006C081E0911180E00E94A71105C081E084
:10439000911180E00E94DA118091E10290918104F4
:1043A000993128F090E090936F0480936E0480918F
:1043B0001F03882309F477C0CD2B19F086E691E01E
:1043C00002C082E691E00E941F1288EE91E00E94F6
:1043D0001F128091E40290E06AE070E001960E9472
:1043E000621283EC91E00E941F12E091E402F0E07F
:1043F000EE0FFF1FE15CFC4F6AE070E0808191816D
:104400000E94621283EC91E00E941F126AE070E049
:10441000C8010E94621283EC91E00E941F12E09199
:10442000E402F0E0EE0FFF1FE15CFC4F8081918120
:104430006AE070E0801B910B0E94621282ED91E0B5
:104440000E941F12E091E402F0E0EE0FFF1FEF5315
:10445000FD4F808191810E94A51282EC91E00E9423
:104460001F128091E10290E00090E40202C0959555
:1044700087950A94E2F780FF03C082E691E002C0CC
:1044800086E691E00E941F128091C002882319F0F5
:1044900085E591E002C08CE591E00E941F128BED52
:1044A00091E00E94AB126092E402F301E85FFE4FDC
:1044B0001081812F0E946E15E301CC0FDD1FC15CBE
:1044C000DC4F998388838091E302823028F4812F26
:1044D0000E946E159983888361E0892D0E940315DF
:1044E00080913C0590913D05039759F4369909C098
:1044F0000E94E415613177428105910510F00E9418
:10450000D1168091000190910101803E91400CF400
:1045100021C18FEF9FEF9093010180930001C0E2D2
:10452000D3E005EE12E054E0A52EB12C20E030E0FF
:1045300067E9662EA201022E02C0440F551F0A949D
:10454000E2F78091310390E084239523B9016F5FF6
:104550007F4F4B014817590709F0E6C0909132038D
:1045600080913003992331F190913503911122C04C
:1045700087FF0FC0888199814E96B1010E94232741
:10458000E9E0E69FC001E79F900D11246AE070E02A
:1045900034C02881398180E094E0821B930B6AE06B
:1045A00070E00E9423272C5E3F4F260F371F398370
:1045B000288327C087FF13C0888199814E96B10157
:1045C0000E942327FCE0F69FC001F79F900D112465
:1045D0006AE070E00E9423276C5E7F4F10C08881E4
:1045E00099814E96B1010E94232723E1269FC001A5
:1045F000279F900D112464E170E00E9423277983A6
:10460000688380911F038823C9F082EF91E00E94A4
:104610001F126AE070E0C4010E9462128AEF91E00A
:104620000E941F1283EC91E00E941F1288819981E1
:104630000E94A51283EC91E00E941F12888199814B
:10464000449720F464E170E0798368832091320319
:1046500088819981222339F096958795969587953B
:104660009983888307C0449763E070E00E94232702
:104670007983688388819981892B11F459824882D2
:10468000888199818F3F910520F08EEF90E099838A
:1046900088834881842F9981F801268137812817E2
:1046A000390709F441C0978386837A2C6FEF6A0D2E
:1046B0008091EB04861720F088E794E00E940805BB
:1046C00080911F038823C1F08AE092E00E941F12AC
:1046D0006AE070E0C5010E94621283EC91E00E94E2
:1046E0001F126AE070E0F801868197810E946212D1
:1046F00085E192E00E941F12F80186819091DA0410
:104700002091DB046092AB042093AC049093AD0441
:104710007092AE048093AF041092B0041092B10472
:104720001092B2040E9468111992199294010A5FC2
:104730001F4FF3E0AF0EB11C2830310509F0FACE5F
:104740001092310380911F03882321F083E292E0CD
:104750000E94AB120E944D1482C8CC2311F40C9419
:10476000EB1888E794E00E949F0781E08093AA04F9
:104770006091E60464606093E60460938C0485E1D4
:1047800090E00E94DA046091E60460938C0485E175
:1047900090E00E94DA0460E081E00E94031560E08E
:1047A00080E00E940315FFCF0E940418C11108C0C9
:1047B00080FFABC881E60E94821740E061E007C03D
:1047C00081FFA3C881E70E94821740E062E08CE28B
:1047D0000E94371040919804E6E7F4E09F012657C5
:1047E000344031968091980490E0281739070CF0F6
:1047F0006DC882A1DF01A15CBE4F8C93EFCFD09337
:10480000B1057CC861E070E07093370560933605B0
:104810008091340590913505CC9724F010923505A0
:1048200010923405E0EBF5E0809134059091350568
:104830002191DC01AA50BB4F12962C9301969093C4
:1048400035058093340580913A0590913B0501969A
:1048500090933B0580933A0575E0EF3BF70721F70E
:10486000CD97BCF080913805909139050F968C3327
:1048700091052CF4909339058093380504C010926B
:104880003905109238058CE390E090933B058093B6
:104890003A05109237051092360537C8EC2FE69589
:1048A000F0E0EE0FFF1FE95CFC4F51824082AAC886
:1048B000EC2FE695F0E0EE0FFF1FE95CFC4F22E0E5
:1048C00030E031832083B6C88FEC91E0EFC88CE5EF
:1048D00091E008C9ED53FD4F23C986E794E00C949D
:1048E00097088F929F92AF92BF92CF92DF92EF92F2
:1048F000FF920F931F93CF93DF93CDB7DEB7C654CC
:10490000D1090FB6F894DEBF0FBECDBF10925A0387
:104910001092590388EE93E0A0E0B0E080935B032F
:1049200090935C03A0935D03B0935E038FE191E0ED
:10493000909358038093570385EC90E09093640321
:104940008093630384EC90E0909366038093650307
:1049500080EC90E0909368038093670381EC90E093
:1049600090936A038093690382EC90E090936C03C8
:1049700080936B0386EC90E090936E0380936D03BD
:1049800010927003109271031092720310927303CD
:1049900081E591E0909377048093760489E491E037
:1049A000909379048093780483EB94E00E94C3048D
:1049B00081E491E09093D8048093D704ECEDF4E087
:1049C00080E3819344E0E43EF407D9F789E391E082
:1049D0009093F7048093F6041092EC041092C205B1
:1049E00027E1FE013196A3E9B4E001900D922A95EA
:1049F000E1F79A83898321961FAE1EAE21972396F5
:104A00001FAE1EAE239725961FAE1EAE2597279686
:104A10001FAE1EAE2797DE011396E8EFF4E08D91EE
:104A2000819385E0E433F807D1F7109235051092B1
:104A30003405109237051092360510923905109200
:104A4000380510923B0510923A0589E491E09A836B
:104A500089838DE18A8789E08B8781E08C878D87C8
:104A600086E3888B88E390E09F878E8781E090E0E3
:104A70000E9451279C838B83CE0101960E94880758
:104A8000CE0101960E9457089CE3E92E94E0F92E8E
:104A900010E0612FCE0101960E944E0590E0F701D3
:104AA000819391937F011F5F1D3199F7EB84988467
:104AB000CC8484EFA82E83E0B82ED12CF4E0CF0E66
:104AC000D11C0E851F85F12C88248394198A1A8A9B
:104AD0001B8A1C8A1B8EEF1410F09F1410F48B8E0F
:104AE00013C0C8010E94DC04898BC80101960E9492
:104AF000DC048A8BC80102960E94DC048B8BC801FF
:104B000003960E94DC048C8B3989832F90E0F50199
:104B1000819391935F012A89822F90E0918B808B02
:104B20009B89492F50E053A342A38C89482F50E022
:104B300055AB44ABF3940C0D1D1DF9E0FF12C6CF2D
:104B40004B815C8150937B0440937A044D81409368
:104B50007C044E8140937D044F8140937E044885C0
:104B600040937F044985409380044A8540938104A3
:104B7000E09282044C85409383044D8540938404E5
:104B80004E855F8550938604409385044889409301
:104B90008704309388042093890490938A04809337
:104BA0008B048D8980938C048E899F8990938E04C9
:104BB00080938D04888D80938F04898D80939004D9
:104BC0008A8D809391048B8D80939204CE010196FF
:104BD0000E94810881E491E09A838983DE01169620
:104BE000CE010E96FD0120E32193E817F907E1F7C6
:104BF0008B818093D9048C819D819093DB04809379
:104C0000DA04ECEDF4E08D91819344E0E43EF407A6
:104C1000D1F78E858093E4048F858093E50488899D
:104C20008093E60489898093E7048A898093E80465
:104C300089E08093E9048DE18093EB0481E0809327
:104C4000EA04CE0101960E94C3048B818093B504CF
:104C50008C818093B6048D818093B7048E8180937C
:104C6000B8048F8198859093BA048093B90489859C
:104C70009A859093BC048093BB048B859C8590930C
:104C8000BE048093BD048D859E859093C00480935F
:104C9000BF048F8598899093C2048093C104898949
:104CA0009A899093C4048093C3048B898093C5042C
:104CB000DE015496E6ECF4E08D91819384E0EE3CC5
:104CC000F807D1F78C8D8093CE048D8D8093CF041F
:104CD0008E8D8093D0048F8D8093D10488A1809392
:104CE000D20489A19AA19093D4048093D3048BA178
:104CF0008093D5048CA18093D6048091EC048160CC
:104D00008093EC041092ED040FEF0093C80500931C
:104D1000C90511E01093CA051092CB050E94E41555
:104D20006093CC057093CD058093CE059093CF050D
:104D30001092C4051092C3051092D3051092D205AB
:104D40001092EE041093EF040093D0051093D10558
:104D50008CE291E0A0E0B0E08093F0049093F10445
:104D6000A093F204B093F30488E794E00E945708FC
:104D700080917D0490917E049827892798279093AD
:104D80008E0480938D049093DB048093DA048091E9
:104D90007C048093D90480918C048093E604109362
:104DA000AA0483E090E090933D0580933C05CA5BA4
:104DB000DF4F0FB6F894DEBF0FBECDBFDF91CF91AE
:104DC0001F910F91FF90EF90DF90CF90BF90AF9029
:104DD0009F908F900895F999FECF92BD81BDF89A6A
:104DE000992780B50895262FF999FECF1FBA92BD55
:104DF00081BD20BD0FB6F894FA9AF99A0FBE0196BC
:104E00000895A1E21A2EAA1BBB1BFD010DC0AA1F0B
:104E1000BB1FEE1FFF1FA217B307E407F50720F023
:104E2000A21BB30BE40BF50B661F771F881F991F9E
:104E30001A9469F760957095809590959B01AC01E7
:104E4000BD01CF010895AA1BBB1B51E107C0AA1FDA
:104E5000BB1FA617B70710F0A61BB70B881F991F1B
:104E60005A95A9F780959095BC01CD01089597FBBF
:104E7000072E16F4009407D077FD09D00E9423274F
:104E800007FC05D03EF4909581959F4F089570954D
:104E900061957F4F0895EE0FFF1F0590F491E02D6F
:104EA00009940F931F93CF93DF938230910510F4F1
:104EB00082E090E0E091E305F091E40520E030E04D
:104EC000A0E0B0E0309719F1408151810281138157
:104ED00048175907C8F08417950769F4109731F0FF
:104EE00012960C93129713961C9327C00093E30518
:104EF0001093E40522C02115310519F0421753071C
:104F000018F49A01BD01EF01DF01F801DBCF211593
:104F10003105F9F0281B390B2430310580F48A81E2
:104F20009B816115710521F0FB019383828304C08D
:104F30009093E4058093E305FE01329644C0FE01A0
:104F4000E20FF31F81939193225031093983288313
:104F50003AC02091E1053091E205232B41F42091E4
:104F60000401309105013093E2052093E105209181
:104F70000201309103012115310541F42DB73EB7EF
:104F80004091060150910701241B350BE091E1058A
:104F9000F091E205E217F307A0F42E1B3F0B281750
:104FA000390778F0AC014E5F5F4F2417350748F0A2
:104FB0004E0F5F1F5093E2054093E105819391935B
:104FC00002C0E0E0F0E0CF01DF91CF911F910F919F
:104FD0000895CF93DF93009709F481C0FC013297C5
:104FE00013821282A091E305B091E405109781F439
:104FF00020813181820F931F2091E1053091E205DC
:105000002817390751F5F093E205E093E10567C0F1
:10501000ED0120E030E0CE17DF0740F44A815B81EC
:105020009E0141155105F1F0EA01F5CFD383C2830A
:1050300040815181840F951FC817D90759F4888181
:105040009981840F951F0296918380838A819B8129
:10505000938382832115310529F4F093E405E093CD
:10506000E3053DC0E901FB83EA8349915991C40FEF
:10507000D51FEC17FD0761F480819181840F951F86
:105080000296E90199838883828193819B838A8335
:10509000E0E0F0E012968D919C911397009719F043
:1050A000FD01DC01F7CF8D919C9111979D012E5F41
:1050B0003F4F820F931F2091E1053091E2052817A1
:1050C000390769F4309729F41092E4051092E3054A
:1050D00002C013821282B093E205A093E105DF9132
:1050E000CF91089581E090E0F8940C94772810E037
:1050F000C1EFD0E004C0FE010E944B272196C23FC1
:08510000D107C9F7F894FFCFB5
:10510800FFFF0000E50580001514131211100F0EA3
:10511800020304050607080930405000000000E4B7
:10512800134E137C132B14AD138B139F1300000025
:1051380000C2047D0400000000A9088104000000EA
:1051480000D9047F040000000081088D08000000D9
:105158000097089F082073686F727400206C6F6E48
:10516800670045696E0041757300415244555F49B7
:1051780052002A004172647549522056657273695B
:105188006F6E20000D0A00210045696E7363686127
:105198006C747665727A6F65676572756E672000E4
:1051A800417573736368616C747665727A6F65674D
:1051B8006572756E67200053636877656C6C65204F
:1051C800002020200053656E736F72002D3E003C56
:1051D8002D0020204576656E742000206765736574
:1051E8006E64657400415A002053656E736F723A9D
:1051F800200053656E736F722000205363687765D3
:105208006C6C656E776572742000205661726961F6
:10521800626C6520002067657370656963686572F4
:1052280074200066657274696700557365725F461D
:10523800756E6374696F6E3A20004576656E744DBD
:105248006174636820004576656E745661723A2011
:10525800004F50433A2000204E6F64653A200020EA
:1052680043616E49443A2000204D65737361676558
:1052780053697A653A20002053746174653A2000B6
:1052880045696E6D657373656E206265656E6465EC
:1052980074004B65696E65204B616C69627261745C
:1052A800696F6E206E6F657469670045696E6D651C
:1052B8007373656E2067657374617274657400003A
:00000001FF
