:100000000C9431050C9459050C9459050C94590520
:100010000C9459050C9459050C9459050C945905E8
:100020000C9459050C9459050C9459050C945905D8
:100030000C9459050C9459050C9459050C945905C8
:100040000C94980D0C9459050C944F0C0C94290C9D
:100050000C9459050C9459050C9459050C945905A8
:100060000C9459050C945905150818081B081E080E
:100070002108240827082A080020007072696E747D
:1000800052656365697665644D6573736167652D57
:10009000206D657373616765207265636569766558
:1000A000643A20004572726F722045564C524E4998
:1000B0002032004572726F722045564C524E4900F4
:1000C0004C6561726E696E67206576656E7420623C
:1000D0007920696E6465782E004572726F722045D2
:1000E000564C524E49205661726961626C650045FA
:1000F00072726F722045564C524E49004C656172C7
:100100006E696E67206576656E7420627920696E0F
:100110006465782E20526F637261696C204D6F6444
:10012000652E0052454345495645442052455145A8
:10013000562E20496E64657820696E76616C69641C
:10014000005245434549564544204F50435F524570
:100150005145562073656E64696E67204F50435F4A
:100160004556414E530052656164696E672045767D
:10017000656E74205661726961626C652E20526FE3
:10018000637261696C204D6F64652E002076616C2E
:1001900075653A0020766172696E6465783A00652B
:1001A00076696E6465783A00524543454956454440
:1001B000204F50435F524556414C2073656E646931
:1001C0006E67204F50435F4E4556414C20004765B7
:1001D00074206576656E74207661722E496E646552
:1001E0007820696E76616C696400524543454956D2
:1001F0004544204F50435F524556414C2E20496E96
:1002000064657820746F6F20626967004C65617265
:100210006E696E67206E6F646520766172696162D7
:100220006C65004572726F7220556E6C6561726EFE
:10023000205661726961626C65004572726F72204E
:10024000556E6C6561726E00556E6C6561726E20E4
:100250006576656E742E20526F637261696C204DF5
:100260006F64652E005245434549564544204F5022
:10027000435F43414E49442073656E64696E672055
:100280004F50435F4E4E41434B0052454345495604
:100290004544204F50435F52514E504E2073656E7F
:1002A00064696E67204F50435F504152414E005287
:1002B00045434549564544204F50435F4E454E52B5
:1002C000442073656E64696E67204F50435F454EEE
:1002D000525350005245434549564544204F5043E0
:1002E0005F4E454E52442E20496E64657820696EFB
:1002F00076616C6964005245434549564544204F38
:1003000050435F4E5652442073656E64696E672099
:100310004F50435F4E56414E530052454345495658
:100320004544204F50435F4E5652442E20496E6440
:10033000657820696E76616C696400446F696E67E8
:100340002073656C6620656E6E756D65726174698B
:100350006F6E005245434549564544204F50435F18
:10036000525145564E2073656E64696E67204F503A
:10037000435F4E554D455620004641494C4544206B
:10038000746F2073656E642043414E00476574208E
:100390006576656E742E496E64657820696E766147
:1003A0006C6964005245434549564544204F5043CB
:1003B0005F4E4552442073656E64696E67204F50EE
:1003C000435F454E525350200052454345495645E0
:1003D00044204F50435F4E4E45564E2073656E6429
:1003E000696E67204F50435F45564E4C4600436C44
:1003F00065617220616C6C206576656E74732E0089
:10040000676F696E6720746F204E4F524D414C20CC
:100410004D4F44452E00676F696E6720746F204C06
:100420004541524E204D4F44452E005245434549CB
:10043000564544204F50435F534E4E20616E64201A
:100440006E6F7420696E207365747570206D6F64B3
:10045000652E005245434549564544204F50435F61
:10046000534E4E2073656E64696E67204F50435F34
:100470004E4E41434B005245434549564544204F5B
:1004800050435F52514E4E20616E64206E6F742057
:10049000696E207365747570206D6F64652E0052EF
:1004A00045434549564544204F50435F52514E4EB7
:1004B0002073656E64696E67204F50435F4E414DF7
:1004C00045005245434549564544204F50435F52ED
:1004D000514E502073656E64696E67204F50435FC4
:1004E000504152414D5300524543454956454420E1
:1004F0004F50435F514E4E2073656E64696E6720A6
:100500004F50435F504E4E0068616E646C65436FA0
:100510006E6669674D657373616765732D207374CB
:100520006174653A0068616E646C65436F6E6669FC
:10053000674D657373616765732D2050726F6365D6
:100540007373696E6720636F6E666967206D65738C
:10055000736167650068616E646C65436F6E6669A0
:10056000674D657373616765732D206E6F742069C5
:100570006E207365747570206D6F64652E206C65D8
:100580006176696E670068616E646C65436F6E6664
:1005900069674D657373616765732D204E4E2064E6
:1005A0006966666572656E742066726F6D206D6532
:1005B0007373616765204E4E0053686F72743A2002
:1005C0004576656E74002020204576656E742000A7
:1005D0004C6F6E673A204E6F64654E6F20007772E5
:1005E0006974652076617220746F20656570726F22
:1005F0006D0000000000250028002B000000000016
:10060000240027002A0020005641525320002000D9
:10061000200020000A4556454E54533A0020000A57
:10062000444556494345204E554D424552533A00A4
:1006300020000A494E5445524E414C2056415253D7
:100640003A0020000A4E4F444520564152533A008A
:1006500020000A4E4F444520564152533A000A4E5C
:10066000554D20564152533A000A4E554D2045569D
:10067000454E545320564152533A000A4E554D2090
:100680004556454E54533A000A466C6167733A002A
:100690000A4E4E3A000A43414E5F49443A004944EB
:1006A000454E543A004D454D4F52592044554D50FA
:1006B0000053746172740050726F7A6573736F7255
:1006C0006665686C657220005365747570206E6590
:1006D00077206D656D6F7279007265616443616E3C
:1006E000427573202D2073657452544D00726561FC
:1006F0006443616E427573202D20756E736574526C
:10070000544D007265616443616E427573202D2003
:1007100073657452544D007265616443616E427535
:1007200073202D20756E73657452544D004572729E
:100730006F72206C656172206576656E740053611E
:1007400076696E67206576656E74207661722072B8
:1007500065737020006D6178206576656E74732016
:10076000766172733A20006D6178206576656E74EB
:10077000733A2000206F66206576656E7420002035
:1007800076616C75652000536176696E67206576C9
:10079000656E742076617220004C6561726E696EC0
:1007A00067206576656E742E0053656C6620656EF5
:1007B0006E756D65726174696F6E3A2073617669EA
:1007C0006E67206F74686572732063616E20696460
:1007D0002E006F74686572206D73672073697A6587
:1007E0003A005374617274696E67206D657373614A
:1007F00067652062617365642073656C6620656E51
:100800006E756D65726174696F6E2E005254522060
:100810006D6573736167652072656365697665648C
:100820002E2053656E64696E672063616E20696473
:100830003A2000525452206D6573736167652072CF
:10084000656365697665642E00200009204D617836
:100850004E756D4576656E74733A00092053686F66
:1008600072744576656E743A00092053686F72742D
:100870004576656E743A0009204576656E744E6F54
:100880003A0009204E6F64654E6F3A0009204C6FA4
:100890006E674576656E743A00092043616E49447F
:1008A0003A00092053544154453A0009204F50431F
:1008B0003A0053697A653A004D6573736167652044
:1008C000747970653A0053656C6620656E6E756D5F
:1008D00065726174696F6E3A206E65772063616E30
:1008E0002069642E0053656C6620656E6E756D65BB
:1008F000726174696F6E3A206E6F2063616E206959
:100900006420617661696C61626C652E004D6F6474
:100910006520464C494D2E204368616E67696E67BD
:1009200020746F20534C494D004D6F646520534C2B
:10093000494D2E204368616E67696E6720746F2091
:10094000464C494D004D6F646520464C494D2E2064
:1009500052657175657374204E4E00427574746FE4
:100960006E2072656C656173656400000000002391
:100970000026002900040404040404040402020202
:1009800002020203030303030301020408102040D0
:100990008001020408102001020408102000000059
:1009A000080002010000030407000000000000002E
:1009B0000053746172742074696D657200427574BD
:1009C000746F6E20707265737365640046696E693A
:1009D0007368696E672073656C6620656E6E756DF1
:1009E00065726174696F6E2E0050726F6365737308
:1009F000696E672073656C6620656E6E756D6572D5
:100A00006174696F6E2E00464C494D206D6F6465B0
:100A100000534C494D206D6F646500446F696E67EB
:100A2000207365747570000020007072696E7453D5
:100A3000656E744D6573736167652D206D657373A5
:100A40006167652073656E743A200053657474693C
:100A50006E6720464C494D206D6F646500005A2733
:100A6000D91E11241FBECFEFD8E0DEBFCDBF12E0EC
:100A7000A0E0B1E0E8EDF6E502C005900D92A83ADD
:100A8000B107D9F725E0A8EAB2E001C01D92A23C67
:100A9000B207E1F715E0C0E3D5E004C02197FE01FD
:100AA0000E94272ACF32D107C9F70E94DD1E0C947D
:100AB0005F2B0C940000CF92DF92EF92FF920F9386
:100AC0001F93CF93DF9300D0CDB7DEB740919C0446
:100AD00089E994E04A830E94520E2091C00430912B
:100AE000C1044A818217930749F186E895E00E9484
:100AF000C51C82E591E00E94F81989E994E00E9402
:100B0000520E0E94621A85E691E00E94F8198091C7
:100B1000C0049091C1040E94F51C8091220590911F
:100B2000230502974A81039748F44D3039F080EF4E
:100B3000840F823018F085E595E072C185E295E07A
:100B40004A830E94C51C88E095E00E94A41C809105
:100B50002205909123050E947A1C80919E044A816F
:100B6000882319F18BE790E00E94A41C00E010E0BC
:100B70004A8180919C04882321F0F801E455FB4FC1
:100B8000808160E170E04A830E94901C89E790E0D8
:100B90000E94A41C0F5F1F4F4A810830110549F7BE
:100BA00088E790E00E94C51C4A810091C004109122
:100BB000C1044D3509F4B3C108F042C0433509F40E
:100BC0001DC178F4403109F47EC020F44D3009F4A1
:100BD0005CC041C4413109F4A6C0423409F4CEC01E
:100BE0003AC4463509F432C138F4443509F40DC12C
:100BF000453509F418C12FC4473509F44FC14835AC
:100C000009F029C48091650494E7909391041093AE
:100C1000920400939304809394041092950410928C
:100C20009604109297041092980483E593E00E9432
:100C3000A41C6AE070E0809165040E94051D48C212
:100C4000453909F448C278F4423709F4A2C120F4C6
:100C5000413709F474C1FFC3433709F4C8C14537AC
:100C600009F410C2F8C3423B09F407C338F446390B
:100C700009F46BC24C3909F4AAC2EDC3423D09F430
:100C800040C3453F09F434C3E6C30115110509F417
:100C9000E2C38091CC049091CB042091CA0436EB3E
:100CA000309391041093920400939304209394043E
:100CB0009093950480939604109297041092980450
:100CC00087EE94E0DBC08091220590912305059783
:100CD00009F0C1C3E1E9F4E088E08E0F11928E13B0
:100CE000FDCF8091CE049091D1042091D004309119
:100CF000CF044091CB045091CD046091CA047FEEA3
:100D000070939104609392045093930440939404DD
:100D100030939504209396049093970480939804BD
:100D200082EC94E0ABC08091220590912305059759
:100D300011F58091C8049091C7042091C6043091A8
:100D4000C5044091C4045091C3046091C20472EE82
:100D5000709391046093920450939304409394048D
:100D6000309395042093960490939704809398046D
:100D70008FE994E083C086E794E03CC0809122052F
:100D8000909123050597A1F583E594E00E94C51C89
:100D900089E994E00E94520E9093C1048093C004AC
:100DA0000E94F71D8091C0049091C10422E5209318
:100DB000910490939204809393041092940410925F
:100DC000950410929604109297041092980483E070
:100DD00090E090932305809322050E94E31C60918C
:100DE000CC046093720485E190E00E947D0E4AC0BD
:100DF0008BE294E00E94C51C83E077C21092230529
:100E00001092220586E194E00BC083E090E090937D
:100E100023058093220581E08093D50480E094E04F
:100E20000E94C51C18C38091220590912305892B2F
:100E300009F011C38EEE93E00E94C51C60E087E1CB
:100E400090E00E947D0E1092650405C38091CF044E
:100E500090916504891B90E79093910410939204FC
:100E60000093930480939404109295041092960436
:100E7000109297041092980489EC93E00E94C51C8C
:100E80000E94361D0F900F90DF91CF911F910F910F
:100E9000FF90EF90DF90CF900C94D51BD09065041D
:100EA00084EA93E00E94A41C6AE070E08D2D0E9409
:100EB000051DDD2009F4CFC2F12EC12C82EFE82EF2
:100EC0008C2D0E94AE19FC0180917804882319F0C2
:100ED0008CE893E0A5C28381928121813081E092E8
:100EE0009104F0929204009393043093940420931D
:100EF00095049093960480939704C09298040E945E
:100F0000D51B882321F089E793E00E94C51C0E942D
:100F1000E8190E94361DC394CD10D2CF9CC289E936
:100F200094E00E94520E8017910709F094C28BE35F
:100F300093E00E94C51C81E00E94B41D8CC2809188
:100F40009C04813719F08659823018F4F090AF0470
:100F500001C0F12C8FEF8F0D0E94021C909178043C
:100F6000992319F08AE193E05BC297E99093910489
:100F70001093920400939304F09294048093950448
:100F800010929604109297041092980486EF92E0C3
:100F90009DC0E1E9F4E088E08E0F11928E13FDCF41
:100FA0000E94711DF82E8FEF8F0D0E94AE19FC016B
:100FB00090917804992319F084ED92E093C1838194
:100FC00092812181308142EF4093910410939204E9
:100FD0000093930430939404209395049093960483
:100FE00080939704F09298048FEA92E06FC080910A
:100FF0009C04833721F42091AF0421110BC08BE9AD
:10100000809391041093920400939304109294049B
:1010100088E02DC0822F90E0FC013197E830F10587
:10102000E0F4EC5CFF4F0C94272A8091CA0416C0B0
:101030008091CD0413C08091CB0410C08091CF0467
:101040000DC08091D0040AC08091D10407C0809166
:10105000CE0404C08091CC0401C080E09BE9909351
:10106000910410939204009393042093940480932A
:1010700095041092960410929704109298048AE8AE
:1010800092E024C060919C0461116091AF04609370
:10109000BF046093620482E190E00E947D0E809123
:1010A000C0049091C10422E520939104909392048E
:1010B00080939304109294041092950410929604D5
:1010C000109297041092980485E692E00E94C51C45
:1010D0000E94361DBEC188E492E00E94C51C89E9C9
:1010E00094E00E943A0E8C0189E994E00E94520E2D
:1010F000BC01A8018EE594E00E944E0F182F6AE013
:1011000070E00E94051D109228051092290510928A
:101110002A0510922B05412F68E275E08EE594E0D8
:101120000E94D510811719F08AE392E0DBC0682F86
:1011300070E020E040E08EE594E00E94810E88237C
:1011400009F489C183E292E06BC190919C048AE624
:10115000890F913711F0823018F46091AF0401C00B
:1011600060E06150823018F44091B00401C040E06A
:101170008CE092E04A8369830E94C51C8091D1046F
:1011800069814A818617E0F08EE594E00E94AF0EF7
:101190008091C0049091C10429E52093910490931B
:1011A00092048093930410929404109295041092E8
:1011B000960410929704109298040E94D51B03C0C5
:1011C00089E00E94241D81E08093D50444C10E94DF
:1011D000711D082F0E949D1DF82E8091D0048F153F
:1011E00018F48AEE91E01CC14FEF4F0D6FEF600FC6
:1011F0008EE594E00E94DB0E182F909178049923DD
:1012000019F08EEC91E00CC18091C0049091C10462
:1012100025EB209391049093920480939304009380
:101220009404F092950410939604109297041092EF
:1012300098040E94D51B88EA91E00E94A41C8FE9C3
:1012400091E00E94A41C6AE070E0802F0E94901C34
:1012500084E991E00E94A41C6AE070E08F2D0E9456
:10126000901C8CE891E00E94A41C6AE070E0812F41
:101270000E94051D0E94361DEEC0809122059091AE
:101280002305892BE1F586E691E00E94C51C0E94AA
:101290009D1D182F0E94AE197C0140E0612F8EE544
:1012A00094E00E94DB0E90917804911119C0F7012F
:1012B000938122813181408153ED50939104409379
:1012C0009204309393042093940490939504109384
:1012D0009604809397041092980481E491E0F6CEEE
:1012E00083E291E00E94C51C86E00E94241DB3C0E9
:1012F0008091220590912305892B09F44AC082E050
:10130000F4CF8CEF90E00E94C51C89E994E00E9424
:101310003A0E182F092F89E994E00E94520EF82EF8
:101320009A830E949D1DE82E0E94881DD82E9A81C6
:1013300090932805F092290500932A0510932B0518
:101340004E2D68E275E08EE594E00E94D5108E1572
:1013500019F08FEE90E0C6CF082F10E0C80101977A
:101360000E947A1C6AE070E08D2D0E94051D2D2DD3
:1013700040E0B8018EE594E00E94810E182F6AE0EB
:1013800070E00E94051D112309F44EC089ED90E024
:1013900047C080EC90E00E94C51C89E994E00E945F
:1013A0003A0ED82E092F89E994E00E94520EF82EA9
:1013B0009A830E949D1DE82E0E94881D89830E94A9
:1013C000711D182F9A8190932805F092290500939A
:1013D0002A05D0922B054FEF480F68E275E08EE5A5
:1013E00094E00E94D510682F70E0412F50E04150EA
:1013F000510929816417750719F083EB90E072CFCA
:101400004FEF4E0D8EE594E00E94810E90E02E2D60
:1014100030E0215031098217930731F084EA90E0DF
:101420000E94C51C8AE061CF8091C0049091C104E4
:1014300029E5209391049093920480939304109251
:1014400094041092950410929604109297041092AE
:1014500098040E94D51B80E00F900F90DF91CF91F0
:101460001F910F91FF90EF90DF90CF900895CF9252
:10147000DF92EF92FF920F931F93CF93DF936C0154
:101480007A018B01C0E0D0E0CE15DF0589F0D801EC
:101490006D918D01D601ED91FC910190F081E02DCF
:1014A000C6010995892B11F47E0102C02196ECCF6B
:1014B000C701DF91CF911F910F91FF90EF90DF90C7
:1014C000CF900895089580E090E00895FC01538D39
:1014D000448D252F30E0842F90E0821B930B54170E
:1014E00010F0CF96089501970895FC01918D828D9B
:1014F000981761F0828DDF01A80FB11D5D968C9168
:10150000928D9F5F9F73928F90E008958FEF9FEF72
:101510000895FC01918D828D981731F0828DE80F2E
:10152000F11D858D90E008958FEF9FEF0895FC01E8
:10153000918D228D892F90E0805C9F4F821B9109B5
:101540008F73992708958FEB93E00E94970A21E00B
:10155000892B09F420E0822F0895FC01848DDF019E
:10156000A80FB11DA35ABF4F2C91848D90E0019616
:101570008F739927848FA689B7892C93A089B18905
:101580008C9180648C93938D848D981306C002880F
:10159000F389E02D80818F7D80830895EF92FF9203
:1015A0000F931F93CF93DF93EC0181E0888F9B8D86
:1015B0008C8D981305C0E889F989808185FD24C048
:1015C000F62E0B8D10E00F5F1F4F0F731127E02ECB
:1015D0008C8DE8120CC00FB607FCFACFE889F989A8
:1015E000808185FFF5CFCE010E94AD0AF1CF8B8DB2
:1015F000FE01E80FF11DE35AFF4FF0820B8FEA89DD
:10160000FB898081806207C0EE89FF896083E88959
:10161000F98980818064808381E090E0DF91CF91BF
:101620001F910F91FF90EF900895CF93DF93EC01FE
:10163000888D8823C9F0EA89FB89808185FD05C0F2
:10164000A889B9898C9186FD0FC00FB607FCF5CF2C
:10165000808185FFF2CFA889B9898C9185FFEDCF74
:10166000CE010E94AD0AE7CFDF91CF91089580E0CF
:1016700090E0892B29F00E94A30A81110C940000AC
:1016800008954230510509F45EC044F441155105F6
:1016900081F04130510509F470C0B7C044305105A4
:1016A00009F4A1C00CF487C04530510509F4A2C06B
:1016B000ACC0623409F4ACC080EB860F8B3008F408
:1016C000A7C084EA860F823008F4A2C081E9860FA1
:1016D000873008F49DC080E7860F8F3008F498C0EB
:1016E00080E5860F873008F493C088E4860F823047
:1016F00008F48EC083E4860F823008F489C080E34A
:10170000860F863008F484C088E2860F823008F4A1
:101710007FC083E2860F823008F47AC0633E09F40A
:1017200077C080E1860F823008F472C08DE0860FAA
:10173000873008F46DC081E06D3F09F468C06E3FEA
:1017400009F063C067C0862F8F7B8059863008F40C
:101750005FC080E5860F853008F45AC080E1860FAF
:10176000823008F455C08DE0860F823008F450C0F6
:1017700081E0653F09F049C04DC06B3509F448C0B0
:1017800088E6860F833008F443C0862F8F7D8D59FD
:101790008230F0F188E4860F8230D0F188E2860F43
:1017A0008230B0F183E2860F823090F188E0860FBC
:1017B000843008F62DC08FED860F833048F18CEB16
:1017C000860F873028F16C3419F1603609F16038E2
:1017D000F9F08EE7860F8430D8F0623AC9F081E0E4
:1017E000613E99F417C0603499F0613689F0613C2C
:1017F000B1F70EC0603861F08EE7860F843040F09C
:1018000081E0623A39F0613C29F080E00895089562
:1018100081E0089508950E945A2B0C94C22A0C94DA
:10182000C22A0C94C22A26E331E0FC0131832083D2
:1018300082819381009711F00C94C22A0895CF936E
:10184000DF93EC010E94130CCE01DF91CF910C9439
:10185000C22A1F920F920FB60F9211242F933F931B
:101860004F935F936F937F938F939F93AF93BF93A8
:10187000EF93FF938FEB93E00E94AD0AFF91EF91FE
:10188000BF91AF919F918F917F916F915F914F9198
:101890003F912F910F900FBE0F901F9018951F92A0
:1018A0000F920FB60F9211242F938F939F93EF9364
:1018B000FF93E091CF03F091D0038081E091D503B5
:1018C000F091D60382FD12C090818091D8038F5F82
:1018D0008F732091D903821751F0E091D803F0E083
:1018E000E154FC4F958F8093D80301C08081FF9114
:1018F000EF919F918F912F910F900FBE0F901F909E
:101900001895833081F028F4813099F08230A1F06D
:1019100008958730A9F08830B9F08430D1F48091EF
:1019200080008F7D03C0809180008F77809380003E
:10193000089584B58F7702C084B58F7D84BD0895E6
:101940008091B0008F7703C08091B0008F7D80932D
:10195000B00008951F93CF93DF93282F30E0F90153
:10196000E356F64F8491F901E757F64FD491F90108
:10197000EB58F64FC491CC23C9F0162F81110E9469
:10198000810CEC2FF0E0EE0FFF1FEE50FA4FA59107
:10199000B4918FB7F894111105C09C91ED2FE0958B
:1019A000E92302C0EC91ED2BEC938FBFDF91CF9137
:1019B0001F910895CF93DF9390E0FC01E757F64F16
:1019C0002491FC01EB58F64F8491882361F190E05B
:1019D000880F991FFC01E450FA4FC591D491FC0186
:1019E000EE50FA4FA591B491611109C09FB7F894D8
:1019F0008881209582238883EC912E230BC062304E
:101A000061F49FB7F8943881822F8095832388836F
:101A1000EC912E2B2C939FBF06C08FB7F894E881D2
:101A20002E2B28838FBFDF91CF9108958E3008F041
:101A30008E508770806480937C0080917A008064EF
:101A400080937A0080917A0086FDFCCF80917800A7
:101A50002091790090E0922B08953FB7F8948091FF
:101A6000AD029091AE02A091AF02B091B00226B546
:101A7000A89B05C02F3F19F00196A11DB11D3FBFC6
:101A8000BA2FA92F982F8827820F911DA11DB11D54
:101A9000BC01CD0142E0660F771F881F991F4A9550
:101AA000D1F708958F929F92AF92BF92CF92DF921B
:101AB000EF92FF926B017C010E942D0D4B015C01A6
:101AC000C114D104E104F104F1F00E942D0DDC01F8
:101AD000CB0188199909AA09BB09883E9340A10541
:101AE000B10570F321E0C21AD108E108F10888EECF
:101AF000880E83E0981EA11CB11CC114D104E1041E
:101B0000F10419F7DDCFFF90EF90DF90CF90BF90F9
:101B1000AF909F908F9008952FB7F8946091A9028D
:101B20007091AA028091AB029091AC022FBF0895F0
:101B30001F920F920FB60F9211242F933F938F9302
:101B40009F93AF93BF938091A9029091AA02A09115
:101B5000AB02B091AC023091A80223E0230F2D37E5
:101B600020F40196A11DB11D05C026E8230F0296A1
:101B7000A11DB11D2093A8028093A9029093AA02EF
:101B8000A093AB02B093AC028091AD029091AE02F3
:101B9000A091AF02B091B0020196A11DB11D80933A
:101BA000AD029093AE02A093AF02B093B002BF918A
:101BB000AF919F918F913F912F910F900FBE0F90FA
:101BC0001F9018958EBD00000DB407FEFDCF8EB599
:101BD0000895FC019381892F8F7D8059823058F0C0
:101BE00080E3890F823038F081E0903F31F0913FFF
:101BF00021F080E0089581E008950895FC0193812B
:101C0000892F8F7D8859823058F088E2890F823081
:101C100038F081E0983F31F0993F21F080E008955D
:101C200081E0089508951F93CF93DF93EC011B810A
:101C300041E050E0612F0E94410B8823A9F086E02B
:101C4000810F823010F01B3531F42C8930E0322FB7
:101C500022278D8905C02E8930E0322F22278F89D7
:101C6000A901482BCA0102C080E090E0DF91CF912A
:101C70001F910895CF93DF93EC0142E050E06B8118
:101C80000E94410B882349F02E8930E0322F222711
:101C90008F89A901482BCA0102C080E090E0DF9142
:101CA000CF910895CF93DF93EC0140E050E06B8932
:101CB0000E94410B882349F02C8930E0322F2227E3
:101CC0008D89A901482BCA0102C080E090E0DF9114
:101CD000CF910895FC01DC0153964B961D92A817F5
:101CE000B907E1F7138E148E158E168E178E11A27A
:101CF00010A212A20895089508950C94E3290C945B
:101D0000DB290F931F93CF93FC01DB01878190E0C8
:101D10006817790718F081E0840F1DC09385491773
:101D2000D0F7622FC42F042F10E00C5F1F4F492FF4
:101D300050E04C5F5F4FA49FC001A59F900DB49FE2
:101D4000900D112445855685840F951F800F911F96
:101D50000E947D0E8C2FCF911F910F9108950F93AC
:101D60001F93CF93DF931F92CDB7DEB7262FFC01D1
:101D700081858617D0F0022F10E0F801EE0FFF1FCB
:101D8000EB57FC4F842F90E0918380838EED95E09C
:101D900049830E94C51C6981C80149960F90DF9153
:101DA000CF911F910F910C947D0E0F90DF91CF91E9
:101DB0001F910F910895FC01128E87816817B0F46E
:101DC0002385421798F450E04C5F5F4F30E02C5F62
:101DD0003F4F629FD001639FB00D1124858596858A
:101DE0008A0F9B1F840F951F0C947F0E8FEF828F9D
:101DF0000895FC01128E8185681728F4862F90E0E3
:101E000049960C947F0E8FEF828F0895AF92BF9208
:101E1000CF92DF92EF92FF920F931F93CF93DF93B6
:101E2000EC018F81ADE3B3E0E1E6F3E090E0E62E74
:101E3000F12CC42ED12C30E010E09817F9F061118C
:101E400002C0442369F0AD90BC901197EA14FB04E2
:101E500089F45296AD90BC905397CA14DB0451F4A8
:101E6000A080B1802A153B0529F4A288B3880A1501
:101E70001B0541F09F5F12963296DFCF9A8581E075
:101E8000890F01C0892FDF91CF911F910F91FF9092
:101E9000EF90DF90CF90BF90AF9008950F93252FD4
:101EA000042F462F672F0E94060F0F910895AF92BF
:101EB000BF92CF92DF92EF92FF920F931F93CF9337
:101EC000DF93EC017B01FB01E858FF4F108180910B
:101ED000FF02882309F4E0C08FE791E00E94F8191F
:101EE0006AE070E0812F0E94051D112309F4D6C01D
:101EF0008091FF028823F1F18FE891E00E94F819A8
:101F00006AE070E0812F0E94051D8BE991E00E943C
:101F1000F819CE010E94FE0D97012E5F3F4F690117
:101F2000882339F0CE010E94130EAC0160E070E00E
:101F300009C0CE010E943A0E5C01CE010E94520EF1
:101F4000BC01A501C6010E944E0FF701ED58FF4FDD
:101F50009081891730F440E0682FC6010E94DB0EA3
:101F600001C080E06AE070E00E94051D86EA92E010
:101F70000E94EC19193009F00DC1C2EBD2E0E12C3E
:101F8000F12C8091C20290E00E2C02C095958795AD
:101F90000A94E2F79091B1026881798180FF06C0CE
:101FA00081E0911180E00E94471C05C081E0911101
:101FB00080E00E94141C8091FF0287010F5F1F4F79
:101FC000882309F450C0E091C402E695E695E695B1
:101FD000F0E0EE0FFF1FE550FD4F808191810E2C48
:101FE00002C0959587950A94E2F780FF0BC0809117
:101FF000C20290E002C095958795EA94E2F780FDD1
:102000000BC00DC08091C20290E002C095958795EB
:10201000EA94E2F780FD03C086EA91E002C08AEA12
:1020200091E00E94F8198EEA91E00E94F8196AE0A6
:1020300070E0C8010E94681A88EB91E00E94F819CC
:10204000888199810E94621A8091B102811103C036
:1020500089E791E002C082E791E00E94F81981ECE3
:1020600091E00E94EC1962E370E080E090E00E9451
:10207000520D780122960830110509F082CF809127
:10208000C20290916704993108F484C090E0909363
:10209000B8038093B7037EC011116CCF8091FF020B
:1020A000882309F477C0CE010E94E90D882389F0C6
:1020B00080ED95E00E94A41CCE010E94520E0E9469
:1020C000621A86EC95E00E94A41CCE010E943A0E92
:1020D0000CC0CE010E94FE0D882399F089EB95E09B
:1020E0000E94A41CCE010E94130EDF91CF911F917C
:1020F0000F91FF90EF90DF90CF90BF90AF900C9436
:10210000F51C8BEC91E00E94F81960E170E08B8186
:102110000E94901C81ED91E00E94F819CE010E946E
:10212000520E0E94621A89ED91E00E94F8198C8D7E
:102130008295869587709B8D40E1949F9001112434
:10214000822B8A836AE070E00E94901C82EE91E00C
:102150000E94F8198B8990E025E0959587952A953E
:10216000E1F78C836AE070E00E94901C81EF91E0BF
:102170000E94F8198091220590912305DF91CF915B
:102180001F910F91FF90EF90DF90CF90BF90AF9095
:102190000C947A1CDF91CF911F910F91FF90EF90DB
:1021A000DF90CF90BF90AF900895CF92DF92EF92E3
:1021B000FF921F93CF93DF93FC011285411718F014
:1021C00081E0810F4CC0142FFB01DC01242F30E093
:1021D000E901CC0FDD1FC35CDC4F808190E0998367
:1021E0008883E901CC0FDD1FC15BDC4F818190E06A
:1021F00099838883E901CC0FDD1FCF59DC4F8281A1
:1022000090E099838883E901CC0FDD1FCD58DC4F26
:10221000838190E0998388831B968C911B9790E033
:102220000496289F7001299FF00C389FF00C112410
:102230001D968D919C911E97E80EF91E6B0184E00E
:10224000C80ED11CEB01E61AF70AC7018C0F9D1FBF
:1022500069910E947D0ECC15DD05B9F7812FDF91C4
:10226000CF911F91FF90EF90DF90CF900895FC01E8
:1022700080E090E0238530E0821793073CF4A28150
:10228000B381A80FB91F1C920196F4CF83E6848313
:10229000158282E686831782148A0895EF92FF9250
:1022A0000F931F93CF93DF9300D000D0CDB7DEB74D
:1022B0008C010E943711F8018285878319821A8266
:1022C0008EE38B8384EE8C83E12CF12CF801428524
:1022D000842F90E00197E816F906CCF44E2DBE014C
:1022E0006F5F7F4FC8010E94D5108C818F5F8C83F8
:1022F000811103C08B818F5F8B8320E040E0B701A9
:10230000C8010E94810EFFEFEF1AFF0ADFCF19828A
:102310001A8282E18B8387E68C834150BE016F5F16
:102320007F4FC8010E94D510F801628570E06150AE
:10233000710920E040E0C8010E94810E42E060E0A7
:10234000C8010E94AF0E40E069E1C8010E94AF0ED3
:102350004FEF6AE1C8010E94AF0EFF24F39444E0FE
:102360006F2DC8010E94AF0E61E06F0D44E6C801F9
:102370000E94AF0E62E06F0D4BE4C8010E94AF0EE9
:10238000F3E0FF0E89E1F812EACF47EC6BE1C801F8
:102390000E94AF0E40E06CE1C8010E94AF0E68E5FC
:1023A00080E090E00E947D0EF801648182E190E07F
:1023B0000E947D0EF801658183E190E00E947D0E10
:1023C000F801668184E190E00E947D0EF801648945
:1023D00085E190E00E947D0EF801678187E190E041
:1023E0000E947D0EF801638588E190E00E947D0ED9
:1023F0000F900F900F900F90DF91CF911F910F9141
:10240000FF90EF900895CF93DF93EC010E94371176
:1024100080E090E00E947F0E883529F0CE01DF91A8
:10242000CF910C944E1182E190E00E947F0E8C833C
:1024300083E190E00E947F0E8D8384E190E00E9412
:102440007F0E8E8385E190E00E947F0E8C8B87E16A
:1024500090E00E947F0E8F83DF91CF9108952EE44C
:1024600031E0FC0121933193CF010C94130CCF93F5
:10247000DF93EC010E942F12CE01DF91CF910C94DB
:10248000C22A08958F929F92AF92BF92CF92DF920D
:10249000EF92FF920F931F93CF93DF931092D50487
:1024A00080E00E94021C869581708093B10202EB4D
:1024B00012E07801C0E08C2F0E94AE19FC0122814D
:1024C00030E0322F22278381282BF701219331938B
:1024D0007F01CF5FC83079F7C091FB02D091FC0239
:1024E0006AE18EE594E00E94F90E90E0C817D907E2
:1024F00009F481C0C0E0D0E0C12CD12C7601C39496
:10250000A090FB02B090FC020C2E02C0B594A794E0
:102510000A94E2F76AE18EE594E00E94F90E90E0F9
:102520000C2E02C0959587950A94E2F7A826B92645
:10253000A0FE45C08091C20290E00C2E02C095958D
:1025400087950A94E2F780FD0EC02091C202D70160
:10255000C6010C2E04C0880F991FAA1FBB1F0A9426
:10256000D2F7822B0FC09091C202B701A6010C2EA8
:1025700004C0440F551F661F771F0A94D2F7409579
:10258000842F89238093C2028091C20290E00C2E96
:1025900002C0959587950A94E2F79091B102F801EF
:1025A0006081718180FF06C081E0911180E00E940E
:1025B000471C05C081E0911180E00E94141C219607
:1025C0000E5F1F4FC830D10509F09ACF6AE18EE542
:1025D00094E00E94F90E90E09093FC028093FB023D
:1025E0008091C20290916704993128F090E0909315
:1025F000B8038093B703C5ECD2E011E0812C912C95
:1026000083E0E82EF12CAA24A394B12C612F8EE54F
:1026100094E00E94F90E90E0833091051CF09B83BA
:102620008A8302C0FB82EA826401FFEFCF1ADF0ACD
:1026300061E0610F8EE594E00E94F90E90E0833036
:1026400091051CF09D838C8302C0FD82EC8262E0C8
:10265000610F8EE594E00E94F90E282F30E03F8351
:102660002E8381508E3F30F41D5F2696193139F14B
:102670004601CCCF1092010110920001C50101C0AA
:10268000880F8A94EAF790911103892B80931103A4
:10269000809110032F3F310511F48F7701C08068BE
:1026A000809310038AEF91E00E94EC19E0E0F3E0E0
:1026B0001192119223E0E031F207D1F7D5CF8CE1EE
:1026C0000E94021C881F8827881F8093FF0288238E
:1026D00031F08CE10E94021C8F708093C302DF9165
:1026E000CF911F910F91FF90EF90DF90CF90BF900F
:1026F000AF909F908F9008958F929F92AF92BF92CC
:10270000CF92DF92EF92FF920F931F93CF93DF93BD
:102710001F92CDB7DEB78091AF058F3F29F480912E
:10272000AE058F3F09F44FC00E948C0D0091B20599
:102730001091B3052091B4053091B505DC01CB01B2
:10274000801B910BA20BB30B84369105A105B1053B
:10275000D0F180912205909123050597A9F48091ED
:10276000B105813041F460E08091AF050E94AA0C70
:102770001092B1051EC061E08091AF050E94AA0CC5
:1027800081E08093B10515C080919004813039F4C7
:1027900060E08091AE050E94AA0C61E006C061E095
:1027A0008091AE050E94AA0C60E08091AF050E9466
:1027B000AA0C0E948C0D6093B2057093B3058093B0
:1027C000B4059093B5052091B6052F3F09F436C0A6
:1027D00030E0F901E356F64F8491F901E757F64FDF
:1027E0001491F901EB58F64F0491002379F081110F
:1027F0000E94810CE02FF0E0EE0FFF1FE559F64F2D
:10280000A591B491EC91E12309F08EC48DEB99E090
:102810000E94C51C8091B705813081F40E948C0D07
:1028200060932405709325058093260590932705D2
:102830001092B70581EB99E00E94C51C809122059A
:1028400090912305049709F096C00E948C0D009189
:1028500024051091250520912605309127056B014F
:102860007C01C01AD10AE20AF30A89EE99E00E94BB
:10287000C51C89EEC81683E0D806E104F10408F40B
:102880007AC08CEC99E00E94C51C83E090E09093A4
:102890002305809322052091A805A9E2B5E081E0F7
:1028A0008217B0F43D919FEF980FE92FF0E0BF0140
:1028B000645A7B4FAB0144535F4FFA01408131961C
:1028C000341718F440839150F0CF30838F5FE8CFF6
:1028D00080E090E030E011E0180F8217930734F4A5
:1028E000FC01E85DFA4F4081141718F4143618F40F
:1028F0000EC00196F0CF85EE98E00E94C51C809135
:10290000D3048823C1F187E00E94241D34C086ECE3
:1029100098E00E94A41C6AE070E0812F0E94051DCF
:1029200010936204612F82E190E00E947D0E10936B
:10293000BF048091D3048823F1F08091C00490916A
:10294000C10422E520939104909392048093930410
:102950001092940410929504109296041092970489
:1029600010929804612F70E080E090E021E934E05B
:1029700043E00E94EB1A88248394912C88E895E028
:1029800058E0F52EF80EEE24E39469E5D62E109269
:10299000D40480911C0590911D05892B09F089C4F0
:1029A00090921D0580921C05809120059091210533
:1029B000181619062CF010921D0510921C0579C4EA
:1029C00080911E0590911F05CC9724F010921F0551
:1029D00010921E05E2E8F5E0A0911E05B0911F05DA
:1029E000A252BB4F8C91819380911E0590911F053F
:1029F000019690931F0580931E058091200590916C
:102A000021050197909321058093200525E0E13968
:102A1000F20711F710921D0510921C0589E994E048
:102A20000E946A0E8091820580939E0480918405A5
:102A30008093B404809185058093B50480918605C8
:102A40008093B604809187058093B704E8E8F5E0A9
:102A50008191DF01AD5DB1098C93FE12F9CF8091B8
:102A6000AC0480939C04843008F4B7C0873009F428
:102A7000B4C0282F2F7B2F3309F4AFC092EA980FF0
:102A8000923008F4AAC0982F9F7D9F3909F4A5C001
:102A9000863B09F4A2C08F3D09F49FC03CEF380F7C
:102AA000333008F49DC038EF380F333008F498C045
:102AB0003FED380F333008F493C0803409F490C0F0
:102AC0003CEB380F373008F48BC08C3409F488C0E5
:102AD000382F3F7740EA430F423008F481C0333645
:102AE00009F47EC0903809F47BC03EE7380F3430DB
:102AF00008F476C0823A09F473C030E4380F3230FB
:102B000008F46EC036EA380F323008F46CC030E793
:102B1000380F353008F467C038E6380F333008F422
:102B200062C09D59923008F45EC0982F977F905BE9
:102B3000923008F458C09DE4920F923008F453C0CC
:102B400091E3980F933008F44EC09CE2980F9230B6
:102B500008F449C098E2980F923008F444C093E218
:102B6000980F923008F43FC090E1980F9230D8F15E
:102B70009AE0980F9630B8F193E0980F933098F15F
:102B800094EF980F923090F190EF980F923070F18F
:102B9000823461F190EB980F9A3040F194EA980FEB
:102BA000923020F191E9980F973000F19BE6980F51
:102BB0009330E0F095E6980F9230C0F0223BB1F0F0
:102BC000253BA1F09EE2980F923080F0823E71F09A
:102BD0008F3E61F080E090E00BC084E090E008C0A0
:102BE00081E090E005C083E090E002C082E090E0E8
:102BF0009093A00480939F0480918305811107C066
:102C000087E197E00E94C51C1092BB0406C083E0D8
:102C100097E00E94C51CE092BB0480E00E94021C69
:102C20008370082F10E01595079589E994E00E94BC
:102C3000E90DC82E882321F00115110509F413C3ED
:102C400089E994E00E94FE0D8823C1F089E994E0AF
:102C50000E94130E5C010097B9F0AC0160E070E0D7
:102C60008EE594E00E944E0F2091680430E0482FDA
:102C700050E0241735070CF40FC336C0CC20F1F018
:102C800001301105D9F405C0CC2081F101301105C6
:102C900069F589E994E00E943A0E009779F0AC0159
:102CA00060E070E08EE594E00E944E0F2091680491
:102CB00030E0482F50E024173507B4F489E994E058
:102CC0000E94130E5C01892B89F0A50160E070E081
:102CD0008EE594E00E944E0F2091680430E0482F6A
:102CE00050E02417350714F08F5F01C080E0809317
:102CF000D40488EB98E00E94A41C6AE070E0809104
:102D00009F049091A0040E94681A82EB98E00E94B0
:102D1000A41C8091AC0490E025E0959587952A95B8
:102D2000E1F780939D046AE070E00E94901C8BEABA
:102D300098E00E94A41C60E170E080919C040E94D5
:102D4000901C82EA98E00E94A41C6AE070E08091E6
:102D50002205909123050E94681A89E998E00E9453
:102D6000A41C8091B5048295869587709091B404D7
:102D700040E1949F90011124822B80939B046AE090
:102D800070E00E94901C8CE898E00E94A41C89E9E5
:102D900094E00E94E90D6AE070E090E00E94681AF9
:102DA00082E898E00E94A41C89E994E00E94520EF7
:102DB0000E94621A87E798E00E94A41C89E994E0C7
:102DC0000E943A0E0E94621A89E698E00E94A41CB2
:102DD00089E994E00E94FE0D6AE070E090E00E94B4
:102DE000681A8BE598E00E94A41C89E994E00E948F
:102DF000130E0E94621A8BE498E00E94A41C80913A
:102E0000680490E06AE070E001960E94681A8CE91C
:102E100092E00E94F81900E010E080919C04882361
:102E200021F0F801E455FB4F808160E170E00E94E1
:102E3000901C89E498E00E94A41C0F5F1F4F08308B
:102E4000110559F70E94E8198091BB048823F9F015
:102E500083E398E00E94A41C8091C0049091C10477
:102E6000892BA9F08CE098E00E94A41C60E170E03E
:102E70008091BF040E94051D6091BF0470E080E056
:102E800090E021E934E040E00E94EB1A80CD2091EF
:102E90009C042D35A1F489E994E00E94520E209102
:102EA000C0043091C1048217930709F070CD82EEFF
:102EB00097E00E94C51C81E00E94B41D68CD8091FE
:102EC0002205909123058430910579F582ED97E0F4
:102ED0000E94A41C6AE070E080919E040E94051D7F
:102EE00080919E04811153CD89EA97E00E94C51C10
:102EF0002091A805233608F04ACD8091B504382FDB
:102F00003295369537709091B404F0E19F9FC001DF
:102F10001124832B80939B04E22FF0E0E85DFA4FAD
:102F200080832F5F2093A80532CD892B09F0BBC089
:102F3000809190048111B7C089E997E00E94C51C77
:102F400080919F049091A004029739F480919C0491
:102F5000823D19F0853F09F07FC189E994E00E9424
:102F60003A0E082F292F89E994E029830E94520EF6
:102F7000482F692F90932805809329052981209354
:102F80002A0500932B05C090650410916804C116B2
:102F900010F01F5F0EC08EE594E00E94060F181718
:102FA00038F44C2D68E275E08EE594E00E94D5106F
:102FB000182F8091CF04811710F484E05AC08091BB
:102FC0009C04823D19F0853F09F056C00E949D1D6A
:102FD000C82E0E94881D082F87E897E00E94A41C35
:102FE0006AE070E08C2D0E94901C8FE797E00E94B1
:102FF000A41C6AE070E0802F0E94901C84E797E098
:103000000E94A41C6AE070E0812F0E94051D87E6E3
:1030100097E00E94A41C6AE070E0809165040E9421
:10302000051D85E597E00E94A41C6AE070E0809190
:1030300069040E94051D4FEF4C0D612F70E0202F99
:103040008EE594E00E94810E082F10E08EE397E059
:103050000E94A41CC8010E94F51C2C2D30E02150B8
:1030600031090217130741F08DE297E00E94C51C59
:1030700086E00E94241D8BCC8091C0049091C104F5
:10308000D0929104909392048093930410929404AC
:10309000109295041092960410929704109298043E
:1030A0000E94D51B74CC80919F049091A004823023
:1030B000910541F13CF4019751F5E091AB05F09198
:1030C000AC0518C0E091A905F091AA0583309105DF
:1030D00019F0049731F01BC08091CC0480FD17C01B
:1030E00009C08091CC0480FD12C0273009F0B7C020
:1030F0000C940000309759F06CE574E089E994E095
:10310000099505C00E945B05882309F440CCE09135
:10311000A905F091AA05309709F439CC6CE574E063
:1031200089E994E0099533CC8091B705811186CB6C
:103130008BE599E00E94C51C81E08093B7050E9451
:103140008C0D0091240510912505209126053091C4
:1031500027056B017C01C01AD10AE20AF30A4AE092
:10316000C701B6010E94FA190E94E819D701C601E9
:10317000895E9340A109B10987389341A105B10542
:10318000D0F4209190048091220590912305213064
:1031900071F4059739F483E090E0909323058093D0
:1031A00022054CCB85E499E00E94C51C2BC00597F5
:1031B00009F044CBF0CF41E7C41647E1D406E1045F
:1031C000F10408F43BCB8091900481111EC08091E2
:1031D0002205909123050597F1F289E299E00E947A
:1031E000C51C60E08091AE050E94AA0C80E00E94A0
:1031F000B41D8091220590912305049719F40E9433
:103200007C13F7CF0E94531D19CB8DE099E00E94EB
:10321000C51C109290046091CC046B7F6093CC0429
:103220006093720485E190E00E947D0E8091CC0451
:1032300081FD07C01092C1041092C00480E090E0AC
:1032400008C08091D6049091D7049093C1048093D4
:10325000C0040E94F71DF2CA0E945B0598CB2E3570
:1032600009F446CF47CF89E994E00E943A0E5C0109
:1032700089E994E00E94520EBC01A5018EE594E01C
:103280000E944E0F2091680430E0482F50E0241730
:1032900035070CF4D5CC28CDCC2009F416CD01305F
:1032A000110509F4F6CC89E994E00E94130E5C0143
:1032B0000CCD80E00F90DF91CF911F910F91FF9087
:1032C000EF90DF90CF90BF90AF909F908F90089538
:1032D000009769F0FC0101900020E9F73197AF01F8
:1032E000481B590BBC018FEB93E00C94370A80E02C
:1032F00090E00895CF92DF92FF920F931F93CF93A8
:10330000DF931F92CDB7DEB7F82E162F042F60E0A3
:103310008091890479830E94AA0C82E00E94E20DC8
:103320008F2D0E94E20DF12EC12E7981D72E8C2D8A
:103330008F19801730F4F60181916F010E94E20D20
:10334000F6CF61E0809189040F90DF91CF911F91BA
:103350000F91FF90DF90CF900C94AA0C10926E0406
:1033600010926F04109270041092710410927804FD
:1033700090916804981720F090916504981720F4B4
:1033800081E08093780421C090E0FC01EE0FFF1FE4
:10339000E35CFC4F208120936E04FC01EE0FFF1FC5
:1033A000E15BFC4F208120936F04FC01EE0FFF1FB7
:1033B000EF59FC4F208120937004880F991FFC0166
:1033C000ED58FC4F8081809371048EE694E008955F
:1033D00084EA92E00C946819CF93DF930E946819F5
:1033E000EC010E94E8198C0F9D1FDF91CF91089589
:1033F0000C9468198F929F92AF92BF920F931F9374
:10340000CF93DF93CDB7DEB7A1970FB6F894DEBFA9
:103410000FBECDBF19A2423008F44AE08E010F5D05
:103420001F4F842E912CA12CB12CA50194010E9438
:10343000F129E62FB901CA0101501109EA3014F44B
:10344000E05D01C0E95CD801EC93232B242B252BF4
:1034500061F7C8010E946819A1960FB6F894DEBF03
:103460000FBECDBFDF91CF911F910F91BF90AF9055
:103470009F908F900895CF92DF92EF92FF92CF931B
:10348000DF936B017C01E091BF03F091C0030190D9
:10349000F081E02D6DE28FEB93E00995EC0166275A
:1034A0007727CB016C197D098E099F094AE00E949C
:1034B000FA198C0F9D1FDF91CF91FF90EF90DF9055
:1034C000CF900895BC0180E090E04AE00C94FA1996
:1034D000AB01672B59F4E091BF03F091C003019059
:1034E000F081E02D682F8FEB93E00994BC01990FD8
:1034F000880B990B4A30510521F497FD0C943B1A27
:103500004AE00C94FA191F93CF93DF93182FCCE560
:10351000D4E060E08DA50E94AA0C83E00E94E20D39
:10352000812F0E94E20D80E00E94E20D182F61E0E1
:103530008DA50E94AA0C812FDF91CF911F91089534
:10354000EF92FF920F931F93CF93DF931F92CDB70C
:10355000DEB7082F162F8CE5E82E84E0F82E60E009
:10356000F70185A549830E94AA0C85E00E94E20D1F
:10357000802F0E94E20D812F0E94E20D4981842F4D
:103580000E94E20D61E0F70185A50F90DF91CF91D8
:103590001F910F91FF90EF900C94AA0C0F931F9323
:1035A000CF93DF93082F162FCCE5D4E060E08DA5F4
:1035B0000E94AA0C82E00E94E20D802F0E94E20D80
:1035C000812F0E94E20D61E08DA5DF91CF911F91C7
:1035D0000F910C94AA0C7F928F929F92AF92BF9200
:1035E000CF92DF92EF92FF920F931F93CF93DF93CF
:1035F00000D000D0CDB7DEB71092790460937A0482
:1036000070937B0480937C0490937D04493008F090
:1036100048E040937E0410928704AFE7B4E0F901DC
:1036200050E0CF01821B930B841795071CF4819106
:103630008D93F7CFC12CD12C70E3A72EE0E49E2E02
:10364000F0E58F2E8E010F5F1F4FA3E07A2E700ED4
:10365000A9829A828B827801F701B1907F018B2D2C
:103660000E94831A982F987083FD04C0FF24F3945E
:10367000FB0C04C07E10F0CFF12C92E0FFEFCF1ACC
:10368000DF0A923029F422E3C216D10409F778C088
:1036900082E3C816D10409F473C040917E046FE739
:1036A00074E085E08F0D0E947A1980918704813043
:1036B00029F480917E04806480937E0460917E046E
:1036C00084E08F0D0E94CE1A40917A0450917B04C1
:1036D00060917C0470917D04809179048130B1F413
:1036E0004C835B83AB0166277727942F9C71842FD3
:1036F0008370E8E09E9F800D112488608A8365E0D6
:10370000569547956A95E1F749830DC0CA0123E0B4
:10371000969587952A95E1F789834295440F407ED7
:103720004A831C821B8244E0B8018F2D0E947A19C3
:10373000FA9448E068E08F2D0E94A01A00E010E0A3
:103740000F5F1F4F8F2D0E94831A83FF04C0023327
:103750001105B1F717C002331105A1F010927A04D8
:1037600010927B0410927C0410927D0410927E04CF
:1037700010927904109287041092880480E003C0AC
:1037800086E001C087E00F900F900F900F90DF91BF
:10379000CF911F910F91FF90EF90DF90CF90BF904E
:1037A000AF909F908F907F900895CF93DF93C091BB
:1037B0009104C295C695C770CF5F81E080938E0457
:1037C00080938F046091BF0470E080E090E021E975
:1037D00034E04C2F0E94EB1A811102C080E00FC030
:1037E000D3E06091BF0470E080E090E021E934E034
:1037F0004C2F0E94EB1A882389F3D15091F7DF9167
:10380000CF9108951092780490916704891720F061
:103810008FEF809378040895E82FF0E0EE0FFF1FFC
:10382000EB57FC4F808108951F93CF93DF9388233C
:10383000A1F0EB018BE10E94021C182F8BE10E948A
:10384000021C81E9809391041092920410939304D6
:10385000D0939404C09395040FC08091C0049091BC
:10386000C10429E9209391049093920480939304D6
:1038700070939404609395041092960410929704A8
:1038800010929804DF91CF911F910C94D51B1F9338
:10389000CF93DF938823A1F0EB018BE10E94021C00
:1038A000182F8BE10E94021C80E9809391041092F2
:1038B000920410939304D0939404C09395040FC082
:1038C0008091C0049091C10428E9209391049093C1
:1038D00092048093930470939404609395041092DF
:1038E00096041092970410929804DF91CF911F9143
:1038F0000C94D51BCF93DF93BC01990F880B990BC8
:1039000097FF03C00E943B1A03C04AE00E94FA19C5
:10391000EC010E94E8198C0F9D1FDF91CF91089553
:10392000AB01672B59F4E091BF03F091C003019004
:10393000F081E02D682F8FEB93E00994682F70E001
:1039400080E090E00C94FA190F931F93CF93DF93CC
:103950008C01C0E0D0E0F801EC0FFD1F64916623FC
:1039600071F0E091BF03F091C0030190F081E02D70
:103970008FEB93E00995892B11F02196ECCFCE01C6
:10398000DF91CF911F910F910895CF93DF930E9404
:10399000A41CEC010E94E8198C0F9D1FDF91CF91B0
:1039A0000895CF93C82F482F60EE8FE00E94A01A91
:1039B0008FE00E94831A807E91E08C1301C090E01A
:1039C000892FCF9108958BE49AE00E94C51CECE505
:1039D000F4E081E084ABACECB4E06C9164606C9397
:1039E000668B85E190E00C947D0ECF93DF93BC0154
:1039F00080E090E04AE00E94FA19EC010E94E81988
:103A00008C0F9D1FDF91CF910895CF93DF93AB0172
:103A1000672B61F4E091BF03F091C0030190F08146
:103A2000E02D682F8FEB93E0099506C0682F70E0BA
:103A300080E090E00E94FA19EC010E94E8198C0FD6
:103A40009D1FDF91CF910895ECE5F4E0A0ECB4E088
:103A50009C9111962C913FE635AB26AB97AB80AF8E
:103A600011AE12AE13AE14AE0C94D51B1F93CF93B0
:103A7000DF938AE29AE00E94A41CC1E9D4E01C2FE3
:103A8000185F60E170E089910E94901C88E29AE0E2
:103A90000E94A41C1C13F5CF87E29AE0DF91CF911E
:103AA0001F910C94C51CECE5F4E085E090E0909348
:103AB000230580932205A0ECB4E08C9111969C9193
:103AC00020E525AB96AB87AB10AE11AE12AE13AEB0
:103AD00014AE8BE19AE00E94C51C0E94361D0C9426
:103AE000D51B80919C04823721F08C3911F0853BE5
:103AF00019F48091AF040895853F19F48091B104C1
:103B00000895823F19F48091B304089580E00895E8
:103B100080919C04853B19F48091B10408959EE244
:103B2000980F923018F48091B2040895853F19F4EB
:103B30008091B304089580E0089580919C048C39AD
:103B400011F0853B19F48091B0040895823B11F087
:103B5000823D19F48091B1040895853F19F4809154
:103B6000B204089580E00895CF93DF93CDB7DEB718
:103B700028970FB6F894DEBF0FBECDBF1092A805F0
:103B80008093D30484E090E09093230580932205F2
:103B900082E080938E0483E080938F046091BF0461
:103BA00070E080E090E09E012F5F3F4FF90148E018
:103BB000420F11924E13FDCF41E04093870440E045
:103BC0000E94EB1A109287040E948C0D60932405CA
:103BD00070932505809326059093270528960FB6A8
:103BE000F894DEBF0FBECDBFDF91CF910895CF9384
:103BF000DF93CCE5D4E09F838887692F83E190E051
:103C00000E947D0E688584E190E0DF91CF910C9455
:103C10007D0EEF92FF920F931F93CF93DF931F922E
:103C2000CDB7DEB7182FF62EE42E60E08091890420
:103C300079830E94AA0C83E00E94E20D812F0E94EA
:103C4000E20D0F2D7981172FF12CFE1459F0F8E0B9
:103C5000FF1641F080E00E94E20DF80181938F0190
:103C6000F394F3CF61E0809189040F90DF91CF91BD
:103C70001F910F91FF90EF900C94AA0C0F931F933C
:103C8000CF93DF9300D000D0CDB7DEB7182F1092BE
:103C9000790410927A0410927B0410927C041092A2
:103CA0007D0444E0BE016F5F7F4F0E94091E8A8140
:103CB0009981482F50E065E0559547956A95E1F761
:103CC00028E0929F400D511D1124052E000C660B1B
:103CD000770B40937A0450937B0460937C04709339
:103CE0007D0483FF29C092E0440F551F661F771F94
:103CF0009A95D1F78370480F511D611D711D762F64
:103D0000652F542F44278B81480F511D611D711D54
:103D1000762F652F542F44278C81480F511D611D2C
:103D2000711D40937A0450937B0460937C047093DC
:103D30007D0481E0809379048FEF810F0E94831AC4
:103D4000082F84E0810F0E94831A482F03FF04C0CC
:103D500081E08093870402C0109287044F704093E3
:103D60007E046FE774E085E0810F0E94091E0F90CA
:103D70000F900F900F90DF91CF911F910F910895A9
:103D80001F93CF93DF93CCE5D4E060E08DA50E9434
:103D9000AA0C80EA0E94E20D80E00E94E20D182F3A
:103DA00061E08DA50E94AA0C812FDF91CF911F9118
:103DB00008958CE594E00C942F12789484B5826079
:103DC00084BD84B5816084BD85B5826085BD85B5BF
:103DD000816085BD80916E00816080936E0010923D
:103DE00081008091810082608093810080918100B8
:103DF0008160809381008091800081608093800049
:103E00008091B10084608093B1008091B0008160A6
:103E10008093B00080917A00846080937A008091D2
:103E20007A00826080937A0080917A00816080932A
:103E30007A0080917A00806880937A001092C100A5
:103E40003E9A61E080E00E94DA0C61E081E00E942D
:103E5000DA0C0E948C0D6838734181059105E8F4F5
:103E600060E080E00E94AA0C60E081E00E94AA0C61
:103E700064E670E080E090E00E94520D61E080E036
:103E80000E94AA0C61E081E00E94AA0C64EF71E03C
:103E900080E090E00E94520DDCCF61E080E00E9463
:103EA000AA0C61E081E00E94AA0C3E98469AC0E10B
:103EB000D1E098E0A92E91E0B92E23E2E22E23E092
:103EC000F22E61E089910E94DA0CF50111915F01F7
:103ED00060E0812F0E94DA0C812F0E94160D812F45
:103EE0000E94160DF701819391937F01F1E0C83193
:103EF000DF0739F7A2ECB4E0FD01119224E0EA3CBF
:103F0000F207D9F7EEE0F2E081918D9332E0E531EE
:103F1000F307D1F788E58093CB048DE48093CA043E
:103F200081E08093CD048093CE048091CC048360A3
:103F30008093CC0480E692E2A0E0B0E08093D604C7
:103F40009093D704A093D804B093D904C12CD1E0A6
:103F5000369935C00E948C0D4B015C01C1E00E9476
:103F60008C0DDC01CB0188199909AA09BB09883E8F
:103F70009340A105B10540F4CC2351F3C6B1C6FB73
:103F8000CC27C0F9CD27EBCFCC2311F38EE594E0FD
:103F90000E944E110E94E31C6091CC046093720455
:103FA00085E190E00E947D0E60E081E00E94AA0C15
:103FB00060E080E00E94AA0CCC24C394C9CF61E0E9
:103FC00080E00E94AA0C61E081E00E94AA0C87E5D3
:103FD0009FE09093AA058093A9058AE080938904C5
:103FE00061E00E94DA0C61E0809189040E94AA0CD1
:103FF000C4E1D0E00FE7802E09E0902E83E9E82E9F
:1040000089E0F82EBFB6F89480911203811125C083
:10401000F4018491F701249190E0880F991F845056
:104020009A4FFC01A591B4918C91282321F461E071
:104030008AE00E94AA0C61E08AE00E94DA0C8CB54A
:1040400080618CBD8CB580648CBD61E08DE00E9488
:10405000DA0C61E08BE00E94DA0C809112038F5F32
:1040600080931203BFBE60E0809189040E94AA0C75
:1040700080EC0E94E20D61E0809189040E94AA0C0C
:104080006AE070E080E090E00E94520D80E80E94BB
:10409000D11C882381F06AE070E080E090E00E940B
:1040A000520D6EE170E080E090E00E94520D219789
:1040B00009F0A8CF4BC06AE070E080E090E00E9479
:1040C000520D61E08AE20E94CE1A61EB89E20E9401
:1040D000CE1A65E088E20E94CE1A6AE070E080E0C5
:1040E00090E00E94520D10E360E0812F0E94CE1AF2
:1040F00060E080E1810F0E94CE1A60E080E2810FD3
:104100000E94CE1A1F5F1E3379F760E080E60E949E
:10411000CE1A60E080E70E94CE1A63E08BE20E9434
:10412000CE1A44E064E680E60E94A01A40E060E611
:1041300080E70E94A01A80E00E94D11C8111ABCFC1
:104140006AE070E080E090E00E94520D8FEF809373
:10415000B60562E00E94DA0C8CE10E94021C881F06
:104160008827881F8093FF02811113C08091FF026E
:1041700081118AC11092AE0581E08093AF0561E0A4
:1041800080E00E94DA0C61E08091AF050E94DA0CB9
:104190007BC1E091CF03F091D00382E08083E09176
:1041A000CB03F091CC031082E091CD03F091CE03CC
:1041B00080E180831092D703E091D303F091D40380
:1041C00086E08083E091D103F091D2038081806109
:1041D0008083E091D103F091D20380818860808355
:1041E000E091D103F091D203808180688083E091D7
:1041F000D103F091D20380818F7D8083C5E0D0E030
:1042000068EE73E080E090E00E94520D86E192E05B
:104210000E94F8192197A1F786EA92E00E94EC1912
:1042200088E192E00E94F81981E090E00E947A1CF7
:10423000CC2021F088EC96E00E94C51C8EE594E02D
:104240000E94031285EA96E00E94C51C8EE996E062
:104250000E94A41C80E090E00E947F0E60E170E06C
:104260000E94901C85E996E00E94A41C60E170E029
:10427000809162040E94901C80E996E00E94A41C38
:104280008091630490E0982F882720916404822B0A
:1042900090937404809373040E94621A88E896E0F5
:1042A0000E94A41C60E170E0809172040E94901C46
:1042B0008BE796E00E94A41C60E170E080916504A9
:1042C0000E94901C89E696E00E94A41C60E170E0C8
:1042D000809169040E94901C8EE596E00E94A41CC7
:1042E00060E170E0809167040E94901C82E596E096
:1042F0000E94A41CC0E080916704C81778F48C2F3A
:1043000090E049960E947F0E60E170E00E94901C50
:1043100080E596E00E94A41CCF5FEDCF84E496E098
:104320000E94A41CC0E080916704C81790F4EC2F91
:10433000F0E0EE0FFF1FEB57FC4F60E170E0808173
:1043400091810E94681A82E496E00E94A41CCF5FCB
:10435000EACF82E396E00E94A41CC2E0D0E0CE0146
:104360000E947F0E60E170E00E94901C80E396E066
:104370000E94A41C2196C231D10589F78FE196E0F5
:104380000E94A41C10E080916A04181718F5C12F30
:10439000D0E0CC0FDD1F80916D047E01E80EF11C92
:1043A000C7010E947F0E60E170E00E94901C809126
:1043B0006D049E01280F311DC90101960E947F0ED8
:1043C00060E170E00E94901C8DE196E00E94A41CC8
:1043D0001F5FD9CF84E196E00E94C51CC0916B0499
:1043E000D0916C0410E080916804181708F0BECEDC
:1043F0007E0134E0E30EF11CCE010E947F0E60E1ED
:1044000070E00E94901C219682E196E00E94A41C1C
:10441000CE15DF0589F780E196E00E94A41CA12E4D
:10442000B12CAA0CBB1CC0E0D0E0FE01EA0DFB1DC4
:10443000E35CFC4F60E170E0808191810E94681A2A
:104440008EE096E00E94A41C6296C834D10569F7FC
:1044500088E096E00E94A41CE701909169048C2FEB
:104460008E19891768F4CE010E947F0E60E170E01A
:104470000E94901C219686E096E00E94A41CEDCF3D
:104480000E94E8191F5FAFCFF89489E0E0E0F0E008
:10449000809357003491E3E0F0E08093570024913B
:1044A000E2E0F0E0809357009491E1E0F0E0809347
:1044B000570084917894C1E03F3F09F4C0E02C3567
:1044C00009F0CE5FE2E0E90FE23020F0CC5F8F3FF1
:1044D00019F406C08F3F11F0C85F02C0CC2369F108
:1044E0008091FF02811102C0C1E014C087EB96E009
:1044F0000E94A41C6AE070E08C2F0E94901C88E24D
:1045000092E00E94EC1968EE73E080E090E00E9477
:10451000520DECCF8D2D8C278170D82E682F80E026
:104520000E94AA0C6D2D81E00E94AA0C64EF71E03C
:1045300080E090E00E94520DEDCF81E792E09093F1
:104540003403809333036AE18EE594E00E94F90E10
:1045500090E09093FC028093FB02C5ECD2E011E066
:10456000612F8EE594E00E94F90E90E09B838A8390
:1045700061E0610F8EE594E00E94F90E90E09D836A
:104580008C8362E0610F8EE594E00E94F90E90E06A
:104590009F838E838091FF028823F1F08AE292E06C
:1045A0000E94F8198A819B810E947A1C81E492E022
:1045B0000E94F8198C819D810E947A1C88E592E006
:1045C0000E94F8198E819F819C01220F331F820F58
:1045D000931F44960E947A1C1D5F2696193109F09C
:1045E000BFCF0E9442128091FF02882321F081EB0D
:1045F00096E00E94C51C22242394312C412C512C7E
:10460000320143940E942D0D6093390370933A0355
:1046100080933B0390933C03009135031091360344
:1046200020913703309138036B017C01C01AD10A05
:10463000E20AF30A49EEC41643E0D406E104F104A9
:1046400048F40E947C138091D5048823C9F10E940C
:10465000421236C06093350370933603809337035C
:1046600090933803C0E0D1E00E94C01E837021F116
:10467000A5C380918A048093980580918B048093D0
:10468000990580918C0480939A0580918D04809384
:104690009B0540939605809187048111B9C38DEEE7
:1046A00096E00E94C51C1092970580911C05909180
:1046B0001D05892B09F4B3C3C13019F2C1E0D4CF71
:1046C0008091330390913403092E000CAA0BBB0B8D
:1046D0004091390350913A0360913B0370913C0340
:1046E00084179507A607B70708F07CC2C090C402DC
:1046F000D12C56019FEFA91AB90A8501077011271D
:10470000F801E05FFE4FF08061E08F2D0E94AA0C5F
:10471000F601E85FFE4FC0818C2F0E94160D8C2F92
:104720000E94160DEC018091000190910101803EE4
:10473000E1E09E07C8F49601220F331FF901E05013
:10474000FD4FD901AD5DBC4F2D913C91AE01421B97
:10475000530B20813181240F351F31832083019633
:1047600090930101809300018091C30290E0A8160C
:10477000B90609F048C00E942D0D4AE00E94FA19BE
:1047800083E692E00E94F8198091C40290E06AE00A
:1047900070E001960E94681A83E692E00E94F81980
:1047A0008091C2026AE070E00E94901C83E692E071
:1047B0000E94F819E091C402F0E0EE0FFF1FED5DDA
:1047C000FC4F6AE070E0808191810E94681A83E664
:1047D00092E00E94F8196AE070E0CE010E94681A27
:1047E00083E692E00E94F819E091C402F0E0EE0F37
:1047F000FF1FED5DFC4F808191816E01C81AD90ABF
:10480000C6010E947A1C9091C402292F30E0A901B0
:10481000440F551FFA01ED5DFC4F0190F081E02D32
:104820002F5F3F4FB901660F771F260F371F6E01AD
:10483000CE1ADF0AD901AA0FBB1FAB53BD4F6D9132
:104840007C91DB01AA0FBB1F6A0F7B1F6C5E7F4F41
:104850006C157D050CF09BC0EC17FD070CF097C0A4
:10486000FA01ED5EFC4F6081718177FF03C03182F8
:104870002082A1C1220F331FD901AF53BD4F2D910B
:104880003C916217730709F496C16F5F7F4F718384
:1048900060836217730709F08EC1E92FE695E695EC
:1048A000E695F0E0EE0FFF1FE550FD4F20813181CE
:1048B000092E02C0359527950A94E2F7690181E037
:1048C000C822DD2420FF19C02091C20230E0092E49
:1048D00002C0359527950A94E2F720FD6CC18091BE
:1048E000C20253014201092E04C0880C991CAA1C63
:1048F000BB1C0A94D2F7882A19C02091C20230E06A
:10490000092E02C0359527950A94E2F720FF53C17E
:104910008091C20253014201092E04C0880C991CE7
:10492000AA1CBB1C0A94D2F7809488228092C202EF
:104930002091C20230E002C0359527959A95E2F7A2
:104940009091B102FA01EE54FD4F6081718181E0D6
:1049500020FF05C0911180E00E94471C04C0911106
:1049600080E00E94141C8091C202909167049931EA
:1049700028F090E09093B8038093B7038091FF02F2
:10498000882309F418C1CD2809F49EC0A0C0FA01FB
:10499000ED5EFC4F60817181161617061CF41182C2
:1049A000108209C1220F331FD901AD53BD4F2D9184
:1049B0003C91AA27BB27A61BB70BA217B30709F484
:1049C000FAC0DB011197B183A0836101C61AD70A2F
:1049D000C216D30609F0EFC0E92FE695E695E695F5
:1049E000F0E0EE0FFF1FE550FD4F20813181092ED1
:1049F00002C0359527950A94E2F7690181E0C82243
:104A0000DD2420FF1AC02091C20230E0092E02C02E
:104A1000359527950A94E2F720FFCDC08091C20218
:104A200053014201092E04C0880C991CAA1CBB1C0E
:104A30000A94D2F78094882218C02091C20230E0F4
:104A4000092E02C0359527950A94E2F720FDB3C0E0
:104A50008091C20253014201092E04C0880C991CA6
:104A6000AA1CBB1C0A94D2F7882A8092C202209109
:104A7000C20230E002C0359527959A95E2F79091F1
:104A8000B102FA01EE54FD4F6081718181E020FF97
:104A900005C0911180E00E94471C04C0911180E084
:104AA0000E94141C8091C20290916704993128F0F1
:104AB00090E09093B8038093B7038091FF0288231E
:104AC00009F479C0CD2819F086EA91E002C08AEA9B
:104AD00091E00E94F8198EEA91E00E94F819809105
:104AE000C40290E06AE070E001960E94681A83E6D2
:104AF00092E00E94F819E091C402F0E0EE0FFF1F6F
:104B0000ED5DFC4F6AE070E0808191810E94681A3F
:104B100083E692E00E94F8196AE070E0CE010E94FC
:104B2000681A83E692E00E94F819E091C402F0E06E
:104B3000EE0FFF1FED5DFC4F808191816AE070E018
:104B4000FE01E81BF90BCF010E94681A88EB91E087
:104B50000E94F819E091C402F0E0EE0FFF1FEE543E
:104B6000FD4F808191810E94621A82E692E00E944C
:104B7000F8198091C20290E00090C40202C095959D
:104B800087950A94E2F780FD03C086EA91E002C0AF
:104B90008AEA91E00E94F8198091B102811103C064
:104BA00089E791E002C082E791E00E94F81981EC68
:104BB00091E00E94EC190093C402F801E85FFE4FF7
:104BC000C0818C2F0E94160D8C2F0E94160D000F95
:104BD000111FF801ED5DFC4F9183808360E08F2D04
:104BE0000E94AA0C8091220590912305039759F405
:104BF000369909C00E948C0D61317742810591057B
:104C000010F00E94531D8091000190910101803E9F
:104C100091400CF4D0C08FEF9FEF909301018093EF
:104C20000001C0E0D3E0E12CF12C44E1842E912C72
:104C30003FEFE31AF30A0091110310E00E211F2148
:104C40000E151F0509F0A6C08091100387FF14C040
:104C5000888199814E966CE370E00E94132A4CE0A3
:104C6000469FC001479F900D11246AE070E00E94AA
:104C7000132A6C5E7F4F10C0888199814E966CE339
:104C800070E00E94132AE3E1E69FC001E79F900DC8
:104C90001124B4010E94132A798368838091FF0252
:104CA0008823C9F085E692E00E94F8196AE070E076
:104CB000C8010E94681A8DE692E00E94F81983E606
:104CC00092E00E94F819888199810E94621A83E615
:104CD00092E00E94F81988819981449763E070E01E
:104CE0000E94132A6115710519F07983688302C047
:104CF00039822882888199818F3F910528F03EEF83
:104D0000C32ED12CD982C8826801CC0CDD1CC00E08
:104D1000D11E4881842F99815601AA0CBB1CF50134
:104D2000EB53FD4F208131812817390799F1918389
:104D30008083602F660F600F8091D104861720F06A
:104D40008EE594E00E94AF0E8091FF02882311F15E
:104D50008DE792E00E94F81983E692E00E94F8192C
:104D6000F501EB53FD4F6AE070E0808191810E9474
:104D7000681A83E692E00E94F8196AE070E0C601C2
:104D80000E94681A83E692E00E94F8198FE892E088
:104D90000E94F8191992199228E0E216F10409F01C
:104DA00047CF109211038091FF02882321F086EAF9
:104DB00092E00E94EC190E94370B24CC0E94C01E86
:104DC000C11108C080FF7ACC81E60E943E1E40E0FF
:104DD00061E007C081FF70CC81E70E943E1E40E089
:104DE00062E08CE20E94A01A40917E0480E090E094
:104DF00020917E0430E0821793070CF03ACCFC013E
:104E0000E45AFB4F23A1E05CFE4F20830196F0CFD4
:104E100089ED96E00E94C51CD093970546CC81E0B1
:104E200090E090931D0580931C0580911A05909148
:104E30001B05CC9724F010921B0510921A05E6E989
:104E4000F5E080911A0590911B052191DC01A25299
:104E5000BB4F2C93019690931B0580931A0580916C
:104E600020059091210501969093210580932005BE
:104E700025E0E53AF20729F7CD97BCF080911E05B1
:104E800090911F050F968C3391052CF490931F057C
:104E900080931E0504C010921F0510921E058CE31E
:104EA00090E0909321058093200510921D051092AB
:104EB0001C0502CC6F927F928F929F92AF92BF920D
:104EC000CF92DF92EF92FF920F931F93CF93DF93D6
:104ED000CDB7DEB7C654D1090FB6F894DEBF0FBE0A
:104EE000CDBF1092C2031092C10388EE93E0A0E000
:104EF000B0E08093C3039093C403A093C503B09321
:104F0000C6038CE191E09093C0038093BF0385ECCE
:104F100090E09093CC038093CB0384EC90E090934B
:104F2000CE038093CD0380EC90E09093D0038093E8
:104F3000CF0381EC90E09093D2038093D10382EC75
:104F400090E09093D4038093D30386EC90E0909309
:104F5000D6038093D5031092D8031092D9031092F0
:104F6000DA031092DB038EE491E090935D0480936A
:104F70005C0486E391E090935F0480935E0486E492
:104F800091E090939A048093990489E994E00E94B7
:104F90006A0E8EE391E09093BE048093BD04E2EC30
:104FA000F4E080E3819394E0EA3CF907D9F78EE2DC
:104FB00091E09093DD048093DC0410921B05109225
:104FC0001A0510921D0510921C0510921F051092D3
:104FD0001E0510922105109220051092D204109205
:104FE000A80587E1FE013196A9E7B4E001900D9292
:104FF0008A95E1F78CE3FE013396AEEDB4E00190C3
:105000000D928A95E1F786E391E09A8389838DE199
:105010008A8789E08B8781E08C878D8786E3888B00
:1050200088E390E09F878E8781E090E00E942D2AA0
:105030009C838B83CE0101960E943711CE0101968D
:105040000E94031255E8E52E53E0F52E10E0612F83
:10505000CE0101960E94F90E90E0F70181939193A1
:105060007F011F5F1D3199F7EB8478843DE3832E28
:1050700033E0932E41E6A42E43E0B42ECC84D12C11
:10508000F4E0CF0ED11C0E851F85F12C66246394AD
:10509000198A1A8A1B8A1C8A1B8EEF1410F07F143F
:1050A00010F46B8E13C0C8010E947F0E898BC8015B
:1050B00001960E947F0E8A8BC80102960E947F0E85
:1050C0008B8BC80103960E947F0E8C8B898990E0A0
:1050D000F401819391934F018A8990E0918B808BA9
:1050E0008B8990E0F501819391935F018C8990E029
:1050F000918B808BF3940C0D1D1DF9E0FF12C8CF2E
:105100008B819C8190936104809360048D81809356
:1051100062048E819F8190936404809363048885E8
:10512000809365048985809366048A8580936704EB
:10513000E09268048C85809369048D8580936A046D
:105140008E859F8590936C0480936B0488898093EF
:105150006D0489899A89AB89BC8980936E04909388
:105160006F04A0937004B09371048D8980937204CE
:105170008E899F899093740480937304888D8093A3
:105180007504898D809376048A8D809377048B8D46
:1051900080937804CE0101960E94130CFE0136968E
:1051A000CE010E9620E32193E817F907E1F78B81F2
:1051B0008093BF048C819D819093C1048093C0042F
:1051C00088E0FE013696A2ECB4E001900D928A953B
:1051D000E1F78E858093CA048F858093CB048889FC
:1051E0008093CC0489898093CD048A898093CE04EE
:1051F00089E08093CF048DE18093D10411E0109376
:10520000D00486E491E09A838983CE0101960E94BE
:105210006A0E8B8180939B048C8180939C048D818A
:1052200080939D048E8180939E048F8198859093B6
:10523000A00480939F0489859A859093A20480930B
:10524000A1048B859C859093A4048093A3048D85F1
:105250009E859093A6048093A5048F85988990934A
:10526000A8048093A70489899A899093AA048093BB
:10527000A9048B898093AB0488E0FE017496ACEAA4
:10528000B4E001900D928A95E1F78C8D9D8DAE8DE5
:10529000BF8D8093B4049093B504A093B604B093EB
:1052A000B70488A18093B80489A19AA19093BA0405
:1052B0008093B9048BA18093BB048CA18093BC0420
:1052C0008091D20481608093D2041092D3040FEFB6
:1052D0000093AE050093AF051093B0051092B10591
:1052E0000E948C0D6093B2057093B3058093B40552
:1052F0009093B5051092AA051092A9051092B905D0
:105300001092B8051092D4041093D5040093B605FA
:105310001093B7058CE291E0A0E0B0E08093D60452
:105320009093D704A093D804B093D9048EE594E069
:105330000E9403128091630490E0982F88272091A7
:105340006404822B90937404809373049093C1043B
:105350008093C004809162048093BF0480917204A2
:105360008093CC0482FD05C01092900481E19AE004
:1053700004C01093900487E09AE00E94C51C83E06B
:1053800090E09093230580932205CA5BDF4F0FB610
:10539000F894DEBF0FBECDBFDF91CF911F910F916B
:1053A000FF90EF90DF90CF90BF90AF909F908F9045
:1053B0007F906F900895F999FECF92BD81BDF89AC4
:1053C000992780B50895262FF999FECF1FBA92BD6F
:1053D00081BD20BD0FB6F894FA9AF99A0FBE0196D6
:1053E0000895A1E21A2EAA1BBB1BFD010DC0AA1F26
:1053F000BB1FEE1FFF1FA217B307E407F50720F03E
:10540000A21BB30BE40BF50B661F771F881F991FB8
:105410001A9469F760957095809590959B01AC0101
:10542000BD01CF010895AA1BBB1B51E107C0AA1FF4
:10543000BB1FA617B70710F0A61BB70B881F991F35
:105440005A95A9F780959095BC01CD010895EE0F6E
:10545000FF1F0590F491E02D0994CF93DF938230E4
:10546000910510F482E090E0E091C005F091C10553
:1054700020E030E0C0E0D0E0309711F14081518170
:1054800048175907C0F04817590761F48281938182
:10549000209719F09B838A832BC09093C10580933A
:1054A000C00526C02115310519F04217530718F41D
:1054B0009A01BE01DF01EF010280F381E02DDCCF14
:1054C0002115310509F1281B390B2430310590F4E1
:1054D00012968D919C9113976115710521F0FB0136
:1054E0009383828304C09093C1058093C005FD011E
:1054F000329644C0FD01E20FF31F81939193225035
:1055000031092D933C933AC02091BE053091BF05DF
:10551000232B41F420910401309105013093BF0504
:105520002093BE0520910201309103012115310520
:1055300041F42DB73EB74091060150910701241B5D
:10554000350BE091BE05F091BF05E217F307A0F41B
:105550002E1B3F0B2817390778F0AC014E5F5F4FC9
:105560002417350748F04E0F5F1F5093BF05409337
:10557000BE058193919302C0E0E0F0E0CF01DF919E
:10558000CF9108950F931F93CF93DF93009709F462
:105590008CC0FC013297138212820091C0051091D9
:1055A000C1050115110581F420813181820F931FFE
:1055B0002091BE053091BF052817390779F5F09382
:1055C000BF05E093BE0571C0D80140E050E0AE17C2
:1055D000BF0750F412962D913C911397AD01211500
:1055E000310509F1D901F3CF9D01DA01338322831B
:1055F00060817181860F971F8217930769F4EC0110
:1056000028813981260F371F2E5F3F4F318320833A
:105610008A819B8193838283452B29F4F093C10572
:10562000E093C00542C01396FC93EE931297ED01F0
:10563000499159919E01240F351FE217F30771F428
:1056400080819181840F951F029611969C938E9371
:105650008281938113969C938E931297E0E0F0E001
:10566000D80112968D919C911397009719F0F8012B
:105670008C01F6CF8D919C9198012E5F3F4F820F48
:10568000931F2091BE053091BF052817390769F493
:10569000309729F41092C1051092C00502C0138200
:1056A00012821093BF050093BE05DF91CF911F9129
:1056B0000F91089581E090E0F8940C945F2B15E031
:1056C000C0E3D5E004C0FE010E94272A2196C13321
:0856D000D107C9F7F894FFCFE0
:1056D800FFFF0000C20580001514131211100F0EF1
:1056E800020304050607080900000000CE0A370A6D
:1056F800660A150B970A750A890A0000000041120C
:105708000D0C00000000130C1F0C000000007C0EA4
:10571800110C000000007B0E0F0C000000002F127F
:1057280037124D6573736167654E6F64654E756DAD
:1057380062657220002020496E744E6F646549448A
:1057480020002073686F727400206C6F6E670055BC
:105758007365725F46756E6374696F6E3A200045B3
:1057680076656E744D6174636820004576656E7465
:105778005661723A20004175730045696E002053E6
:10578800656E736F723A200020204576656E74202E
:105798000020676573656E646574004F50433A2056
:1057A80000204E6F64653A20002043616E49443AF8
:1057B8002000204D65737361676553697A653A20E7
:1057C800002053746174653A200045696E6D6573F5
:1057D80073656E20676573746172746574004152F5
:1057E80044555F4952002A00417264754952205657
:1057F800657273696F6E2000210045696E73636876
:10580800616C747665727A6F65676572756E67200C
:1058180000417573736368616C747665727A6F653D
:10582800676572756E67200053636877656C6C6591
:10583800200020200053656E736F72200020536390
:105848006877656C6C656E776572742000205661A8
:105858007256616C75655B692A332B335D2000676E
:105868006573706569636865727420002042797495
:0858780065733A000D0A0000FF
:00000001FF
