:100000000C94F2000C941A010C941A010C941A012D
:100010000C941A010C941A010C941A010C941A01F4
:100020000C941A010C941A010C941A010C941A01E4
:100030000C941A010C941A010C941A010C941A01D4
:100040000C946E150C941A010C9425140C94FF1347
:100050000C941A010C941A010C941A010C941A01B4
:100060000C941A010C941A01150318031B031E03A8
:100070002103240327032A03000000002400270093
:100080002A00010204081020408001020408102008
:1000900001020408102004040404040404040202FD
:1000A00002020202030303030303200056415253DA
:1000B00020002000200020000A4556454E54533AA7
:1000C0000020000A444556494345204E554D4245BF
:1000D00052533A0020000A494E5445524E414C209A
:1000E000564152533A0020000A4E4F444520564193
:1000F00052533A0020000A4E4F4445205641525375
:100100003A000A4E554D20564152533A000A4E5578
:100110004D204556454E545320564152533A000AFD
:100120004E554D204556454E54533A000A466C6193
:1001300067733A000A4E4E3A000A43414E5F494403
:100140003A004944454E543A004D454D4F525920CE
:1001500044554D500053746172740050726F7A654B
:1001600073736F726665686C657220004641494C16
:10017000454420746F2073656E642043414E0053E4
:10018000686F72743A204576656E740020202045B1
:1001900076656E7420004C6F6E673A204E6F646512
:1001A0004E6F200077726974652076617220746FDB
:1001B00020656570726F6D0000000000250028004A
:1001C0002B0000000000230026002900000000088A
:1001D000000201000003040700000000000000000E
:1001E0007C25F22711241FBECFEFD8E0DEBFCDBFA4
:1001F00012E0A0E0B1E0E6E3F3E502C005900D9265
:10020000A03CB107D9F725E0A0ECB2E001C01D92F7
:10021000A53EB207E1F710E0C1EFD0E004C021979E
:10022000FE010E945628C03FD107C9F70E94DE1880
:100230000C948E290C940000CF92DF92EF92FF92E3
:100240000F931F93CF93DF9300D0CDB7DEB72091EC
:10025000B60483EB94E029830E9428167C01009168
:10026000DA041091DB0429818017910789F08091CD
:100270003C0590913D050297039750F42D3009F409
:100280006FC0203109F484C0213109F030C39EC011
:100290002D3509F469C180F5233509F4F4C078F4EB
:1002A000203109F475C020F42D3009F020C358C066
:1002B000213109F48BC0223409F4B0C018C32635AB
:1002C00009F4FCC038F4243509F4E2C0253509F4FA
:1002D000E6C00DC3273509F413C1283509F007C35B
:1002E00080917F0494E79093AB041093AC04009347
:1002F000AD048093AE04F1C2253909F4BBC1F0F41A
:10030000223709F44DC120F4213709F435C1EFC279
:10031000233709F470C1253709F0E9C26091C90497
:100320006093D90460937C0482E190E00E945316AC
:100330008091DA049091DB0422E5C7C2223B09F4E4
:1003400026C238F4263909F4BFC12C3909F4F6C1A4
:10035000CEC2223D09F450C2253F09F443C2C7C2B0
:100360000115110509F4C3C28091E6049091E504DA
:100370002091E40436EB3093AB041093AC0400936B
:10038000AD042093AE049093AF048093B004A8C052
:1003900080913C0590913D05059709F0A8C2EBEAD4
:1003A000F4E088E08E0F11928E13FDCF8091E80467
:1003B0009091EB042091EA043091E9044091E50426
:1003C0005091E7046091E4047FEE15C080913C05F4
:1003D00090913D05059701F58091E2049091E1042B
:1003E0002091E0043091DF044091DE045091DD045F
:1003F0006091DC0472EE7093AB046093AC04509394
:10040000AD044093AE043093AF042093B0049093B6
:10041000B1048093B20468C083E0EBC180913C05D5
:1004200090913D050597C1F7F092DB04E092DA0464
:10043000C7010E9431188091DA049091DB0422E513
:100440002093AB049093AC048093AD041092AE045F
:100450001092AF041092B0041092B1041092B20442
:1004600083E090E090933D0580933C0581E080938C
:10047000AA048091E60484608093E6040E948B17AE
:100480000E948B1731C010923D0510923C052FC27F
:1004900083E090E090933D0580933C054BC18091B3
:1004A0003C0590913D05892B09F021C260E087E170
:1004B00090E00E94531610927F0419C28091E904C3
:1004C00090917F04891B90E79093AB041093AC0448
:1004D0000093AD048093AE041092AF041092B00468
:1004E0001092B1041092B2040F900F90DF91CF914F
:1004F0001F910F91FF90EF90DF90CF900C944306E7
:10050000D0907F04DD2009F4F2C1F12EC12C82EFDE
:10051000E82ECD1409F4EBC18C2D0E94B704FC0128
:1005200080919204882311F08AE063C183819281D3
:1005300021813081E092AB04F092AC040093AD04D1
:100540003093AE042093AF049093B0048093B10431
:10055000C092B2040E944306882321F08CE691E009
:100560000E946B17C394D5CFE016F10609F0BFC106
:1005700081E00E94EE17BBC1F090C9048FEF8F0D90
:100580000E947006909192049111CECF97E99093BA
:10059000AB041093AC040093AD04F092AE0467C0BA
:1005A000EBEAF4E088E08E0F11928E13FDCF0E94EB
:1005B000AB17F82E8FEF8F0D0E94B704FC019091BE
:1005C0009204992311F086E014C1838192812181E4
:1005D000308142EF4093AB041093AC040093AD0420
:1005E0003093AE042093AF049093B0048093B10491
:1005F000F092B2047AC12091C90421110BC08BE999
:100600008093AB041093AC040093AD041092AE043D
:1006100088E02DC0822F90E0FC013197E830F10591
:10062000E0F4EC5CFF4F0C9456288091E40416C073
:100630008091E70413C08091E50410C08091E90423
:100640000DC08091EA040AC08091EB0407C080913C
:10065000E80404C08091E60401C080E09BE9909327
:10066000AB041093AC040093AD042093AE048093CC
:10067000AF0435C183EB94E00E941016AC01B701C2
:1006800088E794E00E94BA0C182F0E94A5071092E8
:100690004205109243051092440510924505412FE2
:1006A00062E475E088E794E00E94470E81138BCFE7
:1006B000682F70E020E040E088E794E00E94571641
:1006C000882309F414C130CF1091C904115040910E
:1006D000CA041B3159F44093D90440937C04642F1D
:1006E00082E190E049830E94531649818091EB0496
:1006F0008117E8F0612F88E794E00E9485168091C9
:10070000DA049091DB0429E52093AB049093AC04C8
:100710008093AD041092AE041092AF041092B00416
:100720001092B1041092B2040E94430603C089E003
:100730000E94E40781E08093EF04D9C00E94AB17C8
:10074000182F0E94D717082F8091EA04801708F409
:10075000EBCE4FEF400F6FEF610F88E794E00E9400
:10076000D716909192049111DFCE9091DA042091E6
:10077000DB0435EB3093AB042093AC049093AD04D1
:100780001093AE040093AF048093B004AAC080918C
:100790003C0590913D05892B59F50E94D717182FDC
:1007A0000E94B7047C0140E0612F88E794E00E943A
:1007B000D71690919204911106CFF701938122816F
:1007C0003181408153ED5093AB044093AC0430939E
:1007D000AD042093AE049093AF041093B0048093C3
:1007E000B10481C080913C0590913D05892B71F148
:1007F00082E00E94E4077BC083EB94E00E94101625
:10080000082F9A830E94D717182F0E94C217282FEB
:10081000F0924205E09243059A819093440500933B
:100820004505412F62E475E088E794E029830E9442
:10083000470E29818113C7CE682F70E040E088E71A
:1008400094E00E94571681116FCE3AC083EB94E07A
:100850000E941016D82E9A830E94D717082F0E9444
:10086000C21789830E94AB17182FF0924205E092BD
:1008700043059A8190934405D09245054FEF480F68
:1008800062E475E088E794E00E94470E682F70E00C
:10089000412F50E04150510929816417750709F033
:1008A00092CE4FEF400F88E794E00E94571690E0F9
:1008B000202F30E0215031098217930709F034CE00
:1008C0008091DA049091DB0429E52093AB049093A6
:1008D000AC048093AD041092AE041092AF04109259
:1008E000B0041092B1041092B2040E94430680E05A
:1008F0000F900F90DF91CF911F910F91FF90EF908C
:10090000DF90CF900895CF92DF92FF920F931F93C5
:10091000CF93DF931F92CDB7DEB7F82E162F042F9B
:1009200060E08091A30479830E94801482E00E9499
:10093000B8158F2D0E94B815F12EC12E7981D72EB2
:100940008C2D8F19801730F4F60181916F010E9470
:10095000B815F6CF61E08091A3040F90DF91CF919D
:100960001F910F91FF90DF90CF900C948014109204
:1009700088041092890410928A0410928B041092B9
:10098000920490918204981720F090917F04981718
:1009900020F481E08093920421C090E0FC01EE0FEE
:1009A000FF1FEC50FC4F208120938804FC01EE0FC8
:1009B000FF1FEA5FFB4F208120938904FC01EE0FAB
:1009C000FF1FE85EFB4F208120938A04880F991F48
:1009D000FC01E65DFB4F808180938B0488E894E006
:1009E00008951F93CF93DF93182FC6E7D4E060E0FC
:1009F0008DA50E94801483E00E94B815812F0E946B
:100A0000B81580E00E94B815182F61E08DA50E94EE
:100A10008014812FDF91CF911F910895EF92FF9263
:100A20000F931F93CF93DF931F92CDB7DEB7082F9D
:100A3000162F86E7E82E84E0F82E60E0F70185A502
:100A400049830E94801485E00E94B815802F0E947F
:100A5000B815812F0E94B8154981842F0E94B815BE
:100A600061E0F70185A50F90DF91CF911F910F9164
:100A7000FF90EF900C9480140F931F93CF93DF930C
:100A8000082F162FC6E7D4E060E08DA50E948014E1
:100A900082E00E94B815802F0E94B815812F0E9415
:100AA000B81561E08DA5DF91CF911F910F910C9446
:100AB00080147F928F929F92AF92BF92CF92DF92DB
:100AC000EF92FF920F931F93CF93DF9300D000D04C
:100AD000CDB7DEB71092930460939404709395049D
:100AE0008093960490939704493008F048E040932F
:100AF00098041092A104A9E9B4E0F90150E0CF01F3
:100B0000821B930B841795071CF481918D93F7CF6B
:100B1000C12CD12C70E3A72EE0E49E2EF0E58F2EA1
:100B20008E010F5F1F4FA3E07A2E700EA9829A826A
:100B30008B827801F701B1907F018B2D0E94F10427
:100B4000982F987083FD04C0FF24F394FB0C04C01D
:100B50007E10F0CFF12C92E0FFEFCF1ADF0A923037
:100B600029F422E3C216D10409F778C082E3C8163B
:100B7000D10409F473C04091980469E974E085E0F8
:100B80008F0D0E9483048091A104813029F480910B
:100B900098048064809398046091980484E08F0D99
:100BA0000E943C05409194045091950460919604F4
:100BB00070919704809193048130B1F44C835B83EE
:100BC000AB0166277727942F9C71842F8370E8E010
:100BD0009E9F800D112488608A8365E05695479515
:100BE0006A95E1F749830DC0CA0123E09695879580
:100BF0002A95E1F789834295440F407E4A831C82FF
:100C00001B8244E0B8018F2D0E948304FA9448E0CF
:100C100068E08F2D0E940E0500E010E00F5F1F4F6F
:100C20008F2D0E94F10483FF04C002331105B1F738
:100C300017C002331105A1F010929404109295048C
:100C400010929604109297041092980410929304B4
:100C50001092A1041092A20480E003C086E001C0BB
:100C600087E00F900F900F900F90DF91CF911F9121
:100C70000F91FF90EF90DF90CF90BF90AF909F903B
:100C80008F907F900895CF93DF93C091AB04C2956E
:100C9000C695C770CF5F81E08093A8048093A904B4
:100CA0006091D90470E080E090E02BEA34E04C2FB2
:100CB0000E945905811102C080E00FC0D3E060910D
:100CC000D90470E080E090E02BEA34E04C2F0E94E1
:100CD0005905882389F3D15091F7DF91CF91089579
:100CE0001092920490918104891720F08FEF8093E5
:100CF00092040895E82FF0E0EE0FFF1FE45CFB4F35
:100D0000808108951F93CF93DF938823A1F0EB0197
:100D10008BE10E947006182F8BE10E94700680E91B
:100D20008093AB041092AC041093AD04D093AE0446
:100D3000C093AF040FC08091DA049091DB0428E9DE
:100D40002093AB049093AC048093AD047093AE04F5
:100D50006093AF041092B0041092B1041092B204E8
:100D6000DF91CF911F910C9443061F93CF93DF9394
:100D70008823A1F0EB018BE10E947006182F8BE114
:100D80000E94700681E98093AB041092AC0410932A
:100D9000AD04D093AE04C093AF040FC08091DA04C9
:100DA0009091DB0429E92093AB049093AC048093E9
:100DB000AD047093AE046093AF041092B00410922F
:100DC000B1041092B204DF91CF911F910C944306AD
:100DD000009769F0FC0101900020E9F73197AF011D
:100DE000481B590BBC0187E593E00C94FC1180E093
:100DF00090E008950C94E8068F929F92AF92BF9274
:100E00000F931F93CF93DF93CDB7DEB7A1970FB6A4
:100E1000F894DEBF0FBECDBF19A2423008F44AE0FD
:100E20008E010F5D1F4F842E912CA12CB12CA5019A
:100E300094010E940C28E62FB901CA010150110942
:100E4000EA3014F4E05D01C0E95CD801EC93232B97
:100E5000242B252B61F7C8010E94E806A1960FB646
:100E6000F894DEBF0FBECDBFDF91CF911F910F91E0
:100E7000BF90AF909F908F900895CF92DF92EF92A6
:100E8000FF92CF93DF936B017C01E0915703F091C8
:100E900058030190F081E02D6DE287E593E009951C
:100EA000EC0166277727CB016C197D098E099F0914
:100EB0004AE00E94FC068C0F9D1FDF91CF91FF90AE
:100EC000EF90DF90CF900895AB01672B59F4E0913C
:100ED0005703F09158030190F081E02D682F87E5CA
:100EE00093E00994BC01990F880B990B4A30510586
:100EF00021F497FD0C943D074AE00C94FC06BC01DC
:100F000080E090E04AE00C94FC06CF93DF930E94CF
:100F1000E806EC0181E891E00E94E8068C0F9D1F35
:100F2000DF91CF910895E6E7F4E0AAEDB4E09C915B
:100F300011962C9137E935AB26AB97AB80AF61AFFB
:100F400012AE13AE14AE0C944306CF93DF93682F0A
:100F500070E080E090E04AE00E94FC06EC0181E84D
:100F600091E00E94E8068C0F9D1FDF91CF910895BC
:100F7000AB01672B59F4E0915703F09158030190AE
:100F8000F081E02D682F87E593E00994682F70E0E9
:100F900080E090E00C94FC06CF93DF93BC01990FA6
:100FA000880B990B97FF03C00E943D0703C04AE0DE
:100FB0000E94FC06EC0181E891E00E94E8068C0F9B
:100FC0009D1FDF91CF910895E6E7F4E0AAEDB4E02C
:100FD0009C9111962C913FE635AB26AB97AB80AF39
:100FE00011AE12AE13AE14AE0C9443068F929F92C4
:100FF000AF92BF92CF92DF92EF92FF920F931F9327
:10100000CF93DF931F92CDB7DEB78091C9058F3F95
:1010100029F48091C8058F3F09F44FC00E946215E2
:101020000091CC051091CD052091CE053091CF05D2
:10103000DC01CB01801B910BA20BB30B8436910515
:10104000A105B105D0F180913C0590913D05059732
:10105000A9F48091CB05813041F460E08091C9050D
:101060000E9480141092CB051EC061E08091C905DA
:101070000E94801481E08093CB0515C08091AA0462
:10108000813039F460E08091C8050E94801461E0ED
:1010900006C061E08091C8050E94801460E08091E4
:1010A000C9050E9480140E9462156093CC0570935C
:1010B000CD058093CE059093CF058091D0058F3FCD
:1010C00009F48CC00E9457142091D105892B81F41A
:1010D000213009F083C00E94621560933E05709331
:1010E0003F0580934005909341051092D10576C04D
:1010F000211174C081E08093D1050E946215009196
:101100003E0510913F052091400530914105DC01DD
:10111000CB01801B910BA20BB30B8C019D01095ECF
:101120001340210931090738134121053105C0F465
:101130002091AA0480913C0590913D05213061F4F5
:10114000059739F483E090E090933D0580933C054A
:1011500045C00E94931742C0059709F03FC0F2CFE7
:1011600081379741A105B105C8F18091AA04811189
:1011700017C080913C0590913D05059719F360E0FB
:101180008091C8050E94801480E00E94EE17809133
:101190003C0590913D050497E1F60E94F607F7CFD4
:1011A0001092AA048091E6048B7F8093E6040E944B
:1011B0008B178091E60481FF09C08091F004909123
:1011C000F1049093DB048093DA0406C01092DB04F0
:1011D0001092DA0480E090E00E94311880913C0582
:1011E00090913D05049709F07FC00E94621500911F
:1011F0003E0510913F052091400530914105DC01ED
:10120000CB01801B910BA20BB30B893E9340A10530
:10121000B10508F469C083E090E090933D058093A8
:101220003C052091C205A3E4B5E081E08217B0F44B
:101230003D919FEF980FE92FF0E0BF016A587B4F77
:10124000AB0144535F4FFA0140813196341718F4D3
:1012500040839150F0CF30838F5FE8CF80E090E003
:1012600030E011E0180F8217930734F4FC01EE5BB5
:10127000FA4F4081141718F4143618F40AC0019676
:10128000F0CF8091ED04882379F187E00E94E40794
:101290002BC010937C04612F82E190E00E945316D2
:1012A0001093D9048091ED048823F1F08091DA0441
:1012B0009091DB0422E52093AB049093AC048093DF
:1012C000AD041092AE041092AF041092B0041092CC
:1012D000B1041092B204612F70E080E090E02BEA3C
:1012E00034E043E00E94590588248394912C82EADB
:1012F00095E028E0F22EF80EEE24E39439E5D32EA3
:101300001092EE048091360590913705892B09F0F3
:10131000D5C2909237058092360580913A0590911A
:101320003B05181619062CF0109237051092360559
:10133000C5C28091380590913905CC9724F0109260
:10134000390510923805ECE9F5E0A0913805B09127
:101350003905A850BB4F8C918193809138059091AD
:1013600039050196909339058093380580913A05A7
:1013700090913B05019790933B0580933A0525E0BA
:10138000EB3AF20711F7109237051092360583EB0E
:1013900094E00E94401680919C058093B80480914F
:1013A0009E058093CE0480919F058093CF04809109
:1013B000A0058093D0048091A1058093D104E2EA36
:1013C000F5E08191DF01AD5DB1098C93FE12F9CF9B
:1013D0008091C6048093B604843008F4B7C0873087
:1013E00009F4B4C0282F2F7B2F3309F4AFC092EA41
:1013F000980F923008F4AAC0982F9F7D9F3909F466
:10140000A5C0863B09F4A2C08F3D09F49FC03CEF04
:10141000380F333008F49DC038EF380F333008F4FC
:1014200098C03FED380F333008F493C0803409F48E
:1014300090C03CEB380F373008F48BC08C3409F483
:1014400088C0382F3F7740EA430F423008F481C00C
:10145000333609F47EC0903809F47BC03EE7380F7C
:10146000343008F476C0823A09F473C030E4380F9F
:10147000323008F46EC036EA380F323008F46CC0EF
:1014800030E7380F353008F467C038E6380F3330AE
:1014900008F462C09D59923008F45EC0982F977F7F
:1014A000905B923008F458C09DE4920F923008F49B
:1014B00053C091E3980F933008F44EC09CE2980F0C
:1014C000923008F449C098E2980F923008F444C072
:1014D00093E2980F923008F43FC090E1980F923059
:1014E000D8F19AE0980F9630B8F193E0980F9330C6
:1014F00098F194EF980F923090F190EF980F92300E
:1015000070F1823461F190EB980F9A3040F194EAD7
:10151000980F923020F191E9980F973000F19BE6F7
:10152000980F9330E0F095E6980F9230C0F0223B90
:10153000B1F0253BA1F09EE2980F923080F0823E00
:1015400071F08F3E61F080E090E00BC084E090E0AD
:1015500008C081E090E005C083E090E002C082E036
:1015600090E09093BA048093B90480919D05811115
:1015700003C01092D50402C0E092D50480E00E941E
:1015800070068370082F10E01595079583EB94E0A3
:101590000E94BF15C82E882321F00115110509F4FA
:1015A00067C183EB94E00E94D4158823C1F083EBDC
:1015B00094E00E94E9155C010097B9F0AC0160E08D
:1015C00070E088E794E00E94BA0C2091820430E039
:1015D000482F50E0241735070CF463C136C0CC20E7
:1015E000F1F001301105D9F405C0CC2081F10130B2
:1015F000110569F583EB94E00E941016009779F0CD
:10160000AC0160E070E088E794E00E94BA0C2091A1
:10161000820430E0482F50E024173507B4F483EB00
:1016200094E00E94E9155C01892B89F0A50160E036
:1016300070E088E794E00E94BA0C2091820430E0C8
:10164000482F50E02417350714F08F5F01C080E069
:101650008093EE048091D504882389F08091DA0488
:101660009091DB04892B59F06091D90470E080E0FF
:1016700090E02BEA34E040E00E94590541CE2091F1
:10168000B6042D3581F483EB94E00E942816209156
:10169000DA043091DB048217930709F031CE81E040
:1016A0000E94EE172DCE40913C0550913D054430EF
:1016B000510509F58091B804811122CE2091C2050F
:1016C000233608F01DCE8091CF04382F3295369501
:1016D00037709091CE04F0E19F9FC0011124832BBD
:1016E0008093B504E22FF0E0EE5BFA4F80832F5F2A
:1016F0002093C20505CE8091B9049091BA04452B80
:1017000009F074C03091AA04311170C0029729F415
:10171000223D19F0253F09F0A5C083EB94E00E941B
:101720001016082F292F83EB94E029830E94281696
:10173000482F692F90934205809343052981209378
:10174000440500934505C0907F0410918204C116A2
:1017500010F01F5F0EC088E794E00E940217181770
:1017600038F44C2D62E475E088E794E00E94470E5F
:10177000182F8091E904811710F484E01DC0809136
:10178000B604823D11F0853FD1F40E94D717082F8F
:101790000E94C2174FEF400F612F70E0282F88E79B
:1017A00094E00E94571690E0202F30E0215031093C
:1017B0008217930721F086E00E94E407A1CD809173
:1017C000DA049091DB04D092AB049093AC04809344
:1017D000AD041092AE041092AF041092B0041092B7
:1017E000B1041092B2040E9443068ACD8230910562
:1017F00039F13CF4019749F5E091C505F091C60532
:1018000017C0E091C305F091C4058330910519F02C
:10181000049731F01AC08091E60480FD16C008C01C
:101820008091E60480FD11C02730F9F40C9400008B
:10183000309759F066E774E083EB94E0099505C0B2
:101840000E941C01882309F45BCDE091C305F0914F
:10185000C405309709F454CD66E774E083EB94E057
:1018600009954ECD0E941C014BCD2E35F9F2E0CFEB
:1018700083EB94E00E9410165C0183EB94E00E94DD
:101880002816BC01A50188E794E00E94BA0C2091BB
:10189000820430E0482F50E0241735070CF481CE45
:1018A000D4CECC2009F4C2CE0130110509F4A2CE69
:1018B00083EB94E00E94E9155C01B8CE80E00F90C4
:1018C000DF91CF911F910F91FF90EF90DF90CF901C
:1018D000BF90AF909F908F900895EF92FF920F93DB
:1018E0001F93CF93DF931F92CDB7DEB7182FF62E3D
:1018F000E42E60E08091A30479830E94801483E049
:101900000E94B815812F0E94B8150F2D7981172FCD
:10191000F12CFE1459F0F8E0FF1641F080E00E942F
:10192000B815F80181938F01F394F3CF61E08091B2
:10193000A3040F90DF91CF911F910F91FF90EF9033
:101940000C94801426E331E0FC01318320838281F2
:101950009381009711F00C94F1280895CF93DF93B1
:10196000EC010E94A20CCE01DF91CF910C94F128E2
:101970000C94F1280F93252F042F462F672F0E94D8
:1019800002170F910895AF92BF92CF92DF92EF921C
:10199000FF920F931F93CF93DF93EC017B01FB0129
:1019A000E858FF4F108180911F03882309F4DEC09F
:1019B00087E292E00E94FA06812F0E94A507112378
:1019C00009F4D6C080911F038823D1F187E392E008
:1019D0000E94FA06812F0E94A50783E492E00E94EC
:1019E000FA06CE010E94D41597012E5F3F4F690180
:1019F000882339F0CE010E94E915AC0160E070E067
:101A000009C0CE010E9410165C01CE010E9428166A
:101A1000BC01A501C6010E94BA0CF701ED58FF4FA9
:101A20009081891730F440E0682FC6010E94D716D4
:101A300001C080E00E94A50783E891E00E9485072D
:101A4000193009F019C180913203811115C1C1EC1F
:101A5000D2E0E12CF12C8091E10290E00E2C02C04A
:101A6000959587950A94E2F79091C00268817981F3
:101A700080FF06C081E0911180E00E94820605C0CF
:101A800081E0911180E00E94B50680911F038701DB
:101A90000F5F1F4F882309F450C0E091E402E695E0
:101AA000E695E695F0E0EE0FFF1FE55EFC4F8081C6
:101AB00091810E2C02C0959587950A94E2F780FFDC
:101AC0000BC08091E10290E002C095958795EA9461
:101AD000E2F780FD0BC00DC08091E10290E002C0F2
:101AE00095958795EA94E2F780FD03C083E691E03F
:101AF00002C08FE591E00E94FA0685EE91E00E9417
:101B0000FA066AE070E0C8010E9464078FEC91E079
:101B10000E94FA06888199810E947F078091C00205
:101B2000811103C089E591E002C082E591E00E9445
:101B3000FA0688ED91E00E94850762E370E080E09C
:101B400090E00E942815780122960830110509F0CE
:101B500082CF8091E10290918104993108F48CC088
:101B600090E090936F0480936E0486C0111168CF4B
:101B700080911F03882309F47FC0CE010E94BF1506
:101B8000882389F086E991E00E944A17CE010E94DD
:101B900028160E947F078CE891E00E944A17CE0128
:101BA0000E9410160CC0CE010E94D4158823D9F0D3
:101BB0008FE791E00E944A17CE010E94E915BC010F
:101BC00080E090E04AE00E94FC0681E891E0DF912D
:101BD000CF911F910F91FF90EF90DF90CF90BF902A
:101BE000AF900C94E8068EE492E00E94FA0660E161
:101BF00070E08B810E94B80784E592E00E94FA06AB
:101C0000CE010E9428160E947F078CE592E00E9478
:101C1000FA068C8D8295869587709B8D40E1949F06
:101C200090011124822B8A836AE070E00E94B80739
:101C300085E692E00E94FA068B8990E025E0959572
:101C400087952A95E1F78C836AE070E00E94B807D7
:101C500084E792E00E94FA0680913C0590913D0550
:101C6000DF91CF911F910F91FF90EF90DF90CF9078
:101C7000BF90AF900C94CC07DF91CF911F910F9143
:101C8000FF90EF90DF90CF90BF90AF900895CF92EC
:101C9000DF92EF92FF921F93CF93DF93FC011285A7
:101CA000411718F081E0810F4CC0142FFB01DC01BB
:101CB000242F30E0E901CC0FDD1FCC50DC4F8081B8
:101CC00090E099838883E901CC0FDD1FCA5FDB4F69
:101CD000818190E099838883E901CC0FDD1FC85E84
:101CE000DB4F828190E099838883E901CC0FDD1F6F
:101CF000C65DDB4F838190E0998388831B968C912E
:101D00001B9790E00496289F7001299FF00C389F44
:101D1000F00C11241D968D919C911E97E80EF91ED2
:101D20006B0184E0C80ED11CEB01E61AF70AC7016B
:101D30008C0F9D1F69910E945316CC15DD05B9F7D4
:101D4000812FDF91CF911F91FF90EF90DF90CF9087
:101D50000895FC0180E090E0238530E0821793072E
:101D60003CF4A281B381A80FB91F1C920196F4CF55
:101D700082E68483158286EC86831782148A08950E
:101D8000EF92FF920F931F93CF93DF9300D000D079
:101D9000CDB7DEB78C010E94A90EF801828587833A
:101DA00019821A828EE38B8384EE8C83E12CF12CD2
:101DB000F8014285842F90E00197E816F906CCF4EB
:101DC0004E2DBE016F5F7F4FC8010E94470E8C8170
:101DD0008F5F8C83811103C08B818F5F8B8320E0A9
:101DE00040E0B701C8010E945716FFEFEF1AFF0A43
:101DF000DFCF19821A8282E18B8387E68C83415080
:101E0000BE016F5F7F4FC8010E94470EF8016285D7
:101E100070E06150710920E040E0C8010E9457164F
:101E200042E060E0C8010E94851640E069E1C80117
:101E30000E9485164FEF6AE1C8010E948516FF24B3
:101E4000F39444E06F2DC8010E94851661E06F0D88
:101E500044E6C8010E94851662E06F0D4BE4C8019C
:101E60000E948516F3E0FF0E89E1F812EACF42E600
:101E70006BE1C8010E94851640E06CE1C8010E9438
:101E8000851668E580E090E00E945316F8016481B1
:101E900082E190E00E945316F801658183E190E0B1
:101EA0000E945316F801668184E190E00E94531667
:101EB000F801648985E190E00E945316F80167817A
:101EC00087E190E00E945316F801638588E190E075
:101ED0000E945316C8010E94AD160F900F900F90EC
:101EE0000F90DF91CF911F910F91FF90EF90089588
:101EF0002EE431E0FC0121933193CF010C94A20C2C
:101F0000CF93DF93EC010E94780FCE01DF91CF9148
:101F10000C94F12808954F925F926F927F928F9266
:101F20009F92AF92BF92CF92DF92EF92FF920F9368
:101F30001F93CF93DF931092EF0480E00E9470060E
:101F400081FB992790F99093C002982F991F9927A8
:101F5000991F90933203992339F086FB222720F9A9
:101F600020933503806202C01092350390E0BC01DB
:101F7000E5E075956795EA95E1F76170660F8295E2
:101F80008170680F6093E30280913503811118C05E
:101F900070E06F5F7F4F81E792E00E94422870936C
:101FA00034036093330380911F03882389F18DE705
:101FB00092E00E94FA068091E3020E94A50728C0E1
:101FC0001092E40260E082E00E94801460E084E00D
:101FD0000E94801460E086E00E94801460E088E047
:101FE0000E94801461E083E00E94801461E085E03B
:101FF0000E94801461E087E00E94801461E089E023
:102000000E9480148DE790E0909334038093330313
:1020100001EC12E07801C0E08C2F0E94B704FC01B3
:10202000228130E0322F22278381282BF701219350
:1020300031937F01CF5FC83079F7C0911B03D091F6
:102040001C036AE188E794E00E94F51690E0C81747
:10205000D90709F481C0C0E0D0E0C12CD12C7601B1
:10206000C394A0901B03B0901C030C2E02C0B59427
:10207000A7940A94E2F76AE188E794E00E94F516D3
:1020800090E00C2E02C0959587950A94E2F7A82659
:10209000B926A0FE45C08091E10290E00C2E02C05E
:1020A000959587950A94E2F780FD0EC02091E10294
:1020B000D701C6010C2E04C0880F991FAA1FBB1F91
:1020C0000A94D2F7822B0FC09091E102B701A601CA
:1020D0000C2E04C0440F551F661F771F0A94D2F7B9
:1020E0004095842F89238093E1028091E10290E062
:1020F0000C2E02C0959587950A94E2F79091C00244
:10210000F8016081718180FF06C081E0911180E05B
:102110000E94820605C081E0911180E00E94B50610
:1021200021960E5F1F4FC830D10509F09ACF6AE1A2
:1021300088E794E00E94F51690E090931C0380934A
:102140001B038091E10290918104993128F090E085
:1021500090936F0480936E04C5EED2E013E0C12C1F
:10216000D12C83E0E82EF12CAA24A394B12C2BE4EB
:10217000822E912C30EE632E77247394809132035B
:1021800081111FC06EEF610F88E794E00E94F51681
:1021900090E0833091051CF09B838A8302C0FB8210
:1021A000EA826FEF610F88E794E00E94F51690E0F5
:1021B000833091051CF09D838C8307C0FD82EC82E7
:1021C00004C0FD82EC82FB82EA8225010C2C02C055
:1021D000440C551C0A94E2F78091310390E084216D
:1021E00095218415950511F58091000190910101CB
:1021F000892BE1F4809132038823C1F0809135036B
:10220000811114C0612F88E794E00E94F5168F3F7A
:1022100009F064C0709201016092000180911F0377
:10222000882309F45BC081E892E029C0612F88E728
:1022300094E00E94F516282F30E03F832E838150D2
:102240008E3F08F44BC0809135038823D9F09F82DC
:102250008E8201E0010F8091EB04811730F04BE496
:10226000612F88E794E00E9485166E81802F0E947E
:10227000930780911F03882389F183E992E00E94EC
:1022800085072CC01092010110920001809131034A
:10229000482A40923103809130032F3F310511F4D9
:1022A0008F7701C080688093300380911F0388235B
:1022B00021F08CEA92E00E948507E0E2F3E01192BF
:1022C000119223E0E033F207D1F7809132038823A3
:1022D00029F06E8181E0810F0E9493073FEFC31ABE
:1022E000D30A26961D5F1B3109F048CF8CE10E946E
:1022F0007006881F8827881F80931F03882329F072
:102300008CE10E9470068F7001C083E68093E20228
:10231000DF91CF911F910F91FF90EF90DF90CF90C1
:10232000BF90AF909F908F907F906F905F904F90F5
:102330000895E62FF0E0EE0FFF1FEF52FD4F8111E1
:102340002DC08081918197FF05C081E090E091834D
:10235000808308958230910509F44DC001969183E0
:102360008083029709F047C08091E10290E0062E39
:1023700002C0959587950A94E2F780FD3CC02091B4
:10238000E10281E090E0A0E0B0E004C0880F991F76
:10239000AA1FBB1F6A95D2F7822B2BC08081918127
:1023A000181619061CF41182108208958F3F2FEF22
:1023B000920709F10197918380830196E1F480915E
:1023C000E10290E0062E02C0959587950A94E2F707
:1023D00080FF11C02091E10281E090E0A0E0B0E038
:1023E00004C0880F991FAA1FBB1F6A95D2F780955A
:1023F00082238093E1020895CF92DF92EF92FF92C1
:102400000F931F93CF93DF936C017A018B01C0E090
:10241000D0E0CE15DF0589F0D8016D918D01D60190
:10242000ED91FC910190F081E02DC6010995892B79
:1024300011F47E0102C02196ECCFC701DF91CF914C
:102440001F910F91FF90EF90DF90CF900895089526
:1024500080E090E00895FC01538D448D252F30E0FD
:10246000842F90E0821B930B541710F0CF960895A1
:1024700001970895FC01918D828D981761F0828DEE
:10248000DF01A80FB11D5D968C91928D9F5F9F73A8
:10249000928F90E008958FEF9FEF0895FC01918D4A
:1024A000828D981731F0828DE80FF11D858D90E0B7
:1024B00008958FEF9FEF0895FC01918D228D892F54
:1024C00090E0805C9F4F821B91098F73992708953C
:1024D00087E593E00E945C1221E0892B09F420E05B
:1024E000822F0895FC01848DDF01A80FB11DA35A2E
:1024F000BF4F2C91848D90E001968F739927848F24
:10250000A689B7892C93A089B1898C9180648C931A
:10251000938D848D981306C00288F389E02D808105
:102520008F7D80830895EF92FF920F931F93CF9337
:10253000DF93EC0181E0888F9B8D8C8D981305C013
:10254000E889F989808185FD24C0F62E0B8D10E085
:102550000F5F1F4F0F731127E02E8C8DE8120CC0F8
:102560000FB607FCFACFE889F989808185FFF5CF9E
:10257000CE010E947212F1CF8B8DFE01E80FF11D8A
:10258000E35AFF4FF0820B8FEA89FB8980818062DA
:1025900007C0EE89FF896083E889F98980818064BA
:1025A000808381E090E0DF91CF911F910F91FF90A8
:1025B000EF900895CF93DF93EC01888D8823C9F0C5
:1025C000EA89FB89808185FD05C0A889B9898C913C
:1025D00086FD0FC00FB607FCF5CF808185FFF2CFD7
:1025E000A889B9898C9185FFEDCFCE010E94721226
:1025F000E7CFDF91CF91089580E090E0892B29F01B
:102600000E94681281110C9400000895833081F0BB
:1026100028F4813099F08230A1F008958730A9F034
:102620008830B9F08430D1F4809180008F7D03C070
:10263000809180008F7780938000089584B58F7794
:1026400002C084B58F7D84BD08958091B0008F77DE
:1026500003C08091B0008F7D8093B0000895423018
:10266000510509F45EC044F44115510581F0413033
:10267000510509F470C0B7C04430510509F4A1C038
:102680000CF487C04530510509F4A2C0ACC06234D7
:1026900009F4ACC080EB860F8B3008F4A7C084EA45
:1026A000860F823008F4A2C081E9860F873008F4D3
:1026B0009DC080E7860F8F3008F498C080E5860FB4
:1026C000873008F493C088E4860F823008F48EC007
:1026D00083E4860F823008F489C080E3860F863059
:1026E00008F484C088E2860F823008F47FC083E259
:1026F000860F823008F47AC0633E09F477C080E127
:10270000860F823008F472C08DE0860F873008F49F
:102710006DC081E06D3F09F468C06E3F09F063C091
:1027200067C0862F8F7B8059863008F45FC080E5B4
:10273000860F853008F45AC080E1860F823008F495
:1027400055C08DE0860F823008F450C081E0653FAF
:1027500009F049C04DC06B3509F448C088E6860FC2
:10276000833008F443C0862F8F7D8D598230F0F17D
:1027700088E4860F8230D0F188E2860F8230B0F193
:1027800083E2860F823090F188E0860F843008F66D
:102790002DC08FED860F833048F18CEB860F87308C
:1027A00028F16C3419F1603609F16038F9F08EE7E0
:1027B000860F8430D8F0623AC9F081E0613E99F426
:1027C00017C0603499F0613689F0613CB1F70EC0F2
:1027D000603861F08EE7860F843040F081E0623A25
:1027E00039F0613C29F080E00895089581E0089572
:1027F00008950E9489290C94F1280C94F1281F92C5
:102800000F920FB60F9211242F933F934F935F9324
:102810006F937F938F939F93AF93BF93EF93FF93A8
:1028200087E593E00E947212FF91EF91BF91AF9103
:102830009F918F917F916F915F914F913F912F91D8
:102840000F900FBE0F901F9018951F920F920FB60A
:102850000F9211242F938F939F93EF93FF93E09107
:102860006703F09168038081E0916D03F0916E033E
:1028700082FD12C09081809170038F5F8F732091D1
:102880007103821751F0E0917003F0E0E95AFC4FB8
:10289000958F8093700301C08081FF91EF919F918C
:1028A0008F912F910F900FBE0F901F901895CF937F
:1028B000DF93282F30E0F901E453FE4F8491F901B2
:1028C000EE57FF4FD491F901EA56FF4FC491CC2344
:1028D00091F081110E940613EC2FF0E0EE0FFF1F24
:1028E000EE53FE4FA591B491EC91ED2381E090E081
:1028F00021F480E002C080E090E0DF91CF91089564
:102900001F93CF93DF93282F30E0F901E453FE4F5C
:102910008491F901EE57FF4FD491F901EA56FF4F28
:10292000C491CC23C9F0162F81110E940613EC2FFD
:10293000F0E0EE0FFF1FE854FE4FA591B4918FB762
:10294000F894111105C09C91ED2FE095E92302C088
:10295000EC91ED2BEC938FBFDF91CF911F910895F8
:10296000CF93DF9390E0FC01EE57FF4F2491FC01E1
:10297000EA56FF4F8491882361F190E0880F991FF8
:10298000FC01E858FF4FC591D491FC01E854FE4F7B
:10299000A591B491611109C09FB7F89488812095E1
:1029A00082238883EC912E230BC0623061F49FB7A1
:1029B000F8943881822F809583238883EC912E2B85
:1029C0002C939FBF06C08FB7F894E8812E2B2883E5
:1029D0008FBFDF91CF9108958E3008F08E508770B1
:1029E000806480937C0080917A00806480937A0078
:1029F00080917A0086FDFCCF80917800209179004B
:102A000090E0922B08953FB7F8948091DD05909166
:102A1000DE05A091DF05B091E00526B5A89B05C0B5
:102A20002F3F19F00196A11DB11D3FBFBA2FA92F4D
:102A3000982F8827820F911DA11DB11DBC01CD01CA
:102A400042E0660F771F881F991F4A95D1F70895B6
:102A50008F929F92AF92BF92CF92DF92EF92FF92AE
:102A60006B017C010E9403154B015C01C114D10470
:102A7000E104F104F1F00E940315DC01CB01881997
:102A80009909AA09BB09883E9340A105B10570F3D5
:102A900021E0C21AD108E108F10888EE880E83E02F
:102AA000981EA11CB11CC114D104E104F10419F752
:102AB000DDCFFF90EF90DF90CF90BF90AF909F90D1
:102AC0008F9008952FB7F8946091D9057091DA0529
:102AD0008091DB059091DC052FBF08951F920F9226
:102AE0000FB60F9211242F933F938F939F93AF9321
:102AF000BF938091D9059091DA05A091DB05B09143
:102B0000DC053091D80523E0230F2D3720F4019602
:102B1000A11DB11D05C026E8230F0296A11DB11D00
:102B20002093D8058093D9059093DA05A093DB050F
:102B3000B093DC058091DD059091DE05A091DF0565
:102B4000B091E0050196A11DB11D8093DD05909324
:102B5000DE05A093DF05B093E005BF91AF919F9193
:102B60008F913F912F910F900FBE0F901F9018954E
:102B70008EBD00000DB407FEFDCF8EB50895FC019B
:102B80009381892F8F7D8059823058F080E3890F9F
:102B9000823038F081E0903F31F0913F21F080E0C9
:102BA000089581E008950895FC019381892F8F7D18
:102BB0008859823058F088E2890F823038F081E0FD
:102BC000983F31F0993F21F080E0089581E0089529
:102BD00008951F93CF93DF93EC011B8141E050E0F8
:102BE000612F0E942F138823A9F086E0810F823085
:102BF00010F01B3531F42C8930E0322F22278D89DB
:102C000005C02E8930E0322F22278F89A901482B59
:102C1000CA0102C080E090E0DF91CF911F9108953A
:102C2000CF93DF93EC0142E050E06B810E942F13C1
:102C3000882349F02E8930E0322F22278F89A9017D
:102C4000482BCA0102C080E090E0DF91CF91089547
:102C5000CF93DF93EC0140E050E06B890E942F138B
:102C6000882349F02C8930E0322F22278D89A90151
:102C7000482BCA0102C080E090E0DF91CF91089517
:102C8000FC01DC0153964B961D92A817B907E1F79A
:102C9000138E148E158E168E178E11A210A212A2EC
:102CA0000895089508950C94FE270C94F6270F9329
:102CB0001F93CF93FC01DB01878190E068177907B0
:102CC00018F081E0840F1DC093854917D0F7622F5B
:102CD000C42F042F10E00C5F1F4F492F50E04C5FB2
:102CE0005F4FA49FC001A59F900DB49F900D11242C
:102CF00045855685840F951F800F911F0E9453169E
:102D00008C2FCF911F910F9108951F93CF93DF9335
:102D1000FC0181858617E8F0142FC62FD0E0FE0154
:102D2000EE0FFF1FE45CFB4F842F90E091838083C4
:102D30006996CE010E945516181759F084EA91E061
:102D40000E946B17612FCE01DF91CF911F910C94E0
:102D50005316DF91CF911F910895CF93DF93EC012C
:102D60000E94A90E80E090E00E945516883519F067
:102D7000CE010E94C00E82E190E00E9455168C8325
:102D800083E190E00E9455168D8384E190E00E94DB
:102D900055168E8385E190E00E9455168C8B87E155
:102DA00090E00E9455168F83DF91CF910895FC012A
:102DB000128E87816817B0F42385421798F450E08B
:102DC0004C5F5F4F30E02C5F3F4F629FD001639FAD
:102DD000B00D1124858596858A0F9B1F840F951F42
:102DE0000C9455168FEF828F0895FC01128E818509
:102DF000681728F4862F90E049960C9455168FEFAB
:102E0000828F0895AF92BF92CF92DF92EF92FF929E
:102E10000F931F93CF93DF93EC018F81A4EFB3E067
:102E2000E8E1F4E090E0E62EF12CC42ED12C30E065
:102E300010E09817F9F0611102C0442369F0AD90D9
:102E4000BC901197EA14FB0489F45296AD90BC90A3
:102E50005397CA14DB0451F4A080B1802A153B05B6
:102E600029F4A288B3880A151B0541F09F5F1296CA
:102E70003296DFCF9A8581E0890F01C0892FDF91DB
:102E8000CF911F910F91FF90EF90DF90CF90BF9067
:102E9000AF9008950F931F93CF93DF938C01C0E001
:102EA000D0E0F801EC0FFD1F6491662371F0E09112
:102EB0005703F09158030190F081E02D87E593E0EE
:102EC0000995892B11F02196ECCFCE01DF91CF919E
:102ED0001F910F910895CF93DF930E944A17EC0141
:102EE00081E891E00E94E8068C0F9D1FDF91CF9151
:102EF0000895CF93C82F482F60EE8FE00E940E05F3
:102F00008FE00E94F104807E91E08C1301C090E07C
:102F1000892FCF9108956091E60460938C0485E138
:102F200090E00C945316E6E7F4E085E090E090938F
:102F30003D0580933C05AAEDB4E08C9111969C91DF
:102F400020E525AB96AB87AB10AE11AE12AE13AE3B
:102F500014AE0C9443068091B604823721F08C396C
:102F600011F0853B19F48091C9040895853F19F447
:102F70008091CB040895823F19F48091CD04089587
:102F800080E008958091B604853B19F48091CB04CC
:102F900008959EE2980F923018F48091CC04089521
:102FA000853F19F48091CD04089580E008958091C3
:102FB000B6048C3911F0853B19F48091CA04089548
:102FC000823B11F0823D19F48091CB040895853F36
:102FD00019F48091CC04089580E00895CF93DF9395
:102FE000CDB7DEB728970FB6F894DEBF0FBECDBFC2
:102FF0001092C2058093ED0484E090E090933D052B
:1030000080933C0582E08093A80483E08093A90428
:103010006091D90470E080E090E09E012F5F3F4F07
:10302000F90148E0420F11924E13FDCF41E0409369
:10303000A10440E00E9459051092A1040E9462156B
:1030400060933E0570933F05809340059093410542
:1030500028960FB6F894DEBF0FBECDBFDF91CF919B
:103060000895CF93DF93C6E7D4E09F838887692FC5
:1030700083E190E00E945316688584E190E0DF913F
:10308000CF910C9453160F931F93CF93DF9300D0DF
:1030900000D0CDB7DEB7182F10929304109294048D
:1030A00010929504109296041092970444E0BE0189
:1030B0006F5F7F4F0E946D0C8A819981482F50E08D
:1030C00065E0559547956A95E1F728E0929F400D98
:1030D000511D1124052E000C660B770B40939404B0
:1030E00050939504609396047093970483FF29C0CE
:1030F00092E0440F551F661F771F9A95D1F7837092
:10310000480F511D611D711D762F652F542F4427C7
:103110008B81480F511D611D711D762F652F542F16
:1031200044278C81480F511D611D711D40939404EB
:1031300050939504609396047093970481E0809374
:1031400093048FEF810F0E94F104082F84E0810F18
:103150000E94F104482F03FF04C081E08093A10482
:1031600002C01092A1044F704093980469E974E082
:1031700085E0810F0E946D0C0F900F900F900F90C3
:10318000DF91CF911F910F9108951F93CF93DF93FC
:10319000C6E7D4E060E08DA50E94801480EA0E941A
:1031A000B81580E00E94B815182F61E08DA50E9427
:1031B0008014812FDF91CF911F910895CF93DF93DA
:1031C00000D000D0CDB7DEB7789484B5826084BDDE
:1031D00084B5816084BD85B5826085BD85B581601B
:1031E00085BD80916E00816080936E001092810099
:1031F0008091810082608093810080918100816054
:103200008093810080918000816080938000809114
:10321000B10084608093B1008091B00081608093A0
:10322000B00080917A00846080937A0080917A0067
:10323000826080937A0080917A00816080937A0026
:1032400080917A00806880937A001092C1003E9A43
:1032500061E080E00E94B01461E081E00E94B0145F
:103260000E9462156838734181059105E8F460E0B9
:1032700080E00E94801460E081E00E94801464E697
:1032800070E080E090E00E94281561E080E00E94FC
:10329000801461E081E00E94801464EF71E080E0BE
:1032A00090E00E942815DCCF61E080E00E9480144D
:1032B00061E081E00E9480143E98469A78E0872E73
:1032C00071E0972EE0E1AE2EE1E0BE2EFFE3EF2E9F
:1032D000F3E0FF2E61E0D4018D914D010E94B01406
:1032E000F50111915F0160E0812F0E94B014812FE0
:1032F0000E94EC14812F0E94EC14D7018D939D93B2
:103300007D01B0E18B16B1E09B0621F7ACEDB4E096
:10331000FD01119224E0E43EF207D9F7E7E6F1E07F
:1033200081918D9331E0EE36F307D1F788E58093F4
:10333000E5048DE08093E40482E08093E70481E07B
:103340008093E8048091E60483608093E60486EC31
:1033500090E0A0E0B0E08093F0049093F104A0939B
:10336000F204B093F30401E0369935C00E9462156F
:103370004B015C0111E00E946215DC01CB01881950
:103380009909AA09BB09883E9340A105B10540F4FB
:10339000112351F386B186FB112710F91027EBCFCB
:1033A000112311F388E794E00E94C00E81E080931E
:1033B000AA048091E60484608093E6040E948B173F
:1033C0000E948B1760E081E00E94801460E080E042
:1033D0000E948014FFCF61E080E00E94801461E0D1
:1033E00081E00E94801483EC9CE09093C40580935C
:1033F000C3058AE08093A30461E00E94B01461E0F9
:103400008091A3040E94801444E1842E912C50EA00
:10341000A52E50E0B52E6CE8E62E60E0F62ECFB675
:10342000F89480913603811125C0F5018491F7014C
:10343000249190E0880F991F88589F4FFC01A59117
:10344000B4918C91282321F461E08AE00E948014D9
:1034500061E08AE00E94B0148CB580618CBD8CB5AF
:1034600080648CBD61E08DE00E94B01461E08BE06F
:103470000E94B014809136038F5F80933603CFBED5
:1034800060E08091A3040E94801480EC0E94B81533
:1034900061E08091A3040E9480146AE070E080E003
:1034A00090E00E94281580E80E947917882391F007
:1034B0006AE070E080E090E00E9428156EE170E024
:1034C00080E090E00E942815F1E08F1A910809F041
:1034D000A6CF4BC06AE070E080E090E00E94281523
:1034E00061E08AE20E943C0561EB89E20E943C05B2
:1034F00065E088E20E943C056AE070E080E090E0D0
:103500000E94281510E360E0812F0E943C0560E0D6
:1035100080E1810F0E943C0560E080E2810F0E9403
:103520003C051F5F1E3379F760E080E60E943C0592
:1035300060E080E70E943C0563E08BE20E943C056E
:1035400044E064E680E60E940E0540E060E680E725
:103550000E940E0580E00E9479178111A9CF6AE0D0
:1035600070E080E090E00E9428158FEF8093D005F6
:1035700062E00E94B0148CE10E947006881F8827C8
:10358000881F80931F03811113C080911F03811135
:103590008FC11092C80581E08093C90561E080E089
:1035A0000E94B01461E08091C9050E94B01480C1EE
:1035B000E0916703F091680382E08083E091630308
:1035C000F09164031082E0916503F091660380E15D
:1035D000808310926F03E0916B03F0916C0386E09F
:1035E0008083E0916903F0916A0380818061808328
:1035F000E0916903F0916A03808188608083E091A3
:103600006903F0916A03808180688083E091690397
:10361000F0916A0380818F7D808305E010E068EE81
:1036200073E080E090E00E9428158FE691E00E9410
:10363000FA060150110999F783E891E00E94850785
:1036400081E791E00E94FA0682E090E00E94CC07B8
:1036500088E794E00E94AD1689E491E00E946B1720
:1036600082E491E00E944A1780E090E00E945516A3
:1036700060E170E00E94B80789E391E00E944A1778
:1036800060E170E080917C040E94B80784E391E0DF
:103690000E944A1780917D0490E0982F88272091FE
:1036A0007E04822B90938E0480938D040E947F076A
:1036B0008CE291E00E944A1760E170E080918C04F6
:1036C0000E94B8078FE191E00E944A1760E170E024
:1036D00080917F040E94B8078DE091E00E944A1714
:1036E00060E170E0809183040E94B80782E091E07D
:1036F0000E944A1760E170E0809181040E94B8073F
:1037000086EF90E00E944A1710E08091810418171C
:1037100078F4812F90E049960E94551660E170E0A0
:103720000E94B80784EF90E00E944A171F5FEDCF18
:1037300088EE90E00E944A1710E0809181041817EB
:1037400090F4E12FF0E0EE0FFF1FE45CFB4F60E12F
:1037500070E0808191810E94640786EE90E00E9473
:103760004A171F5FEACF86ED90E00E944A1702E0F9
:1037700010E0C8010E94551660E170E00E94B80791
:1037800084ED90E00E944A170F5F1F4F0231110530
:1037900081F783EC90E00E944A1710E08091840446
:1037A000181718F5E12EF12CEE0CFF1C8091870400
:1037B0009701280F311DC9010E94551660E170E084
:1037C0000E94B80780918704A701480F511DCA01C4
:1037D00001960E94551660E170E00E94B80781ECE6
:1037E00090E00E944A171F5FD9CF88EB90E00E94BB
:1037F0006B17A0908504B090860410E0809182043D
:10380000181708F0C2CE750194E0E90EF11CC5014D
:103810000E94551660E170E00E94B8075FEFA51A9C
:10382000B50A86EB90E00E944A17AE14BF0479F700
:1038300084EB90E00E944A17A12EB12CAA0CBB1C6D
:10384000812C912CF401EA0DFB1DEC50FC4F60E142
:1038500070E0808191810E94640782EB90E00E9479
:103860004A1762E1860E911C78E48716910451F79D
:103870008CEA90E00E944A175701909183048A2DA8
:103880008E19891778F4C5010E94551660E170E021
:103890000E94B8078FEFA81AB80A8AEA90E00E943F
:1038A0004A17EBCF81E891E00E94E8061F5FA6CFA0
:1038B000F89489E0E0E0F0E0809357003491E3E091
:1038C000F0E0809357002491E2E0F0E0809357000D
:1038D0009491E1E0F0E0809357008491789411E0B6
:1038E0003F3F09F410E02C3509F01E5FE2E0E90FDC
:1038F000E23020F01C5F8F3F19F406C08F3F11F0BB
:10390000185F02C0112369F180911F03811102C069
:1039100011E014C08BE591E00E944A176AE070E064
:10392000812F0E94B80784E891E00E94850768EE25
:1039300073E080E090E00E942815ECCF8D2D812768
:103940008170D82E682F80E00E9480146D2D81E058
:103950000E94801464EF71E080E090E00E942815DE
:10396000EDCF6AE188E794E00E94F51690E090932D
:103970001C0380931B0315EEE12E12E0F12E11E0E3
:10398000612F88E794E00E94F51690E0D701139626
:103990009C938E93129761E0610F88E794E00E94F8
:1039A000F51690E0F7019583848362E0610F88E764
:1039B00094E00E94F51690E0D70117969C938E93A1
:1039C000169780911F03882319F186E891E00E94E1
:1039D000FA06F701828193810E94CC078DE991E07C
:1039E0000E94FA06D70114968D919C9115970E941A
:1039F000CC0784EB91E00E94FA06F701868197815B
:103A00009C01220F331F820F931F44960E94CC0704
:103A10001D5FF6E0EF0EF11C193109F0B1CF0E94E5
:103A20008B0F80911F03882321F085E591E00E9490
:103A30006B1788248394912CFCE32F2E312C412C7E
:103A4000512C320143940E940315609353037093E9
:103A50005403809355039093560300914F031091A4
:103A6000500320915103309152036B017C01C01A25
:103A7000D10AE20AF30A49EEC41643E0D406E1048F
:103A8000F10448F40E94F6078091EF048823A9F11D
:103A90000E948B0F32C060934F037093500380934A
:103AA00051039093520310E001E00E94C518837007
:103AB00001F18BC78091A4048093B2058091A50485
:103AC0008093B3058091A6048093B4058091A704E8
:103AD0008093B5054093B0058091A10481119FC7E3
:103AE0001092B1058091360590913705892B09F424
:103AF00099C7113039F211E0D8CF8091350388236E
:103B000009F412C1E090E402F12C87010E5F1F4F0F
:103B100007701127D701A05FBE4F5D018C910E94F5
:103B20005714D82EF50181810E945714C82E209178
:103B3000E20230E0C90101978E159F0529F022505D
:103B400031092E153F0569F50E9403154AE00E94D0
:103B5000FC0680EC91E00E94FA068091E40290E07D
:103B60006AE070E001960E94640780EC91E00E9498
:103B7000FA066AE070E08D2D0E94B8078EEB91E0A6
:103B80000E94FA068091E40290E06AE070E00296FA
:103B90000E94640780EC91E00E94FA068C2D0E943E
:103BA000A507F090E4026F2D8D2D0E94991161E020
:103BB0006F0D8C2D0E9499112091E1028F2D90E0C4
:103BC00030E00F2C02C0359527950A94E2F720FFCC
:103BD0000DC02091E10230E0AC014F5F5F4F02C0A9
:103BE000359527954A95E2F720FF67C72091E102B6
:103BF00030E00F2C02C0359527950A94E2F720FD9E
:103C00000DC02091E10230E0AC014F5F5F4F02C078
:103C1000359527954A95E2F720FD59C72091E10295
:103C200030E00F2C02C0359527950A94E2F720FF6B
:103C300078C02091E10230E0019602C035952795C9
:103C40008A95E2F720FF6DC0F694EF2DF0E0EE0FBD
:103C5000FF1FE95CFC4F80819181892B09F461C0D1
:103C600082EC91E00E94FA068091E40290E06AE022
:103C700070E001960E946407E091E402E695F0E0AE
:103C8000EE0FFF1FE95CFC4F80819181019709F0E5
:103C90002AC789EC91E00E9485078FEC91E00E9491
:103CA000FA06E091E402F0E0EE0FFF1FEF53FD4F44
:103CB000808191810E947F078FEB91E00E94FA063C
:103CC0008091C002811112C789E591E00E94FA0635
:103CD00088ED91E00E9485078091E402282F2695C7
:103CE00030E07901EE0CFF1CF701E95CFC4F20810C
:103CF00031814091C00290E0880F991FFC01213072
:103D0000310509F0F6C6EF53FD4F6081718181E006
:103D1000411180E00E948206F701E95CFC4F1182AC
:103D200010820093E402FEC4809133039091340327
:103D3000092E000CAA0BBB0B409153035091540366
:103D4000609155037091560384179507A607B7072E
:103D500008F0E8C4809132039091E402C92ED12C7E
:103D6000882309F442C2DA82C98256012FEFA21ACF
:103D7000B20A750137E0E322FF24F601E05FFE4F4F
:103D8000D0808D2D0E94EC148C018091E302823052
:103D900020F48D2D0E94EC148C0161E0E981FA8100
:103DA000E85FFE4F80810E94801480910001909115
:103DB0000101803E41E09407E8F420913003E9815D
:103DC000FA81EE0FFF1FE05EFC4F27FF0CC0208141
:103DD0003181200F311F318320830196909301019F
:103DE0008093000107C0808191810817190710F4A2
:103DF000118300838091E20290E0A816B90609F0D1
:103E000044C082EE91E00E94FA060E9403154AE047
:103E10000E94FC0680EC91E00E94FA068091E40288
:103E200090E06AE070E001960E94640780EC91E007
:103E30000E94FA068091E1026AE070E00E94B807F1
:103E400080EC91E00E94FA068091E40290E00196F5
:103E50009C01220F331FF901E80FF91FEE0FFF1F1E
:103E6000EB51FD4F808191819C01220F331F820F06
:103E7000931F6AE070E044960E94640780EC91E032
:103E80000E94FA06C8010E94CC07A091E4028A2F82
:103E900090E09C012F5F3F4FA901440F551F420F37
:103EA000531FFA01EE0FFF1FEB51FD4F20813181AF
:103EB000220F331F220F331F880F991F201731073E
:103EC0000CF099C0BC016F527D4FFB012081318104
:103ED00037FF03C09182808280C1440F551F4F512C
:103EE0005D4FFA01408151812417350709F475C1EE
:103EF0002F5F3F4FFB01318320832417350709F0E3
:103F00006CC1EA2FE695E695E695F0E0EE0FFF1F0F
:103F1000E55EFC4F208131810A2E02C03595279540
:103F20000A94E2F76901F1E0CF22DD2420FF19C0F5
:103F30002091E10230E00A2E02C0359527950A94BF
:103F4000E2F720FD4AC12091E102B301A2010A2E4D
:103F500004C0440F551F661F771F0A94D2F7422BE7
:103F600019C02091E10230E00A2E02C03595279554
:103F70000A94E2F720FF31C12091E102B301A201CE
:103F80000A2E04C0440F551F661F771F0A94D2F7EC
:103F9000409542234093E1022091E10230E002C0CB
:103FA00035952795AA95E2F73091C002FC01EF53B1
:103FB000FD4F6081718181E020FF05C0311180E0FB
:103FC0000E94820604C0311180E00E94B5068091F3
:103FD000E10290918104993128F090E090936F0470
:103FE00080936E0480911F03882309F4F6C0CD28C6
:103FF00009F4A2C0A4C09C012F523D4F6901F901F0
:1040000020813181121613061CF411821082E5C042
:10401000440F551F4D515D4FFA0140815181662774
:104020007727621B730B6417750709F4D6C0B901B3
:1040300061507109F601718360836401C21AD30A69
:10404000C416D50609F0C9C0EA2FE695E695E695AF
:10405000F0E0EE0FFF1FE55EFC4F208131810A2E5C
:1040600002C0359527950A94E2F7690141E0C42220
:10407000DD2420FF1AC02091E10230E00A2E02C0A8
:10408000359527950A94E2F720FFA7C02091E10219
:10409000B301A2010A2E04C0440F551F661F771FEB
:1040A0000A94D2F74095422318C02091E10230E0F3
:1040B0000A2E02C0359527950A94E2F720FD8DC09F
:1040C0002091E102B301A2010A2E04C0440F551F42
:1040D000661F771F0A94D2F7422B4093E10220918A
:1040E000E10230E002C035952795AA95E2F73091BC
:1040F000C002FC01EF53FD4F6081718181E020FF20
:1041000005C0311180E00E94820604C0311180E0B8
:104110000E94B5068091E10290918104993128F0C6
:1041200090E090936F0480936E0480911F03882326
:1041300009F453C0CD2819F083E691E002C08FE561
:1041400091E00E94FA0685EE91E00E94FA068091C5
:10415000E40290E06AE070E001960E94640780EC5F
:1041600091E00E94FA066AE070E0C8010E946407CC
:104170008FEC91E00E94FA06E091E402F0E0EE0F8D
:10418000FF1FEF53FD4F808191810E947F078FEBCE
:1041900091E00E94FA068091E10290E00090E40232
:1041A00002C0959587950A94E2F780FD03C083E6E7
:1041B00091E002C08FE591E00E94FA068091C00272
:1041C000811103C089E591E002C082E591E00E947F
:1041D000FA0688ED91E00E948507E092E402F7017B
:1041E000E85FFE4F60E080819BC2DC82CB8256019B
:1041F0002FEFA21AB20A750137E0E322FF24F6017D
:10420000E05FFE4FD0808D2D0E94EC148C018091D8
:10421000E302823020F48D2D0E94EC148C01F70112
:10422000E85FFE4F5081598360E0852F0E94801423
:104230008091000190910101803E61E09607C8F4F1
:104240002B813C81220F331FF901E05EFC4F215C82
:104250003C4FD9014D915C91401B510B2081318124
:10426000240F351F318320830196909301018093A1
:1042700000018091E20290E0A816B90609F052C050
:104280006AE070E080910001909101010E94640752
:1042900080EC91E00E94FA060E9403154AE00E9419
:1042A000FC0680EC91E00E94FA068091E40290E026
:1042B0006AE070E001960E94640780EC91E00E9441
:1042C000FA068091E1026AE070E00E94B80780EC93
:1042D00091E00E94FA06E091E402F0E0EE0FFF1F89
:1042E000E15CFC4F6AE070E0808191810E9464078C
:1042F00080EC91E00E94FA066AE070E0C8010E943A
:10430000640780EC91E00E94FA06E091E402F0E09C
:10431000EE0FFF1FE15CFC4F80819181801B910BB0
:104320000E94CC079091E402292F30E0A901440FAC
:10433000551FFA01E15CFC4F0190F081E02D2F5FE9
:104340003F4FB901660F771F260F371F5F01A01A75
:10435000B10AB901660F771F6B517D4FDB016D917B
:104360007C916B01CC0CDD1C6C0D7D1D6C5E7F4F58
:104370006A157B050CF09FC00E171F070CF09BC041
:10438000FA01EF52FD4F6081718177FF03C0918286
:104390008082A7C1220F331FD901AF51BD4F2D918C
:1043A0003C916217730709F49CC16F5F7F4F718363
:1043B00060836217730709F094C1E92FE695E695CB
:1043C000E695F0E0EE0FFF1FE55EFC4F20813181A6
:1043D000092E02C0359527950A94E2F7F901E1709C
:1043E000FF27FC83EB8320FF19C02091E10230E01E
:1043F000092E02C0359527950A94E2F720FD71C178
:104400008091E10263015201092E04C0AA0CBB1C79
:10441000CC1CDD1C0A94D2F78A291AC02091E10233
:1044200030E0092E02C0359527950A94E2F720FF67
:1044300058C18091E10263015201092E04C0AA0C07
:10444000BB1CCC1CDD1C0A94D2F72A2D209582239C
:104450008093E1022091E10230E002C0359527957A
:104460009A95E2F79091C002FA01EF53FD4F6081F7
:10447000718181E020FF05C0911180E00E948206D9
:1044800004C0911180E00E94B5068091E1029091F4
:104490008104993128F090E090936F0480936E042A
:1044A00080911F03882309F41CC1CB80DC80CD28B8
:1044B00009F4A2C0A4C0FA01EF52FD4F60817181DE
:1044C000161617061CF4118210820BC1220F331F1F
:1044D000D901AD51BD4F2D913C91AA27BB27A61BF9
:1044E000B70BA217B30709F4FCC0DB011197B18326
:1044F000A083D401A61BB70BA217B30709F0F1C024
:10450000E92FE695E695E695F0E0EE0FFF1FE55EF4
:10451000FC4F20813181092E02C0359527950A94E0
:10452000E2F7F901E170FF27FC83EB8320FF1BC05A
:104530002091E10230E0092E02C0359527950A94BA
:10454000E2F720FFCEC08091E10263015201092E03
:1045500004C0AA0CBB1CCC1CDD1C0A94D2F72A2D6B
:104560002095822318C02091E10230E0092E02C07C
:10457000359527950A94E2F720FDB3C08091E102BA
:1045800063015201092E04C0AA0CBB1CCC1CDD1C0B
:104590000A94D2F78A298093E1022091E10230E067
:1045A00002C0359527959A95E2F79091C002FA01DD
:1045B000EF53FD4F6081718181E020FF05C09111B3
:1045C00080E00E94820604C0911180E00E94B5063E
:1045D0008091E10290918104993128F090E09093CC
:1045E0006F0480936E0480911F03882309F479C0BF
:1045F000CB80DC80CD2819F083E691E002C08FE506
:1046000091E00E94FA0685EE91E00E94FA06809100
:10461000E40290E06AE070E001960E94640780EC9A
:1046200091E00E94FA06E091E402F0E0EE0FFF1F35
:10463000E15CFC4F6AE070E0808191810E94640738
:1046400080EC91E00E94FA066AE070E0C8010E94E6
:10465000640780EC91E00E94FA06E091E402F0E049
:10466000EE0FFF1FE15CFC4F808191816AE070E0FA
:10467000801B910B0E9464078FEC91E00E94FA0668
:10468000E091E402F0E0EE0FFF1FEF53FD4F808159
:1046900091810E947F078FEB91E00E94FA06809142
:1046A000E10290E00090E40202C0959587950A949B
:1046B000E2F780FD03C083E691E002C08FE591E060
:1046C0000E94FA068091C002811103C089E591E041
:1046D00002C082E591E00E94FA0688ED91E00E9416
:1046E0008507E092E402F701E05FFE4F1081812F21
:1046F0000E94EC149701220F331FA901415C5C4F0B
:104700007A01DA018D939C938091E302823030F438
:10471000812F0E94EC14F7019183808361E08981ED
:104720000E94801480913C0590913D05039759F4B7
:10473000369909C00E946215613177428105910561
:1047400010F00E9493178091000190910101803E2A
:1047500091400CF437C18FEF9FEF9093010180934C
:10476000000120E233E03C832B8325EE32E03A83E4
:10477000298304E010E020E030E054E1E52EF12C44
:1047800069E0D62EA401022E02C0440F551F0A94E0
:10479000E2F78091310390E084239523B9016F5FA4
:1047A0007F4F5B018417950709F0F0C090913203A9
:1047B00080913003992369F190913503911129C0BB
:1047C000AB81BC8187FF14C08D919C914E96B10145
:1047D0000E942E28D69EC001D79E900D11246AE01B
:1047E00070E00E942E28EB81FC81718360833BC0C6
:1047F0008D919C919C012C5E3F4FE0E0F4E0E81B22
:10480000F90BCF016AE070E00E942E28620F731F3F
:1048100026C0EB81FC8187FF13C0808191814E9679
:10482000B1010E942E28FCE0F69FC001F79F900D79
:1048300011246AE070E00E942E286C5E7F4F0FC04A
:10484000808191814E96B1010E942E28F3E1F69F5E
:10485000C001F79F900D1124B7010E942E28AB8153
:10486000BC816D937C9380911F038823D9F08FEED8
:1048700091E00E94FA066AE070E0C5010E946407B8
:1048800087EF91E00E94FA0680EC91E00E94FA0620
:10489000EB81FC81808191810E947F0780EC91E017
:1048A0000E94FA06AB81BC818D919C91119744972F
:1048B00010F4ED92FC9220913203EB81FC81808117
:1048C0009181222339F096958795969587959183C6
:1048D000808309C0449763E070E00E942E28AB817A
:1048E000BC816D937C93EB81FC8180819181892BCC
:1048F00011F491828082AB81BC818D919C91119742
:104900008F3F910520F0EEEFF0E0ED93FC93AB814B
:10491000BC814C91842F11969C91E981FA8126816A
:1049200037812817390791F197838683C02E6FEF5F
:10493000600F8091EB04861720F088E794E00E94D6
:10494000851680911F038823D9F087E092E00E94AA
:10495000FA066AE070E0C8010E94640780EC91E00A
:104960000E94FA066AE070E0A981BA8116968D91DC
:104970009C9117970E94640782E192E00E94FA06D8
:10498000E981FA8166818C2D0E949307AB81BC81FD
:104990001D921D92BC83AB839501E981FA81369605
:1049A000FA83E9830D5F1F4F2830310509F0EACE05
:1049B0001092310380911F03882321F080E292E05E
:1049C0000E9485070E94FC123EC80E94C518111162
:1049D00008C080FF90C881E60E94431840E061E073
:1049E00007C081FF86C881E70E94431840E062E06B
:1049F0008CE20E940E054091980480E090E02091A6
:104A0000980430E0821793070CF054C8FC01EA5870
:104A1000FB4F23A1E05CFE4F20830196F0CF009373
:104A2000B10560C861E070E07093370560933605AA
:104A30008091340590913505CC9724F0109235057E
:104A400010923405E0EBF5E0809134059091350546
:104A50002191DC01A850BB4F2C9301969093350512
:104A60008093340580913A0590913B05019690938F
:104A70003B0580933A0575E0EF3BF70729F7CD97A3
:104A8000BCF080913805909139050F968C339105D3
:104A90002CF4909339058093380504C010923905A1
:104AA000109238058CE390E090933B0580933A0593
:104AB00010923705109236051CC8EF2DE695F0E0F0
:104AC000EE0FFF1FE95CFC4F918280828FC8EF2DB3
:104AD000E695F0E0EE0FFF1FE95CFC4F22E030E0CE
:104AE000318320839BC88CEC91E0D5C882E591E0AE
:104AF000EDC8ED53FD4F09C96F927F928F929F923F
:104B0000AF92BF92CF92DF92EF92FF920F931F93DB
:104B1000CF93DF93CDB7DEB7C654D1090FB6F89463
:104B2000DEBF0FBECDBF10925A031092590388EE1C
:104B300093E0A0E0B0E080935B0390935C03A093CC
:104B40005D03B0935E038CE191E0909358038093F2
:104B5000570385EC90E0909364038093630384ECA7
:104B600090E0909366038093650380EC90E09093CF
:104B700068038093670381EC90E090936A038093CD
:104B8000690382EC90E090936C0380936B0386EC56
:104B900090E090936E0380936D03109270031092D7
:104BA000710310927203109273038EE491E090935C
:104BB00077048093760486E391E090937904809360
:104BC000780486E491E09093B4048093B30483EB7B
:104BD00094E00E9440168EE391E09093D804809375
:104BE000D704ECEDF4E080E3819394E0E43EF90730
:104BF000D9F78EE291E09093F7048093F604109237
:104C00003505109234051092370510923605109232
:104C100039051092380510923B0510923A05109212
:104C2000EC041092C20587E1FE013196A3E9B4E0DD
:104C300001900D928A95E1F78CE3FE013396A8EF7F
:104C4000B4E001900D928A95E1F786E391E09A83B2
:104C500089838DE18A8789E08B8781E08C878D87C6
:104C600086E3888B88E390E09F878E8781E090E0E1
:104C70000E945C289C838B83CE0101960E94A90E22
:104C8000CE0101960E94AD165CE3E52E54E0F52EB0
:104C900010E0612FCE0101960E94F51690E0F70119
:104CA000819391937F011F5F1D3199F7EB84788485
:104CB00034EF832E33E0932E48E1A42E44E0B42E4B
:104CC000CC84D12CF4E0CF0ED11C0E851F85F12CA5
:104CD00066246394198A1A8A1B8A1C8A1B8EEF1415
:104CE00010F07F1410F46B8E13C0C8010E9455168B
:104CF000898BC80101960E9455168A8BC8010296BD
:104D00000E9455168B8BC80103960E9455168C8BFA
:104D1000898990E0F401819391934F018A8990E011
:104D2000918B808B8B8990E0F501819391935F014A
:104D30008C8990E0918B808BF3940C0D1D1DF9E014
:104D4000FF12C8CF8B819C8190937B0480937A045F
:104D50008D8180937C048E819F8190937E048093CB
:104D60007D04888580937F048985809380048A856B
:104D700080938104E09282048C85809383048D85E6
:104D8000809384048E859F85909386048093850408
:104D900088898093870489899A89AB89BC898093A3
:104DA000880490938904A0938A04B0938B048D891E
:104DB00080938C048E899F8990938E0480938D04B8
:104DC000888D80938F04898D809390048A8D809341
:104DD00091048B8D80939204CE0101960E94A20CC7
:104DE000FE013696CE010E9620E32193E817F907CF
:104DF000E1F78B818093D9048C819D819093DB04B2
:104E00008093DA0488E0FE013696ACEDB4E00190C0
:104E10000D928A95E1F78E858093E4048F858093C7
:104E2000E50488898093E60489898093E7048A8968
:104E30008093E80489E08093E9048DE18093EB049A
:104E400011E01093EA0486E491E09A838983CE010D
:104E500001960E9440168B818093B5048C818093CB
:104E6000B6048D818093B7048E818093B8048F81BE
:104E700098859093BA048093B90489859A85909314
:104E8000BC048093BB048B859C859093BE04809367
:104E9000BD048D859E859093C0048093BF048F854B
:104EA00098899093C2048093C10489899A899093C8
:104EB000C4048093C3048B898093C50488E0FE01F9
:104EC0007496A6ECB4E001900D928A95E1F78C8D72
:104ED0009D8DAE8DBF8D8093CE049093CF04A09313
:104EE000D004B093D10488A18093D20489A19AA15F
:104EF0009093D4048093D3048BA18093D5048CA188
:104F00008093D6048091EC0481608093EC0410922D
:104F1000ED040FEF0093C8050093C9051093CA056F
:104F20001092CB050E9462156093CC057093CD055D
:104F30008093CE059093CF051092C4051092C305BF
:104F40001092D3051092D2051092EE041093EF0444
:104F50000093D0051093D1058CE291E0A0E0B0E081
:104F60008093F0049093F104A093F204B093F304BF
:104F700088E794E00E94AD1680917D0490E0982F20
:104F8000882720917E04822B90938E0480938D0439
:104F90009093DB048093DA0480917C048093D9049D
:104FA00080918C048093E6041093AA0483E090E03F
:104FB00090933D0580933C05CA5BDF4F0FB6F89494
:104FC000DEBF0FBECDBFDF91CF911F910F91FF903C
:104FD000EF90DF90CF90BF90AF909F908F907F9099
:104FE0006F90089586E794E00C94780FF999FECFBE
:104FF00092BD81BDF89A992780B50895262FF99919
:10500000FECF1FBA92BD81BD20BD0FB6F894FA9AAB
:10501000F99A0FBE01960895A1E21A2EAA1BBB1B96
:10502000FD010DC0AA1FBB1FEE1FFF1FA217B30774
:10503000E407F50720F0A21BB30BE40BF50B661F8A
:10504000771F881F991F1A9469F76095709580954E
:1050500090959B01AC01BD01CF010895AA1BBB1B1C
:1050600051E107C0AA1FBB1FA617B70710F0A61B68
:10507000B70B881F991F5A95A9F780959095BC0189
:10508000CD01089597FB072E16F4009407D077FD05
:1050900009D00E942E2807FC05D03EF490958195FA
:1050A0009F4F0895709561957F4F0895EE0FFF1FF4
:1050B0000590F491E02D0994CF93DF938230910510
:1050C00010F482E090E0E091E305F091E40520E047
:1050D00030E0C0E0D0E0309711F1408151814817B5
:1050E0005907C0F04817590761F4828193812097CE
:1050F00019F09B838A832BC09093E4058093E3058A
:1051000026C02115310519F04217530718F49A01EA
:10511000BE01DF01EF010280F381E02DDCCF21151C
:10512000310509F1281B390B2430310590F4129612
:105130008D919C9113976115710521F0FB0193836B
:10514000828304C09093E4058093E305FD013296C9
:1051500044C0FD01E20FF31F819391932250310966
:105160002D933C933AC02091E1053091E205232B29
:1051700041F420910401309105013093E205209320
:10518000E10520910201309103012115310541F41F
:105190002DB73EB74091060150910701241B350BF6
:1051A000E091E105F091E205E217F307A0F42E1B70
:1051B0003F0B2817390778F0AC014E5F5F4F24177B
:1051C000350748F04E0F5F1F5093E2054093E1050D
:1051D0008193919302C0E0E0F0E0CF01DF91CF91A5
:1051E00008950F931F93CF93DF93009709F48CC01A
:1051F000FC013297138212820091E3051091E405BD
:105200000115110581F420813181820F931F2091B6
:10521000E1053091E2052817390779F5F093E205A9
:10522000E093E10571C0D80140E050E0AE17BF0740
:1052300050F412962D913C911397AD012115310533
:1052400009F1D901F3CF9D01DA0133832283608113
:105250007181860F971F8217930769F4EC012881EB
:105260003981260F371F2E5F3F4F318320838A817C
:105270009B8193838283452B29F4F093E405E0938B
:10528000E30542C01396FC93EE931297ED0149910A
:1052900059919E01240F351FE217F30771F48081A5
:1052A0009181840F951F029611969C938E93828113
:1052B000938113969C938E931297E0E0F0E0D801CF
:1052C00012968D919C911397009719F0F8018C011B
:1052D000F6CF8D919C9198012E5F3F4F820F931FC7
:1052E0002091E1053091E2052817390769F43097DC
:1052F00029F41092E4051092E30502C01382128291
:105300001093E2050093E105DF91CF911F910F917A
:10531000089581E090E0F8940C948E2910E0C1EF9C
:10532000D0E004C0FE010E9456282196C23FD1075A
:06533000C9F7F894FFCF5D
:10533600FFFF0000E50580000203040506070809D3
:105346001514131211100F0E000000009312FC1119
:105356002B12DA125C123A124E12000000008A0F6B
:10536600B80C00000000A20CAE0C000000005216A3
:10537600FD13000000005116FB1300000000780F1B
:10538600800F2073686F727400206C6F6E67004523
:10539600696E0041757300415244555F4952002AB7
:1053A600004172647549522056657273696F6E20AA
:1053B600000D0A00210045696E736368616C74769E
:1053C60065727A6F65676572756E672000417573E1
:1053D600736368616C747665727A6F6567657275FA
:1053E6006E67200053636877656C6C65200020202B
:1053F600200053656E736F72002D3E003C2D002019
:10540600204576656E74200020676573656E646559
:105416007400415A002053656E736F723A20005330
:10542600656E736F7220002053636877656C6C65D8
:105436006E776572742000205661726961626C65D0
:105446002000206765737065696368657274200063
:1054560066657274696700557365725F46756E633B
:1054660074696F6E3A20004576656E744D6174639B
:105476006820004576656E745661723A20004F507A
:10548600433A2000204E6F64653A20002043616E47
:1054960049443A2000204D65737361676553697A04
:1054A600653A20002053746174653A2000414443F4
:1054B6000045696E6D657373656E206265656E6421
:1054C6006574004B65696E65204B616C696272613B
:1054D60074696F6E206E6F657469670045696E6DDD
:1054E600657373656E2067657374617274657400A5
:00000001FF
