:100000000C9433010C945B010C945B010C945B0128
:100010000C945B010C945B010C945B010C945B01F0
:100020000C945B010C945B010C945B010C945B01E0
:100030000C945B010C945B010C945B010C945B01D0
:100040000C94EB120C945B010C9498110C947211AB
:100050000C945B010C945B010C945B010C945B01B0
:100060000C945B010C945B010C945B010C945B01A0
:100070000C945B010C945B010C945B010C945B0190
:100080000C945B010C945B010C945B010C945B0180
:100090000C945B010C945B010C945B010C945B0170
:1000A0000C945B010C945B010C945B010C945B0160
:1000B0000C945B0158035B035E03610364036703F5
:1000C0006A036D034B114E11411145116F116F11F0
:1000D000521156115C1160116F1166116A11000006
:1000E0000000240027002A002D000102040810202F
:1000F0004080010204081020010204081020408002
:10010000400102040804040404040404040202027A
:1001100002020203030303030302020305050505AC
:1001200020005641525320002000200020000A45A4
:1001300056454E54533A0020000A4445564943451B
:10014000204E554D424552533A0020000A494E5424
:1001500045524E414C20564152533A0020000A4E1F
:100160004F444520564152533A0020000A4E4F4416
:100170004520564152533A000A4E554D20564152A1
:10018000533A000A4E554D204556454E545320567D
:100190004152533A000A4E554D204556454E545350
:1001A0003A000A466C6167733A000A4E4E3A000AFA
:1001B00043414E5F49443A004944454E543A004D4C
:1001C000454D4F52592044554D500053746172743F
:1001D0000050726F7A6573736F726665686C6572D2
:1001E00020004641494C454420746F2073656E647D
:1001F0002043414E0053686F72743A204576656E15
:1002000074002020204576656E7420004C6F6E6768
:100210003A204E6F64654E6F2000777269746520D6
:1002200076617220746F20656570726F6D000000DA
:100230000000250028002B002E00000000002300F5
:10024000260029002C000A0D0E09000302000004FC
:100250000508000000000000000000000000000091
:1002600000000525012511241FBECFEFD8E0DEBF19
:10027000CDBF12E0A0E0B1E0E0E3F2E502C00590FE
:100280000D92AE3BB107D9F725E0AEEBB2E001C06D
:100290001D92A33EB207E1F711E0C2E3D1E004C032
:1002A0002197FE010E94DF27C133D107C9F70E94C1
:1002B00077180C940B290C940000DF92EF92FF92B8
:1002C0000F931F93CF93DF93C091BD048AEB94E00B
:1002D0000E94C4047C010091E1041091E2048017A3
:1002E000910789F080914305909144050297039707
:1002F00050F4CD3009F46FC0C03109F484C0C1316D
:1003000009F033C39EC0CD3509F470C180F5C33503
:1003100009F4FEC078F4C03109F475C020F4CD3082
:1003200009F023C358C0C13109F48BC0C23409F4A9
:10033000B0C01BC3C63509F406C138F4C43509F48E
:10034000ECC0C53509F4F0C010C3C73509F41AC1B3
:10035000C83509F00AC38091860494E79093B204EB
:100360001093B3040093B4048093B504F4C2C53968
:1003700009F4C3C1F0F4C23709F454C120F4C13701
:1003800009F43CC1F2C2C33709F478C1C53709F09A
:10039000ECC26091D0046093E0046093830482E136
:1003A00090E00E941B058091E1049091E20422E517
:1003B000CAC2C23B09F42DC238F4C63909F4C7C118
:1003C000CC3909F4FDC1D1C2C23D09F456C2C53FC2
:1003D00009F449C2CAC20115110509F4C6C28091C7
:1003E000ED049091EC042091EB0436EB3093B204D1
:1003F0001093B3040093B4042093B5049093B6040F
:100400008093B704B2C0809143059091440505974D
:1004100009F0ABC2E2EBF4E0119284E0EA3BF807AA
:10042000D9F78091EF049091F2042091F10430917A
:10043000F0044091EC045091EE046091EB047FEEE7
:1004400015C08091430590914405059701F5809171
:10045000E9049091E8042091E7043091E60440918A
:10046000E5045091E4046091E30472EE7093B204E9
:100470006093B3045093B4044093B5043093B6042E
:100480002093B7049093B8048093B90472C083E0BA
:10049000F1C180914305909144050597C1F7F09211
:1004A000E204E092E104C7010E94CA178091E104CE
:1004B0009091E20422E52093B2049093B3048093D8
:1004C000B4041092B5041092B6041092B7041092BE
:1004D000B8041092B90483E090E0909344058093AF
:1004E000430581E08093B1046091ED046460609302
:1004F000ED046093930485E190E00E941B056091F8
:10050000ED046093930485E190E00E941B0531C0E7
:10051000109244051092430528C283E090E0909326
:1005200044058093430548C180914305909144055B
:10053000892B09F01AC260E087E190E00E941B0558
:100540001092860412C28091F00490918604891B57
:1005500090E79093B2041093B3040093B404809393
:10056000B5041092B6041092B7041092B804109219
:10057000B904DF91CF911F910F91FF90EF90DF9021
:100580000C942515D0918604DD2309F4EEC1F12EDB
:10059000C0E082EFE82EDC1709F4E7C18C2F0E943F
:1005A0007616FC0180919904882311F08AE062C1DB
:1005B0008381928121813081E092B204F092B30470
:1005C0000093B4043093B5042093B6049093B70419
:1005D0008093B804C093B9040E942515882321F0A4
:1005E00082EE91E00E940B17CF5FD5CFE016F106A7
:1005F00009F0BBC181E00E948617B7C1C091D00449
:100600008FEF8C0F0E945215909199049111CECFCB
:1006100097E99093B2041093B3040093B404C09389
:10062000B50468C0E2EBF4E08AEB94E011928E1717
:100630009F07E1F70E944317C82F8FEF8C0F0E948E
:100640007616FC0190919904992311F086E012C16D
:10065000838192812181308142EF4093B2041093D3
:10066000B3040093B4043093B5042093B60490937C
:10067000B7048093B804C093B90475C12091D00425
:1006800021110BC08BE98093B2041093B304009343
:10069000B4041092B50488E02DC0822F90E0FC01D4
:1006A0003197E830F105E0F4E65AFF4F0C94DF276C
:1006B0008091EB0416C08091EE0413C08091EC048D
:1006C00010C08091F0040DC08091F1040AC08091A7
:1006D000F20407C08091EF0404C08091ED0401C0D2
:1006E00080E09BE99093B2041093B3040093B404A8
:1006F0002093B5048093B60430C18AEB94E00E9445
:100700009113AC01B7018FE794E00E94DD05C82F7B
:100710000E94BE161092490510924A0510924B0590
:1007200010924C054C2F69E475E08FE794E00E942D
:100730006607C8138BCF6C2F70E020E040E08FE796
:1007400094E00E941F05882309F40FC12FCFC091A8
:10075000D004C150D091D104CB3149F4D093E004FE
:10076000D09383046D2F82E190E00E941B0580915D
:10077000F2048C17F0F04D2F6C2F8FE794E00E945D
:1007800049058091E1049091E20429E52093B204A7
:100790009093B3048093B4041092B5041092B604FD
:1007A0001092B7041092B8041092B9040E94251553
:1007B00003C089E00E94DE1681E08093F604D5C074
:1007C0000E944317D82F0E946F17C82F8091F10401
:1007D0008C1708F4EBCE4FEF4C0F6FEF6D0F8FE7D8
:1007E00094E00E947105909199049111DFCE90914F
:1007F000E1042091E20435EB3093B2042093B3047A
:100800009093B404D093B504C093B6048093B70416
:10081000A6C08091430590914405892B51F50E9413
:100820006F17182F0E947616EC0140E0612F8FE7BA
:1008300094E00E94710590919904911107CF9B81DA
:100840002A813981488153ED5093B2044093B30417
:100850003093B4042093B5049093B6041093B70476
:100860008093B8047EC08091430590914405892B04
:1008700061F182E00E94DE1678C08AEB94E00E946B
:100880009113182F092F0E946F17C82F0E945A1713
:10089000D82FF0924905E0924A0500934B0510933A
:1008A0004C054C2F69E475E08FE794E00E946607E1
:1008B000C813CCCE6C2F70E02D2F40E08FE794E072
:1008C0000E941F05811172CE39C08AEB94E00E940C
:1008D0009113082FD92E0E946F17C82F0E945A1704
:1008E000D82F0E944317182FF0924905E0924A052D
:1008F000D0924B0500934C054FEF480F69E475E02B
:100900008FE794E00E946607682F70E0212F30E0A7
:10091000215031096217730709F098CE4FEF4C0F41
:100920002D2F8FE794E00E941F0590E02C2F30E0E0
:10093000215031098217930709F038CE8091E104E4
:100940009091E20429E52093B2049093B30480933C
:10095000B4041092B5041092B6041092B704109229
:10096000B8041092B9040E94251580E0DF91CF9160
:100970001F910F91FF90EF90DF9008950C947D28C8
:100980000C947D280C947D28FC0193899234A9F164
:1009900080EB890F8B3088F184EA890F823068F10F
:1009A00081E9890F873048F180E7890F8F3028F17E
:1009B00080E5890F873008F188E4890F8230E8F0FC
:1009C000292F2F7B2D5B2230C0F080E3890F8630EA
:1009D000A0F088E2890F823080F083E2890F8230B4
:1009E00060F0933E51F080E1890F823030F0935FE8
:1009F000973018F080E090E00895848995899827D1
:100A00008927982708950895FC018FE291E091834A
:100A10008083DF015396CF014B961D92A817B9072B
:100A2000E1F7138E148E158E168E178E11A210A25A
:100A300012A2089508950C9487270C947F27CF93D2
:100A4000FC01DB01878190E06817790718F081E0ED
:100A5000840F1DC093854917D0F7622FC42F492FEB
:100A600050E04C5F5F4F4A9F90014B9F300D5A9F63
:100A7000300D112485859685820F931F4C2F50E0F1
:100A80004C5F5F4F840F951F0E941B058C2FCF91E9
:100A900008951F93CF93DF93FC0181858617E8F0BB
:100AA000142FC62FD0E0FE01EE0FFF1FED5BFB4FB2
:100AB000842F90E0918380836996CE010E941D056A
:100AC000181759F08AE192E00E940B17612FCE01AE
:100AD000DF91CF911F910C941B05DF91CF911F9156
:100AE0000895FC01128E87816817B0F423854217A0
:100AF00098F430E02C5F3F4F629FD001639FB00DB0
:100B00001124858596858A0F9B1F50E04C5F5F4FAF
:100B1000840F951F0C941D058FEF828F0895FC01A3
:100B2000128E8185681728F4862F90E049960C94E0
:100B30001D058FEF828F0895CF92DF92EF92FF9283
:100B40000F931F93CF93DF93DC0117968C91179728
:100B5000EBEFF3E090E0C62FD0E0E42EF12C30E094
:100B600010E09817D9F0611102C0442351F0C08001
:100B7000D180CC15DD0579F4C288D388EC14FD044E
:100B800051F4C4A0D5A02C153D0529F4C6A8D7A8BA
:100B90000C151D0541F09F5F3296E3CF1A969C918C
:100BA00081E0890F01C0892FDF91CF911F910F91B3
:100BB000FF90EF90DF90CF9008950F93252F042F93
:100BC000462F672F0E949C050F910895AF92BF9208
:100BD000CF92DF92EF92FF920F931F93CF93DF9309
:100BE000EC017B01FB01E858FF4F108180911D0350
:100BF000882309F4DEC088E292E00E94DC15812F90
:100C00000E94BE16112309F4D6C080911D038823CB
:100C1000D1F188E392E00E94DC15812F0E94BE167C
:100C200084E492E00E94DC15CE010E9451139701EA
:100C30002E5F3F4F6901882339F0CE010E94661371
:100C4000AC0160E070E009C0CE010E9491135C012C
:100C5000CE010E94C404A501BC01C6010E94DD05AD
:100C6000F701ED58FF4F9081891730F440E0682F6D
:100C7000C6010E94710501C080E00E94BE1684E892
:100C800091E00E946816193009F015C18091300377
:100C9000811111C1CFEBD2E0E12CF12C8091DF0268
:100CA00090E00E2C02C0959587950A94E2F79091FA
:100CB000BE026881798180FF06C081E0911180E0E9
:100CC0000E94641505C081E0911180E00E94971593
:100CD00080911D0387010F5F1F4F882309F450C0C7
:100CE000E091E202E695E695E695F0E0EE0FFF1F53
:100CF000E75EFC4F808191810E2C02C0959587950F
:100D00000A94E2F780FF0BC08091DF0290E002C0FE
:100D100095958795EA94E2F780FD0BC00DC0809110
:100D2000DF0290E002C095958795EA94E2F780FD96
:100D300003C084E691E002C080E691E00E94DC15E9
:100D400086EE91E00E94DC156AE070E0C8010E9426
:100D50001F1680ED91E00E94DC15888199810E9428
:100D600062168091BE02811103C08AE591E002C043
:100D700083E591E00E94DC1589ED91E00E94681600
:100D800062E370E080E090E00E94A5127801229674
:100D90000830110509F082CF8091DF02909188041C
:100DA000993108F488C090E090937604809375049C
:100DB00082C0111168CF80911D03882309F47BC084
:100DC000CE010E943C13882389F08CE092E00E94BF
:100DD000F016CE010E94C4040E94621682E092E0E6
:100DE0000E94F016CE010E9491130CC0CE010E9409
:100DF00051138823B9F085EF91E00E94F016CE01DF
:100E00000E9466130E94621682E891E0DF91CF9102
:100E10001F910F91FF90EF90DF90CF90BF90AF9018
:100E20000C94CA158FE492E00E94DC1560E170E03A
:100E30008B810E94B01685E592E00E94DC15CE0100
:100E40000E94C4040E9462168DE592E00E94DC15A7
:100E50002B8D80E1289F900111248C8D82958695A1
:100E60008770822B8A836AE070E00E94B01686E663
:100E700092E00E94DC158B8990E025E0959587959E
:100E80002A95E1F78C836AE070E00E94B01685E74E
:100E900092E00E94DC158091430590914405DF911A
:100EA000CF911F910F91FF90EF90DF90CF90BF9067
:100EB000AF900C94CE16DF91CF911F910F91FF90C0
:100EC000EF90DF90CF90BF90AF900895CF92DF92D8
:100ED000EF92FF921F93CF93DF93FC01128541178E
:100EE00018F081E0810F4DC0142FFB01DC01842F2D
:100EF00090E0EC01CC0FDD1FC550DC4F208130E0CD
:100F000039832883EC01CC0FDD1FC35FDB4F2181C8
:100F100030E039832883EC01CC0FDD1FC15EDB4F4D
:100F2000228130E039832883EC01CC0FDD1FCF5CB8
:100F3000DB4F238130E0398328831B962C911B974C
:100F400030E02C5F3F4F289F7001299FF00C389FA5
:100F5000F00C11241D968D919C911E97E80EF91EA0
:100F60006B0184E0C80ED11CEB01E61AF70AC70139
:100F70008C0F9D1F69910E941B05CC15DD05B9F7EB
:100F8000812FDF91CF911F91FF90EF90DF90CF9055
:100F90000895FC0180E090E0238530E082179307FC
:100FA0003CF4A281B381A80FB91F1C920196F4CF23
:100FB00082E68483158286EC86831782148A0895DC
:100FC000EF92FF920F931F93CF93DF9300D000D047
:100FD000CDB7DEB78C010E94C907F80182858783EF
:100FE00019821A828EE38B8384EE8C83E12CF12CA0
:100FF000F8014285842F90E00197E816F906CCF4B9
:101000004E2DBE016F5F7F4FC8010E9466078C8125
:101010008F5F8C83811103C08B818F5F8B8320E076
:1010200040E0B701C8010E941F05FFEFEF1AFF0A59
:10103000DFCF19821A8282E18B8387E68C8341504D
:10104000BE016F5F7F4FC8010E946607F80162858D
:1010500070E06150710920E040E0C8010E941F0566
:1010600042E060E0C8010E94490540E069E1C80132
:101070000E9449054FEF6AE1C8010E944905FF241B
:10108000F39444E06F2DC8010E94490561E06F0DA3
:1010900044E6C8010E94490562E06F0D4BE4C801B7
:1010A0000E944905F3E0FF0E89E1F812EACF42E61B
:1010B0006BE1C8010E94490540E06CE1C8010E9453
:1010C000490568E580E090E00E941B05F801648115
:1010D00082E190E00E941B05F801658183E190E0C8
:1010E0000E941B05F801668184E190E00E941B05C7
:1010F000F801648985E190E00E941B05F801678191
:1011000087E190E00E941B05F801638588E190E08B
:101110000E941B05C8010E9498080F900F900F9025
:101120000F90DF91CF911F910F91FF90EF90089555
:10113000CF93DF93EC010E94C90780E090E00E940A
:101140001D05883519F0CE010E94E00782E190E08C
:101150000E941D058C8383E190E00E941D058D8314
:1011600084E190E00E941D058E8385E190E00E945D
:101170001D058C8B87E190E00E941D058F83DF9118
:10118000CF91089527E431E0FC01318320838281EF
:101190009381009711F00C947D280895CF93DF93ED
:1011A000EC010E94C208CE01DF91CF910C947D2802
:1011B0002FE431E0FC0121933193CF010C94C2085C
:1011C000CF93DF93EC010E94D808CE01DF91CF913D
:1011D0000C947D2808952F923F924F925F926F92C8
:1011E0007F928F929F92AF92BF92CF92DF92EF92B7
:1011F000FF920F931F93CF93DF931092F60480E03A
:101200000E945215682F70E081FB992790F9909306
:10121000BE02982F991F9927991F90933003992305
:1012200031F086FB992790F99093330302C0109216
:1012300033039B01F4E035952795FA95E1F79091FA
:10124000E102A901492740FF1FC084FF0EC0809121
:101250007A00846080937A0080917A008260809323
:101260007A0080917A008E7F0DC080917A00846030
:1012700080937A0080917A00826080937A008091D6
:101280007A00816080937A00E5E075956795EA952C
:10129000E1F76170660F2170620F6093E102809147
:1012A0003303811110C070E06F5F7F4F81E792E0E0
:1012B0000E94CB2770933203609331030FEB12E04F
:1012C0007801C0E029C01092E20260E082E00E9452
:1012D000F31160E084E00E94F31160E086E00E9478
:1012E000F31160E088E00E94F31161E083E00E9466
:1012F000F31161E085E00E94F31161E087E00E9454
:10130000F31161E089E00E94F3118DE790E0909382
:10131000320380933103D2CF8C2F0E947616FC01CA
:1013200082819381982789279827F7018193919348
:101330007F01CF5FC83081F7C0911903D0911A03A4
:101340006AE18FE794E00E948F0590E0C817D90703
:1013500009F481C0C0E0D0E0C12CD12C7601C39447
:10136000A0901903B0901A030C2E02C0B594A79454
:101370000A94E2F76AE18FE794E00E948F0590E01B
:101380000C2E02C0959587950A94E2F7A826B926F7
:10139000A0FE45C08091DF0290E00C2E02C0959522
:1013A00087950A94E2F780FD0EC02091DF02D701F5
:1013B000C6010C2E04C0880F991FAA1FBB1F0A94D8
:1013C000D2F7822B0FC09091DF02B701A6010C2E3D
:1013D00004C0440F551F661F771F0A94D2F740952B
:1013E000842F89238093DF028091DF0290E00C2E0E
:1013F00002C0959587950A94E2F79091BE02F80194
:101400006081718180FF06C081E0911180E00E94BF
:10141000641505C081E0911180E00E949715219626
:101420000E5F1F4FC830D10509F09ACF6AE18FE7F0
:1014300094E00E948F0590E090931A038093190323
:101440008091DF0290918804993128F090E0909388
:10145000760480937504C3EED2E09EE1E92E93E01A
:10146000F92E23E0322EC12CD12C03E010E03EE215
:10147000632E33E0732E4BE4842E912C57E9252EF6
:1014800060EEA62EBB24B3948091300381111FC05F
:101490006EEF630D8FE794E00E948F0590E083303C
:1014A00091051CF09B838A8302C01B830A836FEF24
:1014B000630D8FE794E00E948F0590E083309105E3
:1014C0001CF09D838C8307C01D830C8304C01D8387
:1014D0000C831B830A8344244394512C0C2C02C09C
:1014E000440C551C0A94E2F780912F0390E084216C
:1014F00095214816590609F5809100019091010146
:10150000892BD9F4809130038823B9F0809133037B
:10151000811113C0632D8FE794E00E948F058F3FE8
:1015200009F06DC0F701B182A08280911D0388236C
:1015300009F465C08EE792E03DC0632D8FE794E02B
:101540000E948F05282F30E03F832E8381508E3FED
:1015500008F455C080913303882379F19F828E82ED
:1015600055245394530C8091F204831530F04BE4CE
:10157000632D8FE794E00E9449058E819091E104EC
:101580002091E2042092B2042093B3049093B40417
:101590005092B5048093B6041092B7041092B80428
:1015A0001092B9040E94251580911D03882339F1FA
:1015B00080E992E00E94681622C010920101109208
:1015C000000180912F03482A40922F0380912E031F
:1015D0002F3F310511F48F7701C0806880932E036F
:1015E00080911D03882321F089EA92E00E94681609
:1015F000EEE1F3E0119211926E167F06D9F7FFEF3C
:10160000CF1ADF0A22E0E20EF11C33E0330E2696F9
:101610008BE1381239CF8CE10E945215881F882740
:10162000881F80931D03882331F08CE10E9452159E
:101630008F708093E002DF91CF911F910F91FF9007
:10164000EF90DF90CF90BF90AF909F908F907F9062
:101650006F905F904F903F902F900895E62FF0E0AD
:10166000EE0FFF1FE153FD4F81112DC0808191814D
:1016700097FF05C081E090E09183808308958230D8
:10168000910509F44DC0019691838083029709F07A
:1016900047C08091DF0290E0062E02C095958795A5
:1016A0000A94E2F780FD3CC02091DF0281E090E0E7
:1016B000A0E0B0E004C0880F991FAA1FBB1F6A9565
:1016C000D2F7822B2BC080819181181619061CF449
:1016D0001182108208958F3F2FEF920709F1019731
:1016E000918380830196E1F48091DF0290E0062EE1
:1016F00002C0959587950A94E2F780FF11C020916A
:10170000DF0281E090E0A0E0B0E004C0880F991F04
:10171000AA1FBB1F6A95D2F7809582238093DF02B0
:101720000895AF92BF92CF92DF92EF92FF920F9304
:101730001F93CF93DF938091D0058F3F29F4809141
:10174000CF058F3F09F44FC00E94DF120091D305EF
:101750001091D4052091D5053091D605DC01CB013F
:10176000801B910BA20BB30B84369105A105B1052B
:10177000D0F180914305909144050597A9F480919B
:10178000D205813041F460E08091D0050E94F311D0
:101790001092D2051EC061E08091D0050E94F31125
:1017A00081E08093D20515C08091B104813039F475
:1017B00060E08091CF050E94F31161E006C061E016
:1017C0008091CF050E94F31160E08091D0050E94C6
:1017D000F3110E94DF126093D3057093D4058093B8
:1017E000D5059093D6058091D7058F3F09F490C019
:1017F0000E94CA112091D805892B81F4213009F06B
:1018000087C00E94DF126093450570934605809360
:101810004705909348051092D8057AC0211178C0E9
:1018200081E08093D8050E94DF1200914505109158
:1018300046052091470530914805DC01CB01801B0E
:10184000910BA20BB30B8C019D01095E1340210982
:1018500031090738134121053105C0F42091B10445
:101860008091430590914405213061F4059739F446
:1018700083E090E0909344058093430549C00E9423
:101880002B1746C0059709F043C0F2CF8137974127
:10189000A105B105E8F18091B104811117C08091D3
:1018A000430590914405059719F360E08091CF05B9
:1018B0000E94F31180E00E94861780914305909169
:1018C00044050497E1F60E94910BF7CF1092B10402
:1018D0006091ED046B7F6093ED046093930485E168
:1018E00090E00E941B058091ED0481FF09C080916A
:1018F000F7049091F8049093E2048093E10406C009
:101900001092E2041092E10480E090E00E94CA1775
:101910008091430590914405049709F07CC00E9492
:10192000DF12009145051091460520914705309141
:101930004805DC01CB01801B910BA20BB30B893E48
:101940009340A105B10508F466C083E090E0909350
:101950004405809343054091C905AAE4B5E081E0C0
:10196000841740F02091C90530E0E9E4F5E080E01B
:1019700090E017C02D919FEF980FE92FF0E0EF0155
:10198000C75BDA4F3881E65BFA4F231718F43083D0
:101990009150F3CF20838F5FE3CF4191C41730F094
:1019A0000196C1E0C80F82179307BCF3C43640F01C
:1019B0008091F404882379F187E00E94DE162BC021
:1019C000C09383046C2F82E190E00E941B05C093BA
:1019D000E0048091F4048823F1F08091E104909177
:1019E000E20422E52093B2049093B3048093B404FC
:1019F0001092B5041092B6041092B7041092B80475
:101A00001092B9046C2F70E080E090E022EB34E09B
:101A100043E00E943414C1E0D0E085EDE82E84E07C
:101A2000F82EDD24D39499E5C92E1092F504809107
:101A30003D0590913E05892B09F0D9C2D0933E0512
:101A4000C0933D05809141059091420518161906F5
:101A50002CF010923E0510923D05C9C280913F05C1
:101A600090914005CC9724F01092400510923F05CC
:101A7000E3EAF5E0A0913F05B0914005A350BB4FCC
:101A800012968C91819380913F059091400501962B
:101A90009093400580933F058091410590914205C8
:101AA0000197909342058093410545E0E23BF4079E
:101AB00009F710923E0510923D05EDECF4E011920D
:101AC000EE16FF06E1F71092D9041092DB04109293
:101AD000DA041092DC048091A3058093BF04809106
:101AE000A5058093D5048091A6058093D6048091A6
:101AF000A7058093D7048091A8058093D804E9EACC
:101B0000F5E08191DF01AD5DB1098C9385E0E13BAA
:101B1000F807B9F78091CD048093BD04843008F4B0
:101B2000B4C0873009F4B1C0282F2F7B2F3309F4BC
:101B3000ACC092EA980F923008F4A7C0982F9F7D0E
:101B40009F3909F4A2C0863B09F49FC08F3D09F478
:101B50009CC03CEF380F333008F49AC038EF380F90
:101B6000333008F495C03FED380F333008F490C09F
:101B7000803409F48DC03CEB380F373008F488C04E
:101B80008C3409F485C0382F3F7740EA430F423048
:101B900008F47EC0333609F47BC0903809F478C06D
:101BA0003EE7380F343008F473C0823A09F470C04D
:101BB00030E4380F323008F46BC036EA380F323078
:101BC00008F469C030E7380F353008F464C038E6EF
:101BD000380F333008F45FC09D59923008F45BC071
:101BE000982F977F905B923008F455C09DE4920F38
:101BF000923008F450C091E3980F933008F44BC032
:101C00009CE2980F923008F446C098E2980F923008
:101C100008F441C093E2980F9230E8F190E1980FF8
:101C20009230C8F19AE0980F9630A8F193E0980F9F
:101C3000933088F194EF980F923080F190EF980FE5
:101C4000923060F1823451F190EB980F9A3030F17C
:101C500094EA980F923010F191E9980F9730F0F0D4
:101C60009BE6980F9330D0F095E6980F9230B0F045
:101C7000223BA1F0253B91F09EE2980F923070F04C
:101C8000823E61F08F3E69F409C084E090E00BC0B1
:101C900081E090E008C083E090E005C082E090E041
:101CA00002C080E090E09093C1048093C0048091D2
:101CB000A4058111D092DC0480E00E94521581FBC2
:101CC000BB24B0F88AEB94E00E943C13A82E882332
:101CD00019F0BB2009F45FC18AEB94E00E94511314
:101CE0008823C1F08AEB94E00E9466138C01009770
:101CF000B9F0AC0160E070E08FE794E00E94DD0590
:101D00002091890430E0482F50E0241735070CF467
:101D100061C136C0AA20F1F021E0B2121BC005C09B
:101D2000AA2081F181E0B8122DC08AEB94E00E94D4
:101D30009113009779F0AC0160E070E08FE794E0D8
:101D40000E94DD052091890430E0482F50E02417DF
:101D50003507B4F48AEB94E00E9466138C01892B5A
:101D600089F0A80160E070E08FE794E00E94DD0553
:101D70002091890430E0482F50E02417350714F0F3
:101D80008F5F01C080E08093F5048091DC0488239C
:101D900089F08091E1049091E204892B59F06091DF
:101DA000E00470E080E090E022EB34E040E00E944C
:101DB00034143BCE2091BD042D3581F48AEB94E0A0
:101DC0000E94C4042091E1043091E2048217930739
:101DD00009F02BCE81E00E94861727CE4091430563
:101DE000509144054430510501F58091BF048111A3
:101DF0001CCE2091C905233608F017CE8091D5045A
:101E000030E1839FC00111249091D604929596955C
:101E10009770892B8093BC04E22FF0E0E75BFA4FC8
:101E200080832F5F2093C90500CE8091C0049091DC
:101E3000C104452B09F073C03091B10431116FC05A
:101E4000029729F4223D19F0253F09F0BDC08AEB25
:101E500094E00E949113082FA92E8AEB94E00E942F
:101E6000C4049093490580934A05A0924B050093C2
:101E70004C05B090860410918904B11610F01F5FD4
:101E800011C02A2D482F692F8FE794E00E949C05EE
:101E9000181738F44B2D69E475E08FE794E00E9441
:101EA0006607182F8091F004811710F484E01DC09C
:101EB0008091BD04823D11F0853FD1F40E946F17DF
:101EC000082F0E945A174FEF400F612F70E0282F04
:101ED0008FE794E00E941F0590E0202F30E0215012
:101EE00031098217930721F086E00E94DE169DCD0E
:101EF0008091E1049091E204C092B2049093B30403
:101F00008093B4041092B5041092B6041092B704F2
:101F10001092B8041092B9040E94251586CD823023
:101F2000910539F138F4019749F5E091CC05F0912C
:101F3000CD0517C0E091CA05F091CB05833091051E
:101F400019F0049731F01AC08091ED0480FD16C09D
:101F500008C08091ED0480FD11C02730C1F50C94BC
:101F60000000309759F06DE774E08AEB94E0099532
:101F700005C00E945D01882309F457CDE091CA0590
:101F8000F091CB05309709F450CD6DE774E08AEB02
:101F900094E009954ACD8AEB94E00E9491138C015C
:101FA0008AEB94E00E94C404A801BC018FE794E08E
:101FB0000E94DD052091890430E0482F50E024176D
:101FC00035070CF489CEDCCE0E945D012ECD2E3576
:101FD00031F2C7CFAA2009F4C4CE41E0B41609F407
:101FE000A4CE8AEB94E00E9466138C01BACE80E006
:101FF000DF91CF911F910F91FF90EF90DF90CF90E5
:10200000BF90AF900895FF920F931F93CF93DF93EC
:10201000182FF62EC72FD42F60E08091AA040E94BB
:10202000F31183E00E943513812F0E9435130F2D89
:102030001C2FC0E0CD1751F0C83041F080E00E9465
:102040003513F80181938F01CF5FF4CF61E0809168
:10205000AA04DF91CF911F910F91FF900C94F3117F
:10206000CF92DF92EF92FF920F931F93CF93DF9364
:102070006C017A018B01C0E0D0E0CE15DF0581F064
:10208000D8016D918D01D601ED91FC910190F08107
:10209000E02DC6010995892B11F02196EECF7E0126
:1020A000C701DF91CF911F910F91FF90EF90DF90CB
:1020B000CF900895FC01918D828D981761F0828DEB
:1020C000DF01A80FB11D5D968C91928D9F5F9F736C
:1020D000928F90E008958FEF9FEF0895FC01918D0E
:1020E000828D981731F0828DE80FF11D858D90E07B
:1020F00008958FEF9FEF0895FC01918D228D892F18
:1021000090E0805C9F4F821B91098F7399270895FF
:102110008EE593E00E947C1021E0892B09F420E0F9
:10212000822F0895FC01848DDF01A80FB11DA35AF1
:10213000BF4F2C91848D90E001968F739927848FE7
:10214000A689B7892C93A089B1898C9180648C93DE
:10215000938D848D981306C00288F389E02D8081C9
:102160008F7D80830895EF92FF920F931F93CF93FB
:10217000DF93EC0181E0888F9B8D8C8D981305C0D7
:10218000E889F989808185FD24C0F62E0B8D10E049
:102190000F5F1F4F0F731127E02E8C8DE8120CC0BC
:1021A0000FB607FCFACFE889F989808185FFF5CF62
:1021B000CE010E949210F1CF8B8DFE01E80FF11D30
:1021C000E35AFF4FF0820B8FEA89FB89808180629E
:1021D00007C0EE89FF896083E889F989808180647E
:1021E000808381E090E0DF91CF911F910F91FF906C
:1021F000EF900895CF93DF93EC01888D8823C9F089
:10220000EA89FB89808185FD05C0A889B9898C91FF
:1022100086FD0FC00FB607FCF5CF808185FFF2CF9A
:10222000A889B9898C9185FFEDCFCE010E949210CB
:10223000E7CFDF91CF91089580E090E0892B21F0E6
:102240000E94881081110DC080E090E0892B71F010
:1022500080E090E0892B51F00E940000811104C0C1
:1022600008950E940000F0CF0C940000089590E0C3
:10227000FC013297ED30F10590F5EE59FF4F0C94CB
:10228000DF27809180008F7703C0809180008F7D51
:1022900080938000089584B58F7702C084B58F7DC8
:1022A00084BD08958091B0008F7703C08091B00005
:1022B0008F7D8093B0000895809190008F7703C048
:1022C000809190008F7D8093900008958091A00070
:1022D0008F7703C08091A0008F7D8093A000089528
:1022E0000E9406291F920F920FB60F9211242F936E
:1022F0003F934F935F936F937F938F939F93AF938E
:10230000BF93EF93FF938EE593E00E949210FF91AD
:10231000EF91BF91AF919F918F917F916F915F915D
:102320004F913F912F910F900FBE0F901F901895D6
:102330001F920F920FB60F9211242F938F939F939A
:10234000EF93FF93E0916E03F0916F038081E09132
:102350007403F091750382FD12C090818091770320
:102360008F5F8F7320917803821751F0E09177038C
:10237000F0E0E25AFC4F958F8093770301C0808193
:10238000FF91EF919F918F912F910F900FBE0F9022
:102390001F901895CF93DF93282F30E0F901EA5B67
:1023A000FD4F8491F901E651FF4FD491F901EB5FA4
:1023B000FE4FC491CC2391F081110E943711EC2F74
:1023C000F0E0EE0FFF1FE65CFD4FA591B491EC919C
:1023D000ED2381E090E021F480E002C080E090E015
:1023E000DF91CF9108951F93CF93DF93282F30E093
:1023F000F901EA5BFD4F8491F901E651FF4FD49159
:10240000F901EB5FFE4FC491CC23C1F0162F81116F
:102410000E943711EC2FF0E0EE0FFF1FE25DFD4F41
:10242000A591B4919FB7F894111104C08C91D095E7
:10243000D82302C0EC91DE2BDC939FBFDF91CF91BC
:102440001F910895CF93DF9390E0FC01E651FF4F79
:102450002491FC01EB5FFE4F8491882361F190E0B1
:10246000880F991FFC01E252FF4FC591D491FC01E6
:10247000E25DFD4FA591B491611109C09FB7F89439
:102480008881209582238883EC912E230BC06230B3
:1024900061F49FB7F8948881322F30958323888325
:1024A000EC912E2B2C939FBF06C08FB7F894E88138
:1024B0002E2B28838FBFDF91CF910895883048F06D
:1024C00092EF980F9B3040F0893128F09DEE980FE5
:1024D00003C0982F01C09FEF9770906490937C0089
:1024E00080917A00806480937A0080917A0086FDE2
:1024F000FCCF809178002091790090E0922B089594
:102500003FB7F89480915A0390915B03A0915C03CC
:10251000B0915D0326B5A89B05C02F3F19F0019629
:10252000A11DB11D3FBFBA2FA92F982F8827820F59
:10253000911DA11DB11DBC01CD0142E0660F771FA9
:10254000881F991F4A95D1F708958F929F92AF9255
:10255000BF92CF92DF92EF92FF926B017C010E94BB
:1025600080124B015C01C114D104E104F104F1F0CB
:102570000E948012DC01CB0188199909AA09BB09C4
:10258000883E9340A105B10570F321E0C21AD1083D
:10259000E108F10888EE880E83E0981EA11CB11CAA
:1025A000C114D104E104F10419F7DDCFFF90EF90DD
:1025B000DF90CF90BF90AF909F908F9008952FB7EE
:1025C000F89460915603709157038091580390914D
:1025D00059032FBF08951F920F920FB60F92112427
:1025E0002F933F938F939F93AF93BF938091560305
:1025F00090915703A0915803B0915903309155031E
:1026000023E0230F2D3720F40196A11DB11D05C035
:1026100026E8230F0296A11DB11D20935503809338
:10262000560390935703A0935803B0935903809196
:102630005A0390915B03A0915C03B0915D030196F6
:10264000A11DB11D80935A0390935B03A0935C037B
:10265000B0935D03BF91AF919F918F913F912F9167
:102660000F900FBE0F901F9018958EBD00000DB4F7
:1026700007FEFDCF8EB50895FC019381892F8F7DD4
:102680008059823058F080E3890F823038F081E041
:10269000903F31F0913F21F080E0089581E008956E
:1026A0000895FC019381892F8F7D8859823058F0DD
:1026B00088E2890F823038F081E0983F31F0993F0D
:1026C00021F080E0089581E008950895FC01938150
:1026D0009B35C1F088E6890F8330A0F0892F8F7970
:1026E0008D59823078F088E4890F823058F088E282
:1026F000890F823038F088E0890F843018F080E04C
:1027000090E0089586E0890F823010F09B3519F42F
:102710008489958902C0868997899827892798276F
:102720000895FC019381292F2F7B2059263070F0CA
:1027300080E5890F853050F080E1890F823030F0DC
:10274000935F933018F080E090E008958689978930
:102750009827892798270895FF920F931F93CF9367
:10276000DF93C82FF62E072F142F60E08091AA0464
:102770000E94F31182E00E9435138C2F0E943513C2
:10278000CF2DD02FCE01810F911D8C01C017D10705
:1027900021F089910E943513F9CF61E08091AA045C
:1027A000DF91CF911F910F91FF900C94F3111F9324
:1027B000CF93DF93182FCDE7D4E060E08DA50E9482
:1027C000F31183E00E943513812F0E94351380E0BE
:1027D0000E943513182F61E08DA50E94F311812FFF
:1027E000DF91CF911F910895FF920F931F93CF9385
:1027F000DF93F82E062F142FCDE7D4E060E08DA5EF
:102800000E94F31185E00E9435138F2D0E9435132D
:10281000802F0E943513812F0E94351361E08DA512
:10282000DF91CF911F910F91FF900C94F3110F93B3
:102830001F93CF93DF93082F162FCDE7D4E060E0EE
:102840008DA50E94F31182E00E943513802F0E9413
:102850003513812F0E94351361E08DA5DF91CF9153
:102860001F910F910C94F3114F925F926F928F9280
:102870009F92AF92BF92CF92DF92FF920F931F93DE
:10288000CF93DF9300D000D0CDB7DEB710929A047B
:1028900060939B0470939C0480939D0490939E048A
:1028A000493008F048E040939F041092A804A0EA41
:1028B000B4E0F90150E0CF01821B930B8417950718
:1028C0001CF481918D93F7CFA12CB12C409018016D
:1028D0005090190160901A014E0124E0820E911C63
:1028E00049825A826B82CE0101966C01F82E0D2D21
:1028F000F60111916F01812F0E94D713982F9870C4
:1029000083FD02C01F5F05C08C149D0489F710E091
:1029100092E0FFEFAF1ABF0A923029F422E3A21629
:10292000B104F1F67CC082E3A816B10409F477C0C3
:1029300040919F0460EA74E085E0810F0E94AC132F
:102940008091A804813029F480919F048064809351
:102950009F0460919F0484E0810F0E9417144091AE
:102960009B0450919C0460919D0470919E04809101
:102970009A048130B1F44C835B83AB0166277727DF
:10298000942F9C71842F8370E8E09E9F800D11240A
:1029900088608A8365E0569547956A95E1F7498393
:1029A0000DC0CA0123E0969587952A95E1F78983A2
:1029B0004295440F407E4A831C821B8244E06F2D67
:1029C000702F812F0E94AC13115048E068E0812FD6
:1029D0000E94F413C12CD12CFFEFCF1ADF0A812FF4
:1029E0000E94D71383FF05C022E3C216D104A1F7CA
:1029F00018C082E3C816D104A1F010929B04109273
:102A00009C0410929D0410929E0410929F041092B8
:102A10009A041092A8041092A90480E003C086E0F2
:102A200001C087E00F900F900F900F90DF91CF9132
:102A30001F910F91FF90DF90CF90BF90AF909F902C
:102A40008F906F905F904F900895CF93DF93C091D8
:102A5000B204C295C695C770CF5F81E08093AF0482
:102A60008093B0046091E00470E080E090E022EB9D
:102A700034E04C2F0E943414811102C080E00FC05A
:102A8000D3E06091E00470E080E090E022EB34E07D
:102A90004C2F0E943414882389F3D15091F7DF9191
:102AA000CF9108951092990490918804891720F08D
:102AB0008FEF809399040895E82FF0E0EE0FFF1F49
:102AC000ED5BFB4F808108951F93CF93DF938823A5
:102AD000A1F0EB018BE10E945215182F8BE10E94AF
:102AE000521580E98093B2041092B3041093B40499
:102AF000D093B504C093B6040FC08091E1049091C7
:102B0000E20428E92093B2049093B3048093B404C0
:102B10007093B5046093B6041092B7041092B80491
:102B20001092B904DF91CF911F910C9425151F933A
:102B3000CF93DF938823A1F0EB018BE10E94521524
:102B4000182F8BE10E94521581E98093B2041092F4
:102B5000B3041093B404D093B504C093B6040FC06B
:102B60008091E1049091E20429E92093B2049093CA
:102B7000B3048093B4047093B5046093B6041092C8
:102B8000B7041092B8041092B904DF91CF911F914D
:102B90000C942515009769F0FC0101900020E9F7DD
:102BA0003197AF01481B590BBC018EE593E00C94A3
:102BB000301080E090E008950C94CA158F929F9297
:102BC000AF92BF920F931F93CF93DF93CDB7DEB732
:102BD000A1970FB6F894DEBF0FBECDBF19A2423049
:102BE00008F44AE08E010F5D1F4F842E912CA12C1A
:102BF000B12CA50194010E949527E62FB901CA01C5
:102C000001501109EA3014F4E05D01C0E95CD8011B
:102C1000EC93232B242B252B61F7C8010E94CA15A6
:102C2000A1960FB6F894DEBF0FBECDBFDF91CF9156
:102C30001F910F91BF90AF909F908F900895CF926A
:102C4000DF92EF92FF92CF93DF936115710559F4F4
:102C5000682F8EE593E0DF91CF91FF90EF90DF90AA
:102C6000CF900C94B3106C01990FEE08FF086A30F6
:102C70007105E9F4F7FE19C06DE28EE593E00E945C
:102C8000B310EC0166277727CB016C197D098E09FB
:102C90009F094AE00E94DE158C0F9D1FDF91CF91A6
:102CA000FF90EF90DF90CF9008954AE001C0462F4B
:102CB000C701B601DF91CF91FF90EF90DF90CF90E9
:102CC0000C94DE15BC0180E090E04AE00C94DE1527
:102CD000CF93DF930E94CA15EC0182E891E00E9435
:102CE000CA158C0F9D1FDF91CF91089510928F040C
:102CF00010929004109291041092920410929904F0
:102D000090918904981720F090918604981720F4E8
:102D100081E08093990421C090E0FC01EE0FFF1F39
:102D2000E550FC4F208120938F04FC01EE0FFF1F24
:102D3000E35FFB4F208120939004FC01EE0FFF1F07
:102D4000E15EFB4F208120939104880F991FFC01C5
:102D5000EF5CFB4F8081809392048FE894E00895AC
:102D6000AB01682F4115510521F48EE593E00C94D9
:102D7000B31070E080E090E00C94DE15CF93DF9309
:102D80006AE070E00E94B016EC0182E891E00E94D7
:102D9000CA158C0F9D1FDF91CF910895CF93DF93BC
:102DA0006AE070E00E941F16EC0182E891E00E9448
:102DB000CA158C0F9D1FDF91CF910895EDE7F4E0C8
:102DC000A1EEB4E09C9111962C913FE635AB26AB79
:102DD00097AB80AF11AE12AE13AE14AE0C942515A6
:102DE0000F931F93CF93DF938C01C0E0D0E0F801E5
:102DF000EC0FFD1F6491662341F08EE593E00E9485
:102E0000B310892B11F02196F2CFCE01DF91CF9133
:102E10001F910F910895CF93DF930E94F016EC015C
:102E200082E891E00E94CA158C0F9D1FDF91CF911F
:102E30000895CF93C82F482F60EE8FE00E94F413BF
:102E40008FE00E94D713982F907E81E09C1301C0E1
:102E500080E0CF910895EDE7F4E085E090E0909375
:102E6000440580934305A1EEB4E08C9111969C91AA
:102E700020E525AB96AB87AB10AE11AE12AE13AE0C
:102E800014AE0C9425158091BD04823721F08C3945
:102E900011F0853B19F48091D0040895853F19F411
:102EA0008091D2040895823F19F48091D40408954A
:102EB00080E008958091BD04853B19F48091D2048F
:102EC00008959EE2980F923018F48091D3040895EB
:102ED000853F19F48091D404089580E0089580918D
:102EE000BD048C3911F0853B19F48091D10408950B
:102EF000823B11F0823D19F48091D2040895853F00
:102F000019F48091D304089580E00895CF93DF935E
:102F1000CDB7DEB728970FB6F894DEBF0FBECDBF92
:102F20001092C9058093F40484E090E090934405E6
:102F30008093430582E08093AF0483E08093B004E4
:102F40006091E00470E080E090E0FE013196AE0117
:102F5000475F5F4F9F011192E417F507E1F741E0EA
:102F60004093A80440E00E9434141092A8040E94E8
:102F7000DF12609345057093460580934705909353
:102F8000480528960FB6F894DEBF0FBECDBFDF917F
:102F9000CF910895CF93DF93CDE7D4E09F838887C7
:102FA000692F83E190E00E941B05688584E190E031
:102FB000DF91CF910C941B050F931F93CF93DF9359
:102FC00000D000D0CDB7DEB7182F10929A0410921F
:102FD0009B0410929C0410929D0410929E0444E065
:102FE000BE016F5F7F4F0E9403102A813981822FBB
:102FF00090E065E0959587956A95E1F748E0349F04
:10300000800D911D1124092E000CAA0BBB0B80937F
:103010009B0490939C04A0939D04B0939E0423FF73
:1030200029C032E0880F991FAA1FBB1F3A95D1F71C
:103030002370820F911DA11DB11DBA2FA92F982FAA
:1030400088272B81820F911DA11DB11DBA2FA92F99
:10305000982F88272C81820F911DA11DB11D80936F
:103060009B0490939C04A0939D04B0939E0481E0E4
:1030700080939A048FEF810F0E94D713082F84E06A
:10308000810F0E94D71303FF04C091E09093A8041E
:1030900002C01092A804482F4F7040939F0460EA2A
:1030A00074E085E0810F0E9403100F900F900F9045
:1030B0000F90DF91CF911F910F9108951F93CF93A0
:1030C000DF93CDE7D4E060E08DA50E94F31180EAA4
:1030D0000E94351380E00E943513182F61E08DA502
:1030E0000E94F311812FDF91CF911F910895789461
:1030F00084B5826084BD84B5816084BD85B58260FD
:1031000085BD85B5816085BD80916E0081608093AD
:103110006E00109281008091810082608093810016
:103120008091810081608093810080918000816026
:10313000809380008091B10084608093B100809181
:10314000B00081608093B000809191008260809394
:103150009100809191008160809391008091900016
:103160008160809390008091A10082608093A10093
:103170008091A10081608093A1008091A000816076
:103180008093A00080917A00846080937A0080917F
:103190007A00826080937A0080917A0081608093C7
:1031A0007A0080917A00806880937A001092C10042
:1031B0003E9A61E080E00E94221261E081E00E947C
:1031C00022120E94DF126838734181059105E8F4EC
:1031D00060E080E00E94F31160E081E00E94F31162
:1031E00064E670E080E090E00E94A51261E080E07B
:1031F0000E94F31161E081E00E94F31164EF71E03D
:1032000080E090E00E94A512DCCF61E080E00E94A7
:10321000F31161E081E00E94F3113E98469AC0E10B
:10322000D1E068E0A62E61E0B62E7DE3E72E73E0E4
:10323000F72EE8E18E2EE1E09E2E61E089910E945A
:103240002212F50111915F0160E0812F0E9422128C
:10325000812F0E945E12812F0E945E12F7018193DE
:1032600091937F018C169D0641F7A3EEB4E0FD011A
:10327000119224E0EB3EF207D9F7E8E6F1E0819104
:103280008D9331E0EF36F307D1F788E58093EC04B6
:103290008DE08093EB0482E08093EE0481E08093E4
:1032A000EF048091ED0483608093ED0486EC90E060
:1032B000A0E0B0E08093F7049093F804A093F904A1
:1032C000B093FA04D1E036991CC00E94DF124B0182
:1032D0005C01C1E00E94DF12DC01CB018819990971
:1032E000AA09BB09883E9340A105B10510F00C94D2
:1032F0004124CC2341F3C6B1C6FBCC27C0F9CD276E
:10330000E9CF61E080E00E94F31161E081E00E947A
:10331000F31186EE95E09093CB058093CA058AE081
:103320008093AA0461E00E94221261E08091AA04C5
:103330000E94F311C4E1D0E04FE0A42E41E0B42E8E
:1033400054EFE52E50E0F52ECFB6F894809134037B
:10335000811126C0F5018491F7012491E82FF0E056
:10336000EE0FFF1FE252FF4FA591B4919C91822F67
:10337000892321F461E08AE00E94F31161E08AE090
:103380000E9422128CB580618CBD8CB580648CBD8E
:1033900061E08DE00E94221261E08BE00E94221227
:1033A000809134038F5F80933403CFBE60E08091BF
:1033B000AA040E94F31180EC0E94351361E0809111
:1033C000AA040E94F3116AE070E080E090E00E949D
:1033D000A51280E80E941917882381F06AE070E046
:1033E00080E090E00E94A5126EE170E080E090E045
:1033F0000E94A512219709F0A7CF4BC06AE070E0A8
:1034000080E090E00E94A51261E08AE20E94171419
:1034100061EB89E20E94171465E088E20E941714AC
:103420006AE070E080E090E00E94A51210E360E0A6
:10343000812F0E94171460E080E1810F0E94171411
:1034400060E080E2810F0E9417141F5F1E3379F73E
:1034500060E080E60E94171460E080E70E94171485
:1034600063E08BE20E94171444E064E680E60E9469
:10347000F41340E060E680E70E94F41380E00E94CD
:1034800019178111ABCF6AE070E080E090E00E94F4
:10349000A5128FEF8093D70562E00E9422128CE183
:1034A0000E945215881F8827881F80931D03882338
:1034B00009F478C1E0916E03F0916F0382E080839C
:1034C000E0916A03F0916B031082E0916C03F0913C
:1034D0006D0380E1808310927603E0917203F09196
:1034E000730386E08083E0917003F0917103808123
:1034F00080618083E0917003F09171038081886026
:103500008083E0917003F0917103808180688083F3
:10351000E0917003F091710380818F7D8083C5E01D
:10352000D0E068EE73E080E090E00E94A51280E7B2
:1035300091E00E94DC152197A1F784E891E00E94B8
:10354000681682E791E00E94DC1582E090E00E941C
:10355000CE168FE794E00E9498088FEB91E00E94CE
:103560000B1788EB91E00E94F01680E090E00E943B
:103570001D0560E170E00E94B0168FEA91E00E94A4
:10358000F01660E170E0809183040E94B0168AEA30
:1035900091E00E94F0168091840490918504982710
:1035A0008927982790939504809394040E9462162B
:1035B00082EA91E00E94F01660E170E0809193044D
:1035C0000E94B01685E991E00E94F01660E170E07B
:1035D000809186040E94B01683E891E00E94F01664
:1035E00060E170E080918A040E94B01688E791E063
:1035F0000E94F01660E170E0809188040E94B0168D
:103600008CE691E00E94F016C0E080918804C81713
:1036100078F48C2F90E049960E941D0560E170E0DF
:103620000E94B0168AE691E00E94F016CF5FEDCFBF
:103630008EE591E00E94F016C0E080918804C817E2
:1036400090F4EC2FF0E0EE0FFF1FED5BFB4F60E11D
:1036500070E0808191810E941F168CE591E00E94AC
:10366000F016CF5FEACF8CE491E00E94F016C2E042
:10367000D0E0CE010E941D0560E170E00E94B0160E
:103680008AE491E00E94F0162196C231D10589F7B3
:1036900089E391E00E94F01610E080918B041817E6
:1036A00018F5C12FD0E0CC0FDD1F80918E044E01A4
:1036B000880E911CC4010E941D0560E170E00E940B
:1036C000B01680918E045E01A80EB11CC501019652
:1036D0000E941D0560E170E00E94B01687E391E052
:1036E0000E94F0161F5FD9CF8EE291E00E940B1767
:1036F000C0918C04D0918D0410E08091890418173A
:1037000008F050C07E0124E0E20EF11CCE010E94C0
:103710001D0560E170E00E94B01621968CE291E0F8
:103720000E94F016CE15DF0589F78AE291E00E942B
:10373000F016A12EB12CAA0CBB1CE12CF12CF70128
:10374000EA0DFB1DE550FC4F60E170E08081918146
:103750000E941F1688E291E00E94F01632E1E30E0B
:10376000F11C48E4E416F10451F782E291E00E9472
:10377000F01600E080918A04081770F4CE010E94D0
:103780001D0560E170E00E94B016219680E291E094
:103790000E94F0160F5FEECF82E891E00E94CA15FA
:1037A0001F5FABCF80911D0381110EC01092CF051A
:1037B00081E08093D00561E080E00E94221261E008
:1037C0008091D0050E942212F89489E0E0E0F0E0B8
:1037D000809357003491E3E0F0E080935700249108
:1037E000E2E0F0E0809357009491E1E0F0E0809314
:1037F000570084917894C1E03F3F09F4C0E02C3534
:1038000009F0CE5FE2E0E90FE23020F0CC5F8F3FBD
:1038100019F406C08F3F11F0C85F02C0CC2369F1D4
:1038200080911D03811102C0C1E014C081ED91E0BF
:103830000E94F0166AE070E08C2F0E94B01685E8B6
:1038400091E00E94681668EE73E080E090E00E94CC
:10385000A512ECCF8D2D8C278170D82E682F80E09B
:103860000E94F3116D2D81E00E94F31164EF71E06D
:1038700080E090E00E94A512EDCF6AE18FE794E02E
:103880000E948F0590E090931A038093190303EE32
:1038900012E0C1E06C2F8FE794E00E948F0590E06A
:1038A000F8019383828361E06C0F8FE794E00E94BC
:1038B0008F0590E0F8019583848362E06C0F8FE7B9
:1038C00094E00E948F0590E0F801978386838091B1
:1038D0001D03811106C0CD5F0A5F1F4FC931D1F6AC
:1038E00022C087E891E00E94DC15F8018281938173
:1038F0000E94CE168EE991E00E94DC15F8018481C9
:1039000095810E94CE1685EB91E00E94DC15F801AE
:10391000868197819C01220F331F820F931F44964B
:103920000E94CE16D8CF0E94EB0880911D038823F9
:1039300021F08BEC91E00E940B1744244394512C0E
:10394000FCE32F2E312CC12CD12C7601C3940E9484
:1039500080126093510370935203809353039093AA
:10396000540300914D0310914E0320914F03309169
:1039700050034B015C01801A910AA20AB30A49EE76
:10398000841643E09406A104B10448F40E94910B0C
:103990008091F6048823A9F10E94EB0832C060935D
:1039A0004D0370934E0380934F0390935003C0E0F8
:1039B000D1E00E945E18837001F18AC78091AB0448
:1039C0008093B9058091AC048093BA058091AD04D1
:1039D0008093BB058091AE048093BC054093B705EE
:1039E0008091A80481119FC71092B80580913D0570
:1039F00090913E05892B09F499C7CF5FC230C9F673
:103A0000C5CF80913303882309F42CC1C091E20211
:103A1000D0E08E010E5F1F4F07701127FE01E85F97
:103A2000FE4F5F0180818A3129F49CB093FA99247A
:103A300090F80AC0893129F49CB092FA992490F840
:103A400003C00E94CA11982EF50181818A3129F4A0
:103A5000BCB0B3FABB24B0F80AC0893129F4BCB0B9
:103A6000B2FABB24B0F803C00E94CA11B82E8091EC
:103A7000E00290E09C0121503109C217D30721F0E8
:103A80000297C817D90769F50E9480124AE00E9480
:103A9000DE1581EC91E00E94DC158091E20290E05D
:103AA0006AE070E001960E941F1681EC91E00E948E
:103AB000DC156AE070E0892D0E94B0168FEB91E072
:103AC0000E94DC158091E20290E06AE070E00296CC
:103AD0000E941F1681EC91E00E94DC158B2D0E9444
:103AE000BE16C091E2026C2F892D0E942E0B61E060
:103AF0006C0F8B2D0E942E0B2091DF028C2F90E0FB
:103B000030E00C2E02C0359527950A94E2F720FF8D
:103B10000DC02091DF0230E0AC014F5F5F4F02C06B
:103B2000359527954A95E2F720FF4CC72091DF0293
:103B300030E00C2E02C0359527950A94E2F720FD5F
:103B40000DC02091DF0230E0AC014F5F5F4F02C03B
:103B5000359527954A95E2F720FD3EC72091DF0273
:103B600030E00C2E02C0359527950A94E2F720FF2D
:103B700076C02091DF0230E0019602C0359527958E
:103B80008A95E2F720FF6BC0C695D0E0CC0FDD1F11
:103B9000CB5CDC4F88819981892B09F460C083EC70
:103BA00091E00E94DC158091E20290E06AE070E012
:103BB00001960E941F16E091E202E695F0E0EE0FFA
:103BC000FF1FEB5CFC4F80819181019709F010C7CA
:103BD0008AEC91E00E94681680ED91E00E94DC156D
:103BE000E091E202F0E0EE0FFF1FE154FD4F808113
:103BF00091810E94621680EC91E00E94DC15809118
:103C0000BE02882309F4F7C683E591E00E94DC1523
:103C100089ED91E00E9468168091E202C82FC69556
:103C2000D0E0CC0FDD1FFE01EB5CFC4F2081318129
:103C30004091BE0290E0880F991FFC0121303105B0
:103C400009F0DCC6E154FD4F6081718181E04111D2
:103C500080E00E946415CB5CDC4F198218820093CF
:103C6000E202D2C48091310390913203092E000CFC
:103C7000AA0BBB0B40915103509152036091530327
:103C80007091540384179507A607B70708F0BCC4C2
:103C900080913003C091E202D0E05E01882309F4F4
:103CA00037C2FFEFAF1ABF0A350127E0622277243F
:103CB000FE01E85FFE4F9080892D0E945E128C010C
:103CC0008091E102823020F4892D0E945E128C01E5
:103CD00061E0FE01E05FFE4F80810E94F311809160
:103CE000000190910101803E31E09307D8F42091CA
:103CF0002E03CC0FDD1FC25EDC4F27FF0CC02881D6
:103D00003981200F311F3983288301969093010157
:103D10008093000107C0888199810817190710F462
:103D2000198308838091E00290E0A816B90609F093
:103D300043C083EE91E00E94DC150E9480124AE0AD
:103D40000E94DE1581EC91E00E94DC158091E20278
:103D500090E06AE070E001960E941F1681EC91E00D
:103D60000E94DC158091DF026AE070E00E94B016CC
:103D700081EC91E00E94DC158091E20290E00196D6
:103D8000FC01EE0FFF1FE80FF91FEE0FFF1FED51B3
:103D9000FD4F808191819C01220F331F820F931F61
:103DA0006AE070E044960E941F1681EC91E00E9448
:103DB000DC15C8010E94CE16A091E2028A2F90E085
:103DC0009C012F5F3F4FA901440F551F420F531F06
:103DD000FA01EE0FFF1FED51FD4F20813181220FBF
:103DE000331F220F331F880F991FFC01E153FD4F32
:103DF000201731070CF096C02081318137FF03C0B6
:103E0000518240827DC1440F551FEA01C152DD4FEE
:103E1000488159812417350709F472C12F5F3F4F3C
:103E2000318320834217530709F06AC1EA2FE695D0
:103E3000E695E695F0E0EE0FFF1FE75EFC4F208170
:103E400031810A2E02C0359527950A94E2F7E901DF
:103E5000C170DD2720FF1BC02091DF0230E00A2E59
:103E600002C0359527950A94E2F720FD49C12091BB
:103E7000DF02B701A6010A2E04C0440F551F661FBA
:103E8000771F0A94D2F7422B4093DF021CC0209187
:103E9000DF0230E00A2E02C0359527950A94E2F73A
:103EA00020FF2EC13091DF02B701A6010A2E04C007
:103EB000440F551F661F771F0A94D2F74095242F91
:103EC00023232093DF022091DF0230E002C03595EA
:103ED0002795AA95E2F73091BE02FC01E154FD4F0F
:103EE0006081718181E020FF05C0311180E00E9476
:103EF000641504C0311180E00E9497158091DF02A3
:103F000090918804993128F090E090937604809302
:103F1000750480911D03882309F4F2C0CD2B09F4A8
:103F20009EC0A0C020813181121613061CF411829C
:103F30001082E6C0440F551FEA01CF51DD4F488182
:103F4000598166277727621B730B6417750709F47D
:103F5000D7C0B9016150710971836083B201621BDE
:103F6000730B4617570709F0CBC0EA2FE695E69585
:103F7000E695F0E0EE0FFF1FE75EFC4F20813181F8
:103F80000A2E02C0359527950A94E2F7E901C1701F
:103F9000DD2720FF1DC02091DF0230E00A2E02C085
:103FA000359527950A94E2F720FFAAC03091DF02E9
:103FB000B701A6010A2E04C0440F551F661F771FC4
:103FC0000A94D2F74095242F23232093DF021AC0AE
:103FD0002091DF0230E00A2E02C0359527950A9421
:103FE000E2F720FD8DC02091DF02B701A6010A2E65
:103FF00004C0440F551F661F771F0A94D2F7422B47
:104000004093DF022091DF0230E002C03595279512
:10401000AA95E2F73091BE02FC01E154FD4F6081A8
:10402000718181E020FF05C0311180E00E9464159C
:1040300004C0311180E00E9497158091DF029091B9
:104040008804993128F090E0909376048093750469
:1040500080911D03882309F453C0CD2B19F084E609
:1040600091E002C080E691E00E94DC1586EE91E0CE
:104070000E94DC158091E20290E06AE070E0019617
:104080000E941F1681EC91E00E94DC156AE070E04E
:10409000C8010E941F1680ED91E00E94DC15E0919E
:1040A000E202F0E0EE0FFF1FE154FD4F80819181AD
:1040B0000E94621680EC91E00E94DC158091DF0284
:1040C00090E00090E20202C0959587950A94E2F78D
:1040D00080FF03C080E691E002C084E691E00E9488
:1040E000DC158091BE02882319F083E591E002C0BF
:1040F0008AE591E00E94DC1589ED91E00E94681646
:104100006092E202F301E05FFE4F60E080817AC2DC
:104110007FEFA71AB70A350187E068227724F301F9
:10412000E05FFE4F908060E0892D0E94F311FE0158
:10413000E85FFE4F8080882D0E945E128C01809186
:10414000E102823020F4882D0E945E128C01809161
:10415000000190910101803EE1E09E07B0F4CC0F98
:10416000DD1FFE01E25EFC4FC35CDC4F48815981DC
:10417000401B510B20813181240F351F3183208357
:10418000019690930101809300018091E00290E0FC
:10419000A816B90609F046C00E9480124AE00E94A3
:1041A000DE1581EC91E00E94DC158091E20290E046
:1041B0006AE070E001960E941F1681EC91E00E9477
:1041C000DC158091DF026AE070E00E94B01681EC9D
:1041D00091E00E94DC15E091E202F0E0EE0FFF1F9B
:1041E000E35CFC4F6AE070E0808191810E941F16C1
:1041F00081EC91E00E94DC156AE070E0C8010E9449
:104200001F1681EC91E00E94DC15E091E202F0E0E3
:10421000EE0FFF1FE35CFC4F80819181801B910BAF
:104220000E94CE16B090E2028B2D90E09C01220FEE
:10423000331FF901E35CFC4F608171810196AC0191
:10424000440F551F840F951FFB01E01BF10BDC0190
:10425000AA0FBB1FAD51BD4F4D915C91DA01AA0F62
:10426000BB1F4A0F5B1F4C5E5F4F4E175F070CF082
:104270009BC0061717070CF097C0F901E153FD4FDB
:104280004081518157FF03C051824082A0C1880FF5
:10429000991FDC01A152BD4F8D919C914817590780
:1042A00009F495C14F5F5F4F518340838417950791
:1042B00009F08DC1EB2DE695E695E695F0E0EE0F61
:1042C000FF1FE75EFC4F808191810B2C02C095950A
:1042D00087950A94E2F7EC01C170DD2780FF19C0D1
:1042E0008091DF0290E00B2C02C0959587950A948F
:1042F000E2F780FD6CC14091DF02D701C6010B2CB3
:1043000004C0880F991FAA1FBB1F0A94D2F7842BE1
:1043100019C08091DF0290E00B2C02C09595879523
:104320000A94E2F780FF53C14091DF02D701C60132
:104330000B2C04C0880F991FAA1FBB1F0A94D2F729
:10434000809584238093DF028091DF0290E002C099
:1043500095958795BA94E2F79091BE02F901E154E0
:10436000FD4F6081718180FF06C081E0911180E086
:104370000E94641505C081E0911180E00E949715AC
:104380008091DF0290918804993128F090E0909319
:1043900076048093750480911D03882309F417C166
:1043A000CD2B09F49FC0A1C0F901E153FD4F40811D
:1043B0005181141615061CF41182108208C1880F51
:1043C000991FDC01AF51BD4F8D919C9166277727D6
:1043D000641B750B6817790709F4F9C0BA016150BD
:1043E000710971836083B201641B750B861797078F
:1043F00009F0EDC0EB2DE695E695E695F0E0EE0FC1
:10440000FF1FE75EFC4F808191810B2C02C09595C8
:1044100087950A94E2F7EC01C170DD2780FF1AC08E
:104420008091DF0290E00B2C02C0959587950A944D
:10443000E2F780FFCCC04091DF02D701C6010B2C10
:1044400004C0880F991FAA1FBB1F0A94D2F780953A
:10445000842318C08091DF0290E00B2C02C0959558
:1044600087950A94E2F780FDB2C04091DF02D70140
:10447000C6010B2C04C0880F991FAA1FBB1F0A94EA
:10448000D2F7842B8093DF028091DF0290E002C09C
:1044900095958795BA94E2F79091BE02F901E1549F
:1044A000FD4F6081718180FF06C081E0911180E045
:1044B0000E94641505C081E0911180E00E9497156B
:1044C0008091DF0290918804993128F090E09093D8
:1044D00076048093750480911D03882309F477C0C6
:1044E000CD2B19F084E691E002C080E691E00E94B5
:1044F000DC1586EE91E00E94DC158091E20290E0EE
:104500006AE070E001960E941F1681EC91E00E9423
:10451000DC15E091E202F0E0EE0FFF1FE35CFC4FE0
:104520006AE070E0808191810E941F1681EC91E029
:104530000E94DC156AE070E0C8010E941F1681EC41
:1045400091E00E94DC15E091E202F0E0EE0FFF1F27
:10455000E35CFC4F808191816AE070E0801B910BED
:104560000E941F1680ED91E00E94DC15E091E202AE
:10457000F0E0EE0FFF1FE154FD4F808191810E941A
:10458000621680EC91E00E94DC158091DF0290E0E1
:104590000090E20202C0959587950A94E2F780FFA9
:1045A00003C080E691E002C084E691E00E94DC1541
:1045B0008091BE02882319F083E591E002C08AE56C
:1045C00091E00E94DC1589ED91E00E9468166092EE
:1045D000E202F301E85FFE4F1081812F0E945E121C
:1045E000E301CC0FDD1FC35CDC4F9983888380918E
:1045F000E102823028F4812F0E945E129983888321
:1046000061E0892D0E94F31180914305909144054A
:10461000039759F4369909C00E94DF12613177423D
:104620008105910510F00E942B1780910001909157
:104630000101803E91400CF421C18FEF9FEF9093D8
:10464000010180930001CEE1D3E003EE12E054E0DB
:10465000A52EB12C20E030E067E9662EA201022EE3
:1046600002C0440F551F0A94E2F780912F0390E097
:1046700084239523B9016F5F7F4F4B01481759077A
:1046800009F0E6C09091300380912E03992331F117
:1046900090913303911122C087FF0FC088819981C7
:1046A0004E96B1010E94B727E9E0E69FC001E79F5F
:1046B000900D11246AE070E034C02881398180E0D7
:1046C00094E0821B930B6AE070E00E94B7272C5E97
:1046D0003F4F260F371F3983288327C087FF13C01A
:1046E000888199814E96B1010E94B727FCE0F69F20
:1046F000C001F79F900D11246AE070E00E94B72777
:104700006C5E7F4F10C0888199814E96B1010E94E6
:10471000B72723E1269FC001279F900D112464E154
:1047200070E00E94B7277983688380911D038823F6
:10473000C9F080EF91E00E94DC156AE070E0C401EE
:104740000E941F1688EF91E00E94DC1581EC91E039
:104750000E94DC15888199810E94621681EC91E0AB
:104760000E94DC1588819981449720F464E170E00F
:10477000798368832091300388819981222339F0DD
:1047800096958795969587959983888307C04497D2
:1047900063E070E00E94B7277983688388819981FC
:1047A000892B11F459824882888199818F3F910524
:1047B00020F08EEF90E0998388834881842F99813F
:1047C000F801268137812817390709F441C09783FA
:1047D00086837A2C6FEF6A0D8091F204861720F0A1
:1047E0008FE794E00E94490580911D038823C1F062
:1047F00088E092E00E94DC156AE070E0C5010E944A
:104800001F1681EC91E00E94DC156AE070E0F8016F
:10481000868197810E941F1683E192E00E94DC1539
:10482000F80186819091E1042091E2046092B20443
:104830002093B3049093B4047092B5048093B604AB
:104840001092B7041092B8041092B9040E94251572
:104850001992199294010A5F1F4FF3E0AF0EB11C39
:104860002830310509F0FACE10922F0380911D03F4
:10487000882321F081E292E00E9468160E941C11B8
:1048800066C8CC2311F40C9463198FE794E00E945E
:10489000E00781E08093B1046091ED04646060936F
:1048A000ED046093930485E190E00E941B05609104
:1048B000ED046093930485E190E00E941B0560E0A5
:1048C00081E00E94F31160E080E00E94F311FFCFCD
:1048D0000E945E18C11108C080FF8FC881E60E9447
:1048E000DC1740E061E007C081FF87C881E70E94D4
:1048F000DC1740E062E08CE20E94F41340919F04D8
:10490000EDE7F4E09F012D573440319680919F04EC
:1049100090E0281739070CF051C882A1DF01A15C93
:10492000BE4F8C93EFCFD093B80560C861E070E0C4
:1049300070933E0560933D0580913B0590913C0549
:10494000CC9724F010923C0510923B05E7EBF5E084
:1049500080913B0590913C052191DC01A350BB4F18
:1049600012962C93019690933C0580933B05809181
:10497000410590914205019690934205809341052F
:1049800075E0E63CF70721F7CD97BCF080913F0535
:10499000909140050F968C3391052CF4909340052F
:1049A00080933F0504C01092400510923F058CE3B0
:1049B00090E0909342058093410510923E0510923D
:1049C0003D051BC8EC2FE695F0E0EE0FFF1FEB5CFA
:1049D000FC4F51824082AAC8EC2FE695F0E0EE0F22
:1049E000FF1FEB5CFC4F22E030E031832083B6C830
:1049F0008DEC91E0EFC88AE591E008C9EF53FD4FD7
:104A000023C98DE794E00C94D8088F929F92AF92BF
:104A1000BF92CF92DF92EF92FF920F931F93CF93AB
:104A2000DF93CDB7DEB7C654D1090FB6F894DEBF19
:104A30000FBECDBF109261031092600388EE93E029
:104A4000A0E0B0E08093620390936303A0936403BB
:104A5000B09365038FE191E090935F0380935E03D1
:104A600085EC90E090936B0380936A0384EC90E074
:104A700090936D0380936C0380EC90E090936F03B0
:104A800080936E0381EC90E09093710380937003A8
:104A900082EC90E0909373038093720386EC90E035
:104AA00090937503809374031092770310927803A8
:104AB0001092790310927A038FE491E090937E0430
:104AC00080937D0487E491E09093800480937F0439
:104AD0008AEB94E00E9404058FE391E09093DF0459
:104AE0008093DE04E3EEF4E080E3819344E0EB3E68
:104AF000F407D9F787E391E09093FE048093FD04D7
:104B00001092F3041092C90527E1FE013196AAE93B
:104B1000B4E001900D922A95E1F79A83898321965A
:104B20001FAE1EAE219723961FAE1EAE239725966D
:104B30001FAE1EAE259727961FAE1EAE2797DE012D
:104B40001396EFEFF4E08D91819385E0EB33F80756
:104B5000D1F710923C0510923B0510923E05109241
:104B60003D051092400510923F05109242051092AB
:104B7000410587E491E09A8389838DE18A8789E002
:104B80008B8781E08C878D8786E3888B88E390E034
:104B90009F878E8781E090E00E94E5279C838B832E
:104BA000CE0101960E94C907CE0101960E94980885
:104BB00093E4E92E94E0F92E10E0612FCE010196E6
:104BC0000E948F0590E0F701819391937F011F5F11
:104BD0001D3199F7EB849884CC848BEFA82E83E069
:104BE000B82ED12CF4E0CF0ED11C0E851F85F12CF0
:104BF00088248394198A1A8A1B8A1C8A1B8EEF14B4
:104C000010F09F1410F48B8E13C0C8010E941D0574
:104C1000898BC80101960E941D058A8BC8010296E6
:104C20000E941D058B8BC80103960E941D058C8B6D
:104C30003989832F90E0F501819391935F012A894F
:104C4000822F90E0918B808B9B89492F50E053A35A
:104C500042A38C89482F50E055AB44ABF3940C0D24
:104C60001D1DF9E0FF12C6CF4B815C815093820479
:104C7000409381044D81409383044E81409384048A
:104C80004F8140938504488540938604498540932D
:104C900087044A8540938804E09289044C854093B8
:104CA0008A044D8540938B044E855F8550938D0417
:104CB00040938C04488940938E0430938F04209352
:104CC000900490939104809392048D89809393042F
:104CD0008E899F899093950480939404888D809306
:104CE0009604898D809397048A8D809398048B8D88
:104CF00080939904CE0101960E94C2088FE391E04F
:104D00009A838983DE011696CE010E96FD0120E37B
:104D10002193E817F907E1F78B818093E0048C81F8
:104D20009D819093E2048093E104E3EEF4E08D91A1
:104D3000819344E0EB3EF407D1F78E858093EB043A
:104D40008F858093EC0488898093ED048989809312
:104D5000EE048A898093EF0489E08093F0048DE16A
:104D60008093F20481E08093F104CE0101960E94C9
:104D700004058B818093BC048C818093BD048D815C
:104D80008093BE048E818093BF048F819885909319
:104D9000C1048093C00489859A859093C30480934D
:104DA000C2048B859C859093C5048093C4048D8533
:104DB0009E859093C7048093C6048F8598899093AD
:104DC000C9048093C80489899A899093CB048093FD
:104DD000CA048B898093CC04DE015496EDECF4E098
:104DE0008D91819384E0E53DF807D1F78C8D809318
:104DF000D5048D8D8093D6048E8D8093D7048F8DAE
:104E00008093D80488A18093D90489A19AA1909312
:104E1000DB048093DA048BA18093DC048CA1809363
:104E2000DD048091F30481608093F3041092F40414
:104E30000FEF0093CF050093D00511E01093D1053B
:104E40001092D2050E94DF126093D3057093D405AF
:104E50008093D5059093D6051092CB051092CA0584
:104E60001092DA051092D9051092F5041093F60409
:104E70000093D7051093D8058CE291E0A0E0B0E054
:104E80008093F7049093F804A093F904B093FA0484
:104E90008FE794E00E9498088091840490918504A3
:104EA000982789279827909395048093940490934A
:104EB000E2048093E104809183048093E004809174
:104EC00093048093ED041093B10483E090E09093F9
:104ED000440580934305CA5BDF4F0FB6F894DEBFED
:104EE0000FBECDBFDF91CF911F910F91FF90EF903B
:104EF000DF90CF90BF90AF909F908F900895F999D9
:104F0000FECF92BD81BDF89A992780B50895262FCE
:104F1000F999FECF1FBA92BD81BD20BD0FB6F8949E
:104F2000FA9AF99A0FBE01960895A1E21A2EAA1BC9
:104F3000BB1BFD010DC0AA1FBB1FEE1FFF1FA21749
:104F4000B307E407F50720F0A21BB30BE40BF50B46
:104F5000661F771F881F991F1A9469F760957095CF
:104F6000809590959B01AC01BD01CF010895AA1BCE
:104F7000BB1B51E107C0AA1FBB1FA617B70710F044
:104F8000A61BB70B881F991F5A95A9F78095909576
:104F9000BC01CD01089597FB072E16F4009407D0AD
:104FA00077FD09D00E94B72707FC05D03EF4909505
:104FB00081959F4F0895709561957F4F0895EE0FED
:104FC000FF1F0590F491E02D09940F931F93CF9349
:104FD000DF938230910510F482E090E0E091E105EA
:104FE000F091E20520E030E0A0E0B0E0309719F168
:104FF000408151810281138148175907C8F08417F5
:10500000950769F4109731F012960C931297139646
:105010001C9327C00093E1051093E20522C02115DF
:10502000310519F04217530718F49A01BD01EF0139
:10503000DF01F801DBCF21153105F9F0281B390B11
:105040002430310580F48A819B816115710521F03E
:10505000FB019383828304C09093E2058093E10572
:10506000FE01329644C0FE01E20FF31F819391933B
:1050700022503109398328833AC02091DF053091CD
:10508000E005232B41F42091040130910501309378
:10509000E0052093DF0520910201309103012115E5
:1050A000310541F42DB73EB74091060150910701FB
:1050B000241B350BE091DF05F091E005E217F307C3
:1050C000A0F42E1B3F0B2817390778F0AC014E5F78
:1050D0005F4F2417350748F04E0F5F1F5093E005D0
:1050E0004093DF058193919302C0E0E0F0E0CF01AF
:1050F000DF91CF911F910F910895CF93DF93009788
:1051000009F481C0FC01329713821282A091E1055B
:10511000B091E205109781F420813181820F931FB5
:105120002091DF053091E0052817390751F5F093FC
:10513000E005E093DF0567C0ED0120E030E0CE1729
:10514000DF0740F44A815B819E0141155105F1F072
:10515000EA01F5CFD383C28340815181840F951F2B
:10516000C817D90759F488819981840F951F029631
:10517000918380838A819B8193838283211531056A
:1051800029F4F093E205E093E1053DC0E901FB83DA
:10519000EA8349915991C40FD51FEC17FD0761F4BB
:1051A00080819181840F951F0296E90199838883FC
:1051B000828193819B838A83E0E0F0E012968D9157
:1051C0009C911397009719F0FD01DC01F7CF8D91A9
:1051D0009C9111979D012E5F3F4F820F931F20914D
:1051E000DF053091E0052817390769F4309729F475
:1051F0001092E2051092E10502C013821282B09370
:10520000E005A093DF05DF91CF91089581E090E064
:10521000F8940C940B2911E0C2E3D1E004C0FE0124
:105220000E94DF272196C333D107C9F7F894FFCF37
:10523000FFFF0000E30580001A19131211100F0E72
:10524000020304050607080930405000000000B3BF
:105250001030107C105A106E10FA1000000000037D
:1052600005BE0400000000EA08C204000000001AA5
:1052700005C00400000000C208CE0800000000D8ED
:1052800008E0082073686F727400206C6F6E67000E
:1052900045696E0041757300415244555F495200A3
:1052A0002A004172647549522056657273696F6EA7
:1052B00020000D0A00210045696E736368616C74FB
:1052C0007665727A6F65676572756E6720004175E5
:1052D00073736368616C747665727A6F6567657203
:1052E000756E67200053636877656C6C65200020DD
:1052F00020200053656E736F72002D3E003C2D0020
:1053000020204576656E74200020676573656E64A5
:10531000657400415A002053656E736F723A200025
:1053200053656E736F7220002053636877656C6CF1
:10533000656E776572742000205661726961626CD7
:105340006520002067657370656963686572742005
:105350000066657274696700557365725F46756EA5
:105360006374696F6E3A20004576656E744D6174A2
:10537000636820004576656E745661723A20004F6E
:1053800050433A2000204E6F64653A20002043616C
:105390006E49443A2000204D657373616765536917
:1053A0007A653A20002053746174653A200045699B
:1053B0006E6D657373656E206265656E64657400FD
:1053C0004B65696E65204B616C6962726174696FCF
:1053D0006E206E6F657469670045696E6D657373E5
:0E53E000656E206765737461727465740000F9
:00000001FF
