:100000000C9433010C945B010C945B010C945B0128
:100010000C945B010C945B010C945B010C945B01F0
:100020000C945B010C945B010C945B010C945B01E0
:100030000C945B010C945B010C945B010C945B01D0
:100040000C942E160C945B010C94DB140C94B514D8
:100050000C945B010C945B010C945B010C945B01B0
:100060000C945B010C945B010C945B010C945B01A0
:100070000C945B010C945B010C945B010C945B0190
:100080000C945B010C945B010C945B010C945B0180
:100090000C945B010C945B010C945B010C945B0170
:1000A0000C945B010C945B010C945B010C945B0160
:1000B0000C945B0158035B035E03610364036703F5
:1000C0006A036D038E14911484148814B214B2144C
:1000D000951499149F14A314B214A914AD1400001C
:1000E0000000240027002A002D000102040810202F
:1000F0004080010204081020010204081020408002
:10010000400102040804040404040404040202027A
:1001100002020203030303030302020305050505AC
:1001200020005641525320002000200020000A45A4
:1001300056454E54533A0020000A4445564943451B
:10014000204E554D424552533A0020000A494E5424
:1001500045524E414C20564152533A0020000A4E1F
:100160004F444520564152533A0020000A4E4F4416
:100170004520564152533A000A4E554D20564152A1
:10018000533A000A4E554D204556454E545320567D
:100190004152533A000A4E554D204556454E545350
:1001A0003A000A466C6167733A000A4E4E3A000AFA
:1001B00043414E5F49443A004944454E543A004D4C
:1001C000454D4F52592044554D500053746172743F
:1001D0000050726F7A6573736F726665686C6572D2
:1001E00020004641494C454420746F2073656E647D
:1001F0002043414E0053686F72743A204576656E15
:1002000074002020204576656E7420004C6F6E6768
:100210003A204E6F64654E6F2000777269746520D6
:1002200076617220746F20656570726F6D000000DA
:100230000000250028002B002E00000000002300F5
:10024000260029002C000A0D0E09000302000004FC
:100250000508000000000000000000000000000091
:100260000000C424C02411241FBECFEFD8E0DEBF9D
:10027000CDBF12E0A0E0B1E0EEEAF1E502C00590EA
:100280000D92A23CB107D9F725E0A2ECB2E001C083
:100290001D92A73EB207E1F711E0C2E3D1E004C02E
:1002A0002197FE010E949E27C133D107C9F70E9402
:1002B0005B180C94CA280C940000DF92EF92FF9216
:1002C0000F931F93CF93DF93C091B80485EB94E015
:1002D0000E94C4047C010091DC041091DD048017AD
:1002E000910789F080913E0590913F050297039711
:1002F00050F4CD3009F46FC0C03109F484C0C1316D
:1003000009F033C39EC0CD3509F470C180F5C33503
:1003100009F4FEC078F4C03109F475C020F4CD3082
:1003200009F023C358C0C13109F48BC0C23409F4A9
:10033000B0C01BC3C63509F406C138F4C43509F48E
:10034000ECC0C53509F4F0C010C3C73509F41AC1B3
:10035000C83509F00AC38091810494E79093AD04F5
:100360001093AE040093AF048093B004F4C2C53977
:1003700009F4C3C1F0F4C23709F454C120F4C13701
:1003800009F43CC1F2C2C33709F478C1C53709F09A
:10039000ECC26091CB046093DB0460937E0482E145
:1003A00090E00E941B058091DC049091DD0422E521
:1003B000CAC2C23B09F42DC238F4C63909F4C7C118
:1003C000CC3909F4FDC1D1C2C23D09F456C2C53FC2
:1003D00009F449C2CAC20115110509F4C6C28091C7
:1003E000E8049091E7042091E60436EB3093AD04E5
:1003F0001093AE040093AF042093B0049093B10423
:100400008093B204B2C080913E0590913F0505975C
:1004100009F0ABC2EDEAF4E0119284E0E53BF807A5
:10042000D9F78091EA049091ED042091EC04309189
:10043000EB044091E7045091E9046091E6047FEEFB
:1004400015C080913E0590913F05059701F580917B
:10045000E4049091E3042091E2043091E10440919E
:10046000E0045091DF046091DE0472EE7093AD04FD
:100470006093AE045093AF044093B0043093B10442
:100480002093B2049093B3048093B40472C083E0C9
:10049000F1C180913E0590913F050597C1F7F0921B
:1004A000DD04E092DC04C7010E94AE178091DC04F9
:1004B0009091DD0422E52093AD049093AE048093E7
:1004C000AF041092B0041092B1041092B2041092D2
:1004D000B3041092B40483E090E090933F058093BE
:1004E0003E0581E08093AC046091E8046460609311
:1004F000E80460938E0485E190E00E941B05609102
:10050000E80460938E0485E190E00E941B0531C0F1
:1005100010923F0510923E0528C283E090E0909330
:100520003F0580933E0548C180913E0590913F056F
:10053000892B09F01AC260E087E190E00E941B0558
:100540001092810412C28091EB0490918104891B66
:1005500090E79093AD041093AE040093AF048093A2
:10056000B0041092B1041092B2041092B30410922D
:10057000B404DF91CF911F910F91FF90EF90DF9026
:100580000C947B11D0918104DD2309F4EEC1F12E8E
:10059000C0E082EFE82EDC1709F4E7C18C2F0E943F
:1005A000CC12FC0180919404882311F08AE062C18E
:1005B0008381928121813081E092AD04F092AE047A
:1005C0000093AF043093B0042093B1049093B2042D
:1005D0008093B304C093B4040E947B11882321F05C
:1005E00082EE91E00E94EF16CF5FD5CFE016F106C4
:1005F00009F0BBC181E00E946A17B7C1C091CB046A
:100600008FEF8C0F0E94A811909194049111CECF7E
:1006100097E99093AD041093AE040093AF04C09398
:10062000B00468C0EDEAF4E085EB94E011928E1717
:100630009F07E1F70E942717C82F8FEF8C0F0E94AA
:10064000CC12FC0190919404992311F086E012C120
:10065000838192812181308142EF4093AD041093D8
:10066000AE040093AF043093B0042093B104909390
:10067000B2048093B304C093B40475C12091CB0439
:1006800021110BC08BE98093AD041093AE0400934D
:10069000AF041092B00488E02DC0822F90E0FC01DE
:1006A0003197E830F105E0F4E65AFF4F0C949E27AD
:1006B0008091E60416C08091E90413C08091E7049C
:1006C00010C08091EB040DC08091EC040AC08091B1
:1006D000ED0407C08091EA0404C08091E80401C0E1
:1006E00080E09BE99093AD041093AE040093AF04B7
:1006F0002093B0048093B10430C185EB94E00E9454
:10070000D416AC01B7018AE794E00E94DD05C82F3A
:100710000E9426131092440510924505109246053A
:10072000109247054C2F64E475E08AE794E00E943C
:100730006607C8138BCF6C2F70E020E040E08AE79B
:1007400094E00E941F05882309F40FC12FCFC091A8
:10075000CB04C150D091CC04CB3149F4D093DB040D
:10076000D0937E046D2F82E190E00E941B05809162
:10077000ED048C17F0F04D2F6C2F8AE794E00E9467
:1007800049058091DC049091DD0429E52093AD04B6
:100790009093AE048093AF041092B0041092B10411
:1007A0001092B2041092B3041092B4040E947B1110
:1007B00003C089E00E94461381E08093F104D5C014
:1007C0000E942717D82F0E945317C82F8091EC043E
:1007D0008C1708F4EBCE4FEF4C0F6FEF6D0F8AE7DD
:1007E00094E00E947105909194049111DFCE909154
:1007F000DC042091DD0435EB3093AD042093AE048E
:100800009093AF04D093B004C093B1048093B2042A
:10081000A6C080913E0590913F05892B51F50E941D
:100820005317182F0E94CC12EC0140E0612F8AE789
:1008300094E00E94710590919404911107CF9B81DF
:100840002A813981488153ED5093AD044093AE0421
:100850003093AF042093B0049093B1041093B2048A
:100860008093B3047EC080913E0590913F05892B13
:1008700061F182E00E94461378C085EB94E00E940B
:10088000D416182F092F0E945317C82F0E943E1705
:10089000D82FF0924405E092450500934605109349
:1008A00047054C2F64E475E08AE794E00E946607F0
:1008B000C813CCCE6C2F70E02D2F40E08AE794E077
:1008C0000E941F05811172CE39C085EB94E00E9411
:1008D000D416082FD92E0E945317C82F0E943E17F6
:1008E000D82F0E942717182FF0924405E092450553
:1008F000D0924605009347054FEF480F64E475E03A
:100900008AE794E00E946607682F70E0212F30E0AC
:10091000215031096217730709F098CE4FEF4C0F41
:100920002D2F8AE794E00E941F0590E02C2F30E0E5
:10093000215031098217930709F038CE8091DC04E9
:100940009091DD0429E52093AD049093AE0480934B
:10095000AF041092B0041092B1041092B20410923D
:10096000B3041092B4040E947B1180E0DF91CF9118
:100970001F910F91FF90EF90DF9008950C943C2809
:100980000C943C280C943C28FC0193899234A9F1E6
:1009900080EB890F8B3088F184EA890F823068F10F
:1009A00081E9890F873048F180E7890F8F3028F17E
:1009B00080E5890F873008F188E4890F8230E8F0FC
:1009C000292F2F7B2D5B2230C0F080E3890F8630EA
:1009D000A0F088E2890F823080F083E2890F8230B4
:1009E00060F0933E51F080E1890F823030F0935FE8
:1009F000973018F080E090E00895848995899827D1
:100A00008927982708950895FC018FE291E091834A
:100A10008083DF015396CF014B961D92A817B9072B
:100A2000E1F7138E148E158E168E178E11A210A25A
:100A300012A2089508950C9446270C943E27CF9354
:100A4000FC01DB01878190E06817790718F081E0ED
:100A5000840F1DC093854917D0F7622FC42F492FEB
:100A600050E04C5F5F4F4A9F90014B9F300D5A9F63
:100A7000300D112485859685820F931F4C2F50E0F1
:100A80004C5F5F4F840F951F0E941B058C2FCF91E9
:100A900008951F93CF93DF93FC0181858617E8F0BB
:100AA000142FC62FD0E0FE01EE0FFF1FE25CFB4FBC
:100AB000842F90E0918380836996CE010E941D056A
:100AC000181759F08AE192E00E94EF16612FCE01CB
:100AD000DF91CF911F910C941B05DF91CF911F9156
:100AE0000895FC01128E87816817B0F423854217A0
:100AF00098F430E02C5F3F4F629FD001639FB00DB0
:100B00001124858596858A0F9B1F50E04C5F5F4FAF
:100B1000840F951F0C941D058FEF828F0895FC01A3
:100B2000128E8185681728F4862F90E049960C94E0
:100B30001D058FEF828F0895CF92DF92EF92FF9283
:100B40000F931F93CF93DF93DC0117968C91179728
:100B5000E6EFF3E090E0C62FD0E0E42EF12C30E099
:100B600010E09817D9F0611102C0442351F0C08001
:100B7000D180CC15DD0579F4C288D388EC14FD044E
:100B800051F4C4A0D5A02C153D0529F4C6A8D7A8BA
:100B90000C151D0541F09F5F3296E3CF1A969C918C
:100BA00081E0890F01C0892FDF91CF911F910F91B3
:100BB000FF90EF90DF90CF9008950F93252F042F93
:100BC000462F672F0E949C050F910895AF92BF9208
:100BD000CF92DF92EF92FF920F931F93CF93DF9309
:100BE000EC017B01FB01E858FF4F1081809121034C
:100BF000882309F4DEC088E292E00E943212812F3D
:100C00000E942613112309F4D6C080912103882362
:100C1000D1F188E392E00E943212812F0E942613C4
:100C200084E492E00E943212CE010E949416970151
:100C30002E5F3F4F6901882339F0CE010E94A9162B
:100C4000AC0160E070E009C0CE010E94D4165C01E6
:100C5000CE010E94C404A501BC01C6010E94DD05AD
:100C6000F701ED58FF4F9081891730F440E0682F6D
:100C7000C6010E94710501C080E00E94261384E82D
:100C800091E00E94BE12193009F015C18091340321
:100C9000811111C1C3ECD2E0E12CF12C8091E3026F
:100CA00090E00E2C02C0959587950A94E2F79091FA
:100CB000C2026881798180FF06C081E0911180E0E5
:100CC0000E94BA1105C081E0911180E00E94ED11EF
:100CD0008091210387010F5F1F4F882309F450C0C3
:100CE000E091E602E695E695E695F0E0EE0FFF1F4F
:100CF000E35EFC4F808191810E2C02C09595879513
:100D00000A94E2F780FF0BC08091E30290E002C0FA
:100D100095958795EA94E2F780FD0BC00DC0809110
:100D2000E30290E002C095958795EA94E2F780FD92
:100D300003C084E691E002C080E691E00E94321296
:100D400086EE91E00E9432126AE070E0C8010E94D3
:100D5000751280ED91E00E943212888199810E9483
:100D6000B8128091C202811103C08AE591E002C0ED
:100D700083E591E00E94321289ED91E00E94BE125B
:100D800062E370E080E090E00E94E815780122962E
:100D90000830110509F082CF8091E302909183041D
:100DA000993108F488C090E09093710480937004A6
:100DB00082C0111168CF80912103882309F47BC080
:100DC000CE010E947F16882389F08CE092E00E9479
:100DD0005813CE010E94C4040E94B81282E092E02F
:100DE0000E945813CE010E94D4160CC0CE010E945E
:100DF00094168823B9F085EF91E00E945813CE0134
:100E00000E94A9160E94B81282E891E0DF91CF916A
:100E10001F910F91FF90EF90DF90CF90BF90AF9018
:100E20000C9420128FE492E00E94321260E170E094
:100E30008B810E94181385E592E00E943212CE0148
:100E40000E94C4040E94B8128DE592E00E94321202
:100E50002B8D80E1289F900111248C8D82958695A1
:100E60008770822B8A836AE070E00E94181386E6FE
:100E700092E00E9432128B8990E025E0959587954B
:100E80002A95E1F78C836AE070E00E94181385E7E9
:100E900092E00E94321280913E0590913F05DF91D1
:100EA000CF911F910F91FF90EF90DF90CF90BF9067
:100EB000AF900C943613DF91CF911F910F91FF905B
:100EC000EF90DF90CF90BF90AF900895CF92DF92D8
:100ED000EF92FF921F93CF93DF93FC01128541178E
:100EE00018F081E0810F4DC0142FFB01DC01842F2D
:100EF00090E0EC01CC0FDD1FCA50DC4F208130E0C8
:100F000039832883EC01CC0FDD1FC85FDB4F2181C3
:100F100030E039832883EC01CC0FDD1FC65EDB4F48
:100F2000228130E039832883EC01CC0FDD1FC45DC2
:100F3000DB4F238130E0398328831B962C911B974C
:100F400030E02C5F3F4F289F7001299FF00C389FA5
:100F5000F00C11241D968D919C911E97E80EF91EA0
:100F60006B0184E0C80ED11CEB01E61AF70AC70139
:100F70008C0F9D1F69910E941B05CC15DD05B9F7EB
:100F8000812FDF91CF911F91FF90EF90DF90CF9055
:100F90000895FC0180E090E0238530E082179307FC
:100FA0003CF4A281B381A80FB91F1C920196F4CF23
:100FB00082E68483158286EC86831782148A0895DC
:100FC000EF92FF920F931F93CF93DF9300D000D047
:100FD000CDB7DEB78C010E94C907F80182858783EF
:100FE00019821A828EE38B8384EE8C83E12CF12CA0
:100FF000F8014285842F90E00197E816F906CCF4B9
:101000004E2DBE016F5F7F4FC8010E9466078C8125
:101010008F5F8C83811103C08B818F5F8B8320E076
:1010200040E0B701C8010E941F05FFEFEF1AFF0A59
:10103000DFCF19821A8282E18B8387E68C8341504D
:10104000BE016F5F7F4FC8010E946607F80162858D
:1010500070E06150710920E040E0C8010E941F0566
:1010600042E060E0C8010E94490540E069E1C80132
:101070000E9449054FEF6AE1C8010E944905FF241B
:10108000F39444E06F2DC8010E94490561E06F0DA3
:1010900044E6C8010E94490562E06F0D4BE4C801B7
:1010A0000E944905F3E0FF0E89E1F812EACF42E61B
:1010B0006BE1C8010E94490540E06CE1C8010E9453
:1010C000490568E580E090E00E941B05F801648115
:1010D00082E190E00E941B05F801658183E190E0C8
:1010E0000E941B05F801668184E190E00E941B05C7
:1010F000F801648985E190E00E941B05F801678191
:1011000087E190E00E941B05F801638588E190E08B
:101110000E941B05C8010E9498080F900F900F9025
:101120000F90DF91CF911F910F91FF90EF90089555
:10113000CF93DF93EC010E94C90780E090E00E940A
:101140001D05883519F0CE010E94E00782E190E08C
:101150000E941D058C8383E190E00E941D058D8314
:1011600084E190E00E941D058E8385E190E00E945D
:101170001D058C8B87E190E00E941D058F83DF9118
:10118000CF91089527E431E0FC01318320838281EF
:101190009381009711F00C943C280895CF93DF932E
:1011A000EC010E94C208CE01DF91CF910C943C2843
:1011B0002FE431E0FC0121933193CF010C94C2085C
:1011C000CF93DF93EC010E94D808CE01DF91CF913D
:1011D0000C943C2808953F924F925F926F927F92B9
:1011E0008F929F92AF92BF92CF92DF92EF92FF9237
:1011F0000F931F93CF93DF931092F10480E00E942E
:10120000A81181FB992790F99093C202982F991FFA
:101210009927991F90933403992339F086FB22274D
:1012200020F920933703806202C010923703682FA1
:1012300070E09B0175E0359527957A95E1F721706F
:10124000220F62956170620F6093E502809137030F
:10125000811118C070E06F5F7F4F81E792E00E94BC
:101260008A27709336036093350380912103882386
:1012700089F18EE792E00E9432128091E5020E948D
:10128000261328C01092E60260E082E00E94361524
:1012900060E084E00E94361560E086E00E9436152A
:1012A00060E088E00E94361561E083E00E94361518
:1012B00061E085E00E94361561E087E00E94361506
:1012C00061E089E00E9436158DE790E09093360347
:1012D0008093350303EC12E07801C0E08C2F0E946C
:1012E000CC12FC0182819381982789279827F701E6
:1012F000819391937F01CF5FC83081F7C0911D0327
:10130000D0911E036AE18AE794E00E948F0590E085
:10131000C817D90709F481C0C0E0D0E0C12CD12C96
:101320007601C394A0901D03B0901E030C2E02C042
:10133000B594A7940A94E2F76AE18AE794E00E94E0
:101340008F0590E00C2E02C0959587950A94E2F7E0
:10135000A826B926A0FE45C08091E30290E00C2E9D
:1013600002C0959587950A94E2F780FD0EC0209102
:10137000E302D701C6010C2E04C0880F991FAA1FD3
:10138000BB1F0A94D2F7822B0FC09091E302B701E2
:10139000A6010C2E04C0440F551F661F771F0A9428
:1013A000D2F74095842F89238093E3028091E30252
:1013B00090E00C2E02C0959587950A94E2F79091E3
:1013C000C202F8016081718180FF06C081E0911145
:1013D00080E00E94BA1105C081E0911180E00E9476
:1013E000ED1121960E5F1F4FC830D10509F09ACF3D
:1013F0006AE18AE794E00E948F0590E090931E03D3
:1014000080931D038091E30290918304993128F029
:1014100090E09093710480937004C7EED2E083E073
:10142000382EE12CF12C03E010E066246394712C3B
:1014300022E3822E23E0922E3BE4C32ED12C40EEF9
:10144000A42EBB24B3948091340381111FC06EEF8E
:10145000630D8AE794E00E948F0590E08330910548
:101460001CF09B838A8302C01B830A836FEF630D8A
:101470008AE794E00E948F0590E0833091051CF08C
:101480009D838C8307C01D830C8304C01D830C8344
:101490001B830A8323010E2C02C0440C551C0A94A2
:1014A000E2F78091330390E0842195214816590694
:1014B00011F58091000190910101892BE1F4809157
:1014C00034038823C1F080913703811114C0632D48
:1014D0008AE794E00E948F058F3F09F064C0B092C4
:1014E0000101A092000180912103882309F45BC0CF
:1014F00082E892E02AC0632D8AE794E00E948F057B
:10150000282F30E03F832E8381508E3F08F44BC05C
:10151000809137038823E1F0DF82CE8255245394F3
:10152000530C8091ED04831530F04BE4632D8AE772
:1015300094E00E9449056E81852D0E9406138091DA
:101540002103882381F184E992E00E94BE122BC01E
:10155000109201011092000180913303482A4092B9
:101560003303809132032F3F310511F48F7701C08F
:1015700080688093320380912103882321F08DEAD3
:1015800092E00E94BE12E2E2F3E0119211928E16F6
:101590009F06D9F780913403882329F06E8181E07A
:1015A000830D0E940613FFEFEF1AFF0A269623E031
:1015B000320E3BE1331247CF8CE10E94A811881F05
:1015C0008827881F80932103882329F08CE10E94BB
:1015D000A8118F7001C083E68093E402DF91CF9160
:1015E0001F910F91FF90EF90DF90CF90BF90AF9041
:1015F0009F908F907F906F905F904F903F90089555
:10160000E62FF0E0EE0FFF1FED52FD4F81112DC0D0
:101610008081918197FF05C081E090E09183808374
:1016200008958230910509F44DC00196918380831D
:10163000029709F047C08091E30290E0062E02C0B5
:10164000959587950A94E2F780FD3CC02091E302CE
:1016500081E090E0A0E0B0E004C0880F991FAA1FCD
:10166000BB1F6A95D2F7822B2BC0808191811816FF
:1016700019061CF41182108208958F3F2FEF9207F4
:1016800009F10197918380830196E1F48091E3024F
:1016900090E0062E02C0959587950A94E2F780FFA8
:1016A00011C02091E30281E090E0A0E0B0E004C02E
:1016B000880F991FAA1FBB1F6A95D2F780958223B6
:1016C0008093E3020895AF92BF92CF92DF92EF92A0
:1016D000FF920F931F93CF93DF938091CB058F3FA2
:1016E00029F48091CA058F3F09F44FC00E94221649
:1016F0000091CE051091CF052091D0053091D105F4
:10170000DC01CB01801B910BA20BB30B843691053E
:10171000A105B105D0F180913E0590913F05059757
:10172000A9F48091CD05813041F460E08091CB0532
:101730000E9436151092CD051EC061E08091CB0548
:101740000E94361581E08093CD0515C08091AC04D0
:10175000813039F460E08091CA050E94361561E05D
:1017600006C061E08091CA050E94361560E0809154
:10177000CB050E9436150E9422166093CE05709309
:10178000CF058093D0059093D1058091D2058F3FEE
:1017900009F490C00E940D152091D305892B81F486
:1017A000213009F087C00E94221660934005709393
:1017B000410580934205909343051092D3057AC06A
:1017C000211178C081E08093D3050E9422160091F8
:1017D0004005109141052091420530914305DC01FF
:1017E000CB01801B910BA20BB30B8C019D01095EF9
:1017F0001340210931090738134121053105C0F48F
:101800002091AC0480913E0590913F05213061F418
:10181000059739F483E090E090933F0580933E056F
:1018200049C00E940F1746C0059709F043C0F2CF88
:1018300081379741A105B105E8F18091AC04811190
:1018400017C080913E0590913F05059719F360E020
:101850008091CA050E94361580E00E946A17809127
:101860003E0590913F050497E1F60E94630BF7CF88
:101870001092AC046091E8046B7F6093E80460937D
:101880008E0485E190E00E941B058091E80481FFB1
:1018900009C08091F2049091F3049093DD04809349
:1018A000DC0406C01092DD041092DC0480E090E0BD
:1018B0000E94AE1780913E0590913F05049709F074
:1018C0007CC00E9422160091400510914105209194
:1018D000420530914305DC01CB01801B910BA20B2B
:1018E000B30B893E9340A105B10508F466C083E0BF
:1018F00090E090933F0580933E054091C405A5E498
:10190000B5E081E0841740F02091C40530E0E4E4C4
:10191000F5E080E090E017C02D919FEF980FE92F40
:10192000F0E0EF01CC5BDA4F3881EB5BFA4F231725
:1019300018F430839150F3CF20838F5FE3CF419130
:10194000C41730F00196C1E0C80F82179307BCF3AB
:10195000C43640F08091EF04882379F187E00E943B
:1019600046132BC0C0937E046C2F82E190E00E944E
:101970001B05C093DB048091EF048823F1F0809174
:10198000DC049091DD0422E52093AD049093AE0435
:101990008093AF041092B0041092B1041092B2047C
:1019A0001092B3041092B4046C2F70E080E090E0C9
:1019B0002DEA34E043E00E948A10C1E0D0E080EDDF
:1019C000E82E84E0F82EDD24D39499E5C92E1092F8
:1019D000F0048091380590913905892B09F0D9C21E
:1019E000D0933905C093380580913C0590913D0511
:1019F000181619062CF01092390510923805C9C234
:101A000080913A0590913B05CC9724F010923B05CC
:101A100010923A05EEE9F5E0A0913A05B0913B0548
:101A2000A850BB4F12968C91819380913A0590916A
:101A30003B05019690933B0580933A0580913C05C8
:101A400090913D05019790933D0580933C0545E0BD
:101A5000ED3AF40709F71092390510923805E8ECD1
:101A6000F4E01192EE16FF06E1F71092D404109202
:101A7000D6041092D5041092D70480919E058093CD
:101A8000BA048091A0058093D0048091A105809331
:101A9000D1048091A2058093D2048091A305809304
:101AA000D304E4EAF5E08191DF01AD5DB1098C93E7
:101AB00085E0EC3AF807B9F78091C8048093B80440
:101AC000843008F4B4C0873009F4B1C0282F2F7BCC
:101AD0002F3309F4ACC092EA980F923008F4A7C0F3
:101AE000982F9F7D9F3909F4A2C0863B09F49FC0BF
:101AF0008F3D09F49CC03CEF380F333008F49AC096
:101B000038EF380F333008F495C03FED380F3330DD
:101B100008F490C0803409F48DC03CEB380F3730A6
:101B200008F488C08C3409F485C0382F3F7740EA28
:101B3000430F423008F47EC0333609F47BC090383E
:101B400009F478C03EE7380F343008F473C0823AA5
:101B500009F470C030E4380F323008F46BC036EA54
:101B6000380F323008F469C030E7380F353008F4E8
:101B700064C038E6380F333008F45FC09D599230A6
:101B800008F45BC0982F977F905B923008F455C0A3
:101B90009DE4920F923008F450C091E3980F933077
:101BA00008F44BC09CE2980F923008F446C098E2CB
:101BB000980F923008F441C093E2980F9230E8F108
:101BC00090E1980F9230C8F19AE0980F9630A8F102
:101BD00093E0980F933088F194EF980F923080F152
:101BE00090EF980F923060F1823451F190EB980FA2
:101BF0009A3030F194EA980F923010F191E9980FF1
:101C00009730F0F09BE6980F9330D0F095E6980F60
:101C10009230B0F0223BA1F0253B91F09EE2980F6C
:101C2000923070F0823E61F08F3E69F409C084E02A
:101C300090E00BC081E090E008C083E090E005C038
:101C400082E090E002C080E090E09093BC0480933A
:101C5000BB0480919F058111D092D70480E00E943F
:101C6000A81181FBBB24B0F885EB94E00E947F169D
:101C7000A82E882319F0BB2009F45FC185EB94E0FE
:101C80000E9494168823C1F085EB94E00E94A91667
:101C90008C010097B9F0AC0160E070E08AE794E055
:101CA0000E94DD052091840430E0482F50E0241785
:101CB00035070CF461C136C0AA20F1F021E0B21260
:101CC0001BC005C0AA2081F181E0B8122DC085EBB0
:101CD00094E00E94D416009779F0AC0160E070E0C7
:101CE0008AE794E00E94DD052091840430E0482FCB
:101CF00050E024173507B4F485EB94E00E94A91650
:101D00008C01892B89F0A80160E070E08AE794E0FB
:101D10000E94DD052091840430E0482F50E0241714
:101D2000350714F08F5F01C080E08093F00480914C
:101D3000D704882389F08091DC049091DD04892BFD
:101D400059F06091DB0470E080E090E02DEA34E02F
:101D500040E00E948A103BCE2091B8042D3581F4DA
:101D600085EB94E00E94C4042091DC043091DD04F2
:101D70008217930709F02BCE81E00E946A1727CEC5
:101D800040913E0550913F054430510501F5809149
:101D9000BA0481111CCE2091C405233608F017CE59
:101DA0008091D00430E1839FC00111249091D1042F
:101DB000929596959770892B8093B704E22FF0E067
:101DC000EC5BFA4F80832F5F2093C40500CE809197
:101DD000BB049091BC04452B09F073C03091AC0456
:101DE00031116FC0029729F4223D19F0253F09F007
:101DF000BDC085EB94E00E94D416082FA92E85EB78
:101E000094E00E94C4049093440580934505A092F9
:101E1000460500934705B090810410918404B116E3
:101E200010F01F5F11C02A2D482F692F8AE794E018
:101E30000E949C05181738F44B2D64E475E08AE77E
:101E400094E00E946607182F8091EB04811710F42C
:101E500084E01DC08091B804823D11F0853FD1F42B
:101E60000E945317082F0E943E174FEF400F612F1B
:101E700070E0282F8AE794E00E941F0590E0202F51
:101E800030E0215031098217930721F086E00E944B
:101E900046139DCD8091DC049091DD04C092AD0489
:101EA0009093AE048093AF041092B0041092B104EA
:101EB0001092B2041092B3041092B4040E947B11E9
:101EC00086CD8230910539F138F4019749F5E091DA
:101ED000C705F091C80517C0E091C505F091C6058A
:101EE0008330910519F0049731F01AC08091E8040D
:101EF00080FD16C008C08091E80480FD11C0273025
:101F0000C1F50C940000309759F068E774E085EB58
:101F100094E0099505C00E945D01882309F457CD1E
:101F2000E091C505F091C605309709F450CD68E7FA
:101F300074E085EB94E009954ACD85EB94E00E942E
:101F4000D4168C0185EB94E00E94C404A801BC0166
:101F50008AE794E00E94DD052091840430E0482F58
:101F600050E0241735070CF489CEDCCE0E945D01C9
:101F70002ECD2E3531F2C7CFAA2009F4C4CE41E0D0
:101F8000B41609F4A4CE85EB94E00E94A9168C0146
:101F9000BACE80E0DF91CF911F910F91FF90EF902B
:101FA000DF90CF90BF90AF900895FF920F931F9353
:101FB000CF93DF93182FF62EC72FD42F60E0809198
:101FC000A5040E94361583E00E947816812F0E9496
:101FD00078160F2D1C2FC0E0CD1751F0C83041F0FE
:101FE00080E00E947816F80181938F01CF5FF4CFD3
:101FF00061E08091A504DF91CF911F910F91FF9037
:102000000C943615FF920F931F93CF93DF93C82F35
:10201000F62E072F142F60E08091A5040E9436153C
:1020200082E00E9478168C2F0E947816CF2DD02F38
:10203000CE01810F911D8C01C017D10721F089912C
:102040000E947816F9CF61E08091A504DF91CF91CD
:102050001F910F91FF900C9436151F93CF93DF9330
:10206000182FC8E7D4E060E08DA50E94361583E004
:102070000E947816812F0E94781680E00E947816C0
:10208000182F61E08DA50E943615812FDF91CF9129
:102090001F910895FF920F931F93CF93DF93F82E14
:1020A000062F142FC8E7D4E060E08DA50E943615F6
:1020B00085E00E9478168F2D0E947816802F0E944E
:1020C0007816812F0E94781661E08DA5DF91CF915F
:1020D0001F910F91FF900C9436150F931F93CF9380
:1020E000DF93082F162FC8E7D4E060E08DA50E948B
:1020F000361582E00E947816802F0E947816812F74
:102100000E94781661E08DA5DF91CF911F910F910C
:102110000C9436154F925F926F928F929F92AF926E
:10212000BF92CF92DF92FF920F931F93CF93DF93D3
:1021300000D000D0CDB7DEB710929504609396041E
:10214000709397048093980490939904493008F011
:1021500048E040939A041092A304ABE9B4E0F9017B
:1021600050E0CF01821B930B841795071CF48191DB
:102170008D93F7CFA12CB12C4090180150901901EC
:1021800060901A014E0124E0820E911C49825A820D
:102190006B82CE0101966C01F82E0D2DF601119186
:1021A0006F01812F0E942D10982F987083FD02C01F
:1021B0001F5F05C08C149D0489F710E092E0FFEFCB
:1021C000AF1ABF0A923029F422E3A216B104F1F645
:1021D0007CC082E3A816B10409F477C040919A0448
:1021E0006BE974E085E0810F0E9402108091A304E6
:1021F000813029F480919A04806480939A046091DC
:102200009A0484E0810F0E946D10409196045091D1
:10221000970460919804709199048091950481309D
:10222000B1F44C835B83AB0166277727942F9C71B5
:10223000842F8370E8E09E9F800D112488608A833C
:1022400065E0569547956A95E1F749830DC0CA0147
:1022500023E0969587952A95E1F789834295440F67
:10226000407E4A831C821B8244E06F2D702F812F99
:102270000E940210115048E068E0812F0E944A102D
:10228000C12CD12CFFEFCF1ADF0A812F0E942D1015
:1022900083FF05C022E3C216D104A1F718C082E370
:1022A000C816D104A1F010929604109297041092CF
:1022B00098041092990410929A0410929504109226
:1022C000A3041092A40480E003C086E001C087E06C
:1022D0000F900F900F900F90DF91CF911F910F9162
:1022E000FF90DF90CF90BF90AF909F908F906F90B6
:1022F0005F904F900895CF93DF93C091AD04C29546
:10230000C695C770CF5F81E08093AA048093AB0429
:102310006091DB0470E080E090E02DEA34E04C2F27
:102320000E948A10811102C080E00FC0D3E060914A
:10233000DB0470E080E090E02DEA34E04C2F0E9456
:102340008A10882389F3D15091F7DF91CF910895B6
:102350001092940490918304891720F08FEF80935A
:1023600094040895E82FF0E0EE0FFF1FE25CFB4FAE
:10237000808108951F93CF93DF938823A1F0EB0111
:102380008BE10E94A811182F8BE10E94A81180E90F
:102390008093AD041092AE041093AF04D093B004B8
:1023A000C093B1040FC08091DC049091DD0428E952
:1023B0002093AD049093AE048093AF047093B00467
:1023C0006093B1041092B2041092B3041092B4045A
:1023D000DF91CF911F910C947B111F93CF93DF93CB
:1023E0008823A1F0EB018BE10E94A811182F8BE14B
:1023F0000E94A81181E98093AD041092AE0410935D
:10240000AF04D093B004C093B1040FC08091DC043A
:102410009091DD0429E92093AD049093AE0480935C
:10242000AF047093B0046093B1041092B2041092A0
:10243000B3041092B404DF91CF911F910C947B11DF
:10244000009769F0FC0101900020E9F73197AF0196
:10245000481B590BBC0189E593E00C94731380E091
:1024600090E008950C9420128F929F92AF92BF92A9
:102470000F931F93CF93DF93CDB7DEB7A1970FB61E
:10248000F894DEBF0FBECDBF19A2423008F44AE077
:102490008E010F5D1F4F842E912CA12CB12CA50114
:1024A00094010E945427E62FB901CA010150110975
:1024B000EA3014F4E05D01C0E95CD801EC93232B11
:1024C000242B252B61F7C8010E942012A1960FB67C
:1024D000F894DEBF0FBECDBFDF91CF911F910F915A
:1024E000BF90AF909F908F900895CF92DF92EF9220
:1024F000FF92CF93DF936115710559F4682F89E539
:1025000093E0DF91CF91FF90EF90DF90CF900C940C
:10251000F6136C01990FEE08FF086A307105E9F4B3
:10252000F7FE19C06DE289E593E00E94F613EC0115
:1025300066277727CB016C197D098E099F094AE030
:102540000E9434128C0F9D1FDF91CF91FF90EF906E
:10255000DF90CF9008954AE001C0462FC701B60131
:10256000DF91CF91FF90EF90DF90CF900C943412D9
:10257000BC0180E090E04AE00C943412CF93DF93EA
:102580000E942012EC0182E891E00E9420128C0F40
:102590009D1FDF91CF91089510928A0410928B04B1
:1025A00010928C0410928D041092940490918404E3
:1025B000981720F090918104981720F481E080937F
:1025C000940421C090E0FC01EE0FFF1FEA50FC4F85
:1025D000208120938A04FC01EE0FFF1FE85FFB4F70
:1025E000208120938B04FC01EE0FFF1FE65EFB4F62
:1025F000208120938C04880F991FFC01E45DFB4F20
:10260000808180938D048AE894E00895E8E7F4E0FF
:10261000ACEDB4E09C9111962C9137E935AB26AB2B
:1026200097AB80AF61AF12AE13AE14AE0C947B11BA
:10263000AB01682F4115510521F489E593E00C9415
:10264000F61370E080E090E00C943412CF93DF93A7
:102650006AE070E00E941813EC0182E891E00E94A9
:1026600020128C0F9D1FDF91CF910895CF93DF93A0
:102670006AE070E00E947512EC0182E891E00E942D
:1026800020128C0F9D1FDF91CF910895E8E7F4E0B1
:10269000ACEDB4E09C9111962C913FE635AB26ABA6
:1026A00097AB80AF11AE12AE13AE14AE0C947B118B
:1026B0000F931F93CF93DF938C01C0E0D0E0F8011C
:1026C000EC0FFD1F6491662341F089E593E00E94C1
:1026D000F613892B11F02196F2CFCE01DF91CF9125
:1026E0001F910F910895CF92DF92EF92FF920F9377
:1026F0001F93CF93DF936C017A018B01C0E0D0E090
:10270000CE15DF0581F0D8016D918D01D601ED91D7
:10271000FC910190F081E02DC6010995892B11F003
:102720002196EECF7E01C701DF91CF911F910F91CE
:10273000FF90EF90DF90CF900895FC01918D828DF6
:10274000981761F0828DDF01A80FB11D5D968C9105
:10275000928D9F5F9F73928F90E008958FEF9FEF10
:102760000895FC01918D828D981731F0828DE80FCC
:10277000F11D858D90E008958FEF9FEF0895FC0186
:10278000918D228D892F90E0805C9F4F821B910953
:102790008F739927089589E593E00E94BF1321E084
:1027A000892B09F420E0822F0895FC01848DDF013C
:1027B000A80FB11DA35ABF4F2C91848D90E00196B4
:1027C0008F739927848FA689B7892C93A089B189A3
:1027D0008C9180648C93938D848D981306C00288AD
:1027E000F389E02D80818F7D80830895EF92FF92A1
:1027F0000F931F93CF93DF93EC0181E0888F9B8D24
:102800008C8D981305C0E889F989808185FD24C0E5
:10281000F62E0B8D10E00F5F1F4F0F731127E02E68
:102820008C8DE8120CC00FB607FCFACFE889F98945
:10283000808185FFF5CFCE010E94D513F1CF8B8D1E
:10284000FE01E80FF11DE35AFF4FF0820B8FEA897A
:10285000FB898081806207C0EE89FF896083E889F7
:10286000F98980818064808381E090E0DF91CF915D
:102870001F910F91FF90EF900895CF93DF93EC019C
:10288000888D8823C9F0EA89FB89808185FD05C090
:10289000A889B9898C9186FD0FC00FB607FCF5CFCA
:1028A000808185FFF2CFA889B9898C9185FFEDCF12
:1028B000CE010E94D513E7CFDF91CF91089580E03C
:1028C00090E0892B21F00E94CB1381110DC080E094
:1028D00090E0892B71F080E090E0892B51F00E940C
:1028E0000000811104C008950E940000F0CF0C94F4
:1028F0000000089590E0FC013297ED30F10590F56D
:10290000EE59FF4F0C949E27809180008F7703C073
:10291000809180008F7D80938000089584B58F77AB
:1029200002C084B58F7D84BD08958091B0008F77FB
:1029300003C08091B0008F7D8093B0000895809196
:1029400090008F7703C0809190008F7D80939000DE
:1029500008958091A0008F7703C08091A0008F7DA3
:102960008093A00008950E94C5281F920F920FB671
:102970000F9211242F933F934F935F936F937F9305
:102980008F939F93AF93BF93EF93FF9389E593E06A
:102990000E94D513FF91EF91BF91AF919F918F91BD
:1029A0007F916F915F914F913F912F910F900FBE4B
:1029B0000F901F9018951F920F920FB60F9211242F
:1029C0002F938F939F93EF93FF93E0916903F0917F
:1029D0006A038081E0916F03F091700382FD12C061
:1029E0009081809172038F5F8F73209173038217A0
:1029F00051F0E0917203F0E0E75AFC4F958F80931D
:102A0000720301C08081FF91EF919F918F912F916F
:102A10000F900FBE0F901F901895CF93DF93282F24
:102A200030E0F901EA5BFD4F8491F901E651FF4F77
:102A3000D491F901EB5FFE4FC491CC2391F0811149
:102A40000E947A14EC2FF0E0EE0FFF1FE65CFD4FC2
:102A5000A591B491EC91ED2381E090E021F480E028
:102A600002C080E090E0DF91CF9108951F93CF9353
:102A7000DF93282F30E0F901EA5BFD4F8491F901E3
:102A8000E651FF4FD491F901EB5FFE4FC491CC2387
:102A9000C1F0162F81110E947A14EC2FF0E0EE0F96
:102AA000FF1FE25DFD4FA591B4919FB7F8941111FE
:102AB00004C08C91D095D82302C0EC91DE2BDC931E
:102AC0009FBFDF91CF911F910895CF93DF9390E047
:102AD000FC01E651FF4F2491FC01EB5FFE4F849116
:102AE000882361F190E0880F991FFC01E252FF4FAB
:102AF000C591D491FC01E25DFD4FA591B4916111A6
:102B000009C09FB7F8948881209582238883EC912F
:102B10002E230BC0623061F49FB7F8948881322F66
:102B2000309583238883EC912E2B2C939FBF06C076
:102B30008FB7F894E8812E2B28838FBFDF91CF9138
:102B40000895883048F092EF980F9B3040F089311B
:102B500028F09DEE980F03C0982F01C09FEF97704B
:102B6000906490937C0080917A00806480937A00D6
:102B700080917A0086FDFCCF8091780020917900C9
:102B800090E0922B08953FB7F8948091DF059091E3
:102B9000E005A091E105B091E20526B5A89B05C02E
:102BA0002F3F19F00196A11DB11D3FBFBA2FA92FCC
:102BB000982F8827820F911DA11DB11DBC01CD0149
:102BC00042E0660F771F881F991F4A95D1F7089535
:102BD0008F929F92AF92BF92CF92DF92EF92FF922D
:102BE0006B017C010E94C3154B015C01C114D1042F
:102BF000E104F104F1F00E94C315DC01CB01881956
:102C00009909AA09BB09883E9340A105B10570F353
:102C100021E0C21AD108E108F10888EE880E83E0AD
:102C2000981EA11CB11CC114D104E104F10419F7D0
:102C3000DDCFFF90EF90DF90CF90BF90AF909F904F
:102C40008F9008952FB7F8946091DB057091DC05A3
:102C50008091DD059091DE052FBF08951F920F92A0
:102C60000FB60F9211242F933F938F939F93AF939F
:102C7000BF938091DB059091DC05A091DD05B091BB
:102C8000DE053091DA0523E0230F2D3720F401967D
:102C9000A11DB11D05C026E8230F0296A11DB11D7F
:102CA0002093DA058093DB059093DC05A093DD0586
:102CB000B093DE058091DF059091E005A091E105DC
:102CC000B091E2050196A11DB11D8093DF0590939F
:102CD000E005A093E105B093E205BF91AF919F910C
:102CE0008F913F912F910F900FBE0F901F901895CD
:102CF0008EBD00000DB407FEFDCF8EB50895FC011A
:102D00009381892F8F7D8059823058F080E3890F1D
:102D1000823038F081E0903F31F0913F21F080E047
:102D2000089581E008950895FC019381892F8F7D96
:102D30008859823058F088E2890F823038F081E07B
:102D4000983F31F0993F21F080E0089581E00895A7
:102D50000895FC0193819B35C1F088E6890F83308B
:102D6000A0F0892F8F798D59823078F088E4890F0F
:102D7000823058F088E2890F823038F088E0890F7D
:102D8000843018F080E090E0089586E0890F82306A
:102D900010F09B3519F48489958902C0868997893A
:102DA0009827892798270895FC019381292F2F7B45
:102DB0002059263070F080E5890F853050F080E191
:102DC000890F823030F0935F933018F080E090E00C
:102DD0000895868997899827892798270895CF93FA
:102DE000DF930E945813EC0182E891E00E942012C8
:102DF0008C0F9D1FDF91CF910895CF93C82F482F3F
:102E000060EE8FE00E944A108FE00E942D10982FF4
:102E1000907E81E09C1301C080E0CF910895E8E7A7
:102E2000F4E085E090E090933F0580933E05ACEDA3
:102E3000B4E08C9111969C9120E525AB96AB87ABC5
:102E400010AE11AE12AE13AE14AE0C947B11809185
:102E5000B804823721F08C3911F0853B19F4809148
:102E6000CB040895853F19F48091CD040895823FE5
:102E700019F48091CF04089580E008958091B804FA
:102E8000853B19F48091CD0408959EE2980F92300D
:102E900018F48091CE040895853F19F48091CF04F1
:102EA000089580E008958091B8048C3911F0853B35
:102EB00019F48091CC040895823B11F0823D19F4FD
:102EC0008091CD040895853F19F48091CE04089532
:102ED00080E00895CF93DF93CDB7DEB728970FB684
:102EE000F894DEBF0FBECDBF1092C4058093EF04EF
:102EF00084E090E090933F0580933E0582E08093CC
:102F0000AA0483E08093AB046091DB0470E080E06E
:102F100090E0FE013196AE01475F5F4F9F01119235
:102F2000E417F507E1F741E04093A30440E00E9475
:102F30008A101092A3040E94221660934005709399
:102F40004105809342059093430528960FB6F89467
:102F5000DEBF0FBECDBFDF91CF910895CF93DF933A
:102F6000C8E7D4E09F838887692F83E190E00E94BF
:102F70001B05688584E190E0DF91CF910C941B05DF
:102F80000F931F93CF93DF9300D000D0CDB7DEB760
:102F9000182F109295041092960410929704109294
:102FA00098041092990444E0BE016F5F7F4F0E9425
:102FB000D50F2A813981822F90E065E0959587951C
:102FC0006A95E1F748E0349F800D911D1124092E88
:102FD000000CAA0BBB0B8093960490939704A093CC
:102FE0009804B093990423FF29C032E0880F991FF9
:102FF000AA1FBB1F3A95D1F72370820F911DA11D07
:10300000B11DBA2FA92F982F88272B81820F911DD0
:10301000A11DB11DBA2FA92F982F88272C81820FAF
:10302000911DA11DB11D8093960490939704A093C8
:103030009804B093990481E0809395048FEF810FF9
:103040000E942D10082F84E0810F0E942D1003FF95
:1030500004C091E09093A30402C01092A304482FEF
:103060004F7040939A046BE974E085E0810F0E94F1
:10307000D50F0F900F900F900F90DF91CF911F9170
:103080000F9108951F93CF93DF93C8E7D4E060E0DA
:103090008DA50E94361580EA0E94781680E00E9475
:1030A0007816182F61E08DA50E943615812FDF91CB
:1030B000CF911F910895789484B5826084BD84B5C2
:1030C000816084BD85B5826085BD85B5816085BD23
:1030D00080916E00816080936E00109281008091DB
:1030E0008100826080938100809181008160809363
:1030F0008100809180008160809380008091B10088
:1031000084608093B1008091B00081608093B000B2
:103110008091910082608093910080919100816004
:1031200080939100809190008160809390008091C5
:10313000A10082608093A1008091A10081608093B2
:10314000A1008091A00081608093A00080917A000E
:10315000846080937A0080917A00826080937A0004
:1031600080917A00816080937A0080917A008068F3
:1031700080937A001092C1003E9A61E080E00E9444
:10318000651561E081E00E9465150E94221668388D
:10319000734181059105E8F460E080E00E943615F6
:1031A00060E081E00E94361564E670E080E090E027
:1031B0000E94E81561E080E00E94361561E081E040
:1031C0000E94361564EF71E080E090E00E94E815FF
:1031D000DCCF61E080E00E94361561E081E00E9472
:1031E00036153E98469AC8E0D1E060E1A62E61E02F
:1031F000B62E71E4E72E73E0F72EE0E18E2EE1E0CB
:103200009E2E61E089910E946515F50111915F0183
:1032100060E0812F0E946515812F0E94A115812FEA
:103220000E94A115F701819391937F018C169D0651
:1032300041F7AEEDB4E0FD01119224E0E63EF20765
:10324000D9F7E8E6F1E081918D9331E0EF36F307AD
:10325000D1F788E58093E7048DE08093E60482E06F
:103260008093E90481E08093EA048091E80483601C
:103270008093E80486EC90E0A0E0B0E08093F20454
:103280009093F304A093F404B093F504D1E036993D
:103290001CC00E9422164B015C01C1E00E94221654
:1032A000DC01CB0188199909AA09BB09883E934022
:1032B000A105B10510F00C940024CC2341F3C6B154
:1032C000C6FBCC27C0F9CD27E9CF61E080E00E94A2
:1032D000361561E081E00E94361586EE95E0909308
:1032E000C6058093C5058AE08093A50461E00E942D
:1032F000651561E08091A5040E943615C4E1D0E017
:103300004FE0A42E41E0B42E54EFE52E50E0F52E10
:10331000CFB6F89480913803811126C0F5018491CD
:10332000F7012491E82FF0E0EE0FFF1FE252FF4F6C
:10333000A591B4919C91822F892321F461E08AE0C8
:103340000E94361561E08AE00E9465158CB58061A7
:103350008CBD8CB580648CBD61E08DE00E946515EC
:1033600061E08BE00E946515809138038F5F809348
:103370003803CFBE60E08091A5040E94361580EC32
:103380000E94781661E08091A5040E9436156AE0DB
:1033900070E080E090E00E94E81580E80E94FD1651
:1033A000882381F06AE070E080E090E00E94E815F8
:1033B0006EE170E080E090E00E94E815219709F04E
:1033C000A7CF4BC06AE070E080E090E00E94E81573
:1033D00061E08AE20E946D1061EB89E20E946D104B
:1033E00065E088E20E946D106AE070E080E090E0A5
:1033F0000E94E81510E360E0812F0E946D1060E0EC
:1034000080E1810F0E946D1060E080E2810F0E94D8
:103410006D101F5F1E3379F760E080E60E946D102B
:1034200060E080E70E946D1063E08BE20E946D1007
:1034300044E064E680E60E944A1040E060E680E7EF
:103440000E944A1080E00E94FD168111ABCF6AE015
:1034500070E080E090E00E94E8158FEF8093D20545
:1034600062E00E9465158CE10E94A811881F8827E0
:10347000881F80932103882309F478C1E0916903B0
:10348000F0916A0382E08083E0916503F091660326
:103490001082E0916703F091680380E180831092CD
:1034A0007103E0916D03F0916E0386E08083E091FB
:1034B0006B03F0916C03808180618083E0916B03EA
:1034C000F0916C03808188608083E0916B03F091C0
:1034D0006C03808180688083E0916B03F0916C03C2
:1034E00080818F7D8083C5E0D0E068EE73E080E06E
:1034F00090E00E94E81580E791E00E943212219747
:10350000A1F784E891E00E94BE1282E791E00E9458
:10351000321282E090E00E9436138AE794E00E9423
:1035200098088FEB91E00E94EF1688EB91E00E94E3
:10353000581380E090E00E941D0560E170E00E9459
:1035400018138FEA91E00E94581360E170E08091B7
:103550007E040E9418138AEA91E00E945813809119
:103560007F0490918004982789279827909390044E
:1035700080938F040E94B81282EA91E00E9458134F
:1035800060E170E080918E040E94181385E991E05B
:103590000E94581360E170E0809181040E9418132A
:1035A00083E891E00E94581360E170E08091850407
:1035B0000E94181388E791E00E94581360E170E0C0
:1035C000809183040E9418138CE691E00E945813A6
:1035D000C0E080918304C81778F48C2F90E049965E
:1035E0000E941D0560E170E00E9418138AE691E0D8
:1035F0000E945813CF5FEDCF8EE591E00E945813E3
:10360000C0E080918304C81790F4EC2FF0E0EE0F37
:10361000FF1FE25CFB4F60E170E0808191810E94BE
:1036200075128CE591E00E945813CF5FEACF8CE4CD
:1036300091E00E945813C2E0D0E0CE010E941D0527
:1036400060E170E00E9418138AE491E00E94581330
:103650002196C231D10589F789E391E00E94581380
:1036600010E080918604181718F5C12FD0E0CC0F18
:10367000DD1F809189044E01880E911CC4010E94B7
:103680001D0560E170E00E941813809189045E01BD
:10369000A80EB11CC50101960E941D0560E170E0F5
:1036A0000E94181387E391E00E9458131F5FD9CF3F
:1036B0008EE291E00E94EF16C0918704D0918804B9
:1036C00010E080918404181708F050C07E0124E0B7
:1036D000E20EF11CCE010E941D0560E170E00E9427
:1036E000181321968CE291E00E945813CE15DF0545
:1036F00089F78AE291E00E945813A12EB12CAA0CFE
:10370000BB1CE12CF12CF701EA0DFB1DEA50FC4F2C
:1037100060E170E0808191810E94751288E291E001
:103720000E94581332E1E30EF11C48E4E416F10460
:1037300051F782E291E00E94581300E080918504E5
:10374000081770F4CE010E941D0560E170E00E9430
:103750001813219680E291E00E9458130F5FEECF7C
:1037600082E891E00E9420121F5FABCF809121037D
:1037700081110EC01092CA0581E08093CB0561E0F3
:1037800080E00E94651561E08091CB050E9465157F
:10379000F89489E0E0E0F0E0809357003491E3E0B2
:1037A000F0E0809357002491E2E0F0E0809357002E
:1037B0009491E1E0F0E08093570084917894C1E027
:1037C0003F3F09F4C0E02C3509F0CE5FE2E0E90F9D
:1037D000E23020F0CC5F8F3F19F406C08F3F11F02C
:1037E000C85F02C0CC2369F180912103811102C01E
:1037F000C1E014C081ED91E00E9458136AE070E0CE
:103800008C2F0E94181385E891E00E94BE1268EE8A
:1038100073E080E090E00E94E815ECCF8D2D8C27BE
:103820008170D82E682F80E00E9436156D2D81E0C2
:103830000E94361564EF71E080E090E00E94E81588
:10384000EDCF6AE18AE794E00E948F0590E09093C3
:103850001E0380931D0307EE12E0C1E06C2F8AE780
:1038600094E00E948F0590E0F8019383828361E0E9
:103870006C0F8AE794E00E948F0590E0F801958331
:10388000848362E06C0F8AE794E00E948F0590E0E9
:10389000F8019783868380912103811106C0CD5F53
:1038A0000A5F1F4FC931D1F622C087E891E00E941C
:1038B0003212F801828193810E9436138EE991E0E1
:1038C0000E943212F801848195810E94361385EBA3
:1038D00091E00E943212F801868197819C01220FAB
:1038E000331F820F931F44960E943613D8CF0E9435
:1038F000EB0880912103882321F08BEC91E00E945A
:10390000EF1644244394512CFCE32F2E312CC12C70
:10391000D12C7601C3940E94C31560935503709314
:1039200056038093570390935803009151031091CD
:10393000520320915303309154034B015C01801AD0
:10394000910AA20AB30A49EE841643E09406A10440
:10395000B10448F40E94630B8091F1048823A9F11B
:103960000E94EB0832C0609351037093520380931E
:10397000530390935403C0E0D1E00E944218837037
:1039800001F165C78091A6048093B4058091A704D6
:103990008093B5058091A8048093B6058091A90411
:1039A0008093B7054093B2058091A30481117AC733
:1039B0001092B3058091380590913905892B09F44F
:1039C00074C7CF5FC230C9F6C5CF80913703882353
:1039D00009F410C1C091E602D0E08E010E5F1F4FC6
:1039E00007701127FE01E05FFE4F5F0180810E949A
:1039F0000D15982EF50181810E940D15B82E80912C
:103A0000E40290E09C0121503109C217D30721F054
:103A10000297C817D90769F50E94C3154AE00E94AA
:103A2000341281EC91E00E9432128091E60290E023
:103A30006AE070E001960E94751281EC91E00E94AC
:103A400032126AE070E0892D0E9418138FEB91E02A
:103A50000E9432128091E60290E06AE070E00296E5
:103A60000E94751281EC91E00E9432128B2D0E940F
:103A70002613C091E6026C2F892D0E94000B61E095
:103A80006C0F8B2D0E94000B2091E3028C2F90E095
:103A900030E00C2E02C0359527950A94E2F720FFFE
:103AA0000DC02091E30230E0AC014F5F5F4F02C0D8
:103AB000359527954A95E2F720FF43C72091E30209
:103AC00030E00C2E02C0359527950A94E2F720FDD0
:103AD0000DC02091E30230E0AC014F5F5F4F02C0A8
:103AE000359527954A95E2F720FD35C72091E302E9
:103AF00030E00C2E02C0359527950A94E2F720FF9E
:103B000076C02091E30230E0019602C035952795FA
:103B10008A95E2F720FF6BC0C695D0E0CC0FDD1F81
:103B2000C75CDC4F88819981892B09F460C083ECE4
:103B300091E00E9432128091E60290E06AE070E02B
:103B400001960E947512E091E602E695F0E0EE0F14
:103B5000FF1FE75CFC4F80819181019709F007C747
:103B60008AEC91E00E94BE1280ED91E00E94321238
:103B7000E091E602F0E0EE0FFF1FED53FD4F808174
:103B800091810E94B81280EC91E00E9432128091E3
:103B9000C202882309F4EEC683E591E00E94321246
:103BA00089ED91E00E94BE128091E602C82FC69571
:103BB000D0E0CC0FDD1FFE01E75CFC4F208131819E
:103BC0004091C20290E0880F991FFC01213031051D
:103BD00009F0D3C6ED53FD4F6081718181E0411141
:103BE00080E00E94BA11C75CDC4F198218820093F2
:103BF000E602DEC48091350390913603092E000C55
:103C0000AA0BBB0B4091550350915603609157038B
:103C10007091580384179507A607B70708F0C8C422
:103C200080913403C091E602D0E05E01882309F45C
:103C300037C2FFEFAF1ABF0A350127E062227724AF
:103C4000FE01E05FFE4F9080892D0E94A1158C013E
:103C50008091E502823020F4892D0E94A1158C010B
:103C600061E0FE01E85FFE4F80810E943615809181
:103C7000000190910101803E31E09307D8F420913A
:103C80003203CC0FDD1FCE5DDC4F27FF0CC0288137
:103C90003981200F311F39832883019690930101C8
:103CA0008093000107C0888199810817190710F4D3
:103CB000198308838091E40290E0A816B90609F000
:103CC00043C083EE91E00E9432120E94C3154AE085
:103CD0000E94341281EC91E00E9432128091E6023F
:103CE00090E06AE070E001960E94751281EC91E02C
:103CF0000E9432128091E3026AE070E00E94181381
:103D000081EC91E00E9432128091E60290E00196EF
:103D1000FC01EE0FFF1FE80FF91FEE0FFF1FE95127
:103D2000FD4F808191819C01220F331F820F931FD1
:103D30006AE070E044960E94751281EC91E00E9466
:103D40003212C8010E943613A091E6028A2F90E039
:103D50009C012F5F3F4FA901440F551F420F531F76
:103D6000FA01EE0FFF1FE951FD4F20813181220F33
:103D7000331F220F331F880F991FFC01ED52FD4F97
:103D8000201731070CF096C02081318137FF03C026
:103D9000518240827DC1440F551FEA01CD51DD4F54
:103DA000488159812417350709F472C12F5F3F4FAD
:103DB000318320834217530709F06AC1EA2FE69541
:103DC000E695E695F0E0EE0FFF1FE35EFC4F2081E5
:103DD00031810A2E02C0359527950A94E2F7E90150
:103DE000C170DD2720FF1BC02091E30230E00A2EC6
:103DF00002C0359527950A94E2F720FD49C120912C
:103E0000E302B701A6010A2E04C0440F551F661F26
:103E1000771F0A94D2F7422B4093E3021CC02091F3
:103E2000E30230E00A2E02C0359527950A94E2F7A6
:103E300020FF2EC13091E302B701A6010A2E04C073
:103E4000440F551F661F771F0A94D2F74095242F01
:103E500023232093E3022091E30230E002C0359552
:103E60002795AA95E2F73091C202FC01ED53FD4F70
:103E70006081718181E020FF05C0311180E00E94E6
:103E8000BA1104C0311180E00E94ED118091E3026B
:103E900090918304993128F090E09093710480937D
:103EA000700480912103882309F4F2C0CD2B09F41A
:103EB0009EC0A0C020813181121613061CF411820D
:103EC0001082E6C0440F551FEA01CB51DD4F4881F7
:103ED000598166277727621B730B6417750709F4EE
:103EE000D7C0B9016150710971836083B201621B4F
:103EF000730B4617570709F0CBC0EA2FE695E695F6
:103F0000E695F0E0EE0FFF1FE35EFC4F208131816C
:103F10000A2E02C0359527950A94E2F7E901C1708F
:103F2000DD2720FF1DC02091E30230E00A2E02C0F1
:103F3000359527950A94E2F720FFAAC03091E30255
:103F4000B701A6010A2E04C0440F551F661F771F34
:103F50000A94D2F74095242F23232093E3021AC01A
:103F60002091E30230E00A2E02C0359527950A948D
:103F7000E2F720FD8DC02091E302B701A6010A2ED1
:103F800004C0440F551F661F771F0A94D2F7422BB7
:103F90004093E3022091E30230E002C0359527957B
:103FA000AA95E2F73091C202FC01ED53FD4F60810A
:103FB000718181E020FF05C0311180E00E94BA11BB
:103FC00004C0311180E00E94ED118091E3029091D4
:103FD0008304993128F090E09093710480937004E9
:103FE00080912103882309F453C0CD2B19F084E676
:103FF00091E002C080E691E00E94321286EE91E0EC
:104000000E9432128091E60290E06AE070E0019630
:104010000E94751281EC91E00E9432126AE070E019
:10402000C8010E94751280ED91E00E943212E09169
:10403000E602F0E0EE0FFF1FED53FD4F808191810E
:104040000E94B81280EC91E00E9432128091E3024B
:1040500090E00090E60202C0959587950A94E2F7F9
:1040600080FF03C080E691E002C084E691E00E94F8
:1040700032128091C202882319F083E591E002C0D8
:104080008AE591E00E94321289ED91E00E94BE1211
:104090006092E602F301E85FFE4F60E0808186C235
:1040A0007FEFA71AB70A350187E068227724FE015F
:1040B000E05FFE4F9080892D0E94A1158C018091B8
:1040C000E502823020F4892D0E94A1158C01F301B4
:1040D000E85FFE4F908060E0892D0E943615809148
:1040E000000190910101803EE1E09E07B0F4CC0F09
:1040F000DD1FFE01EE5DFC4FCF5BDC4F4881598137
:10410000401B510B20813181240F351F31832083C7
:10411000019690930101809300018091E40290E068
:10412000A816B90609F052C06AE070E0809100015B
:10413000909101010E94751281EC91E00E9432126F
:104140000E94C3154AE00E94341281EC91E00E9463
:1041500032128091E60290E06AE070E001960E94DF
:10416000751281EC91E00E9432128091E3026AE0C4
:1041700070E00E94181381EC91E00E943212E091ED
:10418000E602F0E0EE0FFF1FEF5BFC4F6AE070E02D
:10419000808191810E94751281EC91E00E9432121F
:1041A0006AE070E0C8010E94751281EC91E00E9403
:1041B0003212E091E602F0E0EE0FFF1FEF5BFC4FE2
:1041C00080819181801B910B0E943613B090E60292
:1041D0008B2D90E09C01220F331FF901EF5BFC4F08
:1041E000608171810196AC01440F551F840F951FAA
:1041F000FB01E01BF10BDC01AA0FBB1FA951BD4F56
:104200004D915C91DA01AA0FBB1F4A0F5B1F4C5EF8
:104210005F4F4E175F070CF09BC0061717070CF097
:1042200097C0F901ED52FD4F4081518157FF03C006
:1042300051824082A0C1880F991FDC01AD51BD4F52
:104240008D919C914817590709F495C14F5F5F4FB5
:10425000518340838417950709F08DC1EB2DE695B6
:10426000E695E695F0E0EE0FFF1FE35EFC4F8081E0
:1042700091810B2C02C0959587950A94E2F7EC0189
:10428000C170DD2780FF19C08091E30290E00B2C04
:1042900002C0959587950A94E2F780FD6CC1409124
:1042A000E302D701C6010B2C04C0880F991FAA1F77
:1042B000BB1F0A94D2F7842B19C08091E30290E0CF
:1042C0000B2C02C0959587950A94E2F780FF53C1A5
:1042D0004091E302D701C6010B2C04C0880F991F3F
:1042E000AA1FBB1F0A94D2F7809584238093E30210
:1042F0008091E30290E002C095958795BA94E2F729
:104300009091C202F901ED53FD4F6081718180FFF0
:1043100006C081E0911180E00E94BA1105C081E0E1
:10432000911180E00E94ED118091E302909183044D
:10433000993128F090E090937104809370048091FB
:104340002103882309F417C1CD2B09F49FC0A1C014
:10435000F901ED52FD4F40815181141615061CF4F0
:104360001182108208C1880F991FDC01AB51BD4F2B
:104370008D919C9166277727641B750B68177907C9
:1043800009F4F9C0BA016150710971836083B20107
:10439000641B750B8617970709F0EDC0EB2DE695AA
:1043A000E695E695F0E0EE0FFF1FE35EFC4F80819F
:1043B00091810B2C02C0959587950A94E2F7EC0148
:1043C000C170DD2780FF1AC08091E30290E00B2CC2
:1043D00002C0959587950A94E2F780FFCCC0409182
:1043E000E302D701C6010B2C04C0880F991FAA1F36
:1043F000BB1F0A94D2F78095842318C08091E302F2
:1044000090E00B2C02C0959587950A94E2F780FD09
:10441000B2C04091E302D701C6010B2C04C0880F43
:10442000991FAA1FBB1F0A94D2F7842B8093E30223
:104430008091E30290E002C095958795BA94E2F7E7
:104440009091C202F901ED53FD4F6081718180FFAF
:1044500006C081E0911180E00E94BA1105C081E0A0
:10446000911180E00E94ED118091E302909183040C
:10447000993128F090E090937104809370048091BA
:104480002103882309F477C0CD2B19F084E691E04D
:1044900002C080E691E00E94321286EE91E00E9416
:1044A00032128091E60290E06AE070E001960E948C
:1044B000751281EC91E00E943212E091E602F0E088
:1044C000EE0FFF1FEF5BFC4F6AE070E0808191818F
:1044D0000E94751281EC91E00E9432126AE070E055
:1044E000C8010E94751281EC91E00E943212E091A5
:1044F000E602F0E0EE0FFF1FEF5BFC4F8081918141
:104500006AE070E0801B910B0E94751280ED91E0D3
:104510000E943212E091E602F0E0EE0FFF1FED5331
:10452000FD4F808191810E94B81280EC91E00E9441
:1045300032128091E30290E00090E60202C095956D
:1045400087950A94E2F780FF03C080E691E002C0FD
:1045500084E691E00E9432128091C202882319F011
:1045600083E591E002C08AE591E00E94321289ED74
:1045700091E00E94BE126092E602F301E05FFE4FFE
:104580001081812F0E94A115E301CC0FDD1FCF5BAD
:10459000DC4F998388838091E502823028F4812F53
:1045A0000E94A1159983888361E0892D0E943615A8
:1045B00080913E0590913F05039759F4369909C0C3
:1045C0000E942216613177428105910510F00E9408
:1045D0000F178091000190910101803E91400CF4F1
:1045E0000CC18FEF9FEF9093010180930001C2E215
:1045F000D3E007EE12E054E0A52EB12C20E030E02D
:1046000069E0962EA201022E02C0440F551F0A94A3
:10461000E2F78091330390E084239523B9016F5F23
:104620007F4F3B014817590709F0D1C090913403DF
:1046300080913203992329F190913703911121C080
:1046400087FF0EC0888199814E96B1010E9476271E
:10465000969EC001979E900D11246AE070E034C0D0
:104660002881398180E094E0821B930B6AE070E03E
:104670000E9476272C5E3F4F260F371F39832883F1
:1046800027C087FF13C0888199814E96B1010E948F
:104690007627ECE0E69FC001E79F900D11246AE0C9
:1046A00070E00E9476276C5E7F4F10C088819981F0
:1046B0004E96B1010E947627F3E1F69FC001F79F65
:1046C000900D112464E170E00E947627798368835D
:1046D000809121038823C9F080EF91E00E9432127B
:1046E0006AE070E0C3010E94751288EF91E00E94B9
:1046F000321281EC91E00E943212888199810E94ED
:10470000B81281EC91E00E9432128881998144971D
:1047100020F424E130E03983288320913403888118
:104720009981222339F09695879596958795998357
:10473000888307C0449763E070E00E9476277983FE
:10474000688388819981892B11F4598248828881F4
:1047500099818F3F910520F06EEF70E07983688337
:104760004881842F9981F8012681378128173907DC
:1047700071F1978386838A2C6FEF6A0D8091ED0427
:10478000861720F08AE794E00E9449058091210372
:104790008823C1F088E092E00E9432126AE070E063
:1047A000C5010E94751281EC91E00E9432126AE00C
:1047B00070E0F801868197810E94751283E192E092
:1047C0000E943212F8016681882D0E940613199208
:1047D000199293010A5F1F4FF3E0AF0EB11C28300E
:1047E000310509F00FCF1092330380912103882304
:1047F00021F081E292E00E94BE120E945F148BC8F9
:10480000CC2311F40C9447198AE794E00E94E00746
:1048100081E08093AC046091E80464606093E804F4
:1048200060938E0485E190E00E941B056091E8048E
:1048300060938E0485E190E00E941B0560E081E0BA
:104840000E94361560E080E00E943615FFCF0E947E
:104850004218C11108C080FFB4C881E60E94C01789
:1048600040E061E007C081FFACC881E70E94C0174B
:1048700040E062E08CE20E944A1040919A04E8E72E
:10488000F4E09F0128573440319680919A0490E0DB
:10489000281739070CF076C882A1DF01A15CBE4F52
:1048A0008C93EFCFD093B30585C861E070E070932F
:1048B0003905609338058091360590913705CC977E
:1048C00024F01092370510923605E2EBF5E0809166
:1048D0003605909137052191DC01A850BB4F129607
:1048E0002C930196909337058093360580913C0573
:1048F00090913D05019690933D0580933C0575E0B0
:10490000E13CF70721F7CD97BCF080913A059091F3
:104910003B050F968C3391052CF490933B058093C7
:104920003A0504C010923B0510923A058CE390E0E2
:1049300090933D0580933C051092390510923805FF
:1049400040C8EC2FE695F0E0EE0FFF1FE75CFC4F50
:1049500051824082B3C8EC2FE695F0E0EE0FFF1FC6
:10496000E75CFC4F22E030E031832083BFC88DEC50
:1049700091E0F8C88AE591E011C9EB53FD4F2CC9CD
:1049800088E794E00C94D8088F929F92AF92BF92E0
:10499000CF92DF92EF92FF920F931F93CF93DF930B
:1049A000CDB7DEB7C654D1090FB6F894DEBF0FBE3F
:1049B000CDBF10925C0310925B0388EE93E0A0E001
:1049C000B0E080935D0390935E03A0935F03B09388
:1049D00060038FE191E090935A038093590385EC33
:1049E00090E0909366038093650384EC90E090934D
:1049F00068038093670380EC90E090936A03809350
:104A0000690381EC90E090936C0380936B0382ECDC
:104A100090E090936E0380936D0386EC90E090930A
:104A2000700380936F0310927203109273031092BD
:104A30007403109275038FE491E09093790480934E
:104A4000780487E491E090937B0480937A0485EB6B
:104A500094E00E9404058FE391E09093DA04809340
:104A6000D904EEEDF4E080E3819344E0E63EF40700
:104A7000D9F787E391E09093F9048093F8041092BA
:104A8000EE041092C40527E1FE013196A5E9B4E0D9
:104A900001900D922A95E1F79A83898321961FAEA2
:104AA0001EAE219723961FAE1EAE239725961FAEEE
:104AB0001EAE259727961FAE1EAE2797DE011396D2
:104AC000EAEFF4E08D91819385E0E633F807D1F7C2
:104AD000109237051092360510923905109238055C
:104AE00010923B0510923A0510923D0510923C053C
:104AF00087E491E09A8389838DE18A8789E08B87B7
:104B000081E08C878D8786E3888B88E390E09F87A0
:104B10008E8781E090E00E94A4279C838B83CE0146
:104B200001960E94C907CE0101960E9498089EE353
:104B3000E92E94E0F92E10E0612FCE0101960E943B
:104B40008F0590E0F701819391937F011F5F1D31E5
:104B500099F7EB849884CC8486EFA82E83E0B82E56
:104B6000D12CF4E0CF0ED11C0E851F85F12C8824AA
:104B70008394198A1A8A1B8A1C8A1B8EEF1410F0E0
:104B80009F1410F48B8E13C0C8010E941D05898BE1
:104B9000C80101960E941D058A8BC80102960E94D9
:104BA0001D058B8BC80103960E941D058C8B3989CE
:104BB000832F90E0F501819391935F012A89822FE1
:104BC00090E0918B808B9B89492F50E053A342A3A7
:104BD0008C89482F50E055AB44ABF3940C0D1D1D50
:104BE000F9E0FF12C6CF4B815C8150937D04409366
:104BF0007C044D8140937E044E8140937F044F811D
:104C00004093800448854093810449854093820401
:104C10004A8540938304E09284044C854093850444
:104C20004D85409386044E855F855093880440935C
:104C3000870448894093890430938A0420938B0425
:104C400090938C0480938D048D8980938E048E893B
:104C50009F899093900480938F04888D8093910412
:104C6000898D809392048A8D809393048B8D809399
:104C70009404CE0101960E94C2088FE391E09A83CA
:104C80008983DE011696CE010E96FD0120E3219365
:104C9000E817F907E1F78B818093DB048C819D8114
:104CA0009093DD048093DC04EEEDF4E08D9181932C
:104CB00044E0E63EF407D1F78E858093E6048F85C5
:104CC0008093E70488898093E80489898093E904C4
:104CD0008A898093EA0489E08093EB048DE18093D4
:104CE000ED0481E08093EC04CE0101960E9404055E
:104CF0008B818093B7048C818093B8048D818093DD
:104D0000B9048E818093BA048F8198859093BC04F6
:104D10008093BB0489859A859093BE048093BD04DB
:104D20008B859C859093C0048093BF048D859E8560
:104D30009093C2048093C1048F8598899093C40492
:104D40008093C30489899A899093C6048093C5048B
:104D50008B898093C704DE015496E8ECF4E08D91D2
:104D6000819384E0E03DF807D1F78C8D8093D004E7
:104D70008D8D8093D1048E8D8093D2048F8D8093FE
:104D8000D30488A18093D40489A19AA19093D604D6
:104D90008093D5048BA18093D7048CA18093D804F1
:104DA0008091EE0481608093EE041092EF040FEF87
:104DB0000093CA050093CB0511E01093CC05109227
:104DC000CD050E9422166093CE057093CF05809387
:104DD000D0059093D1051092C6051092C50510928A
:104DE000D5051092D4051092F0041093F1040093AD
:104DF000D2051093D3058CE291E0A0E0B0E080935F
:104E0000F2049093F304A093F404B093F5048AE7BA
:104E100094E00E94980880917F04909180049827E4
:104E2000892798279093900480938F049093DD04B2
:104E30008093DC0480917E048093DB0480918E0457
:104E40008093E8041093AC0483E090E090933F05D6
:104E500080933E05CA5BDF4F0FB6F894DEBF0FBEEE
:104E6000CDBFDF91CF911F910F91FF90EF90DF9019
:104E7000CF90BF90AF909F908F900895F999FECFFB
:104E800092BD81BDF89A992780B50895262FF9998A
:104E9000FECF1FBA92BD81BD20BD0FB6F894FA9A1D
:104EA000F99A0FBE01960895A1E21A2EAA1BBB1B08
:104EB000FD010DC0AA1FBB1FEE1FFF1FA217B307E6
:104EC000E407F50720F0A21BB30BE40BF50B661FFC
:104ED000771F881F991F1A9469F7609570958095C0
:104EE00090959B01AC01BD01CF010895AA1BBB1B8E
:104EF00051E107C0AA1FBB1FA617B70710F0A61BDA
:104F0000B70B881F991F5A95A9F780959095BC01FA
:104F1000CD01089597FB072E16F4009407D077FD76
:104F200009D00E94762707FC05D03EF49095819524
:104F30009F4F0895709561957F4F0895EE0FFF1F65
:104F40000590F491E02D09940F931F93CF93DF9375
:104F50008230910510F482E090E0E091E505F09157
:104F6000E60520E030E0A0E0B0E0309719F14081A4
:104F700051810281138148175907C8F0841795079A
:104F800069F4109731F012960C93129713961C93B4
:104F900027C00093E5051093E60522C021153105D1
:104FA00019F04217530718F49A01BD01EF01DF0110
:104FB000F801DBCF21153105F9F0281B390B24301E
:104FC000310580F48A819B816115710521F0FB0117
:104FD0009383828304C09093E6058093E505FE01E8
:104FE000329644C0FE01E20FF31F81939193225049
:104FF0003109398328833AC02091E3053091E405D3
:10500000232B41F420910401309105013093E405F4
:105010002093E30520910201309103012115310510
:1050200041F42DB73EB74091060150910701241B72
:10503000350BE091E305F091E405E217F307A0F4E6
:105040002E1B3F0B2817390778F0AC014E5F5F4FDE
:105050002417350748F04E0F5F1F5093E405409327
:10506000E3058193919302C0E0E0F0E0CF01DF918E
:10507000CF911F910F910895CF93DF93009709F47B
:1050800081C0FC01329713821282A091E505B09194
:10509000E605109781F420813181820F931F2091C2
:1050A000E3053091E4052817390751F5F093E4053D
:1050B000E093E30567C0ED0120E030E0CE17DF07A5
:1050C00040F44A815B819E0141155105F1F0EA01EE
:1050D000F5CFD383C28340815181840F951FC817B8
:1050E000D90759F488819981840F951F029691837D
:1050F00080838A819B81938382832115310529F4E2
:10510000F093E605E093E5053DC0E901FB83EA8302
:1051100049915991C40FD51FEC17FD0761F48081A7
:105120009181840F951F0296E9019983888382817A
:1051300093819B838A83E0E0F0E012968D919C91AD
:105140001397009719F0FD01DC01F7CF8D919C9129
:1051500011979D012E5F3F4F820F931F2091E30512
:105160003091E4052817390769F4309729F4109233
:10517000E6051092E50502C013821282B093E405A1
:10518000A093E305DF91CF91089581E090E0F8943A
:105190000C94CA2811E0C2E3D1E004C0FE010E94D1
:0E51A0009E272196C333D107C9F7F894FFCF9D
:1051AE00FFFF0000E705800002030405060708095B
:1051BE001A19131211100F0E30405000000000F695
:1051CE00137313BF139D13B1133D1400000000039E
:1051DE0005BE0400000000EA08C204000000001A28
:1051EE0005C00400000000C208CE0800000000D870
:1051FE0008E0082073686F727400206C6F6E670091
:10520E0045696E0041757300415244555F49520025
:10521E002A004172647549522056657273696F6E29
:10522E0020000D0A00210045696E736368616C747D
:10523E007665727A6F65676572756E672000417567
:10524E0073736368616C747665727A6F6567657285
:10525E00756E67200053636877656C6C652000205F
:10526E0020200053656E736F72002D3E003C2D00A2
:10527E0020204576656E74200020676573656E6428
:10528E00657400415A002053656E736F723A2000A8
:10529E0053656E736F7220002053636877656C6C74
:1052AE00656E776572742000205661726961626C5A
:1052BE006520002067657370656963686572742088
:1052CE000066657274696700557365725F46756E28
:1052DE006374696F6E3A20004576656E744D617425
:1052EE00636820004576656E745661723A20004FF1
:1052FE0050433A2000204E6F64653A2000204361EF
:10530E006E49443A2000204D657373616765536999
:10531E007A653A20002053746174653A2000414446
:10532E00430045696E6D657373656E206265656ECB
:10533E00646574004B65696E65204B616C696272C1
:10534E006174696F6E206E6F657469670045696E72
:10535E006D657373656E20676573746172746574C1
:02536E0000003D
:00000001FF
