:100000000C941E050C9446050C9446050C9446056C
:100010000C9446050C9446050C9446050C94460534
:100020000C9446050C9446050C9446050C94460524
:100030000C9446050C9446050C9446050C94460514
:100040000C94800D0C9446050C94370C0C94110CF8
:100050000C9446050C9446050C9446050C944605F4
:100060000C9446050C9446050308060809080C087C
:100070000F081208150818080020007072696E74C5
:1000800052656365697665644D6573736167652D57
:10009000206D657373616765207265636569766558
:1000A000643A20004572726F722045564C524E4998
:1000B0002032004572726F722045564C524E4900F4
:1000C0004C6561726E696E67206576656E7420623C
:1000D0007920696E6465782E004572726F722045D2
:1000E000564C524E49205661726961626C650045FA
:1000F00072726F722045564C524E49004C656172C7
:100100006E696E67206576656E7420627920696E0F
:100110006465782E20526F637261696C204D6F6444
:10012000652E0052454345495645442052455145A8
:10013000562E20496E64657820696E76616C69641C
:10014000005245434549564544204F50435F524570
:100150005145562073656E64696E67204F50435F4A
:100160004556414E530052656164696E672045767D
:10017000656E74205661726961626C652E20526FE3
:10018000637261696C204D6F64652E002076616C2E
:1001900075653A0020766172696E6465783A00652B
:1001A00076696E6465783A00524543454956454440
:1001B000204F50435F524556414C2073656E646931
:1001C0006E67204F50435F4E4556414C20004765B7
:1001D00074206576656E74207661722E496E646552
:1001E0007820696E76616C696400524543454956D2
:1001F0004544204F50435F524556414C2E20496E96
:1002000064657820746F6F20626967004C65617265
:100210006E696E67206E6F646520766172696162D7
:100220006C65004572726F7220556E6C6561726EFE
:10023000205661726961626C65004572726F72204E
:10024000556E6C6561726E00556E6C6561726E20E4
:100250006576656E742E20526F637261696C204DF5
:100260006F64652E005245434549564544204F5022
:10027000435F43414E49442073656E64696E672055
:100280004F50435F4E4E41434B0052454345495604
:100290004544204F50435F52514E504E2073656E7F
:1002A00064696E67204F50435F504152414E005287
:1002B00045434549564544204F50435F4E454E52B5
:1002C000442073656E64696E67204F50435F454EEE
:1002D000525350005245434549564544204F5043E0
:1002E0005F4E454E52442E20496E64657820696EFB
:1002F00076616C6964005245434549564544204F38
:1003000050435F4E5652442073656E64696E672099
:100310004F50435F4E56414E530052454345495658
:100320004544204F50435F4E5652442E20496E6440
:10033000657820696E76616C696400446F696E67E8
:100340002073656C6620656E6E756D65726174698B
:100350006F6E005245434549564544204F50435F18
:10036000525145564E2073656E64696E67204F503A
:10037000435F4E554D455620004641494C4544206B
:10038000746F2073656E642043414E00476574208E
:100390006576656E742E496E64657820696E766147
:1003A0006C6964005245434549564544204F5043CB
:1003B0005F4E4552442073656E64696E67204F50EE
:1003C000435F454E525350200052454345495645E0
:1003D00044204F50435F4E4E45564E2073656E6429
:1003E000696E67204F50435F45564E4C4600436C44
:1003F00065617220616C6C206576656E74732E0089
:10040000676F696E6720746F204E4F524D414C20CC
:100410004D4F44452E00676F696E6720746F204C06
:100420004541524E204D4F44452E005245434549CB
:10043000564544204F50435F534E4E20616E64201A
:100440006E6F7420696E207365747570206D6F64B3
:10045000652E005245434549564544204F50435F61
:10046000534E4E2073656E64696E67204F50435F34
:100470004E4E41434B005245434549564544204F5B
:1004800050435F52514E4E20616E64206E6F742057
:10049000696E207365747570206D6F64652E0052EF
:1004A00045434549564544204F50435F52514E4EB7
:1004B0002073656E64696E67204F50435F4E414DF7
:1004C00045005245434549564544204F50435F52ED
:1004D000514E502073656E64696E67204F50435FC4
:1004E000504152414D5300524543454956454420E1
:1004F0004F50435F514E4E2073656E64696E6720A6
:100500004F50435F504E4E0068616E646C65436FA0
:100510006E6669674D657373616765732D207374CB
:100520006174653A0068616E646C65436F6E6669FC
:10053000674D657373616765732D2050726F6365D6
:100540007373696E6720636F6E666967206D65738C
:10055000736167650068616E646C65436F6E6669A0
:10056000674D657373616765732D206E6F742069C5
:100570006E207365747570206D6F64652E206C65D8
:100580006176696E670068616E646C65436F6E6664
:1005900069674D657373616765732D204E4E2064E6
:1005A0006966666572656E742066726F6D206D6532
:1005B0007373616765204E4E0053686F72743A2002
:1005C0004576656E74002020204576656E742000A7
:1005D0004C6F6E673A204E6F64654E6F20007772E5
:1005E0006974652076617220746F20656570726F22
:1005F0006D0000000000250028002B000000000016
:10060000240027002A0020005641525320002000D9
:10061000200020000A4556454E54533A0020000A57
:10062000444556494345204E554D424552533A00A4
:1006300020000A494E5445524E414C2056415253D7
:100640003A0020000A4E4F444520564152533A008A
:1006500020000A4E4F444520564152533A000A4E5C
:10066000554D20564152533A000A4E554D2045569D
:10067000454E545320564152533A000A4E554D2090
:100680004556454E54533A000A466C6167733A002A
:100690000A4E4E3A000A43414E5F49443A004944EB
:1006A000454E543A004D454D4F52592044554D50FA
:1006B0000053746172740050726F7A6573736F7255
:1006C0006665686C657220007265616443616E42A4
:1006D0007573202D2073657452544D0072656164EA
:1006E00043616E427573202D20756E73657452548C
:1006F0004D007265616443616E427573202D2073F5
:10070000657452544D007265616443616E42757345
:10071000202D20756E73657452544D004572726FB2
:1007200072206C656172206576656E740053617627
:10073000696E67206576656E7420766172207265D9
:10074000737020006D6178206576656E7473207615
:100750006172733A20006D6178206576656E7473FE
:100760003A2000206F66206576656E742000207642
:10077000616C75652000536176696E6720657665EA
:100780006E742076617220004C6561726E696E67CE
:10079000206576656E742E0053656C6620656E6EFE
:1007A000756D65726174696F6E3A20736176696EFA
:1007B00067206F74686572732063616E2069642EB0
:1007C000006F74686572206D73672073697A653A8B
:1007D000005374617274696E67206D65737361672D
:1007E000652062617365642073656C6620656E6E5A
:1007F000756D65726174696F6E2E00525452206D72
:100800006573736167652072656365697665642EDB
:100810002053656E64696E672063616E2069643A77
:100820002000525452206D657373616765207265B4
:100830006365697665642E00200009204D61784E5D
:10084000756D4576656E74733A00092053686F7252
:10085000744576656E743A00092053686F7274456A
:1008600076656E743A0009204576656E744E6F3A6F
:100870000009204E6F64654E6F3A0009204C6F6E80
:10088000674576656E743A00092043616E49443AC3
:1008900000092053544154453A0009204F50433A2F
:1008A0000053697A653A004D65737361676520741A
:1008B0007970653A0053656C6620656E6E756D657E
:1008C000726174696F6E3A206E65772063616E2085
:1008D00069642E0053656C6620656E6E756D657279
:1008E0006174696F6E3A206E6F2063616E20696477
:1008F00020617661696C61626C652E004D6F646584
:1009000020464C494D2E204368616E67696E672012
:10091000746F20534C494D004D6F646520534C4912
:100920004D2E204368616E67696E6720746F2046A4
:100930004C494D004D6F646520464C494D2E205268
:10094000657175657374204E4E00427574746F6ED8
:100950002072656C6561736564000000000023000F
:100960002600290004040404040404040202020210
:100970000202030303030303010204081020408062
:1009800001020408102001020408102000000008E1
:100990000002010000030407000000000000000046
:1009A00053746172742074696D6572004275747459
:1009B0006F6E20707265737365640046696E69734B
:1009C00068696E672073656C6620656E6E756D650F
:1009D000726174696F6E2E0050726F636573736914
:1009E0006E672073656C6620656E6E756D657261ED
:1009F00074696F6E2E0053657474696E6720464C7F
:100A0000494D206D6F646500446F696E67207365A2
:100A1000747570000020007072696E7453656E7496
:100A20004D6573736167652D206D657373616765CF
:100A30002073656E743A20004027C21E11241FBE29
:100A4000CFEFD8E0DEBFCDBF12E0A0E0B1E0EEE82E
:100A5000F6E502C005900D92A83AB107D9F725E056
:100A6000A8EAB2E001C01D92A23CB207E1F715E08E
:100A7000CDE1D5E004C02197FE010E94022ACC31CD
:100A8000D107C9F70E94C61E0C943A2B0C940000A3
:100A9000CF92DF92EF92FF920F931F93CF93DF934A
:100AA00000D0CDB7DEB740919C0489E994E049833A
:100AB0000E943A0E2091C0043091C10449818217EE
:100AC000930749F186E895E00E94AE1C82E591E02B
:100AD0000E94E11989E994E00E943A0E0E944B1AA3
:100AE00085E691E00E94E1198091C0049091C104D3
:100AF0000E94DE1C80912205909123050297498176
:100B0000039748F44D3039F080EF840F823018F0AD
:100B100085E595E072C185E295E049830E94AE1CAF
:100B200088E095E00E948D1C80912205909123051C
:100B30000E94631C80919E044981882319F18BE7F0
:100B400090E00E948D1C00E010E0498180919C049F
:100B5000882321F0F801E455FB4F808160E170E0CB
:100B600049830E94791C89E790E00E948D1C0F5FE9
:100B70001F4F49810830110549F788E790E00E942E
:100B8000AE1C49810091C0041091C1044D3509F497
:100B9000B4C108F042C0433509F41DC178F44031B6
:100BA00009F47EC020F44D3009F45CC03CC44131EE
:100BB00009F4A6C0423409F4CEC035C4463509F460
:100BC00032C138F4443509F40DC1453509F418C172
:100BD0002AC4473509F44FC1483509F024C480912F
:100BE000650494E790939104109392040093930406
:100BF0008093940410929504109296041092970496
:100C00001092980483E593E00E948D1C6AE070E0E6
:100C1000809165040E94EE1C49C2453909F449C21D
:100C200078F4423709F4A3C120F4413709F475C1BF
:100C3000FAC3433709F4C9C1453709F411C2F3C3F4
:100C4000423B09F411C338F4463909F46CC24C39FB
:100C500009F4B4C2E8C3423D09F449C3453F09F46D
:100C60003EC3E1C30115110509F4DDC38091CC0435
:100C70009091CB042091CA0436EB309391041093E9
:100C8000920400939304209394049093950480938A
:100C90009604109297041092980487EE94E0DBC0BB
:100CA0008091220590912305059709F0BCC3E1E9E5
:100CB000F4E088E08E0F11928E13FDCF8091CE0468
:100CC0009091D1042091D0043091CF044091CB0475
:100CD0005091CD046091CA047FEE709391046093AB
:100CE000920450939304409394043093950420937A
:100CF0009604909397048093980482EC94E0ABC0A0
:100D00008091220590912305059711F58091C804E3
:100D10009091C7042091C6043091C5044091C40449
:100D20005091C3046091C20472EE70939104609379
:100D30009204509393044093940430939504209329
:100D4000960490939704809398048FE994E083C06D
:100D500086E794E03CC08091220590912305059799
:100D6000A1F583E594E00E94AE1C89E994E00E941D
:100D70003A0E9093C1048093C0040E94E01D8091BC
:100D8000C0049091C10422E52093910490939204B1
:100D900080939304109294041092950410929604F8
:100DA000109297041092980483E090E090932305AA
:100DB000809322050E94CC1C6091CC046093720445
:100DC00085E190E00E94650E4AC08BE294E00E94AB
:100DD000AE1C83E081C2109223051092220586E1A9
:100DE00094E00BC083E090E090932305809322056C
:100DF00081E08093D50480E094E00E94AE1C13C390
:100E00008091220590912305892B09F00CC38EEE69
:100E100093E00E94AE1C60E087E190E00E94650EC6
:100E20001092650400C38091CF0490916504891BE2
:100E300090E790939104109392040093930480930D
:100E400094041092950410929604109297041092B4
:100E5000980489EC93E00E94AE1C0E941F1D0F9025
:100E60000F90DF91CF911F910F91FF90EF90DF9046
:100E7000CF900C94BE1BD090650484EA93E00E944E
:100E80008D1C6AE070E08D2D0E94EE1CDD2009F4BF
:100E9000CAC2F12EC12C82EFE82ECD1409F4C3C2D0
:100EA0008C2D0E949719FC0180917804882319F0F9
:100EB0008CE893E09DC28381928121813081E09210
:100EC0009104F0929204009393043093940420933D
:100ED00095049093960480939704C09298040E947E
:100EE000BE1B882321F089E793E00E94AE1C0E947C
:100EF000D1190E941F1DC394D0CF89E994E00E94AC
:100F00003A0E8017910709F08EC28BE393E00E949E
:100F1000AE1C81E00E949D1D86C280919C04813799
:100F200019F08659823018F4F090AF0401C0F12C0A
:100F30008FEF8F0D0E94EB1B90917804992319F08D
:100F40008AE193E055C297E990939104109392043B
:100F500000939304F0929404809395041092960465
:100F6000109297041092980486EF92E09DC0E1E9F8
:100F7000F4E088E08E0F11928E13FDCF0E945A1D6F
:100F8000F82E8FEF8F0D0E949719FC019091780435
:100F9000992319F084ED92E09CC183819281218193
:100FA000308142EF40939104109392040093930494
:100FB000309394042093950490939604809397041F
:100FC000F09298048FEA92E06FC080919C0483377E
:100FD00021F42091AF0421110BC08BE9809391047F
:100FE00010939204009393041092940488E02DC00F
:100FF000822F90E0FC013197E830F105E0F4EC5CE1
:10100000FF4F0C94022A8091CA0416C08091CD042F
:1010100013C08091CB0410C08091CF040DC080918B
:10102000D0040AC08091D10407C08091CE0404C0CE
:101030008091CC0401C080E09BE9909391041093CF
:101040009204009393042093940480939504109247
:10105000960410929704109298048AE892E024C0B3
:1010600060919C0461116091AF046093BF04609330
:10107000620482E190E00E94650E8091C00490912C
:10108000C10422E5209391049093920480939304E9
:101090001092940410929504109296041092970462
:1010A0001092980485E692E00E94AE1C0E941F1DDB
:1010B000B8C188E492E00E94AE1C89E994E00E94E5
:1010C000220E8C0189E994E00E943A0EBC01A8012D
:1010D0008EE594E00E94360F182F6AE070E00E94BF
:1010E000EE1C109228051092290510922A051092E4
:1010F0002B05412F68E275E08EE594E00E94BD105B
:10110000811719F08AE392E0E4C0682F70E020E0D4
:1011100040E08EE594E00E94690E882309F483C1C3
:1011200083E292E065C190919C048AE6890F913731
:1011300011F0823018F40091AF0401C000E00150BA
:10114000823018F41091B00401C010E08CE092E0FD
:101150000E94AE1C0B3149F41093BF04109362043B
:10116000612F82E190E00E94650E8091D10480178A
:10117000F0F0412F602F8EE594E00E94970E809151
:10118000C0049091C10429E52093910490939204A6
:1011900080939304109294041092950410929604F4
:1011A00010929704109298040E94BE1B03C089E01D
:1011B0000E940D1D81E08093D50435C10E945A1D07
:1011C000082F0E94861DF82E8091D0048F1518F4E8
:1011D0008AEE91E00DC14FEF4F0D6FEF600F8EE57E
:1011E00094E00E94C30E182F90917804992319F06F
:1011F0008EEC91E0FDC08091C0049091C10425EB7C
:101200002093910490939204809393040093940408
:10121000F0929504109396041092970410929804FB
:101220000E94BE1B88EA91E00E948D1C8FE991E02C
:101230000E948D1C6AE070E0802F0E94791C84E976
:1012400091E00E948D1C6AE070E08F2D0E94791C55
:101250008CE891E00E948D1C6AE070E0812F0E9472
:10126000EE1C0E941F1DDFC0809122059091230576
:10127000892BD9F586E691E00E94AE1C0E94861D5E
:10128000182F0E9497197C0140E0612F8EE594E0B1
:101290000E94C30E90917804911119C0F7019381B7
:1012A00022813181408153ED509391044093920407
:1012B0003093930420939404909395041093960490
:1012C000809397041092980481E491E0EDCE83E23C
:1012D00091E00E94AE1C86E00E940D1DA4C080918A
:1012E000220590912305892BE1F182E0F5CF8CEF67
:1012F00090E00E94AE1C89E994E00E94220EE82E44
:10130000192F89E994E00E943A0E082F9A830E94CF
:10131000861DF82E0E94711D282F9A819093280512
:101320000093290510932A05E0922B054F2D68E2C2
:1013300075E08EE594E029830E94BD1029818F1508
:1013400019F08FEE90E0C5CF682F70E040E08EE599
:1013500094E00E94690E882309F44EC089ED90E064
:1013600047C080EC90E00E94AE1C89E994E00E94A6
:10137000220ED82E092F89E994E00E943A0EF82E09
:101380009A830E94861DE82E0E94711D89830E9407
:101390005A1D182F9A8190932805F09229050093E1
:1013A0002A05D0922B054FEF480F68E275E08EE5D5
:1013B00094E00E94BD10682F70E0412F50E0415032
:1013C000510929816417750719F083EB90E081CFEB
:1013D0004FEF4E0D8EE594E00E94690E90E02E2DA9
:1013E00030E0215031098217930731F084EA90E010
:1013F0000E94AE1C8AE070CF8091C0049091C1041D
:1014000029E5209391049093920480939304109281
:1014100094041092950410929604109297041092DE
:1014200098040E94BE1B80E00F900F90DF91CF9137
:101430001F910F91FF90EF90DF90CF900895CF9282
:10144000DF92EF92FF920F931F93CF93DF936C0184
:101450007A018B01C0E0D0E0CE15DF0589F0D8011C
:101460006D918D01D601ED91FC910190F081E02DFF
:10147000C6010995892B11F47E0102C02196ECCF9B
:10148000C701DF91CF911F910F91FF90EF90DF90F7
:10149000CF900895089580E090E00895FC01538D69
:1014A000448D252F30E0842F90E0821B930B54173E
:1014B00010F0CF96089501970895FC01918D828DCB
:1014C000981761F0828DDF01A80FB11D5D968C9198
:1014D000928D9F5F9F73928F90E008958FEF9FEFA3
:1014E0000895FC01918D828D981731F0828DE80F5F
:1014F000F11D858D90E008958FEF9FEF0895FC0119
:10150000918D228D892F90E0805C9F4F821B9109E5
:101510008F73992708958DE393E00E947F0A21E05D
:10152000892B09F420E0822F0895FC01848DDF01CE
:10153000A80FB11DA35ABF4F2C91848D90E0019646
:101540008F739927848FA689B7892C93A089B18935
:101550008C9180648C93938D848D981306C002883F
:10156000F389E02D80818F7D80830895EF92FF9233
:101570000F931F93CF93DF93EC0181E0888F9B8DB6
:101580008C8D981305C0E889F989808185FD24C078
:10159000F62E0B8D10E00F5F1F4F0F731127E02EFB
:1015A0008C8DE8120CC00FB607FCFACFE889F989D8
:1015B000808185FFF5CFCE010E94950AF1CF8B8DFA
:1015C000FE01E80FF11DE35AFF4FF0820B8FEA890D
:1015D000FB898081806207C0EE89FF896083E8898A
:1015E000F98980818064808381E090E0DF91CF91F0
:1015F0001F910F91FF90EF900895CF93DF93EC012F
:10160000888D8823C9F0EA89FB89808185FD05C022
:10161000A889B9898C9186FD0FC00FB607FCF5CF5C
:10162000808185FFF2CFA889B9898C9185FFEDCFA4
:10163000CE010E94950AE7CFDF91CF91089580E017
:1016400090E0892B29F00E948B0A81110C940000F4
:1016500008954230510509F45EC044F44115510526
:1016600081F04130510509F470C0B7C044305105D4
:1016700009F4A1C00CF487C04530510509F4A2C09B
:10168000ACC0623409F4ACC080EB860F8B3008F438
:10169000A7C084EA860F823008F4A2C081E9860FD1
:1016A000873008F49DC080E7860F8F3008F498C01B
:1016B00080E5860F873008F493C088E4860F823077
:1016C00008F48EC083E4860F823008F489C080E37A
:1016D000860F863008F484C088E2860F823008F4D2
:1016E0007FC083E2860F823008F47AC0633E09F43B
:1016F00077C080E1860F823008F472C08DE0860FDB
:10170000873008F46DC081E06D3F09F468C06E3F1A
:1017100009F063C067C0862F8F7B8059863008F43C
:101720005FC080E5860F853008F45AC080E1860FDF
:10173000823008F455C08DE0860F823008F450C026
:1017400081E0653F09F049C04DC06B3509F448C0E0
:1017500088E6860F833008F443C0862F8F7D8D592D
:101760008230F0F188E4860F8230D0F188E2860F73
:101770008230B0F183E2860F823090F188E0860FEC
:10178000843008F62DC08FED860F833048F18CEB46
:10179000860F873028F16C3419F1603609F1603812
:1017A000F9F08EE7860F8430D8F0623AC9F081E014
:1017B000613E99F417C0603499F0613689F0613C5C
:1017C000B1F70EC0603861F08EE7860F843040F0CC
:1017D00081E0623A39F0613C29F080E00895089593
:1017E00081E0089508950E94352B0C949D2A0C9455
:1017F0009D2A0C949D2A26E331E0FC01318320834D
:1018000082819381009711F00C949D2A0895CF93C3
:10181000DF93EC010E94FB0BCE01DF91CF910C9482
:101820009D2A1F920F920FB60F9211242F933F9370
:101830004F935F936F937F938F939F93AF93BF93D8
:10184000EF93FF938DE393E00E94950AFF91EF9150
:10185000BF91AF919F918F917F916F915F914F91C8
:101860003F912F910F900FBE0F901F9018951F92D0
:101870000F920FB60F9211242F938F939F93EF9394
:10188000FF93E0914D03F0914E038081E09153036B
:10189000F091540382FD12C09081809156038F5FB6
:1018A0008F7320915703821751F0E0915603F0E0B7
:1018B000E35CFC4F958F8093560301C08081FF91BC
:1018C000EF919F918F912F910F900FBE0F901F90CE
:1018D0001895833081F028F4813099F08230A1F09E
:1018E00008958730A9F08830B9F08430D1F4809120
:1018F00080008F7D03C0809180008F77809380006F
:10190000089584B58F7702C084B58F7D84BD089516
:101910008091B0008F7703C08091B0008F7D80935D
:10192000B00008951F93CF93DF93282F30E0F90183
:10193000E457F64F8491F901E858F64FD491F90134
:10194000EC59F64FC491CC23C9F0162F81110E9497
:10195000690CEC2FF0E0EE0FFF1FEE50FA4FA5914F
:10196000B4918FB7F894111105C09C91ED2FE095BB
:10197000E92302C0EC91ED2BEC938FBFDF91CF9167
:101980001F910895CF93DF9390E0FC01E858F64F44
:101990002491FC01EC59F64F8491882361F190E089
:1019A000880F991FFC01E450FA4FC591D491FC01B6
:1019B000EE50FA4FA591B491611109C09FB7F89408
:1019C0008881209582238883EC912E230BC062307E
:1019D00061F49FB7F8943881822F809583238883A0
:1019E000EC912E2B2C939FBF06C08FB7F894E88103
:1019F0002E2B28838FBFDF91CF9108958E3008F072
:101A00008E508770806480937C0080917A0080641F
:101A100080937A0080917A0086FDFCCF80917800D7
:101A20002091790090E0922B08953FB7F89480912F
:101A3000AD029091AE02A091AF02B091B00226B576
:101A4000A89B05C02F3F19F00196A11DB11D3FBFF6
:101A5000BA2FA92F982F8827820F911DA11DB11D84
:101A6000BC01CD0142E0660F771F881F991F4A9580
:101A7000D1F708958F929F92AF92BF92CF92DF924B
:101A8000EF92FF926B017C010E94150D4B015C01EE
:101A9000C114D104E104F104F1F00E94150DDC0140
:101AA000CB0188199909AA09BB09883E9340A10571
:101AB000B10570F321E0C21AD108E108F10888EEFF
:101AC000880E83E0981EA11CB11CC114D104E1044E
:101AD000F10419F7DDCFFF90EF90DF90CF90BF902A
:101AE000AF909F908F9008952FB7F8946091A902BE
:101AF0007091AA028091AB029091AC022FBF089521
:101B00001F920F920FB60F9211242F933F938F9332
:101B10009F93AF93BF938091A9029091AA02A09145
:101B2000AB02B091AC023091A80223E0230F2D3715
:101B300020F40196A11DB11D05C026E8230F0296D1
:101B4000A11DB11D2093A8028093A9029093AA021F
:101B5000A093AB02B093AC028091AD029091AE0223
:101B6000A091AF02B091B0020196A11DB11D80936A
:101B7000AD029093AE02A093AF02B093B002BF91BA
:101B8000AF919F918F913F912F910F900FBE0F902A
:101B90001F9018958EBD00000DB407FEFDCF8EB5C9
:101BA0000895FC019381892F8F7D8059823058F0F0
:101BB00080E3890F823038F081E0903F31F0913F2F
:101BC00021F080E0089581E008950895FC0193815B
:101BD000892F8F7D8859823058F088E2890F8230B2
:101BE00038F081E0983F31F0993F21F080E008958E
:101BF00081E0089508951F93CF93DF93EC011B813B
:101C000041E050E0612F0E94290B8823A9F086E073
:101C1000810F823010F01B3531F42C8930E0322FE7
:101C200022278D8905C02E8930E0322F22278F8907
:101C3000A901482BCA0102C080E090E0DF91CF915A
:101C40001F910895CF93DF93EC0142E050E06B8148
:101C50000E94290B882349F02E8930E0322F222759
:101C60008F89A901482BCA0102C080E090E0DF9172
:101C7000CF910895CF93DF93EC0140E050E06B8962
:101C80000E94290B882349F02C8930E0322F22272B
:101C90008D89A901482BCA0102C080E090E0DF9144
:101CA000CF910895FC01DC0153964B961D92A81725
:101CB000B907E1F7138E148E158E168E178E11A2AA
:101CC00010A212A20895089508950C94BE290C94B0
:101CD000B6290F931F93CF93FC01DB01878190E01E
:101CE0006817790718F081E0840F1DC093854917A4
:101CF000D0F7622FC42F042F10E00C5F1F4F492F25
:101D000050E04C5F5F4FA49FC001A59F900DB49F12
:101D1000900D112445855685840F951F800F911FC6
:101D20000E94650E8C2FCF911F910F9108950F93F4
:101D30001F93CF93DF931F92CDB7DEB7262FFC0101
:101D400081858617D0F0022F10E0F801EE0FFF1FFB
:101D5000EE5DFB4F842F90E0918380838EED95E0C4
:101D600049830E94AE1C6981C80149960F90DF919A
:101D7000CF911F910F910C94650E0F90DF91CF9131
:101D80001F910F910895FC01128E87816817B0F49E
:101D90002385421798F450E04C5F5F4F30E02C5F92
:101DA0003F4F629FD001639FB00D112485859685BA
:101DB0008A0F9B1F840F951F0C94670E8FEF828FE5
:101DC0000895FC01128E8185681728F4862F90E013
:101DD00049960C94670E8FEF828F0895AF92BF9251
:101DE000CF92DF92EF92FF920F931F93CF93DF93E7
:101DF000EC018F81AAEDB3E0EEEFF3E090E0E62E88
:101E0000F12CC42ED12C30E010E09817F9F06111BC
:101E100002C0442369F0AD90BC901197EA14FB0412
:101E200089F45296AD90BC905397CA14DB0451F4D8
:101E3000A080B1802A153B0529F4A288B3880A1531
:101E40001B0541F09F5F12963296DFCF9A8581E0A5
:101E5000890F01C0892FDF91CF911F910F91FF90C2
:101E6000EF90DF90CF90BF90AF9008950F93252F04
:101E7000042F462F672F0E94EE0E0F910895AF9208
:101E8000BF92CF92DF92EF92FF920F931F93CF9367
:101E9000DF93EC017B01FB01E858FF4F108180913B
:101EA000FF02882309F4E0C08FE791E00E94E11966
:101EB0006AE070E0812F0E94EE1C112309F4D6C065
:101EC0008091FF028823F1F18FE891E00E94E119EF
:101ED0006AE070E0812F0E94EE1C8BE991E00E9485
:101EE000E119CE010E94E60D97012E5F3F4F690177
:101EF000882339F0CE010E94FB0DAC0160E070E058
:101F000009C0CE010E94220E5C01CE010E943A0E51
:101F1000BC01A501C6010E94360FF701ED58FF4F25
:101F20009081891730F440E0682FC6010E94C30EEB
:101F300001C080E06AE070E00E94EE1C86EA92E058
:101F40000E94D519193009F00DC1C2EBD2E0E12C85
:101F5000F12C8091C20290E00E2C02C095958795DD
:101F60000A94E2F79091B1026881798180FF06C0FE
:101F700081E0911180E00E94301C05C081E0911148
:101F800080E00E94FD1B8091FF0287010F5F1F4FC1
:101F9000882309F450C0E091C402E695E695E695E1
:101FA000F0E0EE0FFF1FE550FD4F808191810E2C78
:101FB00002C0959587950A94E2F780FF0BC0809147
:101FC000C20290E002C095958795EA94E2F780FD01
:101FD0000BC00DC08091C20290E002C0959587951C
:101FE000EA94E2F780FD03C086EA91E002C08AEA43
:101FF00091E00E94E1198EEA91E00E94E1196AE005
:1020000070E0C8010E94511A88EB91E00E94E1192A
:10201000888199810E944B1A8091B102811103C07D
:1020200089E791E002C082E791E00E94E11981EC2A
:1020300091E00E94D51962E370E080E090E00E9498
:102040003A0D780122960830110509F082CF80916F
:10205000C20290916704993108F484C090E0909393
:102060005504809354047EC011116CCF8091FF02FF
:10207000882309F477C0CE010E94D10D882389F00E
:1020800080ED95E00E948D1CCE010E943A0E0E94C8
:102090004B1A86EC95E00E948D1CCE010E94220E08
:1020A0000CC0CE010E94E60D882399F089EB95E0E3
:1020B0000E948D1CCE010E94FB0DDF91CF911F91DC
:1020C0000F91FF90EF90DF90CF90BF90AF900C9466
:1020D000DE1C8BEC91E00E94E11960E170E08B81E5
:1020E0000E94791C81ED91E00E94E119CE010E94CD
:1020F0003A0E0E944B1A89ED91E00E94E1198C8DF5
:102100008295869587709B8D40E1949F9001112464
:10211000822B8A836AE070E00E94791C82EE91E053
:102120000E94E1198B8990E025E0959587952A9585
:10213000E1F78C836AE070E00E94791C81EF91E006
:102140000E94E1198091220590912305DF91CF91A2
:102150001F910F91FF90EF90DF90CF90BF90AF90C5
:102160000C94631CDF91CF911F910F91FF90EF9022
:10217000DF90CF90BF90AF900895CF92DF92EF9213
:10218000FF921F93CF93DF93FC011285411718F044
:1021900081E0810F4CC0142FFB01DC01242F30E0C3
:1021A000E901CC0FDD1FC652DC4F808190E099839E
:1021B0008883E901CC0FDD1FC451DC4F818190E0A1
:1021C00099838883E901CC0FDD1FC250DC4F8281E7
:1021D00090E099838883E901CC0FDD1FC05FDB4F5E
:1021E000838190E0998388831B968C911B9790E064
:1021F0000496289F7001299FF00C389FF00C112441
:102200001D968D919C911E97E80EF91E6B0184E03E
:10221000C80ED11CEB01E61AF70AC7018C0F9D1FEF
:1022200069910E94650ECC15DD05B9F7812FDF910C
:10223000CF911F91FF90EF90DF90CF900895FC0118
:1022400080E090E0238530E0821793073CF4A28180
:10225000B381A80FB91F1C920196F4CF82E6848344
:10226000158286EC86831782148A0895EF92FF9276
:102270000F931F93CF93DF9300D000D0CDB7DEB77D
:102280008C010E941F11F8018285878319821A82AE
:102290008EE38B8384EE8C83E12CF12CF801428554
:1022A000842F90E00197E816F906CCF44E2DBE017C
:1022B0006F5F7F4FC8010E94BD108C818F5F8C8340
:1022C000811103C08B818F5F8B8320E040E0B701D9
:1022D000C8010E94690EFFEFEF1AFF0ADFCF1982D3
:1022E0001A8282E18B8387E68C834150BE016F5F47
:1022F0007F4FC8010E94BD10F801628570E06150F7
:10230000710920E040E0C8010E94690E42E060E0EF
:10231000C8010E94970E40E069E1C8010E94970E33
:102320004FEF6AE1C8010E94970EFF24F39444E046
:102330006F2DC8010E94970E61E06F0D44E6C80141
:102340000E94970E62E06F0D4BE4C8010E94970E49
:10235000F3E0FF0E89E1F812EACF42E66BE1C80133
:102360000E94970E40E06CE1C8010E94970E68E55C
:1023700080E090E00E94650EF801648182E190E0C7
:102380000E94650EF801658183E190E00E94650E70
:10239000F801668184E190E00E94650EF80164898D
:1023A00085E190E00E94650EF801678187E190E089
:1023B0000E94650EF801638588E190E00E94650E39
:1023C000C8010E94EE110F900F900F900F90DF91B7
:1023D000CF911F910F91FF90EF900895CF93DF93CE
:1023E000EC010E941F1180E090E00E94670E88358A
:1023F00019F0CE010E94361182E190E00E94670E32
:102400008C8383E190E00E94670E8D8384E190E0ED
:102410000E94670E8E8385E190E00E94670E8C8B90
:1024200087E190E00E94670E8F83DF91CF9108953E
:102430002EE431E0FC0121933193CF010C94FB0B8E
:10244000CF93DF93EC010E941812CE01DF91CF9160
:102450000C949D2A08958F929F92AF92BF92CF9233
:10246000DF92EF92FF920F931F93CF93DF9310921F
:10247000D50480E00E94EB1B869581708093B102A9
:1024800002EB12E07801C0E08C2F0E949719FC014A
:10249000228130E0322F22278381282BF7012193DC
:1024A00031937F01CF5FC83079F7C091FB02D091A3
:1024B000FC026AE18EE594E00E94E10E90E0C8170C
:1024C000D90709F481C0C0E0D0E0C12CD12C76013D
:1024D000C394A090FB02B090FC020C2E02C0B594F5
:1024E000A7940A94E2F76AE18EE594E00E94E10E77
:1024F00090E00C2E02C0959587950A94E2F7A826E5
:10250000B926A0FE45C08091C20290E00C2E02C008
:10251000959587950A94E2F780FD0EC02091C2023E
:10252000D701C6010C2E04C0880F991FAA1FBB1F1C
:102530000A94D2F7822B0FC09091C202B701A60174
:102540000C2E04C0440F551F661F771F0A94D2F744
:102550004095842F89238093C2028091C20290E02B
:102560000C2E02C0959587950A94E2F79091B102DE
:10257000F8016081718180FF06C081E0911180E0E7
:102580000E94301C05C081E0911180E00E94FD1B7B
:1025900021960E5F1F4FC830D10509F09ACF6AE12E
:1025A0008EE594E00E94E10E90E09093FC0280930F
:1025B000FB028091C20290916704993128F090E06B
:1025C0009093550480935404C5ECD2E011E0812C23
:1025D000912C83E0E82EF12CAA24A394B12C612F36
:1025E0008EE594E00E94E10E90E0833091051CF0AE
:1025F0009B838A8302C0FB82EA826401FFEFCF1AC9
:10260000DF0A61E0610F8EE594E00E94E10E90E048
:10261000833091051CF09D838C8302C0FD82EC8287
:1026200062E0610F8EE594E00E94E10E282F30E019
:102630003F832E8381508E3F30F41D5F26961931E3
:1026400039F14601CCCF1092010110920001C50171
:1026500001C0880F8A94EAF790911103892B809327
:102660001103809110032F3F310511F48F7701C0C2
:102670008068809310038AEF91E00E94D519E0E012
:10268000F3E01192119223E0E031F207D1F7D5CFB8
:102690008CE10E94EB1B881F8827881F8093FF0214
:1026A000882331F08CE10E94EB1B8F708093C30272
:1026B000DF91CF911F910F91FF90EF90DF90CF901E
:1026C000BF90AF909F908F9008958F929F92AF92FE
:1026D000BF92CF92DF92EF92FF920F931F93CF930F
:1026E000DF931F92CDB7DEB78091AF058F3F29F4FE
:1026F0008091AE058F3F09F44FC00E94740D009188
:10270000B2051091B3052091B4053091B505DC01F7
:10271000CB01801B910BA20BB30B84369105A10555
:10272000B105D0F180912205909123050597A9F478
:102730008091B105813041F460E08091AF050E9445
:10274000920C1092B1051EC061E08091AF050E940D
:10275000920C81E08093B10515C080919004813086
:1027600039F460E08091AE050E94920C61E006C0F1
:1027700061E08091AE050E94920C60E08091AF050F
:102780000E94920C0E94740D6093B2057093B30581
:102790008093B4059093B5052091B6052F3F09F4B9
:1027A00036C030E0F901E457F64F8491F901E8585A
:1027B000F64F1491F901EC59F64F0491002379F08A
:1027C00081110E94690CE02FF0E0EE0FFF1FE65A26
:1027D000F64FA591B491EC91E12309F08EC48CEAF7
:1027E00099E00E94AE1C8091B705813081F40E946F
:1027F000740D6093240570932505809326059093AE
:1028000027051092B70580EA99E00E94AE1C8091DE
:10281000220590912305049709F096C00E94740D3B
:10282000009124051091250520912605309127055A
:102830006B017C01C01AD10AE20AF30A88ED99E023
:102840000E94AE1C89EEC81683E0D806E104F104AC
:1028500008F47AC08BEB99E00E94AE1C83E090E014
:1028600090932305809322052091A805A9E2B5E065
:1028700081E08217B0F43D919FEF980FE92FF0E0CF
:10288000BF01645A7B4FAB0144535F4FFA01408153
:102890003196341718F440839150F0CF30838F5F16
:1028A000E8CF80E090E030E011E0180F8217930746
:1028B00034F4FC01E85DFA4F4081141718F4143623
:1028C00018F40EC00196F0CF84ED98E00E94AE1C83
:1028D0008091D3048823C1F187E00E940D1D34C08C
:1028E00085EB98E00E948D1C6AE070E0812F0E94C9
:1028F000EE1C10936204612F82E190E00E94650E4D
:102900001093BF048091D3048823F1F08091C00418
:102910009091C10422E520939104909392048093B6
:1029200093041092940410929504109296041092BD
:10293000970410929804612F70E080E090E021E904
:1029400034E043E00E94D41A88248394912C88E8D0
:1029500095E058E0F52EF80EEE24E39469E5D62EC6
:102960001092D40480911C0590911D05892B09F0CB
:1029700089C490921D0580921C058091200590913C
:102980002105181619062CF010921D0510921C0531
:1029900079C480911E0590911F05CC9724F0109268
:1029A0001F0510921E05E2E8F5E0A0911E05B0910A
:1029B0001F05A252BB4F8C91819380911E0590916F
:1029C0001F05019690931F0580931E058091200599
:1029D000909121050197909321058093200525E092
:1029E000E139F20711F710921D0510921C0589E9D3
:1029F00094E00E94520E8091820580939E04809103
:102A000084058093B404809185058093B5048091FA
:102A100086058093B604809187058093B704E8E823
:102A2000F5E08191DF01AD5DB1098C93FE12F9CF24
:102A30008091AC0480939C04843008F4B7C0873044
:102A400009F4B4C0282F2F7B2F3309F4AFC092EACA
:102A5000980F923008F4AAC0982F9F7D9F3909F4EF
:102A6000A5C0863B09F4A2C08F3D09F49FC03CEF8E
:102A7000380F333008F49DC038EF380F333008F486
:102A800098C03FED380F333008F493C0803409F418
:102A900090C03CEB380F373008F48BC08C3409F40D
:102AA00088C0382F3F7740EA430F423008F481C096
:102AB000333609F47EC0903809F47BC03EE7380F06
:102AC000343008F476C0823A09F473C030E4380F29
:102AD000323008F46EC036EA380F323008F46CC079
:102AE00030E7380F353008F467C038E6380F333038
:102AF00008F462C09D59923008F45EC0982F977F09
:102B0000905B923008F458C09DE4920F923008F424
:102B100053C091E3980F933008F44EC09CE2980F95
:102B2000923008F449C098E2980F923008F444C0FB
:102B300093E2980F923008F43FC090E1980F9230E2
:102B4000D8F19AE0980F9630B8F193E0980F93304F
:102B500098F194EF980F923090F190EF980F923097
:102B600070F1823461F190EB980F9A3040F194EA61
:102B7000980F923020F191E9980F973000F19BE681
:102B8000980F9330E0F095E6980F9230C0F0223B1A
:102B9000B1F0253BA1F09EE2980F923080F0823E8A
:102BA00071F08F3E61F080E090E00BC084E090E037
:102BB00008C081E090E005C083E090E002C082E0C0
:102BC00090E09093A00480939F04809183058111ED
:102BD00007C086E097E00E94AE1C1092BB0406C0BE
:102BE00082EF96E00E94AE1CE092BB0480E00E945F
:102BF000EB1B8370082F10E01595079589E994E089
:102C00000E94D10DC82E882321F00115110509F469
:102C100013C389E994E00E94E60D8823C1F089E995
:102C200094E00E94FB0D5C010097B9F0AC0160E0FC
:102C300070E08EE594E00E94360F2091680430E049
:102C4000482F50E0241735070CF40FC336C0CC20B2
:102C5000F1F001301105D9F405C0CC2081F101302B
:102C6000110569F589E994E00E94220E009779F038
:102C7000AC0160E070E08EE594E00E94360F209198
:102C8000680430E0482F50E024173507B4F489E990
:102C900094E00E94FB0D5C01892B89F0A50160E0A6
:102CA00070E08EE594E00E94360F2091680430E0D9
:102CB000482F50E02417350714F08F5F01C080E0E3
:102CC0008093D40487EA98E00E948D1C6AE070E04B
:102CD00080919F049091A0040E94511A81EA98E08B
:102CE0000E948D1C8091AC0490E025E0959587951D
:102CF0002A95E1F780939D046AE070E00E94791CB8
:102D00008AE998E00E948D1C60E170E080919C044B
:102D10000E94791C81E998E00E948D1C6AE070E0B5
:102D200080912205909123050E94511A88E898E02D
:102D30000E948D1C8091B504829586958770909134
:102D4000B40440E1949F90011124822B80939B0452
:102D50006AE070E00E94791C8BE798E00E948D1C6D
:102D600089E994E00E94D10D6AE070E090E00E9451
:102D7000511A81E798E00E948D1C89E994E00E9435
:102D80003A0E0E944B1A86E698E00E948D1C89E953
:102D900094E00E94220E0E944B1A88E598E00E945F
:102DA0008D1C89E994E00E94E60D6AE070E090E0F5
:102DB0000E94511A8AE498E00E948D1C89E994E0EF
:102DC0000E94FB0D0E944B1A8AE398E00E948D1C22
:102DD0008091680490E06AE070E001960E94511AC8
:102DE0008CE992E00E94E11900E010E080919C04DF
:102DF000882321F0F801E455FB4F808160E170E009
:102E00000E94791C88E398E00E948D1C0F5F1F4F81
:102E10000830110559F70E94D1198091BB0488230D
:102E2000F9F082E298E00E948D1C8091C00490919C
:102E3000C104892BA9F08BEF97E00E948D1C60E103
:102E400070E08091BF040E94EE1C6091BF0470E0AE
:102E500080E090E021E934E040E00E94D41A80CD87
:102E600020919C042D35A1F489E994E00E943A0E4A
:102E70002091C0043091C1048217930709F070CDEE
:102E800081ED97E00E94AE1C81E00E949D1D68CDFF
:102E900080912205909123058430910579F581EC8C
:102EA00097E00E948D1C6AE070E080919E040E9471
:102EB000EE1C80919E04811153CD88E997E00E9419
:102EC000AE1C2091A805233608F04ACD8091B504A8
:102ED000382F3295369537709091B404F0E19F9F6A
:102EE000C0011124832B80939B04E22FF0E0E85D66
:102EF000FA4F80832F5F2093A80532CD892B09F0EC
:102F0000BBC0809190048111B7C088E897E00E940F
:102F1000AE1C80919F049091A004029739F4809197
:102F20009C04823D19F0853F09F07FC189E994E056
:102F30000E94220E082F292F89E994E029830E94FC
:102F40003A0E482F692F90932805809329052981EF
:102F500020932A0500932B05C09065041091680406
:102F6000C11610F01F5F0EC08EE594E00E94EE0EB9
:102F7000181738F44C2D68E275E08EE594E00E9455
:102F8000BD10182F8091CF04811710F484E05AC02F
:102F900080919C04823D19F0853F09F056C00E9443
:102FA000861DC82E0E94711D082F86E797E00E949B
:102FB0008D1C6AE070E08C2D0E94791C8EE697E0F3
:102FC0000E948D1C6AE070E0802F0E94791C83E6CD
:102FD00097E00E948D1C6AE070E0812F0E94EE1C39
:102FE00086E597E00E948D1C6AE070E080916504A0
:102FF0000E94EE1C84E497E00E948D1C6AE070E061
:10300000809169040E94EE1C4FEF4C0D612F70E01F
:10301000202F8EE594E00E94690E082F10E08DE2CB
:1030200097E00E948D1CC8010E94DE1C2C2D30E010
:10303000215031090217130741F08CE197E00E94FB
:10304000AE1C86E00E940D1D8BCC8091C004909137
:10305000C104D092910490939204809393041092AF
:103060009404109295041092960410929704109272
:1030700098040E94BE1B74CC80919F049091A00480
:103080008230910541F13CF4019751F5E091AB0597
:10309000F091AC0518C0E091A905F091AA05833024
:1030A000910519F0049731F01BC08091CC0480FD8C
:1030B00017C009C08091CC0480FD12C0273009F0F0
:1030C000B7C00C940000309759F06CE574E089E9C2
:1030D00094E0099505C00E944805882309F440CC76
:1030E000E091A905F091AA05309709F439CC6CE577
:1030F00074E089E994E0099533CC8091B70581119A
:1031000086CB8AE499E00E94AE1C81E08093B705EB
:103110000E94740D0091240510912505209126052B
:10312000309127056B017C01C01AD10AE20AF30A2B
:103130004AE0C701B6010E94E3190E94D119D701E4
:10314000C601895E9340A109B10987389341A10561
:10315000B105D0F42091900480912205909123052F
:10316000213071F4059739F483E090E090932305C2
:10317000809322054CCB84E399E00E94AE1C2BC0C7
:10318000059709F044CBF0CF41E7C41647E1D406D8
:10319000E104F10408F43BCB8091900481111EC03E
:1031A00080912205909123050597F1F288E199E03D
:1031B0000E94AE1C60E08091AE050E94920C80E0FF
:1031C0000E949D1D8091220590912305049719F47A
:1031D0000E946513F7CF0E943C1D19CB8CEF98E03D
:1031E0000E94AE1C109290046091CC046B7F60939F
:1031F000CC046093720485E190E00E94650E80919A
:10320000CC0481FD07C01092C1041092C00480E07C
:1032100090E008C08091D6049091D7049093C104A7
:103220008093C0040E94E01DF2CA0E94480598CB1A
:103230002E3509F446CF47CF89E994E00E94220E4B
:103240005C0189E994E00E943A0EBC01A5018EE57B
:1032500094E00E94360F2091680430E0482F50E03F
:10326000241735070CF4D5CC28CDCC2009F416CD85
:103270000130110509F4F6CC89E994E00E94FB0DB8
:103280005C010CCD80E00F90DF91CF911F910F91E9
:10329000FF90EF90DF90CF90BF90AF909F908F9076
:1032A0000895009769F0FC0101900020E9F731973B
:1032B000AF01481B590BBC018DE393E00C941F0A2E
:1032C00080E090E00895CF92DF92FF920F931F93DA
:1032D000CF93DF931F92CDB7DEB7F82E162F042FB2
:1032E00060E08091890479830E94920C82E00E94C0
:1032F000CA0D8F2D0E94CA0DF12EC12E7981D72EB5
:103300008C2D8F19801730F4F60181916F010E9486
:10331000CA0DF6CF61E0809189040F90DF91CF91C3
:103320001F910F91FF90DF90CF900C94920C109210
:103330006E0410926F041092700410927104109237
:10334000780490916804981720F09091650498177C
:1033500020F481E08093780421C090E0FC01EE0F1E
:10336000FF1FE652FC4F208120936E04FC01EE0FFC
:10337000FF1FE451FC4F208120936F04FC01EE0FEE
:10338000FF1FE250FC4F208120937004880F991F8B
:10339000FC01E05FFB4F8081809371048EE694E036
:1033A000089584EA92E00C945119CF93DF930E9420
:1033B0005119EC010E94D1198C0F9D1FDF91CF9103
:1033C00008950C9451198F929F92AF92BF920F93D0
:1033D0001F93CF93DF93CDB7DEB7A1970FB6F894C5
:1033E000DEBF0FBECDBF19A2423008F44AE08E0105
:1033F0000F5D1F4F842E912CA12CB12CA50194019F
:103400000E94CC29E62FB901CA0101501109EA3006
:1034100014F4E05D01C0E95CD801EC93232B242B6C
:10342000252B61F7C8010E945119A1960FB6F89497
:10343000DEBF0FBECDBFDF91CF911F910F91BF9027
:10344000AF909F908F900895CF92DF92EF92FF926E
:10345000CF93DF936B017C01E0913D03F0913E033C
:103460000190F081E02D6DE28DE393E00995EC0190
:1034700066277727CB016C197D098E099F094AE0E1
:103480000E94E3198C0F9D1FDF91CF91FF90EF9069
:10349000DF90CF900895BC0180E090E04AE00C946A
:1034A000E319AB01672B59F4E0913D03F0913E0322
:1034B0000190F081E02D682F8DE393E00994BC0129
:1034C000990F880B990B4A30510521F497FD0C9404
:1034D000241A4AE00C94E3191F93CF93DF93182F1B
:1034E000CCE5D4E060E08DA50E94920C83E00E94C0
:1034F000CA0D812F0E94CA0D80E00E94CA0D182FAC
:1035000061E08DA50E94920C812FDF91CF911F91D8
:103510000895EF92FF920F931F93CF93DF931F9223
:10352000CDB7DEB7082F162F8CE5E82E84E0F82EF5
:1035300060E0F70185A549830E94920C85E00E9416
:10354000CA0D802F0E94CA0D812F0E94CA0D498189
:10355000842F0E94CA0D61E0F70185A50F90DF91CD
:10356000CF911F910F91FF90EF900C94920C0F93BD
:103570001F93CF93DF93082F162FCCE5D4E060E0A4
:103580008DA50E94920C82E00E94CA0D802F0E949D
:10359000CA0D812F0E94CA0D61E08DA5DF91CF91E8
:1035A0001F910F910C94920C7F928F929F92AF92E9
:1035B000BF92CF92DF92EF92FF920F931F93CF9320
:1035C000DF9300D000D0CDB7DEB7109279046093BE
:1035D0007A0470937B0480937C0490937D0449303B
:1035E00008F048E040937E0410928704AFE7B4E00F
:1035F000F90150E0CF01821B930B841795071CF44F
:1036000081918D93F7CFC12CD12C70E3A72EE0E4EC
:103610009E2EF0E58F2E8E010F5F1F4FA3E07A2EB6
:10362000700EA9829A828B827801F701B1907F0196
:103630008B2D0E946C1A982F987083FD04C0FF2474
:10364000F394FB0C04C07E10F0CFF12C92E0FFEF5E
:10365000CF1ADF0A923029F422E3C216D10409F707
:1036600078C082E3C816D10409F473C040917E0487
:103670006FE774E085E08F0D0E94631980918704E5
:10368000813029F480917E04806480937E0460916F
:103690007E0484E08F0D0E94B71A40917A04509105
:1036A0007B0460917C0470917D0480917904813069
:1036B000B1F44C835B83AB0166277727942F9C7111
:1036C000842F8370E8E09E9F800D112488608A8398
:1036D00065E0569547956A95E1F749830DC0CA01A3
:1036E00023E0969587952A95E1F789834295440FC3
:1036F000407E4A831C821B8244E0B8018F2D0E94C9
:103700006319FA9448E068E08F2D0E94891A00E05E
:1037100010E00F5F1F4F8F2D0E946C1A83FF04C0B3
:1037200002331105B1F717C002331105A1F0109251
:103730007A0410927B0410927C0410927D04109203
:103740007E0410927904109287041092880480E01D
:1037500003C086E001C087E00F900F900F900F909C
:10376000DF91CF911F910F91FF90EF90DF90CF905D
:10377000BF90AF909F908F907F900895CF93DF93ED
:10378000C0919104C295C695C770CF5F81E08093C8
:103790008E0480938F046091BF0470E080E090E01D
:1037A00021E934E04C2F0E94D41A811102C080E03C
:1037B0000FC0D3E06091BF0470E080E090E021E9A9
:1037C00034E04C2F0E94D41A882389F3D15091F70A
:1037D000DF91CF9108951092780490916704891732
:1037E00020F08FEF809378040895E82FF0E0EE0F3B
:1037F000FF1FEE5DFB4F808108951F93CF93DF93F2
:103800008823A1F0EB018BE10E94EB1B182F8BE1C9
:103810000E94EB1B81E98093910410929204109313
:103820009304D0939404C09395040FC08091C00476
:103830009091C10429E9209391049093920480937C
:1038400093047093940460939504109296041092DC
:10385000970410929804DF91CF911F910C94BE1B96
:103860001F93CF93DF938823A1F0EB018BE10E949C
:10387000EB1B182F8BE10E94EB1B80E980939104D6
:103880001092920410939304D0939404C0939504DF
:103890000FC08091C0049091C10428E92093910445
:1038A000909392048093930470939404609395048E
:1038B000109296041092970410929804DF91CF9181
:1038C0001F910C94BE1BCF93DF93BC01990F880B03
:1038D000990B97FF03C00E94241A03C04AE00E947C
:1038E000E319EC010E94D1198C0F9D1FDF91CF913C
:1038F0000895AB01672B59F4E0913D03F0913E032D
:103900000190F081E02D682F8DE393E00994682FFA
:1039100070E080E090E00C94E3190F931F93CF9335
:10392000DF938C01C0E0D0E0F801EC0FFD1F649143
:10393000662371F0E0913D03F0913E030190F08128
:10394000E02D8DE393E00995892B11F02196ECCFC2
:10395000CE01DF91CF911F910F910895CF93DF9307
:103960000E948D1CEC010E94D1198C0F9D1FDF91CC
:10397000CF910895CF93C82F482F60EE8FE00E941B
:10398000891A8FE00E946C1A807E91E08C1301C02E
:1039900090E0892FCF91089586EF99E00E94AE1CA8
:1039A000ECE5F4E081E084ABACECB4E06C916460F5
:1039B0006C93668B85E190E00C94650ECF93DF935A
:1039C000BC0180E090E04AE00E94E319EC010E9413
:1039D000D1198C0F9D1FDF91CF910895CF93DF9365
:1039E000AB01672B61F4E0913D03F0913E03019040
:1039F000F081E02D682F8DE393E0099506C0682FD4
:103A000070E080E090E00E94E319EC010E94D1197F
:103A10008C0F9D1FDF91CF910895ECE5F4E0A0ECB1
:103A2000B4E09C9111962C913FE635AB26AB97AB59
:103A300080AF11AE12AE13AE14AE0C94BE1B1F932A
:103A4000CF93DF9387E19AE00E948D1CC1E9D4E017
:103A50001C2F185F60E170E089910E94791C85E15C
:103A60009AE00E948D1C1C13F5CF84E19AE0DF914F
:103A7000CF911F910C94AE1CECE5F4E085E090E052
:103A80009093230580932205A0ECB4E08C911196CD
:103A90009C9120E525AB96AB87AB10AE11AE12AE74
:103AA00013AE14AE88E09AE00E94AE1C0E941F1D67
:103AB0000C94BE1B80919C04823721F08C3911F04C
:103AC000853B19F48091AF040895853F19F48091E6
:103AD000B1040895823F19F48091B304089580E001
:103AE000089580919C04853B19F48091B104089558
:103AF0009EE2980F923018F48091B2040895853FA9
:103B000019F48091B304089580E0089580919C0495
:103B10008C3911F0853B19F48091B0040895823BF3
:103B200011F0823D19F48091B1040895853F19F494
:103B30008091B204089580E00895CF93DF93CDB7CC
:103B4000DEB728970FB6F894DEBF0FBECDBF109238
:103B5000A8058093D30484E090E09093230580939C
:103B6000220582E080938E0483E080938F0460912D
:103B7000BF0470E080E090E09E012F5F3F4FF901AD
:103B800048E0420F11924E13FDCF41E0409387046D
:103B900040E00E94D41A109287040E94740D609332
:103BA0002405709325058093260590932705289674
:103BB0000FB6F894DEBF0FBECDBFDF91CF91089551
:103BC000CF93DF93CCE5D4E09F838887692F83E18F
:103BD00090E00E94650E688584E190E0DF91CF91CE
:103BE0000C94650EEF92FF920F931F93CF93DF9388
:103BF0001F92CDB7DEB7182FF62EE42E60E080912D
:103C0000890479830E94920C83E00E94CA0D812F5F
:103C10000E94CA0D0F2D7981172FF12CFE1459F037
:103C2000F8E0FF1641F080E00E94CA0DF801819390
:103C30008F01F394F3CF61E0809189040F90DF91BD
:103C4000CF911F910F91FF90EF900C94920C0F93D6
:103C50001F93CF93DF9300D000D0CDB7DEB7182FDE
:103C60001092790410927A0410927B0410927C04D2
:103C700010927D0444E0BE016F5F7F4F0E94F21DF1
:103C80008A819981482F50E065E0559547956A955E
:103C9000E1F728E0929F400D511D1124052E000CE4
:103CA000660B770B40937A0450937B0460937C04FB
:103CB00070937D0483FF29C092E0440F551F661F57
:103CC000771F9A95D1F78370480F511D611D711DA3
:103CD000762F652F542F44278B81480F511D611D6E
:103CE000711D762F652F542F44278C81480F511D4D
:103CF000611D711D40937A0450937B0460937C0492
:103D000070937D0481E0809379048FEF810F0E948E
:103D10006C1A082F84E0810F0E946C1A482F03FF51
:103D200004C081E08093870402C0109287044F7022
:103D300040937E046FE774E085E0810F0E94F21DDE
:103D40000F900F900F900F90DF91CF911F910F91D7
:103D500008951F93CF93DF93CCE5D4E060E08DA569
:103D60000E94920C80EA0E94CA0D80E00E94CA0D57
:103D7000182F61E08DA50E94920C812FDF91CF91C9
:103D80001F9108958CE594E00C941812789484B5F2
:103D9000826084BD84B5816084BD85B5826085BD47
:103DA00085B5816085BD80916E00816080936E00D5
:103DB00010928100809181008260809381008091C7
:103DC0008100816080938100809180008160809378
:103DD00080008091B10084608093B1008091B00038
:103DE00081608093B00080917A00846080937A0033
:103DF00080917A00826080937A0080917A0081605D
:103E000080937A0080917A00806880937A00109283
:103E1000C1003E9A61E080E00E94C20C61E081E056
:103E20000E94C20C0E94740D68387341810591058F
:103E3000E8F460E080E00E94920C60E081E00E9483
:103E4000920C64E670E080E090E00E943A0D61E040
:103E500080E00E94920C61E081E00E94920C64EF8D
:103E600071E080E090E00E943A0DDCCF61E080E0FC
:103E70000E94920C61E081E00E94920C3E98469A6A
:103E8000C0E1D1E098E0A92E91E0B92E23E2E22E24
:103E900023E0F22E61E089910E94C20CF50111919C
:103EA0005F0160E0812F0E94C20C812F0E94FE0CF6
:103EB000812F0E94FE0CF701819391937F01F1E025
:103EC000C831DF0739F7A2ECB4E0FD01119224E01C
:103ED000EA3CF207D9F7EEE0F2E081918D9332E00F
:103EE000E531F307D1F788E58093CB048DE080932B
:103EF000CA0481E08093CD048093CE048091CC04E9
:103F000083608093CC0486EC90E0A0E0B0E08093E6
:103F1000D6049093D704A093D804B093D904D1E0E9
:103F2000369933C00E94740D4B015C01C1E00E94C0
:103F3000740DDC01CB0188199909AA09BB09883ED7
:103F40009340A105B10540F4CC2351F3C6B1C6FBA3
:103F5000CC27C0F9CD27EBCFCC2311F38EE594E02D
:103F60000E9436110E94CC1C6091CC0460937204B4
:103F700085E190E00E94650E60E081E00E94920C75
:103F800060E080E00E94920CFFCF61E080E00E9440
:103F9000920C61E081E00E94920C8FE39FE090938D
:103FA000AA058093A9058AE08093890461E00E94B4
:103FB000C20C61E0809189040E94920CC4E1D0E0BF
:103FC0000EE6A02E09E0B02E82E8E82E89E0F82E59
:103FD000CFB6F89480911203811125C0F501849128
:103FE000F701249190E0880F991F84509A4FFC01AB
:103FF000A591B4918C91282321F461E08AE00E947C
:10400000920C61E08AE00E94C20C8CB580618CBD8C
:104010008CB580648CBD61E08DE00E94C20C61E0D3
:104020008BE00E94C20C809112038F5F8093120379
:10403000CFBE60E0809189040E94920C80EC0E94C7
:10404000CA0D61E0809189040E94920C6AE070E0E0
:1040500080E090E00E943A0D80E80E94BA1C88231C
:1040600081F06AE070E080E090E00E943A0D6EE13D
:1040700070E080E090E00E943A0D219709F0A8CF0F
:104080004BC06AE070E080E090E00E943A0D61E091
:104090008AE20E94B71A61EB89E20E94B71A65E0D2
:1040A00088E20E94B71A6AE070E080E090E00E9427
:1040B0003A0D10E360E0812F0E94B71A60E080E1C2
:1040C000810F0E94B71A60E080E2810F0E94B71A48
:1040D0001F5F1E3379F760E080E60E94B71A60E048
:1040E00080E70E94B71A63E08BE20E94B71A44E0AF
:1040F00064E680E60E94891A40E060E680E70E945C
:10410000891A80E00E94BA1C8111ABCF6AE070E08E
:1041100080E090E00E943A0D8FEF8093B60562E058
:104120000E94C20C8CE10E94EB1B881F8827881F0D
:104130008093FF02811113C08091FF02811184C11D
:104140001092AE0581E08093AF0561E080E00E94AF
:10415000C20C61E08091AF050E94C20C75C1E09174
:104160004D03F0914E0382E08083E0914903F0918A
:104170004A031082E0914B03F0914C0380E180836D
:1041800010925503E0915103F091520386E0808331
:10419000E0914F03F0915003808180618083E09132
:1041A0004F03F0915003808188608083E0914F033A
:1041B000F0915003808180688083E0914F03F091FB
:1041C000500380818F7D8083C5E0D0E068EE73E08E
:1041D00080E090E00E943A0D86E192E00E94E119B1
:1041E0002197A1F786EA92E00E94D51988E192E032
:1041F0000E94E11981E090E00E94631C8EE594E04A
:104200000E94EE1185EA96E00E94AE1C8EE996E0CF
:104210000E948D1C80E090E00E94670E60E170E0DB
:104220000E94791C85E996E00E948D1C60E170E097
:10423000809162040E94791C80E996E00E948D1CA6
:104240008091630490E0982F882720916404822B4A
:1042500090937404809373040E944B1A88E896E04C
:104260000E948D1C60E170E0809172040E94791CB4
:104270008BE796E00E948D1C60E170E08091650400
:104280000E94791C89E696E00E948D1C60E170E036
:10429000809169040E94791C8EE596E00E948D1C35
:1042A00060E170E0809167040E94791C82E596E0ED
:1042B0000E948D1CC0E080916704C81778F48C2F91
:1042C00090E049960E94670E60E170E00E94791CC0
:1042D00080E596E00E948D1CCF5FEDCF84E496E0F0
:1042E0000E948D1CC0E080916704C81790F4EC2FE9
:1042F000F0E0EE0FFF1FEE5DFB4F60E170E08081AC
:1043000091810E94511A82E496E00E948D1CCF5F39
:10431000EACF82E396E00E948D1CC2E0D0E0CE019D
:104320000E94670E60E170E00E94791C80E396E0D5
:104330000E948D1C2196C231D10589F78FE196E04C
:104340000E948D1C10E080916A04181718F5C12F87
:10435000D0E0CC0FDD1F80916D047E01E80EF11CD2
:10436000C7010E94670E60E170E00E94791C809195
:104370006D049E01280F311DC90101960E94670E30
:1043800060E170E00E94791C8DE196E00E948D1C36
:104390001F5FD9CF84E196E00E94AE1CC0916B04F0
:1043A000D0916C0410E080916804181708F0C4CE16
:1043B0007E0134E0E30EF11CCE010E94670E60E145
:1043C00070E00E94791C219682E196E00E948D1C8B
:1043D000CE15DF0589F780E196E00E948D1CA12EA5
:1043E000B12CAA0CBB1CC0E0D0E0FE01EA0DFB1D05
:1043F000E652FC4F60E170E0808191810E94511A89
:104400008EE096E00E948D1C6296C834D10569F753
:1044100088E096E00E948D1CE701909169048C2F42
:104420008E19891768F4CE010E94670E60E170E072
:104430000E94791C219686E096E00E948D1CEDCFAB
:104440000E94D1191F5FAFCFF89489E0E0E0F0E05F
:10445000809357003491E3E0F0E08093570024917B
:10446000E2E0F0E0809357009491E1E0F0E0809387
:10447000570084917894C1E03F3F09F4C0E02C35A7
:1044800009F0CE5FE2E0E90FE23020F0CC5F8F3F31
:1044900019F406C08F3F11F0C85F02C0CC2369F148
:1044A0008091FF02811102C0C1E014C087EB96E049
:1044B0000E948D1C6AE070E08C2F0E94791C88E2BB
:1044C00092E00E94D51968EE73E080E090E00E94CF
:1044D0003A0DECCF8D2D8C278170D82E682F80E07F
:1044E0000E94920C6D2D81E00E94920C64EF71E0AD
:1044F00080E090E00E943A0DEDCF81E792E090934A
:104500003403809333036AE18EE594E00E94E10E68
:1045100090E09093FC028093FB02C5ECD2E011E0A6
:10452000612F8EE594E00E94E10E90E09B838A83E8
:1045300061E0610F8EE594E00E94E10E90E09D83C2
:104540008C8362E0610F8EE594E00E94E10E90E0C2
:104550009F838E838091FF028823F1F08AE292E0AC
:104560000E94E1198A819B810E94631C81E492E090
:104570000E94E1198C819D810E94631C88E592E074
:104580000E94E1198E819F819C01220F331F820FAF
:10459000931F44960E94631C1D5F2696193109F0F3
:1045A000BFCF0E942B128091FF02882321F081EB64
:1045B00096E00E94AE1C22242394312C412C512CD5
:1045C000320143940E94150D6093390370933A03AE
:1045D00080933B0390933C03009135031091360385
:1045E00020913703309138036B017C01C01AD10A46
:1045F000E20AF30A49EEC41643E0D406E104F104EA
:1046000048F40E9465138091D5048823C9F10E9463
:104610002B1236C0609335037093360380933703B3
:1046200090933803C0E0D1E00E94A91E837021F16D
:10463000ABC380918A048093980580918B0480930A
:10464000990580918C0480939A0580918D048093C4
:104650009B0540939605809187048111BFC38CED23
:1046600096E00E94AE1C1092970580911C059091D7
:104670001D05892B09F4B9C3C13019F2C1E0D4CFAB
:104680008091330390913403092E000CAA0BBB0BCD
:104690004091390350913A0360913B0370913C0380
:1046A00084179507A607B70708F07CC2C090C4021C
:1046B000D12C56019FEFA91AB90A8501077011275D
:1046C000F801E05FFE4FF08061E08F2D0E94920CB8
:1046D000F601E85FFE4FC0818C2F0E94FE0C8C2FEC
:1046E0000E94FE0CEC018091000190910101803E3E
:1046F000E1E09E07C8F49601220F331FF901E05054
:10470000FD4FD901AD5DBC4F2D913C91AE01421BD7
:10471000530B20813181240F351F31832083019673
:1047200090930101809300018091C30290E0A8164C
:10473000B90609F048C00E94150D4AE00E94E3192D
:1047400083E692E00E94E1198091C40290E06AE061
:1047500070E001960E94511A83E692E00E94E119EE
:104760008091C2026AE070E00E94791C83E692E0C8
:104770000E94E119E091C402F0E0EE0FFF1FED5D31
:10478000FC4F6AE070E0808191810E94511A83E6BB
:1047900092E00E94E1196AE070E0CE010E94511A95
:1047A00083E692E00E94E119E091C402F0E0EE0F8E
:1047B000FF1FED5DFC4F808191816E01C81AD90AFF
:1047C000C6010E94631C9091C402292F30E0A90108
:1047D000440F551FFA01ED5DFC4F0190F081E02D73
:1047E0002F5F3F4FB901660F771F260F371F6E01EE
:1047F000CE1ADF0AD901AA0FBB1FAB53BD4F6D9173
:104800007C91DB01AA0FBB1F6A0F7B1F6C5E7F4F81
:104810006C157D050CF09BC0EC17FD070CF097C0E4
:10482000FA01ED5EFC4F6081718177FF03C0318238
:104830002082A1C1220F331FD901AF53BD4F2D914B
:104840003C916217730709F496C16F5F7F4F7183C4
:1048500060836217730709F08EC1E92FE695E6952C
:10486000E695F0E0EE0FFF1FE550FD4F208131810E
:10487000092E02C0359527950A94E2F7690181E077
:10488000C822DD2420FF19C02091C20230E0092E89
:1048900002C0359527950A94E2F720FD6CC18091FE
:1048A000C20253014201092E04C0880C991CAA1CA3
:1048B000BB1C0A94D2F7882A19C02091C20230E0AA
:1048C000092E02C0359527950A94E2F720FF53C1BF
:1048D0008091C20253014201092E04C0880C991C28
:1048E000AA1CBB1C0A94D2F7809488228092C20230
:1048F0002091C20230E002C0359527959A95E2F7E3
:104900009091B102FA01EE54FD4F6081718181E016
:1049100020FF05C0911180E00E94301C04C091115D
:1049200080E00E94FD1B8091C20290916704993142
:1049300028F090E090935504809354048091FF02F6
:10494000882309F418C1CD2809F49EC0A0C0FA013B
:10495000ED5EFC4F60817181161617061CF4118202
:10496000108209C1220F331FD901AD53BD4F2D91C4
:104970003C91AA27BB27A61BB70BA217B30709F4C4
:10498000FAC0DB011197B183A0836101C61AD70A6F
:10499000C216D30609F0EFC0E92FE695E695E69535
:1049A000F0E0EE0FFF1FE550FD4F20813181092E11
:1049B00002C0359527950A94E2F7690181E0C82283
:1049C000DD2420FF1AC02091C20230E0092E02C06F
:1049D000359527950A94E2F720FFCDC08091C20259
:1049E00053014201092E04C0880C991CAA1CBB1C4F
:1049F0000A94D2F78094882218C02091C20230E035
:104A0000092E02C0359527950A94E2F720FDB3C020
:104A10008091C20253014201092E04C0880C991CE6
:104A2000AA1CBB1C0A94D2F7882A8092C202209149
:104A3000C20230E002C0359527959A95E2F7909131
:104A4000B102FA01EE54FD4F6081718181E020FFD7
:104A500005C0911180E00E94301C04C0911180E0DB
:104A60000E94FD1B8091C20290916704993128F049
:104A700090E090935504809354048091FF02882322
:104A800009F479C0CD2819F086EA91E002C08AEADB
:104A900091E00E94E1198EEA91E00E94E119809173
:104AA000C40290E06AE070E001960E94511A83E629
:104AB00092E00E94E119E091C402F0E0EE0FFF1FC6
:104AC000ED5DFC4F6AE070E0808191810E94511A97
:104AD00083E692E00E94E1196AE070E0CE010E9454
:104AE000511A83E692E00E94E119E091C402F0E0DD
:104AF000EE0FFF1FED5DFC4F808191816AE070E059
:104B0000FE01E81BF90BCF010E94511A88EB91E0DE
:104B10000E94E119E091C402F0E0EE0FFF1FEE5495
:104B2000FD4F808191810E944B1A82E692E00E94A3
:104B3000E1198091C20290E00090C40202C09595F4
:104B400087950A94E2F780FD03C086EA91E002C0EF
:104B50008AEA91E00E94E1198091B102811103C0BB
:104B600089E791E002C082E791E00E94E11981ECBF
:104B700091E00E94D5190093C402F801E85FFE4F4E
:104B8000C0818C2F0E94FE0C8C2F0E94FE0C000F07
:104B9000111FF801ED5DFC4F9183808360E08F2D44
:104BA0000E94920C8091220590912305039759F45D
:104BB000369909C00E94740D6131774281059105D3
:104BC00010F00E943C1D8091000190910101803EF7
:104BD00091400CF4D6C08FEF9FEF9093010180932A
:104BE0000001C0E0D3E0E12CF12C44E1842E912CB3
:104BF0003FEFE31AF30A0091110310E00E211F2189
:104C00000E151F0509F0ACC08091100387FF14C07A
:104C1000888199814E966CE370E00E94EE294CE009
:104C2000469FC001479F900D11246AE070E00E94EA
:104C3000EE296C5E7F4F10C0888199814E966CE39F
:104C400070E00E94EE29E3E1E69FC001E79F900D2E
:104C50001124B4010E94EE29798368838091FF02B8
:104C60008823C9F085E692E00E94E1196AE070E0CD
:104C7000C8010E94511A8DE692E00E94E11983E674
:104C800092E00E94E119888199810E944B1A83E683
:104C900092E00E94E11988819981449710F49982E9
:104CA000888288819981449763E070E00E94EE29B0
:104CB0006115710519F07983688302C039822882F1
:104CC000888199818F3F910528F03EEFC32ED12C2A
:104CD000D982C8826801CC0CDD1CC00ED11E48816F
:104CE000842F99815601AA0CBB1CF501EB53FD4F93
:104CF000208131812817390799F191838083602FB2
:104D0000660F600F8091D104861720F08EE594E045
:104D10000E94970E8091FF02882311F18DE792E0A7
:104D20000E94E11983E692E00E94E119F501EB533C
:104D3000FD4F6AE070E0808191810E94511A83E604
:104D400092E00E94E1196AE070E0C6010E94511AE7
:104D500083E692E00E94E1198FE892E00E94E11957
:104D60001992199228E0E216F10409F041CF10924D
:104D700011038091FF02882321F086EA92E00E94CD
:104D8000D5190E941F0B1ECC0E94A91EC11108C07C
:104D900080FF74CC81E60E94271E40E061E007C0DE
:104DA00081FF6ACC81E70E94271E40E062E08CE22E
:104DB0000E94891A40917E0480E090E020917E0458
:104DC00030E0821793070CF034CCFC01E45AFB4F1F
:104DD00023A1E05CFE4F20830196F0CF88EC96E0A3
:104DE0000E94AE1CD093970540CC81E090E0909358
:104DF0001D0580931C0580911A0590911B05CC9789
:104E000024F010921B0510921A05E6E9F5E0809156
:104E10001A0590911B052191DC01A252BB4F2C93E6
:104E2000019690931B0580931A058091200590911F
:104E300021050196909321058093200525E0E53A10
:104E4000F20729F7CD97BCF080911E0590911F05C0
:104E50000F968C3391052CF490931F0580931E05BB
:104E600004C010921F0510921E058CE390E09093F1
:104E700021058093200510921D0510921C05FCCB86
:104E80006F927F928F929F92AF92BF92CF92DF925A
:104E9000EF92FF920F931F93CF93DF93CDB7DEB7BF
:104EA000C654D1090FB6F894DEBF0FBECDBF109225
:104EB000400310923F0388EE93E0A0E0B0E08093BF
:104EC000410390934203A0934303B09344038CE1C6
:104ED00091E090933E0380933D0385EC90E09093A6
:104EE0004A038093490384EC90E090934C038093B1
:104EF0004B0380EC90E090934E0380934D0381EC44
:104F000090E09093500380934F0382EC90E0909355
:104F100052038093510386EC90E090935403809366
:104F20005303109256031092570310925803109295
:104F300059038EE491E090935D0480935C0486E3D2
:104F400091E090935F0480935E0486E491E09093F7
:104F50009A048093990489E994E00E94520E8EE3AA
:104F600091E09093BE048093BD04E2ECF4E080E312
:104F7000819394E0EA3CF907D9F78EE291E09093AF
:104F8000DD048093DC0410921B0510921A05109228
:104F90001D0510921C0510921F0510921E051092FF
:104FA0002105109220051092D2041092A80587E1E5
:104FB000FE013196A9E7B4E001900D928A95E1F7E0
:104FC0008CE3FE013396AEEDB4E001900D928A952C
:104FD000E1F786E391E09A8389838DE18A8789E00E
:104FE0008B8781E08C878D8786E3888B88E390E0D0
:104FF0009F878E8781E090E00E94082A9C838B83A4
:10500000CE0101960E941F11CE0101960E94EE1161
:1050100052E2E52E54E0F52E10E0612FCE0101960C
:105020000E94E10E90E0F701819391937F011F5F51
:105030001D3199F7EB8478843AED832E33E0932E7B
:105040004EEFA42E43E0B42ECC84D12CF4E0CF0E4E
:10505000D11C0E851F85F12C66246394198A1A8A47
:105060001B8A1C8A1B8EEF1410F07F1410F46B8EB9
:1050700013C0C8010E94670E898BC80101960E9467
:10508000670E8A8BC80102960E94670E8B8BC8013F
:1050900003960E94670E8C8B898990E0F4018193BE
:1050A00091934F018A8990E0918B808B8B8990E05E
:1050B000F501819391935F018C8990E0918B808BB6
:1050C000F3940C0D1D1DF9E0FF12C8CF8B819C815C
:1050D00090936104809360048D81809362048E813B
:1050E0009F81909364048093630488858093650412
:1050F0008985809366048A8580936704E0926804BA
:105100008C85809369048D8580936A048E859F8544
:1051100090936C0480936B04888980936D048989D3
:105120009A89AB89BC8980936E0490936F04A09395
:105130007004B09371048D89809372048E899F8965
:105140009093740480937304888D80937504898D83
:10515000809376048A8D809377048B8D8093780476
:10516000CE0101960E94FB0BFE013696CE010E96F3
:1051700020E32193E817F907E1F78B818093BF04BF
:105180008C819D819093C1048093C00488E0FE01CE
:105190003696A2ECB4E001900D928A95E1F78E85E7
:1051A0008093CA048F858093CB0488898093CC0434
:1051B00089898093CD048A898093CE0489E0809385
:1051C000CF048DE18093D10411E01093D00486E4E4
:1051D00091E09A838983CE0101960E94520E8B81C1
:1051E00080939B048C8180939C048D8180939D048B
:1051F0008E8180939E048F8198859093A0048093E4
:105200009F0489859A859093A2048093A1048B853D
:105210009C859093A4048093A3048D859E85909390
:10522000A6048093A5048F8598899093A804809301
:10523000A70489899A899093AA048093A9048B89E9
:105240008093AB0488E0FE017496ACEAB4E0019070
:105250000D928A95E1F78C8D9D8DAE8DBF8D8093DB
:10526000B4049093B504A093B604B093B70488A196
:105270008093B80489A19AA19093BA048093B90449
:105280008BA18093BB048CA18093BC048091D20439
:1052900081608093D2041092D3040FEF0093AE0587
:1052A0000093AF051093B0051092B1050E94740DE4
:1052B0006093B2057093B3058093B4059093B505E0
:1052C0001092AA051092A9051092B9051092B8057E
:1052D0001092D4041093D5040093B6051093B7052B
:1052E0008CE291E0A0E0B0E08093D6049093D704E4
:1052F000A093D804B093D9048EE594E00E94EE11F7
:105300008091630490E0982F882720916404822B79
:1053100090937404809373049093C1048093C004A9
:10532000809162048093BF04809172048093CC04C6
:105330001093900483E090E09093230580932205DE
:10534000CA5BDF4F0FB6F894DEBF0FBECDBFDF9153
:10535000CF911F910F91FF90EF90DF90CF90BF9072
:10536000AF909F908F907F906F900895F999FECFA6
:1053700092BD81BDF89A992780B50895262FF99995
:10538000FECF1FBA92BD81BD20BD0FB6F894FA9A28
:10539000F99A0FBE01960895A1E21A2EAA1BBB1B13
:1053A000FD010DC0AA1FBB1FEE1FFF1FA217B307F1
:1053B000E407F50720F0A21BB30BE40BF50B661F07
:1053C000771F881F991F1A9469F7609570958095CB
:1053D00090959B01AC01BD01CF010895AA1BBB1B99
:1053E00051E107C0AA1FBB1FA617B70710F0A61BE5
:1053F000B70B881F991F5A95A9F780959095BC0106
:10540000CD010895EE0FFF1F0590F491E02D099452
:10541000CF93DF938230910510F482E090E0E09129
:10542000C005F091C10520E030E0C0E0D0E0309749
:1054300011F14081518148175907C0F048175907A9
:1054400061F482819381209719F09B838A832BC01A
:105450009093C1058093C00526C02115310519F030
:105460004217530718F49A01BE01DF01EF010280D1
:10547000F381E02DDCCF2115310509F1281B390B13
:105480002430310590F412968D919C9113976115FB
:10549000710521F0FB019383828304C09093C105C1
:1054A0008093C005FD01329644C0FD01E20FF31F59
:1054B00081939193225031092D933C933AC02091CE
:1054C000BE053091BF05232B41F42091040130919A
:1054D00005013093BF052093BE0520910201309154
:1054E00003012115310541F42DB73EB74091060166
:1054F00050910701241B350BE091BE05F091BF05CB
:10550000E217F307A0F42E1B3F0B2817390778F09A
:10551000AC014E5F5F4F2417350748F04E0F5F1FF9
:105520005093BF054093BE058193919302C0E0E084
:10553000F0E0CF01DF91CF9108950F931F93CF93A8
:10554000DF93009709F48CC0FC013297138212821A
:105550000091C0051091C1050115110581F420814C
:105560003181820F931F2091BE053091BF0528170E
:10557000390779F5F093BF05E093BE0571C0D801F6
:1055800040E050E0AE17BF0750F412962D913C91C9
:105590001397AD012115310509F1D901F3CF9D0113
:1055A000DA013383228360817181860F971F82170E
:1055B000930769F4EC0128813981260F371F2E5F8C
:1055C0003F4F318320838A819B8193838283452B44
:1055D00029F4F093C105E093C00542C01396FC93F3
:1055E000EE931297ED01499159919E01240F351FB9
:1055F000E217F30771F480819181840F951F029661
:1056000011969C938E938281938113969C938E9393
:105610001297E0E0F0E0D80112968D919C911397DB
:10562000009719F0F8018C01F6CF8D919C919801AB
:105630002E5F3F4F820F931F2091BE053091BF0513
:105640002817390769F4309729F41092C105109290
:10565000C00502C0138212821093BF050093BE05DD
:10566000DF91CF911F910F91089581E090E0F89420
:105670000C943A2B15E0CDE1D5E004C0FE010E9468
:0E568000022A2196CE31D107C9F7F894FFCF48
:10568E00FFFF0000C20580001514131211100F0E3B
:10569E00020304050607080900000000B60A1F0AE7
:1056AE004E0AFD0A7F0A5D0A710A000000002A12E6
:1056BE00F50B00000000FB0B070C00000000640E51
:1056CE00F90B00000000630EF70B0000000018122B
:1056DE0020124D6573736167654E6F64654E756D0F
:1056EE0062657220002020496E744E6F64654944D5
:1056FE0020002073686F727400206C6F6E67005507
:10570E007365725F46756E6374696F6E3A200045FD
:10571E0076656E744D6174636820004576656E74AF
:10572E005661723A20004175730045696E00205330
:10573E00656E736F723A200020204576656E742078
:10574E000020676573656E646574004F50433A20A0
:10575E0000204E6F64653A20002043616E49443A42
:10576E002000204D65737361676553697A653A2031
:10577E00002053746174653A200045696E6D65733F
:10578E0073656E206765737461727465740041523F
:10579E0044555F4952002A004172647549522056A1
:1057AE00657273696F6E2000210045696E736368C0
:1057BE00616C747665727A6F65676572756E672057
:1057CE0000417573736368616C747665727A6F6588
:1057DE00676572756E67200053636877656C6C65DC
:1057EE00200020200053656E736F722000205363DB
:1057FE006877656C6C656E776572742000205661F3
:10580E007256616C75655B692A332B335D200067B8
:10581E0065737065696368657274200020427974DF
:08582E0065733A000D0A000049
:00000001FF
